{
	"my-contracts/BundleExecutor.sol": {
		"UniArbMultiCall": {
			"abi": [
				{
					"inputs": [
						{
							"internalType": "address",
							"name": "initialOwner",
							"type": "address"
						},
						{
							"internalType": "address",
							"name": "_poolAddressesProvider",
							"type": "address"
						}
					],
					"stateMutability": "payable",
					"type": "constructor"
				},
				{
					"anonymous": false,
					"inputs": [
						{
							"indexed": true,
							"internalType": "address",
							"name": "previousOwner",
							"type": "address"
						},
						{
							"indexed": true,
							"internalType": "address",
							"name": "newOwner",
							"type": "address"
						}
					],
					"name": "OwnershipTransferred",
					"type": "event"
				},
				{
					"inputs": [],
					"name": "ADDRESSES_PROVIDER",
					"outputs": [
						{
							"internalType": "contract IPoolAddressesProvider",
							"name": "",
							"type": "address"
						}
					],
					"stateMutability": "view",
					"type": "function"
				},
				{
					"inputs": [],
					"name": "POOL",
					"outputs": [
						{
							"internalType": "contract IPool",
							"name": "",
							"type": "address"
						}
					],
					"stateMutability": "view",
					"type": "function"
				},
				{
					"inputs": [
						{
							"internalType": "address payable",
							"name": "_to",
							"type": "address"
						},
						{
							"internalType": "uint256",
							"name": "_value",
							"type": "uint256"
						},
						{
							"internalType": "bytes",
							"name": "_data",
							"type": "bytes"
						}
					],
					"name": "call",
					"outputs": [
						{
							"internalType": "bytes",
							"name": "",
							"type": "bytes"
						}
					],
					"stateMutability": "payable",
					"type": "function"
				},
				{
					"inputs": [
						{
							"internalType": "address",
							"name": "asset",
							"type": "address"
						},
						{
							"internalType": "uint256",
							"name": "amount",
							"type": "uint256"
						},
						{
							"internalType": "uint256",
							"name": "premium",
							"type": "uint256"
						},
						{
							"internalType": "address",
							"name": "initiator",
							"type": "address"
						},
						{
							"internalType": "bytes",
							"name": "params",
							"type": "bytes"
						}
					],
					"name": "executeOperation",
					"outputs": [
						{
							"internalType": "bool",
							"name": "",
							"type": "bool"
						}
					],
					"stateMutability": "nonpayable",
					"type": "function"
				},
				{
					"inputs": [
						{
							"internalType": "address",
							"name": "_pairAddress",
							"type": "address"
						}
					],
					"name": "getReservesByPair",
					"outputs": [
						{
							"internalType": "uint256",
							"name": "reserve0",
							"type": "uint256"
						},
						{
							"internalType": "uint256",
							"name": "reserve1",
							"type": "uint256"
						},
						{
							"internalType": "uint256",
							"name": "blockTimestampLast",
							"type": "uint256"
						}
					],
					"stateMutability": "view",
					"type": "function"
				},
				{
					"inputs": [],
					"name": "owner",
					"outputs": [
						{
							"internalType": "address",
							"name": "",
							"type": "address"
						}
					],
					"stateMutability": "view",
					"type": "function"
				},
				{
					"inputs": [
						{
							"internalType": "address",
							"name": "_tokenAddress",
							"type": "address"
						},
						{
							"internalType": "uint256",
							"name": "_amount",
							"type": "uint256"
						}
					],
					"name": "receiveTokens",
					"outputs": [],
					"stateMutability": "nonpayable",
					"type": "function"
				},
				{
					"inputs": [],
					"name": "renounceOwnership",
					"outputs": [],
					"stateMutability": "nonpayable",
					"type": "function"
				},
				{
					"inputs": [
						{
							"internalType": "address payable",
							"name": "_to",
							"type": "address"
						},
						{
							"internalType": "uint256",
							"name": "_amount",
							"type": "uint256"
						}
					],
					"name": "transferEther",
					"outputs": [],
					"stateMutability": "payable",
					"type": "function"
				},
				{
					"inputs": [
						{
							"internalType": "address",
							"name": "newOwner",
							"type": "address"
						}
					],
					"name": "transferOwnership",
					"outputs": [],
					"stateMutability": "nonpayable",
					"type": "function"
				},
				{
					"inputs": [
						{
							"internalType": "address",
							"name": "_tokenAddress",
							"type": "address"
						},
						{
							"internalType": "address",
							"name": "_to",
							"type": "address"
						},
						{
							"internalType": "uint256",
							"name": "_amount",
							"type": "uint256"
						}
					],
					"name": "transferToken",
					"outputs": [],
					"stateMutability": "nonpayable",
					"type": "function"
				},
				{
					"inputs": [
						{
							"internalType": "uint256",
							"name": "_wethAmountToFirstMarket",
							"type": "uint256"
						},
						{
							"internalType": "uint256",
							"name": "_ethAmountToCoinbase",
							"type": "uint256"
						},
						{
							"internalType": "address[]",
							"name": "_targets",
							"type": "address[]"
						},
						{
							"internalType": "bytes[]",
							"name": "_payloads",
							"type": "bytes[]"
						}
					],
					"name": "uniswapWeth",
					"outputs": [],
					"stateMutability": "payable",
					"type": "function"
				},
				{
					"stateMutability": "payable",
					"type": "receive"
				}
			],
			"devdoc": {
				"kind": "dev",
				"methods": {
					"executeOperation(address,uint256,uint256,address,bytes)": {
						"details": "Ensure that the contract can return the debt + premium, e.g., has      enough funds to repay and has approved the Pool to pull the total amount",
						"params": {
							"amount": "The amount of the flash-borrowed asset",
							"asset": "The address of the flash-borrowed asset",
							"initiator": "The address of the flashloan initiator",
							"params": "The byte-encoded params passed when initiating the flashloan",
							"premium": "The fee of the flash-borrowed asset"
						},
						"returns": {
							"_0": "True if the execution of the operation succeeds, false otherwise"
						}
					},
					"owner()": {
						"details": "Returns the address of the current owner."
					},
					"renounceOwnership()": {
						"details": "Leaves the contract without owner. It will not be possible to call `onlyOwner` functions. Can only be called by the current owner. NOTE: Renouncing ownership will leave the contract without an owner, thereby disabling any functionality that is only available to the owner."
					},
					"transferOwnership(address)": {
						"details": "Transfers ownership of the contract to a new account (`newOwner`). Can only be called by the current owner."
					}
				},
				"version": 1
			},
			"evm": {
				"assembly": "    /* \"my-contracts/BundleExecutor.sol\":347:6746  contract UniArbMultiCall is Ownable, FlashLoanSimpleReceiverBase {... */\n  mstore(0x40, 0xc0)\n    /* \"my-contracts/BundleExecutor.sol\":512:826  constructor(address initialOwner, address _poolAddressesProvider)... */\n  mload(0x40)\n  sub(codesize, bytecodeSize)\n  dup1\n  bytecodeSize\n  dup4\n  codecopy\n  dup2\n  dup2\n  add\n  0x40\n  mstore\n  dup2\n  add\n  swap1\n  tag_1\n  swap2\n  swap1\n  tag_2\n  jump\t// in\ntag_1:\n    /* \"my-contracts/BundleExecutor.sol\":666:688  _poolAddressesProvider */\n  dup1\n    /* \"my-contracts/BundleExecutor.sol\":716:728  initialOwner */\n  dup3\n    /* \"my-contracts/access/Ownable.sol\":994:995  0 */\n  0x00\n    /* \"my-contracts/access/Ownable.sol\":970:996  initialOwner != address(0) */\n  0xffffffffffffffffffffffffffffffffffffffff\n  and\n    /* \"my-contracts/access/Ownable.sol\":970:982  initialOwner */\n  dup2\n    /* \"my-contracts/access/Ownable.sol\":970:996  initialOwner != address(0) */\n  0xffffffffffffffffffffffffffffffffffffffff\n  and\n  eq\n  iszero\n    /* \"my-contracts/access/Ownable.sol\":962:1031  require(initialOwner != address(0), \"Ownable: invalid owner address\") */\n  tag_7\n  jumpi\n  mload(0x40)\n  0x08c379a000000000000000000000000000000000000000000000000000000000\n  dup2\n  mstore\n  0x04\n  add\n  tag_8\n  swap1\n  tag_9\n  jump\t// in\ntag_8:\n  mload(0x40)\n  dup1\n  swap2\n  sub\n  swap1\n  revert\ntag_7:\n    /* \"my-contracts/access/Ownable.sol\":1037:1069  _transferOwnership(initialOwner) */\n  tag_10\n    /* \"my-contracts/access/Ownable.sol\":1056:1068  initialOwner */\n  dup2\n    /* \"my-contracts/access/Ownable.sol\":1037:1055  _transferOwnership */\n  shl(0x20, tag_11)\n    /* \"my-contracts/access/Ownable.sol\":1037:1069  _transferOwnership(initialOwner) */\n  0x20\n  shr\n  jump\t// in\ntag_10:\n    /* \"my-contracts/access/Ownable.sol\":922:1074  constructor(address initialOwner) {... */\n  pop\n    /* \"my-contracts/flashloan/base/FlashLoanSimpleReceiverBase.sol\":673:681  provider */\n  dup1\n    /* \"my-contracts/flashloan/base/FlashLoanSimpleReceiverBase.sol\":652:681  ADDRESSES_PROVIDER = provider */\n  0xffffffffffffffffffffffffffffffffffffffff\n  and\n  0x80\n  dup2\n  0xffffffffffffffffffffffffffffffffffffffff\n  and\n  dup2\n  mstore\n  pop\n  pop\n    /* \"my-contracts/flashloan/base/FlashLoanSimpleReceiverBase.sol\":700:708  provider */\n  dup1\n    /* \"my-contracts/flashloan/base/FlashLoanSimpleReceiverBase.sol\":700:716  provider.getPool */\n  0xffffffffffffffffffffffffffffffffffffffff\n  and\n  0x026b1d5f\n    /* \"my-contracts/flashloan/base/FlashLoanSimpleReceiverBase.sol\":700:718  provider.getPool() */\n  mload(0x40)\n  dup2\n  0xffffffff\n  and\n  0xe0\n  shl\n  dup2\n  mstore\n  0x04\n  add\n  0x20\n  mload(0x40)\n  dup1\n  dup4\n  sub\n  dup2\n  dup7\n  gas\n  staticcall\n  iszero\n  dup1\n  iszero\n  tag_14\n  jumpi\n  returndatasize\n  0x00\n  dup1\n  returndatacopy\n  revert(0x00, returndatasize)\ntag_14:\n  pop\n  pop\n  pop\n  pop\n  mload(0x40)\n  returndatasize\n  not(0x1f)\n  0x1f\n  dup3\n  add\n  and\n  dup3\n  add\n  dup1\n  0x40\n  mstore\n  pop\n  dup2\n  add\n  swap1\n  tag_15\n  swap2\n  swap1\n  tag_16\n  jump\t// in\ntag_15:\n    /* \"my-contracts/flashloan/base/FlashLoanSimpleReceiverBase.sol\":687:719  POOL = IPool(provider.getPool()) */\n  0xffffffffffffffffffffffffffffffffffffffff\n  and\n  0xa0\n  dup2\n  0xffffffffffffffffffffffffffffffffffffffff\n  and\n  dup2\n  mstore\n  pop\n  pop\n    /* \"my-contracts/flashloan/base/FlashLoanSimpleReceiverBase.sol\":601:724  constructor(IPoolAddressesProvider provider) {... */\n  pop\n    /* \"my-contracts/BundleExecutor.sol\":760:761  0 */\n  0x00\n    /* \"my-contracts/BundleExecutor.sol\":748:757  msg.value */\n  callvalue\n    /* \"my-contracts/BundleExecutor.sol\":748:761  msg.value > 0 */\n  gt\n    /* \"my-contracts/BundleExecutor.sol\":744:820  if (msg.value > 0) {... */\n  iszero\n  tag_18\n  jumpi\n    /* \"my-contracts/BundleExecutor.sol\":462:504  0xC02aaA39b223FE8D0A0e5C4F27eAD9083C756Cc2 */\n  0xc02aaa39b223fe8d0a0e5c4f27ead9083c756cc2\n    /* \"my-contracts/BundleExecutor.sol\":777:789  WETH.deposit */\n  0xffffffffffffffffffffffffffffffffffffffff\n  and\n  0xd0e30db0\n    /* \"my-contracts/BundleExecutor.sol\":797:806  msg.value */\n  callvalue\n    /* \"my-contracts/BundleExecutor.sol\":777:809  WETH.deposit{value: msg.value}() */\n  mload(0x40)\n  dup3\n  0xffffffff\n  and\n  0xe0\n  shl\n  dup2\n  mstore\n  0x04\n  add\n  0x00\n  mload(0x40)\n  dup1\n  dup4\n  sub\n  dup2\n  dup6\n  dup9\n  dup1\n  extcodesize\n  iszero\n  dup1\n  iszero\n  tag_19\n  jumpi\n  0x00\n  dup1\n  revert\ntag_19:\n  pop\n  gas\n  call\n  iszero\n  dup1\n  iszero\n  tag_21\n  jumpi\n  returndatasize\n  0x00\n  dup1\n  returndatacopy\n  revert(0x00, returndatasize)\ntag_21:\n  pop\n  pop\n  pop\n  pop\n  pop\n    /* \"my-contracts/BundleExecutor.sol\":744:820  if (msg.value > 0) {... */\ntag_18:\n    /* \"my-contracts/BundleExecutor.sol\":512:826  constructor(address initialOwner, address _poolAddressesProvider)... */\n  pop\n  pop\n    /* \"my-contracts/BundleExecutor.sol\":347:6746  contract UniArbMultiCall is Ownable, FlashLoanSimpleReceiverBase {... */\n  jump(tag_22)\n    /* \"my-contracts/access/Ownable.sol\":2423:2596  function _transferOwnership(address newOwner) internal virtual {... */\ntag_11:\n    /* \"my-contracts/access/Ownable.sol\":2492:2508  address oldOwner */\n  0x00\n    /* \"my-contracts/access/Ownable.sol\":2511:2517  _owner */\n  dup1\n  0x00\n  swap1\n  sload\n  swap1\n  0x0100\n  exp\n  swap1\n  div\n  0xffffffffffffffffffffffffffffffffffffffff\n  and\n    /* \"my-contracts/access/Ownable.sol\":2492:2517  address oldOwner = _owner */\n  swap1\n  pop\n    /* \"my-contracts/access/Ownable.sol\":2532:2540  newOwner */\n  dup2\n    /* \"my-contracts/access/Ownable.sol\":2523:2529  _owner */\n  0x00\n  dup1\n    /* \"my-contracts/access/Ownable.sol\":2523:2540  _owner = newOwner */\n  0x0100\n  exp\n  dup2\n  sload\n  dup2\n  0xffffffffffffffffffffffffffffffffffffffff\n  mul\n  not\n  and\n  swap1\n  dup4\n  0xffffffffffffffffffffffffffffffffffffffff\n  and\n  mul\n  or\n  swap1\n  sstore\n  pop\n    /* \"my-contracts/access/Ownable.sol\":2582:2590  newOwner */\n  dup2\n    /* \"my-contracts/access/Ownable.sol\":2551:2591  OwnershipTransferred(oldOwner, newOwner) */\n  0xffffffffffffffffffffffffffffffffffffffff\n  and\n    /* \"my-contracts/access/Ownable.sol\":2572:2580  oldOwner */\n  dup2\n    /* \"my-contracts/access/Ownable.sol\":2551:2591  OwnershipTransferred(oldOwner, newOwner) */\n  0xffffffffffffffffffffffffffffffffffffffff\n  and\n  0x8be0079c531659141344cd1fd0a4f28419497f9722a3daafe3b4186f6b6457e0\n  mload(0x40)\n  mload(0x40)\n  dup1\n  swap2\n  sub\n  swap1\n  log3\n    /* \"my-contracts/access/Ownable.sol\":2486:2596  {... */\n  pop\n    /* \"my-contracts/access/Ownable.sol\":2423:2596  function _transferOwnership(address newOwner) internal virtual {... */\n  pop\n  jump\t// out\n    /* \"#utility.yul\":88:205   */\ntag_25:\n    /* \"#utility.yul\":197:198   */\n  0x00\n    /* \"#utility.yul\":194:195   */\n  dup1\n    /* \"#utility.yul\":187:199   */\n  revert\n    /* \"#utility.yul\":334:460   */\ntag_27:\n    /* \"#utility.yul\":371:378   */\n  0x00\n    /* \"#utility.yul\":411:453   */\n  0xffffffffffffffffffffffffffffffffffffffff\n    /* \"#utility.yul\":404:409   */\n  dup3\n    /* \"#utility.yul\":400:454   */\n  and\n    /* \"#utility.yul\":389:454   */\n  swap1\n  pop\n    /* \"#utility.yul\":334:460   */\n  swap2\n  swap1\n  pop\n  jump\t// out\n    /* \"#utility.yul\":466:562   */\ntag_28:\n    /* \"#utility.yul\":503:510   */\n  0x00\n    /* \"#utility.yul\":532:556   */\n  tag_40\n    /* \"#utility.yul\":550:555   */\n  dup3\n    /* \"#utility.yul\":532:556   */\n  tag_27\n  jump\t// in\ntag_40:\n    /* \"#utility.yul\":521:556   */\n  swap1\n  pop\n    /* \"#utility.yul\":466:562   */\n  swap2\n  swap1\n  pop\n  jump\t// out\n    /* \"#utility.yul\":568:690   */\ntag_29:\n    /* \"#utility.yul\":641:665   */\n  tag_42\n    /* \"#utility.yul\":659:664   */\n  dup2\n    /* \"#utility.yul\":641:665   */\n  tag_28\n  jump\t// in\ntag_42:\n    /* \"#utility.yul\":634:639   */\n  dup2\n    /* \"#utility.yul\":631:666   */\n  eq\n    /* \"#utility.yul\":621:684   */\n  tag_43\n  jumpi\n    /* \"#utility.yul\":680:681   */\n  0x00\n    /* \"#utility.yul\":677:678   */\n  dup1\n    /* \"#utility.yul\":670:682   */\n  revert\n    /* \"#utility.yul\":621:684   */\ntag_43:\n    /* \"#utility.yul\":568:690   */\n  pop\n  jump\t// out\n    /* \"#utility.yul\":696:839   */\ntag_30:\n    /* \"#utility.yul\":753:758   */\n  0x00\n    /* \"#utility.yul\":784:790   */\n  dup2\n    /* \"#utility.yul\":778:791   */\n  mload\n    /* \"#utility.yul\":769:791   */\n  swap1\n  pop\n    /* \"#utility.yul\":800:833   */\n  tag_45\n    /* \"#utility.yul\":827:832   */\n  dup2\n    /* \"#utility.yul\":800:833   */\n  tag_29\n  jump\t// in\ntag_45:\n    /* \"#utility.yul\":696:839   */\n  swap3\n  swap2\n  pop\n  pop\n  jump\t// out\n    /* \"#utility.yul\":845:1352   */\ntag_2:\n    /* \"#utility.yul\":924:930   */\n  0x00\n    /* \"#utility.yul\":932:938   */\n  dup1\n    /* \"#utility.yul\":981:983   */\n  0x40\n    /* \"#utility.yul\":969:978   */\n  dup4\n    /* \"#utility.yul\":960:967   */\n  dup6\n    /* \"#utility.yul\":956:979   */\n  sub\n    /* \"#utility.yul\":952:984   */\n  slt\n    /* \"#utility.yul\":949:1068   */\n  iszero\n  tag_47\n  jumpi\n    /* \"#utility.yul\":987:1066   */\n  tag_48\n  tag_25\n  jump\t// in\ntag_48:\n    /* \"#utility.yul\":949:1068   */\ntag_47:\n    /* \"#utility.yul\":1107:1108   */\n  0x00\n    /* \"#utility.yul\":1132:1196   */\n  tag_49\n    /* \"#utility.yul\":1188:1195   */\n  dup6\n    /* \"#utility.yul\":1179:1185   */\n  dup3\n    /* \"#utility.yul\":1168:1177   */\n  dup7\n    /* \"#utility.yul\":1164:1186   */\n  add\n    /* \"#utility.yul\":1132:1196   */\n  tag_30\n  jump\t// in\ntag_49:\n    /* \"#utility.yul\":1122:1196   */\n  swap3\n  pop\n    /* \"#utility.yul\":1078:1206   */\n  pop\n    /* \"#utility.yul\":1245:1247   */\n  0x20\n    /* \"#utility.yul\":1271:1335   */\n  tag_50\n    /* \"#utility.yul\":1327:1334   */\n  dup6\n    /* \"#utility.yul\":1318:1324   */\n  dup3\n    /* \"#utility.yul\":1307:1316   */\n  dup7\n    /* \"#utility.yul\":1303:1325   */\n  add\n    /* \"#utility.yul\":1271:1335   */\n  tag_30\n  jump\t// in\ntag_50:\n    /* \"#utility.yul\":1261:1335   */\n  swap2\n  pop\n    /* \"#utility.yul\":1216:1345   */\n  pop\n    /* \"#utility.yul\":845:1352   */\n  swap3\n  pop\n  swap3\n  swap1\n  pop\n  jump\t// out\n    /* \"#utility.yul\":1358:1527   */\ntag_31:\n    /* \"#utility.yul\":1442:1453   */\n  0x00\n    /* \"#utility.yul\":1476:1482   */\n  dup3\n    /* \"#utility.yul\":1471:1474   */\n  dup3\n    /* \"#utility.yul\":1464:1483   */\n  mstore\n    /* \"#utility.yul\":1516:1520   */\n  0x20\n    /* \"#utility.yul\":1511:1514   */\n  dup3\n    /* \"#utility.yul\":1507:1521   */\n  add\n    /* \"#utility.yul\":1492:1521   */\n  swap1\n  pop\n    /* \"#utility.yul\":1358:1527   */\n  swap3\n  swap2\n  pop\n  pop\n  jump\t// out\n    /* \"#utility.yul\":1533:1713   */\ntag_32:\n    /* \"#utility.yul\":1673:1705   */\n  0x4f776e61626c653a20696e76616c6964206f776e657220616464726573730000\n    /* \"#utility.yul\":1669:1670   */\n  0x00\n    /* \"#utility.yul\":1661:1667   */\n  dup3\n    /* \"#utility.yul\":1657:1671   */\n  add\n    /* \"#utility.yul\":1650:1706   */\n  mstore\n    /* \"#utility.yul\":1533:1713   */\n  pop\n  jump\t// out\n    /* \"#utility.yul\":1719:2085   */\ntag_33:\n    /* \"#utility.yul\":1861:1864   */\n  0x00\n    /* \"#utility.yul\":1882:1949   */\n  tag_54\n    /* \"#utility.yul\":1946:1948   */\n  0x1e\n    /* \"#utility.yul\":1941:1944   */\n  dup4\n    /* \"#utility.yul\":1882:1949   */\n  tag_31\n  jump\t// in\ntag_54:\n    /* \"#utility.yul\":1875:1949   */\n  swap2\n  pop\n    /* \"#utility.yul\":1958:2051   */\n  tag_55\n    /* \"#utility.yul\":2047:2050   */\n  dup3\n    /* \"#utility.yul\":1958:2051   */\n  tag_32\n  jump\t// in\ntag_55:\n    /* \"#utility.yul\":2076:2078   */\n  0x20\n    /* \"#utility.yul\":2071:2074   */\n  dup3\n    /* \"#utility.yul\":2067:2079   */\n  add\n    /* \"#utility.yul\":2060:2079   */\n  swap1\n  pop\n    /* \"#utility.yul\":1719:2085   */\n  swap2\n  swap1\n  pop\n  jump\t// out\n    /* \"#utility.yul\":2091:2510   */\ntag_9:\n    /* \"#utility.yul\":2257:2261   */\n  0x00\n    /* \"#utility.yul\":2295:2297   */\n  0x20\n    /* \"#utility.yul\":2284:2293   */\n  dup3\n    /* \"#utility.yul\":2280:2298   */\n  add\n    /* \"#utility.yul\":2272:2298   */\n  swap1\n  pop\n    /* \"#utility.yul\":2344:2353   */\n  dup2\n    /* \"#utility.yul\":2338:2342   */\n  dup2\n    /* \"#utility.yul\":2334:2354   */\n  sub\n    /* \"#utility.yul\":2330:2331   */\n  0x00\n    /* \"#utility.yul\":2319:2328   */\n  dup4\n    /* \"#utility.yul\":2315:2332   */\n  add\n    /* \"#utility.yul\":2308:2355   */\n  mstore\n    /* \"#utility.yul\":2372:2503   */\n  tag_57\n    /* \"#utility.yul\":2498:2502   */\n  dup2\n    /* \"#utility.yul\":2372:2503   */\n  tag_33\n  jump\t// in\ntag_57:\n    /* \"#utility.yul\":2364:2503   */\n  swap1\n  pop\n    /* \"#utility.yul\":2091:2510   */\n  swap2\n  swap1\n  pop\n  jump\t// out\n    /* \"#utility.yul\":2516:2867   */\ntag_16:\n    /* \"#utility.yul\":2586:2592   */\n  0x00\n    /* \"#utility.yul\":2635:2637   */\n  0x20\n    /* \"#utility.yul\":2623:2632   */\n  dup3\n    /* \"#utility.yul\":2614:2621   */\n  dup5\n    /* \"#utility.yul\":2610:2633   */\n  sub\n    /* \"#utility.yul\":2606:2638   */\n  slt\n    /* \"#utility.yul\":2603:2722   */\n  iszero\n  tag_59\n  jumpi\n    /* \"#utility.yul\":2641:2720   */\n  tag_60\n  tag_25\n  jump\t// in\ntag_60:\n    /* \"#utility.yul\":2603:2722   */\ntag_59:\n    /* \"#utility.yul\":2761:2762   */\n  0x00\n    /* \"#utility.yul\":2786:2850   */\n  tag_61\n    /* \"#utility.yul\":2842:2849   */\n  dup5\n    /* \"#utility.yul\":2833:2839   */\n  dup3\n    /* \"#utility.yul\":2822:2831   */\n  dup6\n    /* \"#utility.yul\":2818:2840   */\n  add\n    /* \"#utility.yul\":2786:2850   */\n  tag_30\n  jump\t// in\ntag_61:\n    /* \"#utility.yul\":2776:2850   */\n  swap2\n  pop\n    /* \"#utility.yul\":2732:2860   */\n  pop\n    /* \"#utility.yul\":2516:2867   */\n  swap3\n  swap2\n  pop\n  pop\n  jump\t// out\n    /* \"my-contracts/BundleExecutor.sol\":347:6746  contract UniArbMultiCall is Ownable, FlashLoanSimpleReceiverBase {... */\ntag_22:\n  mload(0x80)\n  mload(0xa0)\n  codecopy(0x00, dataOffset(sub_0), dataSize(sub_0))\n  0x00\n  assignImmutable(\"0xcaddae7de0e690128d0cbf5a90a47608fa09f2a2f2213577d71fa9c3669606a2\")\n  0x00\n  assignImmutable(\"0x5d067998675a77797d9e4eec202a19ba43752dfad25ff4a095c1eece7914d0a3\")\n  return(0x00, dataSize(sub_0))\nstop\n\nsub_0: assembly {\n        /* \"my-contracts/BundleExecutor.sol\":347:6746  contract UniArbMultiCall is Ownable, FlashLoanSimpleReceiverBase {... */\n      mstore(0x40, 0x80)\n      jumpi(tag_1, lt(calldatasize, 0x04))\n      shr(0xe0, calldataload(0x00))\n      dup1\n      0x715018a6\n      gt\n      tag_15\n      jumpi\n      dup1\n      0x715018a6\n      eq\n      tag_9\n      jumpi\n      dup1\n      0x7535d246\n      eq\n      tag_10\n      jumpi\n      dup1\n      0x8da5cb5b\n      eq\n      tag_11\n      jumpi\n      dup1\n      0xecd494b3\n      eq\n      tag_12\n      jumpi\n      dup1\n      0xf2fde38b\n      eq\n      tag_13\n      jumpi\n      dup1\n      0xf5537ede\n      eq\n      tag_14\n      jumpi\n      jump(tag_2)\n    tag_15:\n      dup1\n      0x0542975c\n      eq\n      tag_3\n      jumpi\n      dup1\n      0x05b1137b\n      eq\n      tag_4\n      jumpi\n      dup1\n      0x1b11d0ff\n      eq\n      tag_5\n      jumpi\n      dup1\n      0x2fefb2be\n      eq\n      tag_6\n      jumpi\n      dup1\n      0x35729130\n      eq\n      tag_7\n      jumpi\n      dup1\n      0x6dbf2fa0\n      eq\n      tag_8\n      jumpi\n      jump(tag_2)\n    tag_1:\n      jumpi(tag_2, calldatasize)\n      stop\n    tag_2:\n      0x00\n      dup1\n      revert\n        /* \"my-contracts/flashloan/base/FlashLoanSimpleReceiverBase.sol\":489:556  IPoolAddressesProvider public immutable override ADDRESSES_PROVIDER */\n    tag_3:\n      callvalue\n      dup1\n      iszero\n      tag_18\n      jumpi\n      0x00\n      dup1\n      revert\n    tag_18:\n      pop\n      tag_19\n      tag_20\n      jump\t// in\n    tag_19:\n      mload(0x40)\n      tag_21\n      swap2\n      swap1\n      tag_22\n      jump\t// in\n    tag_21:\n      mload(0x40)\n      dup1\n      swap2\n      sub\n      swap1\n      return\n        /* \"my-contracts/BundleExecutor.sol\":5499:5985  function transferEther(address payable _to, uint256 _amount)... */\n    tag_4:\n      tag_23\n      0x04\n      dup1\n      calldatasize\n      sub\n      dup2\n      add\n      swap1\n      tag_24\n      swap2\n      swap1\n      tag_25\n      jump\t// in\n    tag_24:\n      tag_26\n      jump\t// in\n    tag_23:\n      stop\n        /* \"my-contracts/BundleExecutor.sol\":3508:4596  function executeOperation(... */\n    tag_5:\n      callvalue\n      dup1\n      iszero\n      tag_27\n      jumpi\n      0x00\n      dup1\n      revert\n    tag_27:\n      pop\n      tag_28\n      0x04\n      dup1\n      calldatasize\n      sub\n      dup2\n      add\n      swap1\n      tag_29\n      swap2\n      swap1\n      tag_30\n      jump\t// in\n    tag_29:\n      tag_31\n      jump\t// in\n    tag_28:\n      mload(0x40)\n      tag_32\n      swap2\n      swap1\n      tag_33\n      jump\t// in\n    tag_32:\n      mload(0x40)\n      dup1\n      swap2\n      sub\n      swap1\n      return\n        /* \"my-contracts/BundleExecutor.sol\":832:1180  function getReservesByPair(address _pairAddress)... */\n    tag_6:\n      callvalue\n      dup1\n      iszero\n      tag_34\n      jumpi\n      0x00\n      dup1\n      revert\n    tag_34:\n      pop\n      tag_35\n      0x04\n      dup1\n      calldatasize\n      sub\n      dup2\n      add\n      swap1\n      tag_36\n      swap2\n      swap1\n      tag_37\n      jump\t// in\n    tag_36:\n      tag_38\n      jump\t// in\n    tag_35:\n      mload(0x40)\n      tag_39\n      swap4\n      swap3\n      swap2\n      swap1\n      tag_40\n      jump\t// in\n    tag_39:\n      mload(0x40)\n      dup1\n      swap2\n      sub\n      swap1\n      return\n        /* \"my-contracts/BundleExecutor.sol\":1221:1666  function receiveTokens(address _tokenAddress, uint256 _amount) public {... */\n    tag_7:\n      callvalue\n      dup1\n      iszero\n      tag_41\n      jumpi\n      0x00\n      dup1\n      revert\n    tag_41:\n      pop\n      tag_42\n      0x04\n      dup1\n      calldatasize\n      sub\n      dup2\n      add\n      swap1\n      tag_43\n      swap2\n      swap1\n      tag_44\n      jump\t// in\n    tag_43:\n      tag_45\n      jump\t// in\n    tag_42:\n      stop\n        /* \"my-contracts/BundleExecutor.sol\":6392:6744  function call(... */\n    tag_8:\n      tag_46\n      0x04\n      dup1\n      calldatasize\n      sub\n      dup2\n      add\n      swap1\n      tag_47\n      swap2\n      swap1\n      tag_48\n      jump\t// in\n    tag_47:\n      tag_49\n      jump\t// in\n    tag_46:\n      mload(0x40)\n      tag_50\n      swap2\n      swap1\n      tag_51\n      jump\t// in\n    tag_50:\n      mload(0x40)\n      dup1\n      swap2\n      sub\n      swap1\n      return\n        /* \"my-contracts/access/Ownable.sol\":1861:1956  function renounceOwnership() public virtual onlyOwner {... */\n    tag_9:\n      callvalue\n      dup1\n      iszero\n      tag_52\n      jumpi\n      0x00\n      dup1\n      revert\n    tag_52:\n      pop\n      tag_53\n      tag_54\n      jump\t// in\n    tag_53:\n      stop\n        /* \"my-contracts/flashloan/base/FlashLoanSimpleReceiverBase.sol\":560:596  IPool public immutable override POOL */\n    tag_10:\n      callvalue\n      dup1\n      iszero\n      tag_55\n      jumpi\n      0x00\n      dup1\n      revert\n    tag_55:\n      pop\n      tag_56\n      tag_57\n      jump\t// in\n    tag_56:\n      mload(0x40)\n      tag_58\n      swap2\n      swap1\n      tag_59\n      jump\t// in\n    tag_58:\n      mload(0x40)\n      dup1\n      swap2\n      sub\n      swap1\n      return\n        /* \"my-contracts/access/Ownable.sol\":1274:1353  function owner() public view virtual returns (address) {... */\n    tag_11:\n      callvalue\n      dup1\n      iszero\n      tag_60\n      jumpi\n      0x00\n      dup1\n      revert\n    tag_60:\n      pop\n      tag_61\n      tag_62\n      jump\t// in\n    tag_61:\n      mload(0x40)\n      tag_63\n      swap2\n      swap1\n      tag_64\n      jump\t// in\n    tag_63:\n      mload(0x40)\n      dup1\n      swap2\n      sub\n      swap1\n      return\n        /* \"my-contracts/BundleExecutor.sol\":1754:3062  function uniswapWeth(... */\n    tag_12:\n      tag_65\n      0x04\n      dup1\n      calldatasize\n      sub\n      dup2\n      add\n      swap1\n      tag_66\n      swap2\n      swap1\n      tag_67\n      jump\t// in\n    tag_66:\n      tag_68\n      jump\t// in\n    tag_65:\n      stop\n        /* \"my-contracts/access/Ownable.sol\":2095:2279  function transferOwnership(address newOwner) public virtual onlyOwner {... */\n    tag_13:\n      callvalue\n      dup1\n      iszero\n      tag_69\n      jumpi\n      0x00\n      dup1\n      revert\n    tag_69:\n      pop\n      tag_70\n      0x04\n      dup1\n      calldatasize\n      sub\n      dup2\n      add\n      swap1\n      tag_71\n      swap2\n      swap1\n      tag_37\n      jump\t// in\n    tag_71:\n      tag_72\n      jump\t// in\n    tag_70:\n      stop\n        /* \"my-contracts/BundleExecutor.sol\":6032:6386  function transferToken(... */\n    tag_14:\n      callvalue\n      dup1\n      iszero\n      tag_73\n      jumpi\n      0x00\n      dup1\n      revert\n    tag_73:\n      pop\n      tag_74\n      0x04\n      dup1\n      calldatasize\n      sub\n      dup2\n      add\n      swap1\n      tag_75\n      swap2\n      swap1\n      tag_76\n      jump\t// in\n    tag_75:\n      tag_77\n      jump\t// in\n    tag_74:\n      stop\n        /* \"my-contracts/flashloan/base/FlashLoanSimpleReceiverBase.sol\":489:556  IPoolAddressesProvider public immutable override ADDRESSES_PROVIDER */\n    tag_20:\n      immutable(\"0x5d067998675a77797d9e4eec202a19ba43752dfad25ff4a095c1eece7914d0a3\")\n      dup2\n      jump\t// out\n        /* \"my-contracts/BundleExecutor.sol\":5499:5985  function transferEther(address payable _to, uint256 _amount)... */\n    tag_26:\n        /* \"my-contracts/access/Ownable.sol\":1181:1194  _checkOwner() */\n      tag_79\n        /* \"my-contracts/access/Ownable.sol\":1181:1192  _checkOwner */\n      tag_80\n        /* \"my-contracts/access/Ownable.sol\":1181:1194  _checkOwner() */\n      jump\t// in\n    tag_79:\n        /* \"my-contracts/BundleExecutor.sol\":5648:5649  0 */\n      0x00\n        /* \"my-contracts/BundleExecutor.sol\":5633:5650  _to != address(0) */\n      0xffffffffffffffffffffffffffffffffffffffff\n      and\n        /* \"my-contracts/BundleExecutor.sol\":5633:5636  _to */\n      dup3\n        /* \"my-contracts/BundleExecutor.sol\":5633:5650  _to != address(0) */\n      0xffffffffffffffffffffffffffffffffffffffff\n      and\n      eq\n      iszero\n        /* \"my-contracts/BundleExecutor.sol\":5625:5687  require(_to != address(0), \"Recipient address cannot be zero\") */\n      tag_82\n      jumpi\n      mload(0x40)\n      0x08c379a000000000000000000000000000000000000000000000000000000000\n      dup2\n      mstore\n      0x04\n      add\n      tag_83\n      swap1\n      tag_84\n      jump\t// in\n    tag_83:\n      mload(0x40)\n      dup1\n      swap2\n      sub\n      swap1\n      revert\n    tag_82:\n        /* \"my-contracts/BundleExecutor.sol\":5715:5716  0 */\n      0x00\n        /* \"my-contracts/BundleExecutor.sol\":5705:5712  _amount */\n      dup2\n        /* \"my-contracts/BundleExecutor.sol\":5705:5716  _amount > 0 */\n      gt\n        /* \"my-contracts/BundleExecutor.sol\":5697:5753  require(_amount > 0, \"Amount must be greater than zero\") */\n      tag_85\n      jumpi\n      mload(0x40)\n      0x08c379a000000000000000000000000000000000000000000000000000000000\n      dup2\n      mstore\n      0x04\n      add\n      tag_86\n      swap1\n      tag_87\n      jump\t// in\n    tag_86:\n      mload(0x40)\n      dup1\n      swap2\n      sub\n      swap1\n      revert\n    tag_85:\n        /* \"my-contracts/BundleExecutor.sol\":5809:5816  _amount */\n      dup1\n        /* \"my-contracts/BundleExecutor.sol\":5784:5805  address(this).balance */\n      selfbalance\n        /* \"my-contracts/BundleExecutor.sol\":5784:5816  address(this).balance >= _amount */\n      lt\n      iszero\n        /* \"my-contracts/BundleExecutor.sol\":5763:5871  require(... */\n      tag_88\n      jumpi\n      mload(0x40)\n      0x08c379a000000000000000000000000000000000000000000000000000000000\n      dup2\n      mstore\n      0x04\n      add\n      tag_89\n      swap1\n      tag_90\n      jump\t// in\n    tag_89:\n      mload(0x40)\n      dup1\n      swap2\n      sub\n      swap1\n      revert\n    tag_88:\n        /* \"my-contracts/BundleExecutor.sol\":5882:5894  bool success */\n      0x00\n        /* \"my-contracts/BundleExecutor.sol\":5900:5903  _to */\n      dup3\n        /* \"my-contracts/BundleExecutor.sol\":5900:5908  _to.call */\n      0xffffffffffffffffffffffffffffffffffffffff\n      and\n        /* \"my-contracts/BundleExecutor.sol\":5916:5923  _amount */\n      dup3\n        /* \"my-contracts/BundleExecutor.sol\":5900:5928  _to.call{value: _amount}(\"\") */\n      mload(0x40)\n      tag_91\n      swap1\n      tag_92\n      jump\t// in\n    tag_91:\n      0x00\n      mload(0x40)\n      dup1\n      dup4\n      sub\n      dup2\n      dup6\n      dup8\n      gas\n      call\n      swap3\n      pop\n      pop\n      pop\n      returndatasize\n      dup1\n      0x00\n      dup2\n      eq\n      tag_95\n      jumpi\n      mload(0x40)\n      swap2\n      pop\n      and(add(returndatasize, 0x3f), not(0x1f))\n      dup3\n      add\n      0x40\n      mstore\n      returndatasize\n      dup3\n      mstore\n      returndatasize\n      0x00\n      0x20\n      dup5\n      add\n      returndatacopy\n      jump(tag_94)\n    tag_95:\n      0x60\n      swap2\n      pop\n    tag_94:\n      pop\n        /* \"my-contracts/BundleExecutor.sol\":5881:5928  (bool success, ) = _to.call{value: _amount}(\"\") */\n      pop\n      swap1\n      pop\n        /* \"my-contracts/BundleExecutor.sol\":5946:5953  success */\n      dup1\n        /* \"my-contracts/BundleExecutor.sol\":5938:5978  require(success, \"Failed to send Ether\") */\n      tag_96\n      jumpi\n      mload(0x40)\n      0x08c379a000000000000000000000000000000000000000000000000000000000\n      dup2\n      mstore\n      0x04\n      add\n      tag_97\n      swap1\n      tag_98\n      jump\t// in\n    tag_97:\n      mload(0x40)\n      dup1\n      swap2\n      sub\n      swap1\n      revert\n    tag_96:\n        /* \"my-contracts/BundleExecutor.sol\":5615:5985  {... */\n      pop\n        /* \"my-contracts/BundleExecutor.sol\":5499:5985  function transferEther(address payable _to, uint256 _amount)... */\n      pop\n      pop\n      jump\t// out\n        /* \"my-contracts/BundleExecutor.sol\":3508:4596  function executeOperation(... */\n    tag_31:\n        /* \"my-contracts/BundleExecutor.sol\":3697:3701  bool */\n      0x00\n        /* \"my-contracts/BundleExecutor.sol\":3734:3744  msg.sender */\n      caller\n        /* \"my-contracts/BundleExecutor.sol\":3721:3744  initiator == msg.sender */\n      0xffffffffffffffffffffffffffffffffffffffff\n      and\n        /* \"my-contracts/BundleExecutor.sol\":3721:3730  initiator */\n      dup5\n        /* \"my-contracts/BundleExecutor.sol\":3721:3744  initiator == msg.sender */\n      0xffffffffffffffffffffffffffffffffffffffff\n      and\n      eq\n        /* \"my-contracts/BundleExecutor.sol\":3713:3771  require(initiator == msg.sender, \"Unauthorized initiator\") */\n      tag_100\n      jumpi\n      mload(0x40)\n      0x08c379a000000000000000000000000000000000000000000000000000000000\n      dup2\n      mstore\n      0x04\n      add\n      tag_101\n      swap1\n      tag_102\n      jump\t// in\n    tag_101:\n      mload(0x40)\n      dup1\n      swap2\n      sub\n      swap1\n      revert\n    tag_100:\n        /* \"my-contracts/BundleExecutor.sol\":3782:3801  uint256 totalAmount */\n      0x00\n        /* \"my-contracts/BundleExecutor.sol\":3813:3820  premium */\n      dup6\n        /* \"my-contracts/BundleExecutor.sol\":3804:3810  amount */\n      dup8\n        /* \"my-contracts/BundleExecutor.sol\":3804:3820  amount + premium */\n      tag_103\n      swap2\n      swap1\n      tag_104\n      jump\t// in\n    tag_103:\n        /* \"my-contracts/BundleExecutor.sol\":3782:3820  uint256 totalAmount = amount + premium */\n      swap1\n      pop\n        /* \"my-contracts/BundleExecutor.sol\":3845:3871  uint256 _wethBalanceBefore */\n      0x00\n        /* \"my-contracts/BundleExecutor.sol\":3885:3917  uint256 _wethAmountToFirstMarket */\n      dup1\n        /* \"my-contracts/BundleExecutor.sol\":3931:3959  uint256 _ethAmountToCoinbase */\n      0x00\n        /* \"my-contracts/BundleExecutor.sol\":3973:3998  address[] memory _targets */\n      dup1\n        /* \"my-contracts/BundleExecutor.sol\":4012:4036  bytes[] memory _payloads */\n      0x00\n        /* \"my-contracts/BundleExecutor.sol\":4060:4066  params */\n      dup9\n      dup9\n        /* \"my-contracts/BundleExecutor.sol\":4049:4116  abi.decode(params, (uint256, uint256, uint256, address[], bytes[])) */\n      dup2\n      add\n      swap1\n      tag_105\n      swap2\n      swap1\n      tag_106\n      jump\t// in\n    tag_105:\n        /* \"my-contracts/BundleExecutor.sol\":3831:4116  (... */\n      swap5\n      pop\n      swap5\n      pop\n      swap5\n      pop\n      swap5\n      pop\n      swap5\n      pop\n        /* \"my-contracts/BundleExecutor.sol\":4127:4189  _executeTargets(_wethAmountToFirstMarket, _targets, _payloads) */\n      tag_107\n        /* \"my-contracts/BundleExecutor.sol\":4143:4167  _wethAmountToFirstMarket */\n      dup5\n        /* \"my-contracts/BundleExecutor.sol\":4169:4177  _targets */\n      dup4\n        /* \"my-contracts/BundleExecutor.sol\":4179:4188  _payloads */\n      dup4\n        /* \"my-contracts/BundleExecutor.sol\":4127:4142  _executeTargets */\n      tag_108\n        /* \"my-contracts/BundleExecutor.sol\":4127:4189  _executeTargets(_wethAmountToFirstMarket, _targets, _payloads) */\n      jump\t// in\n    tag_107:\n        /* \"my-contracts/BundleExecutor.sol\":4200:4225  uint256 _wethBalanceAfter */\n      0x00\n        /* \"my-contracts/BundleExecutor.sol\":462:504  0xC02aaA39b223FE8D0A0e5C4F27eAD9083C756Cc2 */\n      0xc02aaa39b223fe8d0a0e5c4f27ead9083c756cc2\n        /* \"my-contracts/BundleExecutor.sol\":4228:4242  WETH.balanceOf */\n      0xffffffffffffffffffffffffffffffffffffffff\n      and\n      0x70a08231\n        /* \"my-contracts/BundleExecutor.sol\":4251:4255  this */\n      address\n        /* \"my-contracts/BundleExecutor.sol\":4228:4257  WETH.balanceOf(address(this)) */\n      mload(0x40)\n      dup3\n      0xffffffff\n      and\n      0xe0\n      shl\n      dup2\n      mstore\n      0x04\n      add\n      tag_109\n      swap2\n      swap1\n      tag_64\n      jump\t// in\n    tag_109:\n      0x20\n      mload(0x40)\n      dup1\n      dup4\n      sub\n      dup2\n      dup7\n      gas\n      staticcall\n      iszero\n      dup1\n      iszero\n      tag_111\n      jumpi\n      returndatasize\n      0x00\n      dup1\n      returndatacopy\n      revert(0x00, returndatasize)\n    tag_111:\n      pop\n      pop\n      pop\n      pop\n      mload(0x40)\n      returndatasize\n      not(0x1f)\n      0x1f\n      dup3\n      add\n      and\n      dup3\n      add\n      dup1\n      0x40\n      mstore\n      pop\n      dup2\n      add\n      swap1\n      tag_112\n      swap2\n      swap1\n      tag_113\n      jump\t// in\n    tag_112:\n        /* \"my-contracts/BundleExecutor.sol\":4200:4257  uint256 _wethBalanceAfter = WETH.balanceOf(address(this)) */\n      swap1\n      pop\n        /* \"my-contracts/BundleExecutor.sol\":4443:4454  totalAmount */\n      dup7\n        /* \"my-contracts/BundleExecutor.sol\":4420:4440  _ethAmountToCoinbase */\n      dup5\n        /* \"my-contracts/BundleExecutor.sol\":4399:4417  _wethBalanceBefore */\n      dup8\n        /* \"my-contracts/BundleExecutor.sol\":4399:4440  _wethBalanceBefore + _ethAmountToCoinbase */\n      tag_114\n      swap2\n      swap1\n      tag_104\n      jump\t// in\n    tag_114:\n        /* \"my-contracts/BundleExecutor.sol\":4399:4454  _wethBalanceBefore + _ethAmountToCoinbase + totalAmount */\n      tag_115\n      swap2\n      swap1\n      tag_104\n      jump\t// in\n    tag_115:\n        /* \"my-contracts/BundleExecutor.sol\":4363:4380  _wethBalanceAfter */\n      dup2\n        /* \"my-contracts/BundleExecutor.sol\":4363:4454  _wethBalanceAfter >... */\n      gt\n        /* \"my-contracts/BundleExecutor.sol\":4342:4464  require(... */\n      tag_116\n      jumpi\n      0x00\n      dup1\n      revert\n    tag_116:\n        /* \"my-contracts/BundleExecutor.sol\":4475:4507  _settleEth(_ethAmountToCoinbase) */\n      tag_117\n        /* \"my-contracts/BundleExecutor.sol\":4486:4506  _ethAmountToCoinbase */\n      dup5\n        /* \"my-contracts/BundleExecutor.sol\":4475:4485  _settleEth */\n      tag_118\n        /* \"my-contracts/BundleExecutor.sol\":4475:4507  _settleEth(_ethAmountToCoinbase) */\n      jump\t// in\n    tag_117:\n        /* \"my-contracts/BundleExecutor.sol\":4525:4530  asset */\n      dup14\n        /* \"my-contracts/BundleExecutor.sol\":4518:4539  IERC20(asset).approve */\n      0xffffffffffffffffffffffffffffffffffffffff\n      and\n      0x095ea7b3\n        /* \"my-contracts/BundleExecutor.sol\":4548:4552  POOL */\n      immutable(\"0xcaddae7de0e690128d0cbf5a90a47608fa09f2a2f2213577d71fa9c3669606a2\")\n        /* \"my-contracts/BundleExecutor.sol\":4555:4566  totalAmount */\n      dup10\n        /* \"my-contracts/BundleExecutor.sol\":4518:4567  IERC20(asset).approve(address(POOL), totalAmount) */\n      mload(0x40)\n      dup4\n      0xffffffff\n      and\n      0xe0\n      shl\n      dup2\n      mstore\n      0x04\n      add\n      tag_119\n      swap3\n      swap2\n      swap1\n      tag_120\n      jump\t// in\n    tag_119:\n      0x20\n      mload(0x40)\n      dup1\n      dup4\n      sub\n      dup2\n      0x00\n      dup8\n      gas\n      call\n      iszero\n      dup1\n      iszero\n      tag_122\n      jumpi\n      returndatasize\n      0x00\n      dup1\n      returndatacopy\n      revert(0x00, returndatasize)\n    tag_122:\n      pop\n      pop\n      pop\n      pop\n      mload(0x40)\n      returndatasize\n      not(0x1f)\n      0x1f\n      dup3\n      add\n      and\n      dup3\n      add\n      dup1\n      0x40\n      mstore\n      pop\n      dup2\n      add\n      swap1\n      tag_123\n      swap2\n      swap1\n      tag_124\n      jump\t// in\n    tag_123:\n      pop\n        /* \"my-contracts/BundleExecutor.sol\":4585:4589  true */\n      0x01\n        /* \"my-contracts/BundleExecutor.sol\":4578:4589  return true */\n      swap8\n      pop\n      pop\n      pop\n      pop\n      pop\n      pop\n      pop\n      pop\n        /* \"my-contracts/BundleExecutor.sol\":3508:4596  function executeOperation(... */\n      swap7\n      swap6\n      pop\n      pop\n      pop\n      pop\n      pop\n      pop\n      jump\t// out\n        /* \"my-contracts/BundleExecutor.sol\":832:1180  function getReservesByPair(address _pairAddress)... */\n    tag_38:\n        /* \"my-contracts/BundleExecutor.sol\":941:957  uint256 reserve0 */\n      0x00\n        /* \"my-contracts/BundleExecutor.sol\":971:987  uint256 reserve1 */\n      dup1\n        /* \"my-contracts/BundleExecutor.sol\":1001:1027  uint256 blockTimestampLast */\n      0x00\n        /* \"my-contracts/BundleExecutor.sol\":1052:1071  IUniswapV2Pair pair */\n      dup1\n        /* \"my-contracts/BundleExecutor.sol\":1089:1101  _pairAddress */\n      dup5\n        /* \"my-contracts/BundleExecutor.sol\":1052:1102  IUniswapV2Pair pair = IUniswapV2Pair(_pairAddress) */\n      swap1\n      pop\n        /* \"my-contracts/BundleExecutor.sol\":1155:1159  pair */\n      dup1\n        /* \"my-contracts/BundleExecutor.sol\":1155:1171  pair.getReserves */\n      0xffffffffffffffffffffffffffffffffffffffff\n      and\n      0x0902f1ac\n        /* \"my-contracts/BundleExecutor.sol\":1155:1173  pair.getReserves() */\n      mload(0x40)\n      dup2\n      0xffffffff\n      and\n      0xe0\n      shl\n      dup2\n      mstore\n      0x04\n      add\n      0x60\n      mload(0x40)\n      dup1\n      dup4\n      sub\n      dup2\n      dup7\n      gas\n      staticcall\n      iszero\n      dup1\n      iszero\n      tag_127\n      jumpi\n      returndatasize\n      0x00\n      dup1\n      returndatacopy\n      revert(0x00, returndatasize)\n    tag_127:\n      pop\n      pop\n      pop\n      pop\n      mload(0x40)\n      returndatasize\n      not(0x1f)\n      0x1f\n      dup3\n      add\n      and\n      dup3\n      add\n      dup1\n      0x40\n      mstore\n      pop\n      dup2\n      add\n      swap1\n      tag_128\n      swap2\n      swap1\n      tag_129\n      jump\t// in\n    tag_128:\n        /* \"my-contracts/BundleExecutor.sol\":1112:1173  (reserve0, reserve1, blockTimestampLast) = pair.getReserves() */\n      dup3\n      0xffffffffffffffffffffffffffff\n      and\n      swap3\n      pop\n      dup2\n      0xffffffffffffffffffffffffffff\n      and\n      swap2\n      pop\n      dup1\n      0xffffffff\n      and\n      swap1\n      pop\n      dup1\n      swap5\n      pop\n      dup2\n      swap6\n      pop\n      dup3\n      swap7\n      pop\n      pop\n      pop\n      pop\n        /* \"my-contracts/BundleExecutor.sol\":1042:1180  {... */\n      pop\n        /* \"my-contracts/BundleExecutor.sol\":832:1180  function getReservesByPair(address _pairAddress)... */\n      swap2\n      swap4\n      swap1\n      swap3\n      pop\n      jump\t// out\n        /* \"my-contracts/BundleExecutor.sol\":1221:1666  function receiveTokens(address _tokenAddress, uint256 _amount) public {... */\n    tag_45:\n        /* \"my-contracts/BundleExecutor.sol\":1319:1320  0 */\n      0x00\n        /* \"my-contracts/BundleExecutor.sol\":1309:1316  _amount */\n      dup2\n        /* \"my-contracts/BundleExecutor.sol\":1309:1320  _amount > 0 */\n      gt\n        /* \"my-contracts/BundleExecutor.sol\":1301:1357  require(_amount > 0, \"Amount must be greater than zero\") */\n      tag_131\n      jumpi\n      mload(0x40)\n      0x08c379a000000000000000000000000000000000000000000000000000000000\n      dup2\n      mstore\n      0x04\n      add\n      tag_132\n      swap1\n      tag_87\n      jump\t// in\n    tag_132:\n      mload(0x40)\n      dup1\n      swap2\n      sub\n      swap1\n      revert\n    tag_131:\n        /* \"my-contracts/BundleExecutor.sol\":1368:1380  IERC20 token */\n      0x00\n        /* \"my-contracts/BundleExecutor.sol\":1390:1403  _tokenAddress */\n      dup3\n        /* \"my-contracts/BundleExecutor.sol\":1368:1404  IERC20 token = IERC20(_tokenAddress) */\n      swap1\n      pop\n        /* \"my-contracts/BundleExecutor.sol\":1467:1474  _amount */\n      dup2\n        /* \"my-contracts/BundleExecutor.sol\":1436:1441  token */\n      dup2\n        /* \"my-contracts/BundleExecutor.sol\":1436:1451  token.balanceOf */\n      0xffffffffffffffffffffffffffffffffffffffff\n      and\n      0x70a08231\n        /* \"my-contracts/BundleExecutor.sol\":1452:1462  msg.sender */\n      caller\n        /* \"my-contracts/BundleExecutor.sol\":1436:1463  token.balanceOf(msg.sender) */\n      mload(0x40)\n      dup3\n      0xffffffff\n      and\n      0xe0\n      shl\n      dup2\n      mstore\n      0x04\n      add\n      tag_133\n      swap2\n      swap1\n      tag_64\n      jump\t// in\n    tag_133:\n      0x20\n      mload(0x40)\n      dup1\n      dup4\n      sub\n      dup2\n      dup7\n      gas\n      staticcall\n      iszero\n      dup1\n      iszero\n      tag_135\n      jumpi\n      returndatasize\n      0x00\n      dup1\n      returndatacopy\n      revert(0x00, returndatasize)\n    tag_135:\n      pop\n      pop\n      pop\n      pop\n      mload(0x40)\n      returndatasize\n      not(0x1f)\n      0x1f\n      dup3\n      add\n      and\n      dup3\n      add\n      dup1\n      0x40\n      mstore\n      pop\n      dup2\n      add\n      swap1\n      tag_136\n      swap2\n      swap1\n      tag_113\n      jump\t// in\n    tag_136:\n        /* \"my-contracts/BundleExecutor.sol\":1436:1474  token.balanceOf(msg.sender) >= _amount */\n      lt\n      iszero\n        /* \"my-contracts/BundleExecutor.sol\":1415:1526  require(... */\n      tag_137\n      jumpi\n      mload(0x40)\n      0x08c379a000000000000000000000000000000000000000000000000000000000\n      dup2\n      mstore\n      0x04\n      add\n      tag_138\n      swap1\n      tag_139\n      jump\t// in\n    tag_138:\n      mload(0x40)\n      dup1\n      swap2\n      sub\n      swap1\n      revert\n    tag_137:\n        /* \"my-contracts/BundleExecutor.sol\":1537:1550  bool _success */\n      0x00\n        /* \"my-contracts/BundleExecutor.sol\":1553:1558  token */\n      dup2\n        /* \"my-contracts/BundleExecutor.sol\":1553:1571  token.transferFrom */\n      0xffffffffffffffffffffffffffffffffffffffff\n      and\n      0x23b872dd\n        /* \"my-contracts/BundleExecutor.sol\":1572:1582  msg.sender */\n      caller\n        /* \"my-contracts/BundleExecutor.sol\":1592:1596  this */\n      address\n        /* \"my-contracts/BundleExecutor.sol\":1599:1606  _amount */\n      dup7\n        /* \"my-contracts/BundleExecutor.sol\":1553:1607  token.transferFrom(msg.sender, address(this), _amount) */\n      mload(0x40)\n      dup5\n      0xffffffff\n      and\n      0xe0\n      shl\n      dup2\n      mstore\n      0x04\n      add\n      tag_140\n      swap4\n      swap3\n      swap2\n      swap1\n      tag_141\n      jump\t// in\n    tag_140:\n      0x20\n      mload(0x40)\n      dup1\n      dup4\n      sub\n      dup2\n      0x00\n      dup8\n      gas\n      call\n      iszero\n      dup1\n      iszero\n      tag_143\n      jumpi\n      returndatasize\n      0x00\n      dup1\n      returndatacopy\n      revert(0x00, returndatasize)\n    tag_143:\n      pop\n      pop\n      pop\n      pop\n      mload(0x40)\n      returndatasize\n      not(0x1f)\n      0x1f\n      dup3\n      add\n      and\n      dup3\n      add\n      dup1\n      0x40\n      mstore\n      pop\n      dup2\n      add\n      swap1\n      tag_144\n      swap2\n      swap1\n      tag_124\n      jump\t// in\n    tag_144:\n        /* \"my-contracts/BundleExecutor.sol\":1537:1607  bool _success = token.transferFrom(msg.sender, address(this), _amount) */\n      swap1\n      pop\n        /* \"my-contracts/BundleExecutor.sol\":1625:1633  _success */\n      dup1\n        /* \"my-contracts/BundleExecutor.sol\":1617:1659  require(_success, \"Token transfer failed\") */\n      tag_145\n      jumpi\n      mload(0x40)\n      0x08c379a000000000000000000000000000000000000000000000000000000000\n      dup2\n      mstore\n      0x04\n      add\n      tag_146\n      swap1\n      tag_147\n      jump\t// in\n    tag_146:\n      mload(0x40)\n      dup1\n      swap2\n      sub\n      swap1\n      revert\n    tag_145:\n        /* \"my-contracts/BundleExecutor.sol\":1291:1666  {... */\n      pop\n      pop\n        /* \"my-contracts/BundleExecutor.sol\":1221:1666  function receiveTokens(address _tokenAddress, uint256 _amount) public {... */\n      pop\n      pop\n      jump\t// out\n        /* \"my-contracts/BundleExecutor.sol\":6392:6744  function call(... */\n    tag_49:\n        /* \"my-contracts/BundleExecutor.sol\":6531:6543  bytes memory */\n      0x60\n        /* \"my-contracts/access/Ownable.sol\":1181:1194  _checkOwner() */\n      tag_149\n        /* \"my-contracts/access/Ownable.sol\":1181:1192  _checkOwner */\n      tag_80\n        /* \"my-contracts/access/Ownable.sol\":1181:1194  _checkOwner() */\n      jump\t// in\n    tag_149:\n        /* \"my-contracts/BundleExecutor.sol\":6578:6579  0 */\n      0x00\n        /* \"my-contracts/BundleExecutor.sol\":6563:6580  _to != address(0) */\n      0xffffffffffffffffffffffffffffffffffffffff\n      and\n        /* \"my-contracts/BundleExecutor.sol\":6563:6566  _to */\n      dup6\n        /* \"my-contracts/BundleExecutor.sol\":6563:6580  _to != address(0) */\n      0xffffffffffffffffffffffffffffffffffffffff\n      and\n      eq\n      iszero\n        /* \"my-contracts/BundleExecutor.sol\":6555:6581  require(_to != address(0)) */\n      tag_151\n      jumpi\n      0x00\n      dup1\n      revert\n    tag_151:\n        /* \"my-contracts/BundleExecutor.sol\":6592:6605  bool _success */\n      0x00\n        /* \"my-contracts/BundleExecutor.sol\":6607:6627  bytes memory _result */\n      dup1\n        /* \"my-contracts/BundleExecutor.sol\":6631:6634  _to */\n      dup7\n        /* \"my-contracts/BundleExecutor.sol\":6631:6639  _to.call */\n      0xffffffffffffffffffffffffffffffffffffffff\n      and\n        /* \"my-contracts/BundleExecutor.sol\":6647:6653  _value */\n      dup7\n        /* \"my-contracts/BundleExecutor.sol\":6655:6660  _data */\n      dup7\n      dup7\n        /* \"my-contracts/BundleExecutor.sol\":6631:6661  _to.call{value: _value}(_data) */\n      mload(0x40)\n      tag_152\n      swap3\n      swap2\n      swap1\n      tag_153\n      jump\t// in\n    tag_152:\n      0x00\n      mload(0x40)\n      dup1\n      dup4\n      sub\n      dup2\n      dup6\n      dup8\n      gas\n      call\n      swap3\n      pop\n      pop\n      pop\n      returndatasize\n      dup1\n      0x00\n      dup2\n      eq\n      tag_156\n      jumpi\n      mload(0x40)\n      swap2\n      pop\n      and(add(returndatasize, 0x3f), not(0x1f))\n      dup3\n      add\n      0x40\n      mstore\n      returndatasize\n      dup3\n      mstore\n      returndatasize\n      0x00\n      0x20\n      dup5\n      add\n      returndatacopy\n      jump(tag_155)\n    tag_156:\n      0x60\n      swap2\n      pop\n    tag_155:\n      pop\n        /* \"my-contracts/BundleExecutor.sol\":6591:6661  (bool _success, bytes memory _result) = _to.call{value: _value}(_data) */\n      swap2\n      pop\n      swap2\n      pop\n        /* \"my-contracts/BundleExecutor.sol\":6679:6687  _success */\n      dup2\n        /* \"my-contracts/BundleExecutor.sol\":6671:6713  require(_success, \"Call execution failed\") */\n      tag_157\n      jumpi\n      mload(0x40)\n      0x08c379a000000000000000000000000000000000000000000000000000000000\n      dup2\n      mstore\n      0x04\n      add\n      tag_158\n      swap1\n      tag_159\n      jump\t// in\n    tag_158:\n      mload(0x40)\n      dup1\n      swap2\n      sub\n      swap1\n      revert\n    tag_157:\n        /* \"my-contracts/BundleExecutor.sol\":6730:6737  _result */\n      dup1\n        /* \"my-contracts/BundleExecutor.sol\":6723:6737  return _result */\n      swap3\n      pop\n      pop\n      pop\n        /* \"my-contracts/BundleExecutor.sol\":6392:6744  function call(... */\n      swap5\n      swap4\n      pop\n      pop\n      pop\n      pop\n      jump\t// out\n        /* \"my-contracts/access/Ownable.sol\":1861:1956  function renounceOwnership() public virtual onlyOwner {... */\n    tag_54:\n        /* \"my-contracts/access/Ownable.sol\":1181:1194  _checkOwner() */\n      tag_161\n        /* \"my-contracts/access/Ownable.sol\":1181:1192  _checkOwner */\n      tag_80\n        /* \"my-contracts/access/Ownable.sol\":1181:1194  _checkOwner() */\n      jump\t// in\n    tag_161:\n        /* \"my-contracts/access/Ownable.sol\":1921:1951  _transferOwnership(address(0)) */\n      tag_163\n        /* \"my-contracts/access/Ownable.sol\":1948:1949  0 */\n      0x00\n        /* \"my-contracts/access/Ownable.sol\":1921:1939  _transferOwnership */\n      tag_164\n        /* \"my-contracts/access/Ownable.sol\":1921:1951  _transferOwnership(address(0)) */\n      jump\t// in\n    tag_163:\n        /* \"my-contracts/access/Ownable.sol\":1861:1956  function renounceOwnership() public virtual onlyOwner {... */\n      jump\t// out\n        /* \"my-contracts/flashloan/base/FlashLoanSimpleReceiverBase.sol\":560:596  IPool public immutable override POOL */\n    tag_57:\n      immutable(\"0xcaddae7de0e690128d0cbf5a90a47608fa09f2a2f2213577d71fa9c3669606a2\")\n      dup2\n      jump\t// out\n        /* \"my-contracts/access/Ownable.sol\":1274:1353  function owner() public view virtual returns (address) {... */\n    tag_62:\n        /* \"my-contracts/access/Ownable.sol\":1320:1327  address */\n      0x00\n        /* \"my-contracts/access/Ownable.sol\":1342:1348  _owner */\n      dup1\n      0x00\n      swap1\n      sload\n      swap1\n      0x0100\n      exp\n      swap1\n      div\n      0xffffffffffffffffffffffffffffffffffffffff\n      and\n        /* \"my-contracts/access/Ownable.sol\":1335:1348  return _owner */\n      swap1\n      pop\n        /* \"my-contracts/access/Ownable.sol\":1274:1353  function owner() public view virtual returns (address) {... */\n      swap1\n      jump\t// out\n        /* \"my-contracts/BundleExecutor.sol\":1754:3062  function uniswapWeth(... */\n    tag_68:\n        /* \"my-contracts/access/Ownable.sol\":1181:1194  _checkOwner() */\n      tag_167\n        /* \"my-contracts/access/Ownable.sol\":1181:1192  _checkOwner */\n      tag_80\n        /* \"my-contracts/access/Ownable.sol\":1181:1194  _checkOwner() */\n      jump\t// in\n    tag_167:\n        /* \"my-contracts/BundleExecutor.sol\":1994:2003  _payloads */\n      dup1\n        /* \"my-contracts/BundleExecutor.sol\":1994:2010  _payloads.length */\n      mload\n        /* \"my-contracts/BundleExecutor.sol\":1975:1983  _targets */\n      dup3\n        /* \"my-contracts/BundleExecutor.sol\":1975:1990  _targets.length */\n      mload\n        /* \"my-contracts/BundleExecutor.sol\":1975:2010  _targets.length == _payloads.length */\n      eq\n        /* \"my-contracts/BundleExecutor.sol\":1967:2011  require(_targets.length == _payloads.length) */\n      tag_169\n      jumpi\n      0x00\n      dup1\n      revert\n    tag_169:\n        /* \"my-contracts/BundleExecutor.sol\":2022:2048  uint256 _wethBalanceBefore */\n      0x00\n        /* \"my-contracts/BundleExecutor.sol\":462:504  0xC02aaA39b223FE8D0A0e5C4F27eAD9083C756Cc2 */\n      0xc02aaa39b223fe8d0a0e5c4f27ead9083c756cc2\n        /* \"my-contracts/BundleExecutor.sol\":2051:2065  WETH.balanceOf */\n      0xffffffffffffffffffffffffffffffffffffffff\n      and\n      0x70a08231\n        /* \"my-contracts/BundleExecutor.sol\":2074:2078  this */\n      address\n        /* \"my-contracts/BundleExecutor.sol\":2051:2080  WETH.balanceOf(address(this)) */\n      mload(0x40)\n      dup3\n      0xffffffff\n      and\n      0xe0\n      shl\n      dup2\n      mstore\n      0x04\n      add\n      tag_170\n      swap2\n      swap1\n      tag_64\n      jump\t// in\n    tag_170:\n      0x20\n      mload(0x40)\n      dup1\n      dup4\n      sub\n      dup2\n      dup7\n      gas\n      staticcall\n      iszero\n      dup1\n      iszero\n      tag_172\n      jumpi\n      returndatasize\n      0x00\n      dup1\n      returndatacopy\n      revert(0x00, returndatasize)\n    tag_172:\n      pop\n      pop\n      pop\n      pop\n      mload(0x40)\n      returndatasize\n      not(0x1f)\n      0x1f\n      dup3\n      add\n      and\n      dup3\n      add\n      dup1\n      0x40\n      mstore\n      pop\n      dup2\n      add\n      swap1\n      tag_173\n      swap2\n      swap1\n      tag_113\n      jump\t// in\n    tag_173:\n        /* \"my-contracts/BundleExecutor.sol\":2022:2080  uint256 _wethBalanceBefore = WETH.balanceOf(address(this)) */\n      swap1\n      pop\n        /* \"my-contracts/BundleExecutor.sol\":2091:2110  uint256 _wethNeeded */\n      0x00\n        /* \"my-contracts/BundleExecutor.sol\":2140:2158  _wethBalanceBefore */\n      dup2\n        /* \"my-contracts/BundleExecutor.sol\":2113:2137  _wethAmountToFirstMarket */\n      dup7\n        /* \"my-contracts/BundleExecutor.sol\":2113:2158  _wethAmountToFirstMarket > _wethBalanceBefore */\n      gt\n        /* \"my-contracts/BundleExecutor.sol\":2113:2234  _wethAmountToFirstMarket > _wethBalanceBefore... */\n      tag_174\n      jumpi\n        /* \"my-contracts/BundleExecutor.sol\":2233:2234  0 */\n      0x00\n        /* \"my-contracts/BundleExecutor.sol\":2113:2234  _wethAmountToFirstMarket > _wethBalanceBefore... */\n      jump(tag_175)\n    tag_174:\n        /* \"my-contracts/BundleExecutor.sol\":2200:2218  _wethBalanceBefore */\n      dup2\n        /* \"my-contracts/BundleExecutor.sol\":2173:2197  _wethAmountToFirstMarket */\n      dup7\n        /* \"my-contracts/BundleExecutor.sol\":2173:2218  _wethAmountToFirstMarket - _wethBalanceBefore */\n      tag_176\n      swap2\n      swap1\n      tag_177\n      jump\t// in\n    tag_176:\n        /* \"my-contracts/BundleExecutor.sol\":2113:2234  _wethAmountToFirstMarket > _wethBalanceBefore... */\n    tag_175:\n        /* \"my-contracts/BundleExecutor.sol\":2091:2234  uint256 _wethNeeded = _wethAmountToFirstMarket > _wethBalanceBefore... */\n      swap1\n      pop\n        /* \"my-contracts/BundleExecutor.sol\":2263:2264  0 */\n      0x00\n        /* \"my-contracts/BundleExecutor.sol\":2249:2260  _wethNeeded */\n      dup2\n        /* \"my-contracts/BundleExecutor.sol\":2249:2264  _wethNeeded > 0 */\n      gt\n        /* \"my-contracts/BundleExecutor.sol\":2245:3056  if (_wethNeeded > 0) {... */\n      iszero\n      tag_178\n      jumpi\n        /* \"my-contracts/BundleExecutor.sol\":2318:2337  bytes memory params */\n      0x00\n        /* \"my-contracts/BundleExecutor.sol\":2368:2386  _wethBalanceBefore */\n      dup3\n        /* \"my-contracts/BundleExecutor.sol\":2404:2428  _wethAmountToFirstMarket */\n      dup8\n        /* \"my-contracts/BundleExecutor.sol\":2446:2466  _ethAmountToCoinbase */\n      dup8\n        /* \"my-contracts/BundleExecutor.sol\":2484:2492  _targets */\n      dup8\n        /* \"my-contracts/BundleExecutor.sol\":2510:2519  _payloads */\n      dup8\n        /* \"my-contracts/BundleExecutor.sol\":2340:2533  abi.encode(... */\n      add(0x20, mload(0x40))\n      tag_179\n      swap6\n      swap5\n      swap4\n      swap3\n      swap2\n      swap1\n      tag_180\n      jump\t// in\n    tag_179:\n      mload(0x40)\n      0x20\n      dup2\n      dup4\n      sub\n      sub\n      dup2\n      mstore\n      swap1\n      0x40\n      mstore\n        /* \"my-contracts/BundleExecutor.sol\":2318:2533  bytes memory params = abi.encode(... */\n      swap1\n      pop\n        /* \"my-contracts/BundleExecutor.sol\":2585:2640  fn_RequestFlashLoan(address(WETH), _wethNeeded, params) */\n      tag_181\n        /* \"my-contracts/BundleExecutor.sol\":462:504  0xC02aaA39b223FE8D0A0e5C4F27eAD9083C756Cc2 */\n      0xc02aaa39b223fe8d0a0e5c4f27ead9083c756cc2\n        /* \"my-contracts/BundleExecutor.sol\":2620:2631  _wethNeeded */\n      dup4\n        /* \"my-contracts/BundleExecutor.sol\":2633:2639  params */\n      dup4\n        /* \"my-contracts/BundleExecutor.sol\":2585:2604  fn_RequestFlashLoan */\n      tag_182\n        /* \"my-contracts/BundleExecutor.sol\":2585:2640  fn_RequestFlashLoan(address(WETH), _wethNeeded, params) */\n      jump\t// in\n    tag_181:\n        /* \"my-contracts/BundleExecutor.sol\":2266:2651  {... */\n      pop\n        /* \"my-contracts/BundleExecutor.sol\":2245:3056  if (_wethNeeded > 0) {... */\n      jump(tag_183)\n    tag_178:\n        /* \"my-contracts/BundleExecutor.sol\":2671:2733  _executeTargets(_wethAmountToFirstMarket, _targets, _payloads) */\n      tag_184\n        /* \"my-contracts/BundleExecutor.sol\":2687:2711  _wethAmountToFirstMarket */\n      dup7\n        /* \"my-contracts/BundleExecutor.sol\":2713:2721  _targets */\n      dup6\n        /* \"my-contracts/BundleExecutor.sol\":2723:2732  _payloads */\n      dup6\n        /* \"my-contracts/BundleExecutor.sol\":2671:2686  _executeTargets */\n      tag_108\n        /* \"my-contracts/BundleExecutor.sol\":2671:2733  _executeTargets(_wethAmountToFirstMarket, _targets, _payloads) */\n      jump\t// in\n    tag_184:\n        /* \"my-contracts/BundleExecutor.sol\":2748:2773  uint256 _wethBalanceAfter */\n      0x00\n        /* \"my-contracts/BundleExecutor.sol\":462:504  0xC02aaA39b223FE8D0A0e5C4F27eAD9083C756Cc2 */\n      0xc02aaa39b223fe8d0a0e5c4f27ead9083c756cc2\n        /* \"my-contracts/BundleExecutor.sol\":2776:2790  WETH.balanceOf */\n      0xffffffffffffffffffffffffffffffffffffffff\n      and\n      0x70a08231\n        /* \"my-contracts/BundleExecutor.sol\":2799:2803  this */\n      address\n        /* \"my-contracts/BundleExecutor.sol\":2776:2805  WETH.balanceOf(address(this)) */\n      mload(0x40)\n      dup3\n      0xffffffff\n      and\n      0xe0\n      shl\n      dup2\n      mstore\n      0x04\n      add\n      tag_185\n      swap2\n      swap1\n      tag_64\n      jump\t// in\n    tag_185:\n      0x20\n      mload(0x40)\n      dup1\n      dup4\n      sub\n      dup2\n      dup7\n      gas\n      staticcall\n      iszero\n      dup1\n      iszero\n      tag_187\n      jumpi\n      returndatasize\n      0x00\n      dup1\n      returndatacopy\n      revert(0x00, returndatasize)\n    tag_187:\n      pop\n      pop\n      pop\n      pop\n      mload(0x40)\n      returndatasize\n      not(0x1f)\n      0x1f\n      dup3\n      add\n      and\n      dup3\n      add\n      dup1\n      0x40\n      mstore\n      pop\n      dup2\n      add\n      swap1\n      tag_188\n      swap2\n      swap1\n      tag_113\n      jump\t// in\n    tag_188:\n        /* \"my-contracts/BundleExecutor.sol\":2748:2805  uint256 _wethBalanceAfter = WETH.balanceOf(address(this)) */\n      swap1\n      pop\n        /* \"my-contracts/BundleExecutor.sol\":2964:2984  _ethAmountToCoinbase */\n      dup6\n        /* \"my-contracts/BundleExecutor.sol\":2943:2961  _wethBalanceBefore */\n      dup4\n        /* \"my-contracts/BundleExecutor.sol\":2943:2984  _wethBalanceBefore + _ethAmountToCoinbase */\n      tag_189\n      swap2\n      swap1\n      tag_104\n      jump\t// in\n    tag_189:\n        /* \"my-contracts/BundleExecutor.sol\":2923:2940  _wethBalanceAfter */\n      dup2\n        /* \"my-contracts/BundleExecutor.sol\":2923:2984  _wethBalanceAfter > _wethBalanceBefore + _ethAmountToCoinbase */\n      gt\n        /* \"my-contracts/BundleExecutor.sol\":2898:2998  require(... */\n      tag_190\n      jumpi\n      0x00\n      dup1\n      revert\n    tag_190:\n        /* \"my-contracts/BundleExecutor.sol\":3013:3045  _settleEth(_ethAmountToCoinbase) */\n      tag_191\n        /* \"my-contracts/BundleExecutor.sol\":3024:3044  _ethAmountToCoinbase */\n      dup7\n        /* \"my-contracts/BundleExecutor.sol\":3013:3023  _settleEth */\n      tag_118\n        /* \"my-contracts/BundleExecutor.sol\":3013:3045  _settleEth(_ethAmountToCoinbase) */\n      jump\t// in\n    tag_191:\n        /* \"my-contracts/BundleExecutor.sol\":2657:3056  {... */\n      pop\n        /* \"my-contracts/BundleExecutor.sol\":2245:3056  if (_wethNeeded > 0) {... */\n    tag_183:\n        /* \"my-contracts/BundleExecutor.sol\":1957:3062  {... */\n      pop\n      pop\n        /* \"my-contracts/BundleExecutor.sol\":1754:3062  function uniswapWeth(... */\n      pop\n      pop\n      pop\n      pop\n      jump\t// out\n        /* \"my-contracts/access/Ownable.sol\":2095:2279  function transferOwnership(address newOwner) public virtual onlyOwner {... */\n    tag_72:\n        /* \"my-contracts/access/Ownable.sol\":1181:1194  _checkOwner() */\n      tag_193\n        /* \"my-contracts/access/Ownable.sol\":1181:1192  _checkOwner */\n      tag_80\n        /* \"my-contracts/access/Ownable.sol\":1181:1194  _checkOwner() */\n      jump\t// in\n    tag_193:\n        /* \"my-contracts/access/Ownable.sol\":2199:2200  0 */\n      0x00\n        /* \"my-contracts/access/Ownable.sol\":2179:2201  newOwner != address(0) */\n      0xffffffffffffffffffffffffffffffffffffffff\n      and\n        /* \"my-contracts/access/Ownable.sol\":2179:2187  newOwner */\n      dup2\n        /* \"my-contracts/access/Ownable.sol\":2179:2201  newOwner != address(0) */\n      0xffffffffffffffffffffffffffffffffffffffff\n      and\n      eq\n      iszero\n        /* \"my-contracts/access/Ownable.sol\":2171:2240  require(newOwner != address(0), \"Ownable: invalid new owner address\") */\n      tag_195\n      jumpi\n      mload(0x40)\n      0x08c379a000000000000000000000000000000000000000000000000000000000\n      dup2\n      mstore\n      0x04\n      add\n      tag_196\n      swap1\n      tag_197\n      jump\t// in\n    tag_196:\n      mload(0x40)\n      dup1\n      swap2\n      sub\n      swap1\n      revert\n    tag_195:\n        /* \"my-contracts/access/Ownable.sol\":2246:2274  _transferOwnership(newOwner) */\n      tag_198\n        /* \"my-contracts/access/Ownable.sol\":2265:2273  newOwner */\n      dup2\n        /* \"my-contracts/access/Ownable.sol\":2246:2264  _transferOwnership */\n      tag_164\n        /* \"my-contracts/access/Ownable.sol\":2246:2274  _transferOwnership(newOwner) */\n      jump\t// in\n    tag_198:\n        /* \"my-contracts/access/Ownable.sol\":2095:2279  function transferOwnership(address newOwner) public virtual onlyOwner {... */\n      pop\n      jump\t// out\n        /* \"my-contracts/BundleExecutor.sol\":6032:6386  function transferToken(... */\n    tag_77:\n        /* \"my-contracts/access/Ownable.sol\":1181:1194  _checkOwner() */\n      tag_200\n        /* \"my-contracts/access/Ownable.sol\":1181:1192  _checkOwner */\n      tag_80\n        /* \"my-contracts/access/Ownable.sol\":1181:1194  _checkOwner() */\n      jump\t// in\n    tag_200:\n        /* \"my-contracts/BundleExecutor.sol\":6190:6191  0 */\n      0x00\n        /* \"my-contracts/BundleExecutor.sol\":6175:6192  _to != address(0) */\n      0xffffffffffffffffffffffffffffffffffffffff\n      and\n        /* \"my-contracts/BundleExecutor.sol\":6175:6178  _to */\n      dup3\n        /* \"my-contracts/BundleExecutor.sol\":6175:6192  _to != address(0) */\n      0xffffffffffffffffffffffffffffffffffffffff\n      and\n      eq\n      iszero\n        /* \"my-contracts/BundleExecutor.sol\":6167:6229  require(_to != address(0), \"Recipient address cannot be zero\") */\n      tag_202\n      jumpi\n      mload(0x40)\n      0x08c379a000000000000000000000000000000000000000000000000000000000\n      dup2\n      mstore\n      0x04\n      add\n      tag_203\n      swap1\n      tag_84\n      jump\t// in\n    tag_203:\n      mload(0x40)\n      dup1\n      swap2\n      sub\n      swap1\n      revert\n    tag_202:\n        /* \"my-contracts/BundleExecutor.sol\":6239:6251  IERC20 token */\n      0x00\n        /* \"my-contracts/BundleExecutor.sol\":6261:6274  _tokenAddress */\n      dup4\n        /* \"my-contracts/BundleExecutor.sol\":6239:6275  IERC20 token = IERC20(_tokenAddress) */\n      swap1\n      pop\n        /* \"my-contracts/BundleExecutor.sol\":6285:6297  bool success */\n      0x00\n        /* \"my-contracts/BundleExecutor.sol\":6300:6305  token */\n      dup2\n        /* \"my-contracts/BundleExecutor.sol\":6300:6314  token.transfer */\n      0xffffffffffffffffffffffffffffffffffffffff\n      and\n      0xa9059cbb\n        /* \"my-contracts/BundleExecutor.sol\":6315:6318  _to */\n      dup6\n        /* \"my-contracts/BundleExecutor.sol\":6320:6327  _amount */\n      dup6\n        /* \"my-contracts/BundleExecutor.sol\":6300:6328  token.transfer(_to, _amount) */\n      mload(0x40)\n      dup4\n      0xffffffff\n      and\n      0xe0\n      shl\n      dup2\n      mstore\n      0x04\n      add\n      tag_204\n      swap3\n      swap2\n      swap1\n      tag_120\n      jump\t// in\n    tag_204:\n      0x20\n      mload(0x40)\n      dup1\n      dup4\n      sub\n      dup2\n      0x00\n      dup8\n      gas\n      call\n      iszero\n      dup1\n      iszero\n      tag_206\n      jumpi\n      returndatasize\n      0x00\n      dup1\n      returndatacopy\n      revert(0x00, returndatasize)\n    tag_206:\n      pop\n      pop\n      pop\n      pop\n      mload(0x40)\n      returndatasize\n      not(0x1f)\n      0x1f\n      dup3\n      add\n      and\n      dup3\n      add\n      dup1\n      0x40\n      mstore\n      pop\n      dup2\n      add\n      swap1\n      tag_207\n      swap2\n      swap1\n      tag_124\n      jump\t// in\n    tag_207:\n        /* \"my-contracts/BundleExecutor.sol\":6285:6328  bool success = token.transfer(_to, _amount) */\n      swap1\n      pop\n        /* \"my-contracts/BundleExecutor.sol\":6346:6353  success */\n      dup1\n        /* \"my-contracts/BundleExecutor.sol\":6338:6379  require(success, \"Token transfer failed\") */\n      tag_208\n      jumpi\n      mload(0x40)\n      0x08c379a000000000000000000000000000000000000000000000000000000000\n      dup2\n      mstore\n      0x04\n      add\n      tag_209\n      swap1\n      tag_147\n      jump\t// in\n    tag_209:\n      mload(0x40)\n      dup1\n      swap2\n      sub\n      swap1\n      revert\n    tag_208:\n        /* \"my-contracts/BundleExecutor.sol\":6157:6386  {... */\n      pop\n      pop\n        /* \"my-contracts/BundleExecutor.sol\":6032:6386  function transferToken(... */\n      pop\n      pop\n      pop\n      jump\t// out\n        /* \"my-contracts/access/Ownable.sol\":1418:1542  function _checkOwner() internal view virtual {... */\n    tag_80:\n        /* \"my-contracts/access/Ownable.sol\":1488:1500  _msgSender() */\n      tag_211\n        /* \"my-contracts/access/Ownable.sol\":1488:1498  _msgSender */\n      tag_212\n        /* \"my-contracts/access/Ownable.sol\":1488:1500  _msgSender() */\n      jump\t// in\n    tag_211:\n        /* \"my-contracts/access/Ownable.sol\":1477:1500  owner() == _msgSender() */\n      0xffffffffffffffffffffffffffffffffffffffff\n      and\n        /* \"my-contracts/access/Ownable.sol\":1477:1484  owner() */\n      tag_213\n        /* \"my-contracts/access/Ownable.sol\":1477:1482  owner */\n      tag_62\n        /* \"my-contracts/access/Ownable.sol\":1477:1484  owner() */\n      jump\t// in\n    tag_213:\n        /* \"my-contracts/access/Ownable.sol\":1477:1500  owner() == _msgSender() */\n      0xffffffffffffffffffffffffffffffffffffffff\n      and\n      eq\n        /* \"my-contracts/access/Ownable.sol\":1469:1537  require(owner() == _msgSender(), \"Ownable: caller is not the owner\") */\n      tag_214\n      jumpi\n      mload(0x40)\n      0x08c379a000000000000000000000000000000000000000000000000000000000\n      dup2\n      mstore\n      0x04\n      add\n      tag_215\n      swap1\n      tag_216\n      jump\t// in\n    tag_215:\n      mload(0x40)\n      dup1\n      swap2\n      sub\n      swap1\n      revert\n    tag_214:\n        /* \"my-contracts/access/Ownable.sol\":1418:1542  function _checkOwner() internal view virtual {... */\n      jump\t// out\n        /* \"my-contracts/BundleExecutor.sol\":4602:5078  function _executeTargets(... */\n    tag_108:\n        /* \"my-contracts/BundleExecutor.sol\":462:504  0xC02aaA39b223FE8D0A0e5C4F27eAD9083C756Cc2 */\n      0xc02aaa39b223fe8d0a0e5c4f27ead9083c756cc2\n        /* \"my-contracts/BundleExecutor.sol\":4763:4776  WETH.transfer */\n      0xffffffffffffffffffffffffffffffffffffffff\n      and\n      0xa9059cbb\n        /* \"my-contracts/BundleExecutor.sol\":4777:4785  _targets */\n      dup4\n        /* \"my-contracts/BundleExecutor.sol\":4786:4787  0 */\n      0x00\n        /* \"my-contracts/BundleExecutor.sol\":4777:4788  _targets[0] */\n      dup2\n      mload\n      dup2\n      lt\n      tag_218\n      jumpi\n      tag_219\n      tag_220\n      jump\t// in\n    tag_219:\n    tag_218:\n      0x20\n      mul\n      0x20\n      add\n      add\n      mload\n        /* \"my-contracts/BundleExecutor.sol\":4790:4814  _wethAmountToFirstMarket */\n      dup6\n        /* \"my-contracts/BundleExecutor.sol\":4763:4815  WETH.transfer(_targets[0], _wethAmountToFirstMarket) */\n      mload(0x40)\n      dup4\n      0xffffffff\n      and\n      0xe0\n      shl\n      dup2\n      mstore\n      0x04\n      add\n      tag_221\n      swap3\n      swap2\n      swap1\n      tag_120\n      jump\t// in\n    tag_221:\n      0x20\n      mload(0x40)\n      dup1\n      dup4\n      sub\n      dup2\n      0x00\n      dup8\n      gas\n      call\n      iszero\n      dup1\n      iszero\n      tag_223\n      jumpi\n      returndatasize\n      0x00\n      dup1\n      returndatacopy\n      revert(0x00, returndatasize)\n    tag_223:\n      pop\n      pop\n      pop\n      pop\n      mload(0x40)\n      returndatasize\n      not(0x1f)\n      0x1f\n      dup3\n      add\n      and\n      dup3\n      add\n      dup1\n      0x40\n      mstore\n      pop\n      dup2\n      add\n      swap1\n      tag_224\n      swap2\n      swap1\n      tag_124\n      jump\t// in\n    tag_224:\n      pop\n        /* \"my-contracts/BundleExecutor.sol\":4830:4839  uint256 i */\n      0x00\n        /* \"my-contracts/BundleExecutor.sol\":4825:5072  for (uint256 i = 0; i < _targets.length; i++) {... */\n    tag_225:\n        /* \"my-contracts/BundleExecutor.sol\":4849:4857  _targets */\n      dup3\n        /* \"my-contracts/BundleExecutor.sol\":4849:4864  _targets.length */\n      mload\n        /* \"my-contracts/BundleExecutor.sol\":4845:4846  i */\n      dup2\n        /* \"my-contracts/BundleExecutor.sol\":4845:4864  i < _targets.length */\n      lt\n        /* \"my-contracts/BundleExecutor.sol\":4825:5072  for (uint256 i = 0; i < _targets.length; i++) {... */\n      iszero\n      tag_226\n      jumpi\n        /* \"my-contracts/BundleExecutor.sol\":4886:4899  bool _success */\n      0x00\n        /* \"my-contracts/BundleExecutor.sol\":4901:4923  bytes memory _response */\n      dup1\n        /* \"my-contracts/BundleExecutor.sol\":4927:4935  _targets */\n      dup5\n        /* \"my-contracts/BundleExecutor.sol\":4936:4937  i */\n      dup4\n        /* \"my-contracts/BundleExecutor.sol\":4927:4938  _targets[i] */\n      dup2\n      mload\n      dup2\n      lt\n      tag_228\n      jumpi\n      tag_229\n      tag_220\n      jump\t// in\n    tag_229:\n    tag_228:\n      0x20\n      mul\n      0x20\n      add\n      add\n      mload\n        /* \"my-contracts/BundleExecutor.sol\":4927:4943  _targets[i].call */\n      0xffffffffffffffffffffffffffffffffffffffff\n      and\n        /* \"my-contracts/BundleExecutor.sol\":4961:4970  _payloads */\n      dup5\n        /* \"my-contracts/BundleExecutor.sol\":4971:4972  i */\n      dup5\n        /* \"my-contracts/BundleExecutor.sol\":4961:4973  _payloads[i] */\n      dup2\n      mload\n      dup2\n      lt\n      tag_230\n      jumpi\n      tag_231\n      tag_220\n      jump\t// in\n    tag_231:\n    tag_230:\n      0x20\n      mul\n      0x20\n      add\n      add\n      mload\n        /* \"my-contracts/BundleExecutor.sol\":4927:4987  _targets[i].call(... */\n      mload(0x40)\n      tag_232\n      swap2\n      swap1\n      tag_233\n      jump\t// in\n    tag_232:\n      0x00\n      mload(0x40)\n      dup1\n      dup4\n      sub\n      dup2\n      0x00\n      dup7\n      gas\n      call\n      swap2\n      pop\n      pop\n      returndatasize\n      dup1\n      0x00\n      dup2\n      eq\n      tag_236\n      jumpi\n      mload(0x40)\n      swap2\n      pop\n      and(add(returndatasize, 0x3f), not(0x1f))\n      dup3\n      add\n      0x40\n      mstore\n      returndatasize\n      dup3\n      mstore\n      returndatasize\n      0x00\n      0x20\n      dup5\n      add\n      returndatacopy\n      jump(tag_235)\n    tag_236:\n      0x60\n      swap2\n      pop\n    tag_235:\n      pop\n        /* \"my-contracts/BundleExecutor.sol\":4885:4987  (bool _success, bytes memory _response) = _targets[i].call(... */\n      swap2\n      pop\n      swap2\n      pop\n        /* \"my-contracts/BundleExecutor.sol\":5009:5017  _success */\n      dup2\n        /* \"my-contracts/BundleExecutor.sol\":5001:5038  require(_success, \"Swap Call failed\") */\n      tag_237\n      jumpi\n      mload(0x40)\n      0x08c379a000000000000000000000000000000000000000000000000000000000\n      dup2\n      mstore\n      0x04\n      add\n      tag_238\n      swap1\n      tag_239\n      jump\t// in\n    tag_238:\n      mload(0x40)\n      dup1\n      swap2\n      sub\n      swap1\n      revert\n    tag_237:\n        /* \"my-contracts/BundleExecutor.sol\":4871:5072  {... */\n      pop\n      pop\n        /* \"my-contracts/BundleExecutor.sol\":4866:4869  i++ */\n      dup1\n      dup1\n      tag_240\n      swap1\n      tag_241\n      jump\t// in\n    tag_240:\n      swap2\n      pop\n      pop\n        /* \"my-contracts/BundleExecutor.sol\":4825:5072  for (uint256 i = 0; i < _targets.length; i++) {... */\n      jump(tag_225)\n    tag_226:\n      pop\n        /* \"my-contracts/BundleExecutor.sol\":4602:5078  function _executeTargets(... */\n      pop\n      pop\n      pop\n      jump\t// out\n        /* \"my-contracts/BundleExecutor.sol\":5084:5493  function _settleEth(uint256 _ethAmountToCoinbase) internal {... */\n    tag_118:\n        /* \"my-contracts/BundleExecutor.sol\":5181:5182  0 */\n      0x00\n        /* \"my-contracts/BundleExecutor.sol\":5157:5177  _ethAmountToCoinbase */\n      dup2\n        /* \"my-contracts/BundleExecutor.sol\":5157:5182  _ethAmountToCoinbase == 0 */\n      eq\n        /* \"my-contracts/BundleExecutor.sol\":5153:5191  if (_ethAmountToCoinbase == 0) return; */\n      iszero\n      tag_243\n      jumpi\n        /* \"my-contracts/BundleExecutor.sol\":5184:5191  return; */\n      jump(tag_242)\n        /* \"my-contracts/BundleExecutor.sol\":5153:5191  if (_ethAmountToCoinbase == 0) return; */\n    tag_243:\n        /* \"my-contracts/BundleExecutor.sol\":5201:5220  uint256 _ethBalance */\n      0x00\n        /* \"my-contracts/BundleExecutor.sol\":5223:5244  address(this).balance */\n      selfbalance\n        /* \"my-contracts/BundleExecutor.sol\":5201:5244  uint256 _ethBalance = address(this).balance */\n      swap1\n      pop\n        /* \"my-contracts/BundleExecutor.sol\":5272:5292  _ethAmountToCoinbase */\n      dup2\n        /* \"my-contracts/BundleExecutor.sol\":5258:5269  _ethBalance */\n      dup2\n        /* \"my-contracts/BundleExecutor.sol\":5258:5292  _ethBalance < _ethAmountToCoinbase */\n      lt\n        /* \"my-contracts/BundleExecutor.sol\":5254:5423  if (_ethBalance < _ethAmountToCoinbase) {... */\n      iszero\n      tag_244\n      jumpi\n        /* \"my-contracts/BundleExecutor.sol\":5308:5331  uint256 _wethToWithdraw */\n      0x00\n        /* \"my-contracts/BundleExecutor.sol\":5357:5368  _ethBalance */\n      dup2\n        /* \"my-contracts/BundleExecutor.sol\":5334:5354  _ethAmountToCoinbase */\n      dup4\n        /* \"my-contracts/BundleExecutor.sol\":5334:5368  _ethAmountToCoinbase - _ethBalance */\n      tag_245\n      swap2\n      swap1\n      tag_177\n      jump\t// in\n    tag_245:\n        /* \"my-contracts/BundleExecutor.sol\":5308:5368  uint256 _wethToWithdraw = _ethAmountToCoinbase - _ethBalance */\n      swap1\n      pop\n        /* \"my-contracts/BundleExecutor.sol\":462:504  0xC02aaA39b223FE8D0A0e5C4F27eAD9083C756Cc2 */\n      0xc02aaa39b223fe8d0a0e5c4f27ead9083c756cc2\n        /* \"my-contracts/BundleExecutor.sol\":5382:5395  WETH.withdraw */\n      0xffffffffffffffffffffffffffffffffffffffff\n      and\n      0x2e1a7d4d\n        /* \"my-contracts/BundleExecutor.sol\":5396:5411  _wethToWithdraw */\n      dup3\n        /* \"my-contracts/BundleExecutor.sol\":5382:5412  WETH.withdraw(_wethToWithdraw) */\n      mload(0x40)\n      dup3\n      0xffffffff\n      and\n      0xe0\n      shl\n      dup2\n      mstore\n      0x04\n      add\n      tag_246\n      swap2\n      swap1\n      tag_247\n      jump\t// in\n    tag_246:\n      0x00\n      mload(0x40)\n      dup1\n      dup4\n      sub\n      dup2\n      0x00\n      dup8\n      dup1\n      extcodesize\n      iszero\n      dup1\n      iszero\n      tag_248\n      jumpi\n      0x00\n      dup1\n      revert\n    tag_248:\n      pop\n      gas\n      call\n      iszero\n      dup1\n      iszero\n      tag_250\n      jumpi\n      returndatasize\n      0x00\n      dup1\n      returndatacopy\n      revert(0x00, returndatasize)\n    tag_250:\n      pop\n      pop\n      pop\n      pop\n        /* \"my-contracts/BundleExecutor.sol\":5294:5423  {... */\n      pop\n        /* \"my-contracts/BundleExecutor.sol\":5254:5423  if (_ethBalance < _ethAmountToCoinbase) {... */\n    tag_244:\n        /* \"my-contracts/BundleExecutor.sol\":5440:5454  block.coinbase */\n      coinbase\n        /* \"my-contracts/BundleExecutor.sol\":5432:5464  payable(block.coinbase).transfer */\n      0xffffffffffffffffffffffffffffffffffffffff\n      and\n        /* \"my-contracts/BundleExecutor.sol\":5432:5486  payable(block.coinbase).transfer(_ethAmountToCoinbase) */\n      0x08fc\n        /* \"my-contracts/BundleExecutor.sol\":5465:5485  _ethAmountToCoinbase */\n      dup4\n        /* \"my-contracts/BundleExecutor.sol\":5432:5486  payable(block.coinbase).transfer(_ethAmountToCoinbase) */\n      swap1\n      dup2\n      iszero\n      mul\n      swap1\n      mload(0x40)\n      0x00\n      mload(0x40)\n      dup1\n      dup4\n      sub\n      dup2\n      dup6\n      dup9\n      dup9\n      call\n      swap4\n      pop\n      pop\n      pop\n      pop\n      iszero\n      dup1\n      iszero\n      tag_252\n      jumpi\n      returndatasize\n      0x00\n      dup1\n      returndatacopy\n      revert(0x00, returndatasize)\n    tag_252:\n      pop\n        /* \"my-contracts/BundleExecutor.sol\":5143:5493  {... */\n      pop\n        /* \"my-contracts/BundleExecutor.sol\":5084:5493  function _settleEth(uint256 _ethAmountToCoinbase) internal {... */\n    tag_242:\n      pop\n      jump\t// out\n        /* \"my-contracts/access/Ownable.sol\":2423:2596  function _transferOwnership(address newOwner) internal virtual {... */\n    tag_164:\n        /* \"my-contracts/access/Ownable.sol\":2492:2508  address oldOwner */\n      0x00\n        /* \"my-contracts/access/Ownable.sol\":2511:2517  _owner */\n      dup1\n      0x00\n      swap1\n      sload\n      swap1\n      0x0100\n      exp\n      swap1\n      div\n      0xffffffffffffffffffffffffffffffffffffffff\n      and\n        /* \"my-contracts/access/Ownable.sol\":2492:2517  address oldOwner = _owner */\n      swap1\n      pop\n        /* \"my-contracts/access/Ownable.sol\":2532:2540  newOwner */\n      dup2\n        /* \"my-contracts/access/Ownable.sol\":2523:2529  _owner */\n      0x00\n      dup1\n        /* \"my-contracts/access/Ownable.sol\":2523:2540  _owner = newOwner */\n      0x0100\n      exp\n      dup2\n      sload\n      dup2\n      0xffffffffffffffffffffffffffffffffffffffff\n      mul\n      not\n      and\n      swap1\n      dup4\n      0xffffffffffffffffffffffffffffffffffffffff\n      and\n      mul\n      or\n      swap1\n      sstore\n      pop\n        /* \"my-contracts/access/Ownable.sol\":2582:2590  newOwner */\n      dup2\n        /* \"my-contracts/access/Ownable.sol\":2551:2591  OwnershipTransferred(oldOwner, newOwner) */\n      0xffffffffffffffffffffffffffffffffffffffff\n      and\n        /* \"my-contracts/access/Ownable.sol\":2572:2580  oldOwner */\n      dup2\n        /* \"my-contracts/access/Ownable.sol\":2551:2591  OwnershipTransferred(oldOwner, newOwner) */\n      0xffffffffffffffffffffffffffffffffffffffff\n      and\n      0x8be0079c531659141344cd1fd0a4f28419497f9722a3daafe3b4186f6b6457e0\n      mload(0x40)\n      mload(0x40)\n      dup1\n      swap2\n      sub\n      swap1\n      log3\n        /* \"my-contracts/access/Ownable.sol\":2486:2596  {... */\n      pop\n        /* \"my-contracts/access/Ownable.sol\":2423:2596  function _transferOwnership(address newOwner) internal virtual {... */\n      pop\n      jump\t// out\n        /* \"my-contracts/BundleExecutor.sol\":3068:3502  function fn_RequestFlashLoan(... */\n    tag_182:\n        /* \"my-contracts/BundleExecutor.sol\":3201:3224  address receiverAddress */\n      0x00\n        /* \"my-contracts/BundleExecutor.sol\":3235:3239  this */\n      address\n        /* \"my-contracts/BundleExecutor.sol\":3201:3240  address receiverAddress = address(this) */\n      swap1\n      pop\n        /* \"my-contracts/BundleExecutor.sol\":3250:3263  address asset */\n      0x00\n        /* \"my-contracts/BundleExecutor.sol\":3266:3272  _token */\n      dup5\n        /* \"my-contracts/BundleExecutor.sol\":3250:3272  address asset = _token */\n      swap1\n      pop\n        /* \"my-contracts/BundleExecutor.sol\":3282:3296  uint256 amount */\n      0x00\n        /* \"my-contracts/BundleExecutor.sol\":3299:3306  _amount */\n      dup5\n        /* \"my-contracts/BundleExecutor.sol\":3282:3306  uint256 amount = _amount */\n      swap1\n      pop\n        /* \"my-contracts/BundleExecutor.sol\":3316:3335  uint16 referralCode */\n      0x00\n        /* \"my-contracts/BundleExecutor.sol\":3350:3354  POOL */\n      immutable(\"0xcaddae7de0e690128d0cbf5a90a47608fa09f2a2f2213577d71fa9c3669606a2\")\n        /* \"my-contracts/BundleExecutor.sol\":3350:3370  POOL.flashLoanSimple */\n      0xffffffffffffffffffffffffffffffffffffffff\n      and\n      0x42b0b77c\n        /* \"my-contracts/BundleExecutor.sol\":3384:3399  receiverAddress */\n      dup6\n        /* \"my-contracts/BundleExecutor.sol\":3413:3418  asset */\n      dup6\n        /* \"my-contracts/BundleExecutor.sol\":3432:3438  amount */\n      dup6\n        /* \"my-contracts/BundleExecutor.sol\":3452:3459  _params */\n      dup10\n        /* \"my-contracts/BundleExecutor.sol\":3473:3485  referralCode */\n      dup7\n        /* \"my-contracts/BundleExecutor.sol\":3350:3495  POOL.flashLoanSimple(... */\n      mload(0x40)\n      dup7\n      0xffffffff\n      and\n      0xe0\n      shl\n      dup2\n      mstore\n      0x04\n      add\n      tag_255\n      swap6\n      swap5\n      swap4\n      swap3\n      swap2\n      swap1\n      tag_256\n      jump\t// in\n    tag_255:\n      0x00\n      mload(0x40)\n      dup1\n      dup4\n      sub\n      dup2\n      0x00\n      dup8\n      dup1\n      extcodesize\n      iszero\n      dup1\n      iszero\n      tag_257\n      jumpi\n      0x00\n      dup1\n      revert\n    tag_257:\n      pop\n      gas\n      call\n      iszero\n      dup1\n      iszero\n      tag_259\n      jumpi\n      returndatasize\n      0x00\n      dup1\n      returndatacopy\n      revert(0x00, returndatasize)\n    tag_259:\n      pop\n      pop\n      pop\n      pop\n        /* \"my-contracts/BundleExecutor.sol\":3191:3502  {... */\n      pop\n      pop\n      pop\n      pop\n        /* \"my-contracts/BundleExecutor.sol\":3068:3502  function fn_RequestFlashLoan(... */\n      pop\n      pop\n      pop\n      jump\t// out\n        /* \"my-contracts/utils/Context.sol\":587:694  function _msgSender() internal view virtual returns (address payable) {... */\n    tag_212:\n        /* \"my-contracts/utils/Context.sol\":640:655  address payable */\n      0x00\n        /* \"my-contracts/utils/Context.sol\":678:688  msg.sender */\n      caller\n        /* \"my-contracts/utils/Context.sol\":663:689  return payable(msg.sender) */\n      swap1\n      pop\n        /* \"my-contracts/utils/Context.sol\":587:694  function _msgSender() internal view virtual returns (address payable) {... */\n      swap1\n      jump\t// out\n        /* \"#utility.yul\":7:133   */\n    tag_261:\n        /* \"#utility.yul\":44:51   */\n      0x00\n        /* \"#utility.yul\":84:126   */\n      0xffffffffffffffffffffffffffffffffffffffff\n        /* \"#utility.yul\":77:82   */\n      dup3\n        /* \"#utility.yul\":73:127   */\n      and\n        /* \"#utility.yul\":62:127   */\n      swap1\n      pop\n        /* \"#utility.yul\":7:133   */\n      swap2\n      swap1\n      pop\n      jump\t// out\n        /* \"#utility.yul\":139:199   */\n    tag_262:\n        /* \"#utility.yul\":167:170   */\n      0x00\n        /* \"#utility.yul\":188:193   */\n      dup2\n        /* \"#utility.yul\":181:193   */\n      swap1\n      pop\n        /* \"#utility.yul\":139:199   */\n      swap2\n      swap1\n      pop\n      jump\t// out\n        /* \"#utility.yul\":205:347   */\n    tag_263:\n        /* \"#utility.yul\":255:264   */\n      0x00\n        /* \"#utility.yul\":288:341   */\n      tag_367\n        /* \"#utility.yul\":306:340   */\n      tag_368\n        /* \"#utility.yul\":315:339   */\n      tag_369\n        /* \"#utility.yul\":333:338   */\n      dup5\n        /* \"#utility.yul\":315:339   */\n      tag_261\n      jump\t// in\n    tag_369:\n        /* \"#utility.yul\":306:340   */\n      tag_262\n      jump\t// in\n    tag_368:\n        /* \"#utility.yul\":288:341   */\n      tag_261\n      jump\t// in\n    tag_367:\n        /* \"#utility.yul\":275:341   */\n      swap1\n      pop\n        /* \"#utility.yul\":205:347   */\n      swap2\n      swap1\n      pop\n      jump\t// out\n        /* \"#utility.yul\":353:479   */\n    tag_264:\n        /* \"#utility.yul\":403:412   */\n      0x00\n        /* \"#utility.yul\":436:473   */\n      tag_371\n        /* \"#utility.yul\":467:472   */\n      dup3\n        /* \"#utility.yul\":436:473   */\n      tag_263\n      jump\t// in\n    tag_371:\n        /* \"#utility.yul\":423:473   */\n      swap1\n      pop\n        /* \"#utility.yul\":353:479   */\n      swap2\n      swap1\n      pop\n      jump\t// out\n        /* \"#utility.yul\":485:642   */\n    tag_265:\n        /* \"#utility.yul\":566:575   */\n      0x00\n        /* \"#utility.yul\":599:636   */\n      tag_373\n        /* \"#utility.yul\":630:635   */\n      dup3\n        /* \"#utility.yul\":599:636   */\n      tag_264\n      jump\t// in\n    tag_373:\n        /* \"#utility.yul\":586:636   */\n      swap1\n      pop\n        /* \"#utility.yul\":485:642   */\n      swap2\n      swap1\n      pop\n      jump\t// out\n        /* \"#utility.yul\":648:841   */\n    tag_266:\n        /* \"#utility.yul\":766:834   */\n      tag_375\n        /* \"#utility.yul\":828:833   */\n      dup2\n        /* \"#utility.yul\":766:834   */\n      tag_265\n      jump\t// in\n    tag_375:\n        /* \"#utility.yul\":761:764   */\n      dup3\n        /* \"#utility.yul\":754:835   */\n      mstore\n        /* \"#utility.yul\":648:841   */\n      pop\n      pop\n      jump\t// out\n        /* \"#utility.yul\":847:1131   */\n    tag_22:\n        /* \"#utility.yul\":971:975   */\n      0x00\n        /* \"#utility.yul\":1009:1011   */\n      0x20\n        /* \"#utility.yul\":998:1007   */\n      dup3\n        /* \"#utility.yul\":994:1012   */\n      add\n        /* \"#utility.yul\":986:1012   */\n      swap1\n      pop\n        /* \"#utility.yul\":1022:1124   */\n      tag_377\n        /* \"#utility.yul\":1121:1122   */\n      0x00\n        /* \"#utility.yul\":1110:1119   */\n      dup4\n        /* \"#utility.yul\":1106:1123   */\n      add\n        /* \"#utility.yul\":1097:1103   */\n      dup5\n        /* \"#utility.yul\":1022:1124   */\n      tag_266\n      jump\t// in\n    tag_377:\n        /* \"#utility.yul\":847:1131   */\n      swap3\n      swap2\n      pop\n      pop\n      jump\t// out\n        /* \"#utility.yul\":1137:1212   */\n    tag_267:\n        /* \"#utility.yul\":1170:1176   */\n      0x00\n        /* \"#utility.yul\":1203:1205   */\n      0x40\n        /* \"#utility.yul\":1197:1206   */\n      mload\n        /* \"#utility.yul\":1187:1206   */\n      swap1\n      pop\n        /* \"#utility.yul\":1137:1212   */\n      swap1\n      jump\t// out\n        /* \"#utility.yul\":1218:1335   */\n    tag_268:\n        /* \"#utility.yul\":1327:1328   */\n      0x00\n        /* \"#utility.yul\":1324:1325   */\n      dup1\n        /* \"#utility.yul\":1317:1329   */\n      revert\n        /* \"#utility.yul\":1341:1458   */\n    tag_269:\n        /* \"#utility.yul\":1450:1451   */\n      0x00\n        /* \"#utility.yul\":1447:1448   */\n      dup1\n        /* \"#utility.yul\":1440:1452   */\n      revert\n        /* \"#utility.yul\":1464:1568   */\n    tag_270:\n        /* \"#utility.yul\":1509:1516   */\n      0x00\n        /* \"#utility.yul\":1538:1562   */\n      tag_382\n        /* \"#utility.yul\":1556:1561   */\n      dup3\n        /* \"#utility.yul\":1538:1562   */\n      tag_261\n      jump\t// in\n    tag_382:\n        /* \"#utility.yul\":1527:1562   */\n      swap1\n      pop\n        /* \"#utility.yul\":1464:1568   */\n      swap2\n      swap1\n      pop\n      jump\t// out\n        /* \"#utility.yul\":1574:1712   */\n    tag_271:\n        /* \"#utility.yul\":1655:1687   */\n      tag_384\n        /* \"#utility.yul\":1681:1686   */\n      dup2\n        /* \"#utility.yul\":1655:1687   */\n      tag_270\n      jump\t// in\n    tag_384:\n        /* \"#utility.yul\":1648:1653   */\n      dup2\n        /* \"#utility.yul\":1645:1688   */\n      eq\n        /* \"#utility.yul\":1635:1706   */\n      tag_385\n      jumpi\n        /* \"#utility.yul\":1702:1703   */\n      0x00\n        /* \"#utility.yul\":1699:1700   */\n      dup1\n        /* \"#utility.yul\":1692:1704   */\n      revert\n        /* \"#utility.yul\":1635:1706   */\n    tag_385:\n        /* \"#utility.yul\":1574:1712   */\n      pop\n      jump\t// out\n        /* \"#utility.yul\":1718:1873   */\n    tag_272:\n        /* \"#utility.yul\":1772:1777   */\n      0x00\n        /* \"#utility.yul\":1810:1816   */\n      dup2\n        /* \"#utility.yul\":1797:1817   */\n      calldataload\n        /* \"#utility.yul\":1788:1817   */\n      swap1\n      pop\n        /* \"#utility.yul\":1826:1867   */\n      tag_387\n        /* \"#utility.yul\":1861:1866   */\n      dup2\n        /* \"#utility.yul\":1826:1867   */\n      tag_271\n      jump\t// in\n    tag_387:\n        /* \"#utility.yul\":1718:1873   */\n      swap3\n      swap2\n      pop\n      pop\n      jump\t// out\n        /* \"#utility.yul\":1879:1956   */\n    tag_273:\n        /* \"#utility.yul\":1916:1923   */\n      0x00\n        /* \"#utility.yul\":1945:1950   */\n      dup2\n        /* \"#utility.yul\":1934:1950   */\n      swap1\n      pop\n        /* \"#utility.yul\":1879:1956   */\n      swap2\n      swap1\n      pop\n      jump\t// out\n        /* \"#utility.yul\":1962:2084   */\n    tag_274:\n        /* \"#utility.yul\":2035:2059   */\n      tag_390\n        /* \"#utility.yul\":2053:2058   */\n      dup2\n        /* \"#utility.yul\":2035:2059   */\n      tag_273\n      jump\t// in\n    tag_390:\n        /* \"#utility.yul\":2028:2033   */\n      dup2\n        /* \"#utility.yul\":2025:2060   */\n      eq\n        /* \"#utility.yul\":2015:2078   */\n      tag_391\n      jumpi\n        /* \"#utility.yul\":2074:2075   */\n      0x00\n        /* \"#utility.yul\":2071:2072   */\n      dup1\n        /* \"#utility.yul\":2064:2076   */\n      revert\n        /* \"#utility.yul\":2015:2078   */\n    tag_391:\n        /* \"#utility.yul\":1962:2084   */\n      pop\n      jump\t// out\n        /* \"#utility.yul\":2090:2229   */\n    tag_275:\n        /* \"#utility.yul\":2136:2141   */\n      0x00\n        /* \"#utility.yul\":2174:2180   */\n      dup2\n        /* \"#utility.yul\":2161:2181   */\n      calldataload\n        /* \"#utility.yul\":2152:2181   */\n      swap1\n      pop\n        /* \"#utility.yul\":2190:2223   */\n      tag_393\n        /* \"#utility.yul\":2217:2222   */\n      dup2\n        /* \"#utility.yul\":2190:2223   */\n      tag_274\n      jump\t// in\n    tag_393:\n        /* \"#utility.yul\":2090:2229   */\n      swap3\n      swap2\n      pop\n      pop\n      jump\t// out\n        /* \"#utility.yul\":2235:2725   */\n    tag_25:\n        /* \"#utility.yul\":2311:2317   */\n      0x00\n        /* \"#utility.yul\":2319:2325   */\n      dup1\n        /* \"#utility.yul\":2368:2370   */\n      0x40\n        /* \"#utility.yul\":2356:2365   */\n      dup4\n        /* \"#utility.yul\":2347:2354   */\n      dup6\n        /* \"#utility.yul\":2343:2366   */\n      sub\n        /* \"#utility.yul\":2339:2371   */\n      slt\n        /* \"#utility.yul\":2336:2455   */\n      iszero\n      tag_395\n      jumpi\n        /* \"#utility.yul\":2374:2453   */\n      tag_396\n      tag_268\n      jump\t// in\n    tag_396:\n        /* \"#utility.yul\":2336:2455   */\n    tag_395:\n        /* \"#utility.yul\":2494:2495   */\n      0x00\n        /* \"#utility.yul\":2519:2580   */\n      tag_397\n        /* \"#utility.yul\":2572:2579   */\n      dup6\n        /* \"#utility.yul\":2563:2569   */\n      dup3\n        /* \"#utility.yul\":2552:2561   */\n      dup7\n        /* \"#utility.yul\":2548:2570   */\n      add\n        /* \"#utility.yul\":2519:2580   */\n      tag_272\n      jump\t// in\n    tag_397:\n        /* \"#utility.yul\":2509:2580   */\n      swap3\n      pop\n        /* \"#utility.yul\":2465:2590   */\n      pop\n        /* \"#utility.yul\":2629:2631   */\n      0x20\n        /* \"#utility.yul\":2655:2708   */\n      tag_398\n        /* \"#utility.yul\":2700:2707   */\n      dup6\n        /* \"#utility.yul\":2691:2697   */\n      dup3\n        /* \"#utility.yul\":2680:2689   */\n      dup7\n        /* \"#utility.yul\":2676:2698   */\n      add\n        /* \"#utility.yul\":2655:2708   */\n      tag_275\n      jump\t// in\n    tag_398:\n        /* \"#utility.yul\":2645:2708   */\n      swap2\n      pop\n        /* \"#utility.yul\":2600:2718   */\n      pop\n        /* \"#utility.yul\":2235:2725   */\n      swap3\n      pop\n      swap3\n      swap1\n      pop\n      jump\t// out\n        /* \"#utility.yul\":2731:2827   */\n    tag_276:\n        /* \"#utility.yul\":2768:2775   */\n      0x00\n        /* \"#utility.yul\":2797:2821   */\n      tag_400\n        /* \"#utility.yul\":2815:2820   */\n      dup3\n        /* \"#utility.yul\":2797:2821   */\n      tag_261\n      jump\t// in\n    tag_400:\n        /* \"#utility.yul\":2786:2821   */\n      swap1\n      pop\n        /* \"#utility.yul\":2731:2827   */\n      swap2\n      swap1\n      pop\n      jump\t// out\n        /* \"#utility.yul\":2833:2955   */\n    tag_277:\n        /* \"#utility.yul\":2906:2930   */\n      tag_402\n        /* \"#utility.yul\":2924:2929   */\n      dup2\n        /* \"#utility.yul\":2906:2930   */\n      tag_276\n      jump\t// in\n    tag_402:\n        /* \"#utility.yul\":2899:2904   */\n      dup2\n        /* \"#utility.yul\":2896:2931   */\n      eq\n        /* \"#utility.yul\":2886:2949   */\n      tag_403\n      jumpi\n        /* \"#utility.yul\":2945:2946   */\n      0x00\n        /* \"#utility.yul\":2942:2943   */\n      dup1\n        /* \"#utility.yul\":2935:2947   */\n      revert\n        /* \"#utility.yul\":2886:2949   */\n    tag_403:\n        /* \"#utility.yul\":2833:2955   */\n      pop\n      jump\t// out\n        /* \"#utility.yul\":2961:3100   */\n    tag_278:\n        /* \"#utility.yul\":3007:3012   */\n      0x00\n        /* \"#utility.yul\":3045:3051   */\n      dup2\n        /* \"#utility.yul\":3032:3052   */\n      calldataload\n        /* \"#utility.yul\":3023:3052   */\n      swap1\n      pop\n        /* \"#utility.yul\":3061:3094   */\n      tag_405\n        /* \"#utility.yul\":3088:3093   */\n      dup2\n        /* \"#utility.yul\":3061:3094   */\n      tag_277\n      jump\t// in\n    tag_405:\n        /* \"#utility.yul\":2961:3100   */\n      swap3\n      swap2\n      pop\n      pop\n      jump\t// out\n        /* \"#utility.yul\":3106:3223   */\n    tag_279:\n        /* \"#utility.yul\":3215:3216   */\n      0x00\n        /* \"#utility.yul\":3212:3213   */\n      dup1\n        /* \"#utility.yul\":3205:3217   */\n      revert\n        /* \"#utility.yul\":3229:3346   */\n    tag_280:\n        /* \"#utility.yul\":3338:3339   */\n      0x00\n        /* \"#utility.yul\":3335:3336   */\n      dup1\n        /* \"#utility.yul\":3328:3340   */\n      revert\n        /* \"#utility.yul\":3352:3469   */\n    tag_281:\n        /* \"#utility.yul\":3461:3462   */\n      0x00\n        /* \"#utility.yul\":3458:3459   */\n      dup1\n        /* \"#utility.yul\":3451:3463   */\n      revert\n        /* \"#utility.yul\":3488:4040   */\n    tag_282:\n        /* \"#utility.yul\":3545:3553   */\n      0x00\n        /* \"#utility.yul\":3555:3561   */\n      dup1\n        /* \"#utility.yul\":3605:3608   */\n      dup4\n        /* \"#utility.yul\":3598:3602   */\n      0x1f\n        /* \"#utility.yul\":3590:3596   */\n      dup5\n        /* \"#utility.yul\":3586:3603   */\n      add\n        /* \"#utility.yul\":3582:3609   */\n      slt\n        /* \"#utility.yul\":3572:3694   */\n      tag_410\n      jumpi\n        /* \"#utility.yul\":3613:3692   */\n      tag_411\n      tag_279\n      jump\t// in\n    tag_411:\n        /* \"#utility.yul\":3572:3694   */\n    tag_410:\n        /* \"#utility.yul\":3726:3732   */\n      dup3\n        /* \"#utility.yul\":3713:3733   */\n      calldataload\n        /* \"#utility.yul\":3703:3733   */\n      swap1\n      pop\n        /* \"#utility.yul\":3756:3774   */\n      0xffffffffffffffff\n        /* \"#utility.yul\":3748:3754   */\n      dup2\n        /* \"#utility.yul\":3745:3775   */\n      gt\n        /* \"#utility.yul\":3742:3859   */\n      iszero\n      tag_412\n      jumpi\n        /* \"#utility.yul\":3778:3857   */\n      tag_413\n      tag_280\n      jump\t// in\n    tag_413:\n        /* \"#utility.yul\":3742:3859   */\n    tag_412:\n        /* \"#utility.yul\":3892:3896   */\n      0x20\n        /* \"#utility.yul\":3884:3890   */\n      dup4\n        /* \"#utility.yul\":3880:3897   */\n      add\n        /* \"#utility.yul\":3868:3897   */\n      swap2\n      pop\n        /* \"#utility.yul\":3946:3949   */\n      dup4\n        /* \"#utility.yul\":3938:3942   */\n      0x01\n        /* \"#utility.yul\":3930:3936   */\n      dup3\n        /* \"#utility.yul\":3926:3943   */\n      mul\n        /* \"#utility.yul\":3916:3924   */\n      dup4\n        /* \"#utility.yul\":3912:3944   */\n      add\n        /* \"#utility.yul\":3909:3950   */\n      gt\n        /* \"#utility.yul\":3906:4034   */\n      iszero\n      tag_414\n      jumpi\n        /* \"#utility.yul\":3953:4032   */\n      tag_415\n      tag_281\n      jump\t// in\n    tag_415:\n        /* \"#utility.yul\":3906:4034   */\n    tag_414:\n        /* \"#utility.yul\":3488:4040   */\n      swap3\n      pop\n      swap3\n      swap1\n      pop\n      jump\t// out\n        /* \"#utility.yul\":4046:5155   */\n    tag_30:\n        /* \"#utility.yul\":4152:4158   */\n      0x00\n        /* \"#utility.yul\":4160:4166   */\n      dup1\n        /* \"#utility.yul\":4168:4174   */\n      0x00\n        /* \"#utility.yul\":4176:4182   */\n      dup1\n        /* \"#utility.yul\":4184:4190   */\n      0x00\n        /* \"#utility.yul\":4192:4198   */\n      dup1\n        /* \"#utility.yul\":4241:4244   */\n      0xa0\n        /* \"#utility.yul\":4229:4238   */\n      dup8\n        /* \"#utility.yul\":4220:4227   */\n      dup10\n        /* \"#utility.yul\":4216:4239   */\n      sub\n        /* \"#utility.yul\":4212:4245   */\n      slt\n        /* \"#utility.yul\":4209:4329   */\n      iszero\n      tag_417\n      jumpi\n        /* \"#utility.yul\":4248:4327   */\n      tag_418\n      tag_268\n      jump\t// in\n    tag_418:\n        /* \"#utility.yul\":4209:4329   */\n    tag_417:\n        /* \"#utility.yul\":4368:4369   */\n      0x00\n        /* \"#utility.yul\":4393:4446   */\n      tag_419\n        /* \"#utility.yul\":4438:4445   */\n      dup10\n        /* \"#utility.yul\":4429:4435   */\n      dup3\n        /* \"#utility.yul\":4418:4427   */\n      dup11\n        /* \"#utility.yul\":4414:4436   */\n      add\n        /* \"#utility.yul\":4393:4446   */\n      tag_278\n      jump\t// in\n    tag_419:\n        /* \"#utility.yul\":4383:4446   */\n      swap7\n      pop\n        /* \"#utility.yul\":4339:4456   */\n      pop\n        /* \"#utility.yul\":4495:4497   */\n      0x20\n        /* \"#utility.yul\":4521:4574   */\n      tag_420\n        /* \"#utility.yul\":4566:4573   */\n      dup10\n        /* \"#utility.yul\":4557:4563   */\n      dup3\n        /* \"#utility.yul\":4546:4555   */\n      dup11\n        /* \"#utility.yul\":4542:4564   */\n      add\n        /* \"#utility.yul\":4521:4574   */\n      tag_275\n      jump\t// in\n    tag_420:\n        /* \"#utility.yul\":4511:4574   */\n      swap6\n      pop\n        /* \"#utility.yul\":4466:4584   */\n      pop\n        /* \"#utility.yul\":4623:4625   */\n      0x40\n        /* \"#utility.yul\":4649:4702   */\n      tag_421\n        /* \"#utility.yul\":4694:4701   */\n      dup10\n        /* \"#utility.yul\":4685:4691   */\n      dup3\n        /* \"#utility.yul\":4674:4683   */\n      dup11\n        /* \"#utility.yul\":4670:4692   */\n      add\n        /* \"#utility.yul\":4649:4702   */\n      tag_275\n      jump\t// in\n    tag_421:\n        /* \"#utility.yul\":4639:4702   */\n      swap5\n      pop\n        /* \"#utility.yul\":4594:4712   */\n      pop\n        /* \"#utility.yul\":4751:4753   */\n      0x60\n        /* \"#utility.yul\":4777:4830   */\n      tag_422\n        /* \"#utility.yul\":4822:4829   */\n      dup10\n        /* \"#utility.yul\":4813:4819   */\n      dup3\n        /* \"#utility.yul\":4802:4811   */\n      dup11\n        /* \"#utility.yul\":4798:4820   */\n      add\n        /* \"#utility.yul\":4777:4830   */\n      tag_278\n      jump\t// in\n    tag_422:\n        /* \"#utility.yul\":4767:4830   */\n      swap4\n      pop\n        /* \"#utility.yul\":4722:4840   */\n      pop\n        /* \"#utility.yul\":4907:4910   */\n      0x80\n        /* \"#utility.yul\":4896:4905   */\n      dup8\n        /* \"#utility.yul\":4892:4911   */\n      add\n        /* \"#utility.yul\":4879:4912   */\n      calldataload\n        /* \"#utility.yul\":4939:4957   */\n      0xffffffffffffffff\n        /* \"#utility.yul\":4931:4937   */\n      dup2\n        /* \"#utility.yul\":4928:4958   */\n      gt\n        /* \"#utility.yul\":4925:5042   */\n      iszero\n      tag_423\n      jumpi\n        /* \"#utility.yul\":4961:5040   */\n      tag_424\n      tag_269\n      jump\t// in\n    tag_424:\n        /* \"#utility.yul\":4925:5042   */\n    tag_423:\n        /* \"#utility.yul\":5074:5138   */\n      tag_425\n        /* \"#utility.yul\":5130:5137   */\n      dup10\n        /* \"#utility.yul\":5121:5127   */\n      dup3\n        /* \"#utility.yul\":5110:5119   */\n      dup11\n        /* \"#utility.yul\":5106:5128   */\n      add\n        /* \"#utility.yul\":5074:5138   */\n      tag_282\n      jump\t// in\n    tag_425:\n        /* \"#utility.yul\":5056:5138   */\n      swap3\n      pop\n      swap3\n      pop\n        /* \"#utility.yul\":4850:5148   */\n      pop\n        /* \"#utility.yul\":4046:5155   */\n      swap3\n      swap6\n      pop\n      swap3\n      swap6\n      pop\n      swap3\n      swap6\n      jump\t// out\n        /* \"#utility.yul\":5161:5251   */\n    tag_283:\n        /* \"#utility.yul\":5195:5202   */\n      0x00\n        /* \"#utility.yul\":5238:5243   */\n      dup2\n        /* \"#utility.yul\":5231:5244   */\n      iszero\n        /* \"#utility.yul\":5224:5245   */\n      iszero\n        /* \"#utility.yul\":5213:5245   */\n      swap1\n      pop\n        /* \"#utility.yul\":5161:5251   */\n      swap2\n      swap1\n      pop\n      jump\t// out\n        /* \"#utility.yul\":5257:5366   */\n    tag_284:\n        /* \"#utility.yul\":5338:5359   */\n      tag_428\n        /* \"#utility.yul\":5353:5358   */\n      dup2\n        /* \"#utility.yul\":5338:5359   */\n      tag_283\n      jump\t// in\n    tag_428:\n        /* \"#utility.yul\":5333:5336   */\n      dup3\n        /* \"#utility.yul\":5326:5360   */\n      mstore\n        /* \"#utility.yul\":5257:5366   */\n      pop\n      pop\n      jump\t// out\n        /* \"#utility.yul\":5372:5582   */\n    tag_33:\n        /* \"#utility.yul\":5459:5463   */\n      0x00\n        /* \"#utility.yul\":5497:5499   */\n      0x20\n        /* \"#utility.yul\":5486:5495   */\n      dup3\n        /* \"#utility.yul\":5482:5500   */\n      add\n        /* \"#utility.yul\":5474:5500   */\n      swap1\n      pop\n        /* \"#utility.yul\":5510:5575   */\n      tag_430\n        /* \"#utility.yul\":5572:5573   */\n      0x00\n        /* \"#utility.yul\":5561:5570   */\n      dup4\n        /* \"#utility.yul\":5557:5574   */\n      add\n        /* \"#utility.yul\":5548:5554   */\n      dup5\n        /* \"#utility.yul\":5510:5575   */\n      tag_284\n      jump\t// in\n    tag_430:\n        /* \"#utility.yul\":5372:5582   */\n      swap3\n      swap2\n      pop\n      pop\n      jump\t// out\n        /* \"#utility.yul\":5588:5917   */\n    tag_37:\n        /* \"#utility.yul\":5647:5653   */\n      0x00\n        /* \"#utility.yul\":5696:5698   */\n      0x20\n        /* \"#utility.yul\":5684:5693   */\n      dup3\n        /* \"#utility.yul\":5675:5682   */\n      dup5\n        /* \"#utility.yul\":5671:5694   */\n      sub\n        /* \"#utility.yul\":5667:5699   */\n      slt\n        /* \"#utility.yul\":5664:5783   */\n      iszero\n      tag_432\n      jumpi\n        /* \"#utility.yul\":5702:5781   */\n      tag_433\n      tag_268\n      jump\t// in\n    tag_433:\n        /* \"#utility.yul\":5664:5783   */\n    tag_432:\n        /* \"#utility.yul\":5822:5823   */\n      0x00\n        /* \"#utility.yul\":5847:5900   */\n      tag_434\n        /* \"#utility.yul\":5892:5899   */\n      dup5\n        /* \"#utility.yul\":5883:5889   */\n      dup3\n        /* \"#utility.yul\":5872:5881   */\n      dup6\n        /* \"#utility.yul\":5868:5890   */\n      add\n        /* \"#utility.yul\":5847:5900   */\n      tag_278\n      jump\t// in\n    tag_434:\n        /* \"#utility.yul\":5837:5900   */\n      swap2\n      pop\n        /* \"#utility.yul\":5793:5910   */\n      pop\n        /* \"#utility.yul\":5588:5917   */\n      swap3\n      swap2\n      pop\n      pop\n      jump\t// out\n        /* \"#utility.yul\":5923:6041   */\n    tag_285:\n        /* \"#utility.yul\":6010:6034   */\n      tag_436\n        /* \"#utility.yul\":6028:6033   */\n      dup2\n        /* \"#utility.yul\":6010:6034   */\n      tag_273\n      jump\t// in\n    tag_436:\n        /* \"#utility.yul\":6005:6008   */\n      dup3\n        /* \"#utility.yul\":5998:6035   */\n      mstore\n        /* \"#utility.yul\":5923:6041   */\n      pop\n      pop\n      jump\t// out\n        /* \"#utility.yul\":6047:6489   */\n    tag_40:\n        /* \"#utility.yul\":6196:6200   */\n      0x00\n        /* \"#utility.yul\":6234:6236   */\n      0x60\n        /* \"#utility.yul\":6223:6232   */\n      dup3\n        /* \"#utility.yul\":6219:6237   */\n      add\n        /* \"#utility.yul\":6211:6237   */\n      swap1\n      pop\n        /* \"#utility.yul\":6247:6318   */\n      tag_438\n        /* \"#utility.yul\":6315:6316   */\n      0x00\n        /* \"#utility.yul\":6304:6313   */\n      dup4\n        /* \"#utility.yul\":6300:6317   */\n      add\n        /* \"#utility.yul\":6291:6297   */\n      dup7\n        /* \"#utility.yul\":6247:6318   */\n      tag_285\n      jump\t// in\n    tag_438:\n        /* \"#utility.yul\":6328:6400   */\n      tag_439\n        /* \"#utility.yul\":6396:6398   */\n      0x20\n        /* \"#utility.yul\":6385:6394   */\n      dup4\n        /* \"#utility.yul\":6381:6399   */\n      add\n        /* \"#utility.yul\":6372:6378   */\n      dup6\n        /* \"#utility.yul\":6328:6400   */\n      tag_285\n      jump\t// in\n    tag_439:\n        /* \"#utility.yul\":6410:6482   */\n      tag_440\n        /* \"#utility.yul\":6478:6480   */\n      0x40\n        /* \"#utility.yul\":6467:6476   */\n      dup4\n        /* \"#utility.yul\":6463:6481   */\n      add\n        /* \"#utility.yul\":6454:6460   */\n      dup5\n        /* \"#utility.yul\":6410:6482   */\n      tag_285\n      jump\t// in\n    tag_440:\n        /* \"#utility.yul\":6047:6489   */\n      swap5\n      swap4\n      pop\n      pop\n      pop\n      pop\n      jump\t// out\n        /* \"#utility.yul\":6495:6969   */\n    tag_44:\n        /* \"#utility.yul\":6563:6569   */\n      0x00\n        /* \"#utility.yul\":6571:6577   */\n      dup1\n        /* \"#utility.yul\":6620:6622   */\n      0x40\n        /* \"#utility.yul\":6608:6617   */\n      dup4\n        /* \"#utility.yul\":6599:6606   */\n      dup6\n        /* \"#utility.yul\":6595:6618   */\n      sub\n        /* \"#utility.yul\":6591:6623   */\n      slt\n        /* \"#utility.yul\":6588:6707   */\n      iszero\n      tag_442\n      jumpi\n        /* \"#utility.yul\":6626:6705   */\n      tag_443\n      tag_268\n      jump\t// in\n    tag_443:\n        /* \"#utility.yul\":6588:6707   */\n    tag_442:\n        /* \"#utility.yul\":6746:6747   */\n      0x00\n        /* \"#utility.yul\":6771:6824   */\n      tag_444\n        /* \"#utility.yul\":6816:6823   */\n      dup6\n        /* \"#utility.yul\":6807:6813   */\n      dup3\n        /* \"#utility.yul\":6796:6805   */\n      dup7\n        /* \"#utility.yul\":6792:6814   */\n      add\n        /* \"#utility.yul\":6771:6824   */\n      tag_278\n      jump\t// in\n    tag_444:\n        /* \"#utility.yul\":6761:6824   */\n      swap3\n      pop\n        /* \"#utility.yul\":6717:6834   */\n      pop\n        /* \"#utility.yul\":6873:6875   */\n      0x20\n        /* \"#utility.yul\":6899:6952   */\n      tag_445\n        /* \"#utility.yul\":6944:6951   */\n      dup6\n        /* \"#utility.yul\":6935:6941   */\n      dup3\n        /* \"#utility.yul\":6924:6933   */\n      dup7\n        /* \"#utility.yul\":6920:6942   */\n      add\n        /* \"#utility.yul\":6899:6952   */\n      tag_275\n      jump\t// in\n    tag_445:\n        /* \"#utility.yul\":6889:6952   */\n      swap2\n      pop\n        /* \"#utility.yul\":6844:6962   */\n      pop\n        /* \"#utility.yul\":6495:6969   */\n      swap3\n      pop\n      swap3\n      swap1\n      pop\n      jump\t// out\n        /* \"#utility.yul\":6975:7808   */\n    tag_48:\n        /* \"#utility.yul\":7071:7077   */\n      0x00\n        /* \"#utility.yul\":7079:7085   */\n      dup1\n        /* \"#utility.yul\":7087:7093   */\n      0x00\n        /* \"#utility.yul\":7095:7101   */\n      dup1\n        /* \"#utility.yul\":7144:7146   */\n      0x60\n        /* \"#utility.yul\":7132:7141   */\n      dup6\n        /* \"#utility.yul\":7123:7130   */\n      dup8\n        /* \"#utility.yul\":7119:7142   */\n      sub\n        /* \"#utility.yul\":7115:7147   */\n      slt\n        /* \"#utility.yul\":7112:7231   */\n      iszero\n      tag_447\n      jumpi\n        /* \"#utility.yul\":7150:7229   */\n      tag_448\n      tag_268\n      jump\t// in\n    tag_448:\n        /* \"#utility.yul\":7112:7231   */\n    tag_447:\n        /* \"#utility.yul\":7270:7271   */\n      0x00\n        /* \"#utility.yul\":7295:7356   */\n      tag_449\n        /* \"#utility.yul\":7348:7355   */\n      dup8\n        /* \"#utility.yul\":7339:7345   */\n      dup3\n        /* \"#utility.yul\":7328:7337   */\n      dup9\n        /* \"#utility.yul\":7324:7346   */\n      add\n        /* \"#utility.yul\":7295:7356   */\n      tag_272\n      jump\t// in\n    tag_449:\n        /* \"#utility.yul\":7285:7356   */\n      swap5\n      pop\n        /* \"#utility.yul\":7241:7366   */\n      pop\n        /* \"#utility.yul\":7405:7407   */\n      0x20\n        /* \"#utility.yul\":7431:7484   */\n      tag_450\n        /* \"#utility.yul\":7476:7483   */\n      dup8\n        /* \"#utility.yul\":7467:7473   */\n      dup3\n        /* \"#utility.yul\":7456:7465   */\n      dup9\n        /* \"#utility.yul\":7452:7474   */\n      add\n        /* \"#utility.yul\":7431:7484   */\n      tag_275\n      jump\t// in\n    tag_450:\n        /* \"#utility.yul\":7421:7484   */\n      swap4\n      pop\n        /* \"#utility.yul\":7376:7494   */\n      pop\n        /* \"#utility.yul\":7561:7563   */\n      0x40\n        /* \"#utility.yul\":7550:7559   */\n      dup6\n        /* \"#utility.yul\":7546:7564   */\n      add\n        /* \"#utility.yul\":7533:7565   */\n      calldataload\n        /* \"#utility.yul\":7592:7610   */\n      0xffffffffffffffff\n        /* \"#utility.yul\":7584:7590   */\n      dup2\n        /* \"#utility.yul\":7581:7611   */\n      gt\n        /* \"#utility.yul\":7578:7695   */\n      iszero\n      tag_451\n      jumpi\n        /* \"#utility.yul\":7614:7693   */\n      tag_452\n      tag_269\n      jump\t// in\n    tag_452:\n        /* \"#utility.yul\":7578:7695   */\n    tag_451:\n        /* \"#utility.yul\":7727:7791   */\n      tag_453\n        /* \"#utility.yul\":7783:7790   */\n      dup8\n        /* \"#utility.yul\":7774:7780   */\n      dup3\n        /* \"#utility.yul\":7763:7772   */\n      dup9\n        /* \"#utility.yul\":7759:7781   */\n      add\n        /* \"#utility.yul\":7727:7791   */\n      tag_282\n      jump\t// in\n    tag_453:\n        /* \"#utility.yul\":7709:7791   */\n      swap3\n      pop\n      swap3\n      pop\n        /* \"#utility.yul\":7504:7801   */\n      pop\n        /* \"#utility.yul\":6975:7808   */\n      swap3\n      swap6\n      swap2\n      swap5\n      pop\n      swap3\n      pop\n      jump\t// out\n        /* \"#utility.yul\":7814:7912   */\n    tag_286:\n        /* \"#utility.yul\":7865:7871   */\n      0x00\n        /* \"#utility.yul\":7899:7904   */\n      dup2\n        /* \"#utility.yul\":7893:7905   */\n      mload\n        /* \"#utility.yul\":7883:7905   */\n      swap1\n      pop\n        /* \"#utility.yul\":7814:7912   */\n      swap2\n      swap1\n      pop\n      jump\t// out\n        /* \"#utility.yul\":7918:8086   */\n    tag_287:\n        /* \"#utility.yul\":8001:8012   */\n      0x00\n        /* \"#utility.yul\":8035:8041   */\n      dup3\n        /* \"#utility.yul\":8030:8033   */\n      dup3\n        /* \"#utility.yul\":8023:8042   */\n      mstore\n        /* \"#utility.yul\":8075:8079   */\n      0x20\n        /* \"#utility.yul\":8070:8073   */\n      dup3\n        /* \"#utility.yul\":8066:8080   */\n      add\n        /* \"#utility.yul\":8051:8080   */\n      swap1\n      pop\n        /* \"#utility.yul\":7918:8086   */\n      swap3\n      swap2\n      pop\n      pop\n      jump\t// out\n        /* \"#utility.yul\":8092:8399   */\n    tag_288:\n        /* \"#utility.yul\":8160:8161   */\n      0x00\n        /* \"#utility.yul\":8170:8283   */\n    tag_457:\n        /* \"#utility.yul\":8184:8190   */\n      dup4\n        /* \"#utility.yul\":8181:8182   */\n      dup2\n        /* \"#utility.yul\":8178:8191   */\n      lt\n        /* \"#utility.yul\":8170:8283   */\n      iszero\n      tag_459\n      jumpi\n        /* \"#utility.yul\":8269:8270   */\n      dup1\n        /* \"#utility.yul\":8264:8267   */\n      dup3\n        /* \"#utility.yul\":8260:8271   */\n      add\n        /* \"#utility.yul\":8254:8272   */\n      mload\n        /* \"#utility.yul\":8250:8251   */\n      dup2\n        /* \"#utility.yul\":8245:8248   */\n      dup5\n        /* \"#utility.yul\":8241:8252   */\n      add\n        /* \"#utility.yul\":8234:8273   */\n      mstore\n        /* \"#utility.yul\":8206:8208   */\n      0x20\n        /* \"#utility.yul\":8203:8204   */\n      dup2\n        /* \"#utility.yul\":8199:8209   */\n      add\n        /* \"#utility.yul\":8194:8209   */\n      swap1\n      pop\n        /* \"#utility.yul\":8170:8283   */\n      jump(tag_457)\n    tag_459:\n        /* \"#utility.yul\":8301:8307   */\n      dup4\n        /* \"#utility.yul\":8298:8299   */\n      dup2\n        /* \"#utility.yul\":8295:8308   */\n      gt\n        /* \"#utility.yul\":8292:8393   */\n      iszero\n      tag_460\n      jumpi\n        /* \"#utility.yul\":8381:8382   */\n      0x00\n        /* \"#utility.yul\":8372:8378   */\n      dup5\n        /* \"#utility.yul\":8367:8370   */\n      dup5\n        /* \"#utility.yul\":8363:8379   */\n      add\n        /* \"#utility.yul\":8356:8383   */\n      mstore\n        /* \"#utility.yul\":8292:8393   */\n    tag_460:\n        /* \"#utility.yul\":8141:8399   */\n      pop\n        /* \"#utility.yul\":8092:8399   */\n      pop\n      pop\n      pop\n      jump\t// out\n        /* \"#utility.yul\":8405:8507   */\n    tag_289:\n        /* \"#utility.yul\":8446:8452   */\n      0x00\n        /* \"#utility.yul\":8497:8499   */\n      0x1f\n        /* \"#utility.yul\":8493:8500   */\n      not\n        /* \"#utility.yul\":8488:8490   */\n      0x1f\n        /* \"#utility.yul\":8481:8486   */\n      dup4\n        /* \"#utility.yul\":8477:8491   */\n      add\n        /* \"#utility.yul\":8473:8501   */\n      and\n        /* \"#utility.yul\":8463:8501   */\n      swap1\n      pop\n        /* \"#utility.yul\":8405:8507   */\n      swap2\n      swap1\n      pop\n      jump\t// out\n        /* \"#utility.yul\":8513:8873   */\n    tag_290:\n        /* \"#utility.yul\":8599:8602   */\n      0x00\n        /* \"#utility.yul\":8627:8665   */\n      tag_463\n        /* \"#utility.yul\":8659:8664   */\n      dup3\n        /* \"#utility.yul\":8627:8665   */\n      tag_286\n      jump\t// in\n    tag_463:\n        /* \"#utility.yul\":8681:8751   */\n      tag_464\n        /* \"#utility.yul\":8744:8750   */\n      dup2\n        /* \"#utility.yul\":8739:8742   */\n      dup6\n        /* \"#utility.yul\":8681:8751   */\n      tag_287\n      jump\t// in\n    tag_464:\n        /* \"#utility.yul\":8674:8751   */\n      swap4\n      pop\n        /* \"#utility.yul\":8760:8812   */\n      tag_465\n        /* \"#utility.yul\":8805:8811   */\n      dup2\n        /* \"#utility.yul\":8800:8803   */\n      dup6\n        /* \"#utility.yul\":8793:8797   */\n      0x20\n        /* \"#utility.yul\":8786:8791   */\n      dup7\n        /* \"#utility.yul\":8782:8798   */\n      add\n        /* \"#utility.yul\":8760:8812   */\n      tag_288\n      jump\t// in\n    tag_465:\n        /* \"#utility.yul\":8837:8866   */\n      tag_466\n        /* \"#utility.yul\":8859:8865   */\n      dup2\n        /* \"#utility.yul\":8837:8866   */\n      tag_289\n      jump\t// in\n    tag_466:\n        /* \"#utility.yul\":8832:8835   */\n      dup5\n        /* \"#utility.yul\":8828:8867   */\n      add\n        /* \"#utility.yul\":8821:8867   */\n      swap2\n      pop\n        /* \"#utility.yul\":8603:8873   */\n      pop\n        /* \"#utility.yul\":8513:8873   */\n      swap3\n      swap2\n      pop\n      pop\n      jump\t// out\n        /* \"#utility.yul\":8879:9188   */\n    tag_51:\n        /* \"#utility.yul\":8990:8994   */\n      0x00\n        /* \"#utility.yul\":9028:9030   */\n      0x20\n        /* \"#utility.yul\":9017:9026   */\n      dup3\n        /* \"#utility.yul\":9013:9031   */\n      add\n        /* \"#utility.yul\":9005:9031   */\n      swap1\n      pop\n        /* \"#utility.yul\":9077:9086   */\n      dup2\n        /* \"#utility.yul\":9071:9075   */\n      dup2\n        /* \"#utility.yul\":9067:9087   */\n      sub\n        /* \"#utility.yul\":9063:9064   */\n      0x00\n        /* \"#utility.yul\":9052:9061   */\n      dup4\n        /* \"#utility.yul\":9048:9065   */\n      add\n        /* \"#utility.yul\":9041:9088   */\n      mstore\n        /* \"#utility.yul\":9105:9181   */\n      tag_468\n        /* \"#utility.yul\":9176:9180   */\n      dup2\n        /* \"#utility.yul\":9167:9173   */\n      dup5\n        /* \"#utility.yul\":9105:9181   */\n      tag_290\n      jump\t// in\n    tag_468:\n        /* \"#utility.yul\":9097:9181   */\n      swap1\n      pop\n        /* \"#utility.yul\":8879:9188   */\n      swap3\n      swap2\n      pop\n      pop\n      jump\t// out\n        /* \"#utility.yul\":9194:9334   */\n    tag_291:\n        /* \"#utility.yul\":9258:9267   */\n      0x00\n        /* \"#utility.yul\":9291:9328   */\n      tag_470\n        /* \"#utility.yul\":9322:9327   */\n      dup3\n        /* \"#utility.yul\":9291:9328   */\n      tag_264\n      jump\t// in\n    tag_470:\n        /* \"#utility.yul\":9278:9328   */\n      swap1\n      pop\n        /* \"#utility.yul\":9194:9334   */\n      swap2\n      swap1\n      pop\n      jump\t// out\n        /* \"#utility.yul\":9340:9499   */\n    tag_292:\n        /* \"#utility.yul\":9441:9492   */\n      tag_472\n        /* \"#utility.yul\":9486:9491   */\n      dup2\n        /* \"#utility.yul\":9441:9492   */\n      tag_291\n      jump\t// in\n    tag_472:\n        /* \"#utility.yul\":9436:9439   */\n      dup3\n        /* \"#utility.yul\":9429:9493   */\n      mstore\n        /* \"#utility.yul\":9340:9499   */\n      pop\n      pop\n      jump\t// out\n        /* \"#utility.yul\":9505:9755   */\n    tag_59:\n        /* \"#utility.yul\":9612:9616   */\n      0x00\n        /* \"#utility.yul\":9650:9652   */\n      0x20\n        /* \"#utility.yul\":9639:9648   */\n      dup3\n        /* \"#utility.yul\":9635:9653   */\n      add\n        /* \"#utility.yul\":9627:9653   */\n      swap1\n      pop\n        /* \"#utility.yul\":9663:9748   */\n      tag_474\n        /* \"#utility.yul\":9745:9746   */\n      0x00\n        /* \"#utility.yul\":9734:9743   */\n      dup4\n        /* \"#utility.yul\":9730:9747   */\n      add\n        /* \"#utility.yul\":9721:9727   */\n      dup5\n        /* \"#utility.yul\":9663:9748   */\n      tag_292\n      jump\t// in\n    tag_474:\n        /* \"#utility.yul\":9505:9755   */\n      swap3\n      swap2\n      pop\n      pop\n      jump\t// out\n        /* \"#utility.yul\":9761:9879   */\n    tag_293:\n        /* \"#utility.yul\":9848:9872   */\n      tag_476\n        /* \"#utility.yul\":9866:9871   */\n      dup2\n        /* \"#utility.yul\":9848:9872   */\n      tag_276\n      jump\t// in\n    tag_476:\n        /* \"#utility.yul\":9843:9846   */\n      dup3\n        /* \"#utility.yul\":9836:9873   */\n      mstore\n        /* \"#utility.yul\":9761:9879   */\n      pop\n      pop\n      jump\t// out\n        /* \"#utility.yul\":9885:10107   */\n    tag_64:\n        /* \"#utility.yul\":9978:9982   */\n      0x00\n        /* \"#utility.yul\":10016:10018   */\n      0x20\n        /* \"#utility.yul\":10005:10014   */\n      dup3\n        /* \"#utility.yul\":10001:10019   */\n      add\n        /* \"#utility.yul\":9993:10019   */\n      swap1\n      pop\n        /* \"#utility.yul\":10029:10100   */\n      tag_478\n        /* \"#utility.yul\":10097:10098   */\n      0x00\n        /* \"#utility.yul\":10086:10095   */\n      dup4\n        /* \"#utility.yul\":10082:10099   */\n      add\n        /* \"#utility.yul\":10073:10079   */\n      dup5\n        /* \"#utility.yul\":10029:10100   */\n      tag_293\n      jump\t// in\n    tag_478:\n        /* \"#utility.yul\":9885:10107   */\n      swap3\n      swap2\n      pop\n      pop\n      jump\t// out\n        /* \"#utility.yul\":10113:10293   */\n    tag_294:\n        /* \"#utility.yul\":10161:10238   */\n      0x4e487b7100000000000000000000000000000000000000000000000000000000\n        /* \"#utility.yul\":10158:10159   */\n      0x00\n        /* \"#utility.yul\":10151:10239   */\n      mstore\n        /* \"#utility.yul\":10258:10262   */\n      0x41\n        /* \"#utility.yul\":10255:10256   */\n      0x04\n        /* \"#utility.yul\":10248:10263   */\n      mstore\n        /* \"#utility.yul\":10282:10286   */\n      0x24\n        /* \"#utility.yul\":10279:10280   */\n      0x00\n        /* \"#utility.yul\":10272:10287   */\n      revert\n        /* \"#utility.yul\":10299:10580   */\n    tag_295:\n        /* \"#utility.yul\":10382:10409   */\n      tag_481\n        /* \"#utility.yul\":10404:10408   */\n      dup3\n        /* \"#utility.yul\":10382:10409   */\n      tag_289\n      jump\t// in\n    tag_481:\n        /* \"#utility.yul\":10374:10380   */\n      dup2\n        /* \"#utility.yul\":10370:10410   */\n      add\n        /* \"#utility.yul\":10512:10518   */\n      dup2\n        /* \"#utility.yul\":10500:10510   */\n      dup2\n        /* \"#utility.yul\":10497:10519   */\n      lt\n        /* \"#utility.yul\":10476:10494   */\n      0xffffffffffffffff\n        /* \"#utility.yul\":10464:10474   */\n      dup3\n        /* \"#utility.yul\":10461:10495   */\n      gt\n        /* \"#utility.yul\":10458:10520   */\n      or\n        /* \"#utility.yul\":10455:10543   */\n      iszero\n      tag_482\n      jumpi\n        /* \"#utility.yul\":10523:10541   */\n      tag_483\n      tag_294\n      jump\t// in\n    tag_483:\n        /* \"#utility.yul\":10455:10543   */\n    tag_482:\n        /* \"#utility.yul\":10563:10573   */\n      dup1\n        /* \"#utility.yul\":10559:10561   */\n      0x40\n        /* \"#utility.yul\":10552:10574   */\n      mstore\n        /* \"#utility.yul\":10342:10580   */\n      pop\n        /* \"#utility.yul\":10299:10580   */\n      pop\n      pop\n      jump\t// out\n        /* \"#utility.yul\":10586:10715   */\n    tag_296:\n        /* \"#utility.yul\":10620:10626   */\n      0x00\n        /* \"#utility.yul\":10647:10667   */\n      tag_485\n      tag_267\n      jump\t// in\n    tag_485:\n        /* \"#utility.yul\":10637:10667   */\n      swap1\n      pop\n        /* \"#utility.yul\":10676:10709   */\n      tag_486\n        /* \"#utility.yul\":10704:10708   */\n      dup3\n        /* \"#utility.yul\":10696:10702   */\n      dup3\n        /* \"#utility.yul\":10676:10709   */\n      tag_295\n      jump\t// in\n    tag_486:\n        /* \"#utility.yul\":10586:10715   */\n      swap2\n      swap1\n      pop\n      jump\t// out\n        /* \"#utility.yul\":10721:11032   */\n    tag_297:\n        /* \"#utility.yul\":10798:10802   */\n      0x00\n        /* \"#utility.yul\":10888:10906   */\n      0xffffffffffffffff\n        /* \"#utility.yul\":10880:10886   */\n      dup3\n        /* \"#utility.yul\":10877:10907   */\n      gt\n        /* \"#utility.yul\":10874:10930   */\n      iszero\n      tag_488\n      jumpi\n        /* \"#utility.yul\":10910:10928   */\n      tag_489\n      tag_294\n      jump\t// in\n    tag_489:\n        /* \"#utility.yul\":10874:10930   */\n    tag_488:\n        /* \"#utility.yul\":10960:10964   */\n      0x20\n        /* \"#utility.yul\":10952:10958   */\n      dup3\n        /* \"#utility.yul\":10948:10965   */\n      mul\n        /* \"#utility.yul\":10940:10965   */\n      swap1\n      pop\n        /* \"#utility.yul\":11020:11024   */\n      0x20\n        /* \"#utility.yul\":11014:11018   */\n      dup2\n        /* \"#utility.yul\":11010:11025   */\n      add\n        /* \"#utility.yul\":11002:11025   */\n      swap1\n      pop\n        /* \"#utility.yul\":10721:11032   */\n      swap2\n      swap1\n      pop\n      jump\t// out\n        /* \"#utility.yul\":11055:11765   */\n    tag_298:\n        /* \"#utility.yul\":11151:11156   */\n      0x00\n        /* \"#utility.yul\":11176:11257   */\n      tag_491\n        /* \"#utility.yul\":11192:11256   */\n      tag_492\n        /* \"#utility.yul\":11249:11255   */\n      dup5\n        /* \"#utility.yul\":11192:11256   */\n      tag_297\n      jump\t// in\n    tag_492:\n        /* \"#utility.yul\":11176:11257   */\n      tag_296\n      jump\t// in\n    tag_491:\n        /* \"#utility.yul\":11167:11257   */\n      swap1\n      pop\n        /* \"#utility.yul\":11277:11282   */\n      dup1\n        /* \"#utility.yul\":11306:11312   */\n      dup4\n        /* \"#utility.yul\":11299:11304   */\n      dup3\n        /* \"#utility.yul\":11292:11313   */\n      mstore\n        /* \"#utility.yul\":11340:11344   */\n      0x20\n        /* \"#utility.yul\":11333:11338   */\n      dup3\n        /* \"#utility.yul\":11329:11345   */\n      add\n        /* \"#utility.yul\":11322:11345   */\n      swap1\n      pop\n        /* \"#utility.yul\":11393:11397   */\n      0x20\n        /* \"#utility.yul\":11385:11391   */\n      dup5\n        /* \"#utility.yul\":11381:11398   */\n      mul\n        /* \"#utility.yul\":11373:11379   */\n      dup4\n        /* \"#utility.yul\":11369:11399   */\n      add\n        /* \"#utility.yul\":11422:11425   */\n      dup6\n        /* \"#utility.yul\":11414:11420   */\n      dup2\n        /* \"#utility.yul\":11411:11426   */\n      gt\n        /* \"#utility.yul\":11408:11530   */\n      iszero\n      tag_493\n      jumpi\n        /* \"#utility.yul\":11441:11520   */\n      tag_494\n      tag_281\n      jump\t// in\n    tag_494:\n        /* \"#utility.yul\":11408:11530   */\n    tag_493:\n        /* \"#utility.yul\":11556:11562   */\n      dup4\n        /* \"#utility.yul\":11539:11759   */\n    tag_495:\n        /* \"#utility.yul\":11573:11579   */\n      dup2\n        /* \"#utility.yul\":11568:11571   */\n      dup2\n        /* \"#utility.yul\":11565:11580   */\n      lt\n        /* \"#utility.yul\":11539:11759   */\n      iszero\n      tag_497\n      jumpi\n        /* \"#utility.yul\":11648:11651   */\n      dup1\n        /* \"#utility.yul\":11677:11714   */\n      tag_498\n        /* \"#utility.yul\":11710:11713   */\n      dup9\n        /* \"#utility.yul\":11698:11708   */\n      dup3\n        /* \"#utility.yul\":11677:11714   */\n      tag_278\n      jump\t// in\n    tag_498:\n        /* \"#utility.yul\":11672:11675   */\n      dup5\n        /* \"#utility.yul\":11665:11715   */\n      mstore\n        /* \"#utility.yul\":11744:11748   */\n      0x20\n        /* \"#utility.yul\":11739:11742   */\n      dup5\n        /* \"#utility.yul\":11735:11749   */\n      add\n        /* \"#utility.yul\":11728:11749   */\n      swap4\n      pop\n        /* \"#utility.yul\":11615:11759   */\n      pop\n        /* \"#utility.yul\":11599:11603   */\n      0x20\n        /* \"#utility.yul\":11594:11597   */\n      dup2\n        /* \"#utility.yul\":11590:11604   */\n      add\n        /* \"#utility.yul\":11583:11604   */\n      swap1\n      pop\n        /* \"#utility.yul\":11539:11759   */\n      jump(tag_495)\n    tag_497:\n        /* \"#utility.yul\":11543:11564   */\n      pop\n        /* \"#utility.yul\":11157:11765   */\n      pop\n      pop\n        /* \"#utility.yul\":11055:11765   */\n      swap4\n      swap3\n      pop\n      pop\n      pop\n      jump\t// out\n        /* \"#utility.yul\":11788:12158   */\n    tag_299:\n        /* \"#utility.yul\":11859:11864   */\n      0x00\n        /* \"#utility.yul\":11908:11911   */\n      dup3\n        /* \"#utility.yul\":11901:11905   */\n      0x1f\n        /* \"#utility.yul\":11893:11899   */\n      dup4\n        /* \"#utility.yul\":11889:11906   */\n      add\n        /* \"#utility.yul\":11885:11912   */\n      slt\n        /* \"#utility.yul\":11875:11997   */\n      tag_500\n      jumpi\n        /* \"#utility.yul\":11916:11995   */\n      tag_501\n      tag_279\n      jump\t// in\n    tag_501:\n        /* \"#utility.yul\":11875:11997   */\n    tag_500:\n        /* \"#utility.yul\":12033:12039   */\n      dup2\n        /* \"#utility.yul\":12020:12040   */\n      calldataload\n        /* \"#utility.yul\":12058:12152   */\n      tag_502\n        /* \"#utility.yul\":12148:12151   */\n      dup5\n        /* \"#utility.yul\":12140:12146   */\n      dup3\n        /* \"#utility.yul\":12133:12137   */\n      0x20\n        /* \"#utility.yul\":12125:12131   */\n      dup7\n        /* \"#utility.yul\":12121:12138   */\n      add\n        /* \"#utility.yul\":12058:12152   */\n      tag_298\n      jump\t// in\n    tag_502:\n        /* \"#utility.yul\":12049:12152   */\n      swap2\n      pop\n        /* \"#utility.yul\":11865:12158   */\n      pop\n        /* \"#utility.yul\":11788:12158   */\n      swap3\n      swap2\n      pop\n      pop\n      jump\t// out\n        /* \"#utility.yul\":12164:12484   */\n    tag_300:\n        /* \"#utility.yul\":12250:12254   */\n      0x00\n        /* \"#utility.yul\":12340:12358   */\n      0xffffffffffffffff\n        /* \"#utility.yul\":12332:12338   */\n      dup3\n        /* \"#utility.yul\":12329:12359   */\n      gt\n        /* \"#utility.yul\":12326:12382   */\n      iszero\n      tag_504\n      jumpi\n        /* \"#utility.yul\":12362:12380   */\n      tag_505\n      tag_294\n      jump\t// in\n    tag_505:\n        /* \"#utility.yul\":12326:12382   */\n    tag_504:\n        /* \"#utility.yul\":12412:12416   */\n      0x20\n        /* \"#utility.yul\":12404:12410   */\n      dup3\n        /* \"#utility.yul\":12400:12417   */\n      mul\n        /* \"#utility.yul\":12392:12417   */\n      swap1\n      pop\n        /* \"#utility.yul\":12472:12476   */\n      0x20\n        /* \"#utility.yul\":12466:12470   */\n      dup2\n        /* \"#utility.yul\":12462:12477   */\n      add\n        /* \"#utility.yul\":12454:12477   */\n      swap1\n      pop\n        /* \"#utility.yul\":12164:12484   */\n      swap2\n      swap1\n      pop\n      jump\t// out\n        /* \"#utility.yul\":12490:12607   */\n    tag_301:\n        /* \"#utility.yul\":12599:12600   */\n      0x00\n        /* \"#utility.yul\":12596:12597   */\n      dup1\n        /* \"#utility.yul\":12589:12601   */\n      revert\n        /* \"#utility.yul\":12613:12920   */\n    tag_302:\n        /* \"#utility.yul\":12674:12678   */\n      0x00\n        /* \"#utility.yul\":12764:12782   */\n      0xffffffffffffffff\n        /* \"#utility.yul\":12756:12762   */\n      dup3\n        /* \"#utility.yul\":12753:12783   */\n      gt\n        /* \"#utility.yul\":12750:12806   */\n      iszero\n      tag_508\n      jumpi\n        /* \"#utility.yul\":12786:12804   */\n      tag_509\n      tag_294\n      jump\t// in\n    tag_509:\n        /* \"#utility.yul\":12750:12806   */\n    tag_508:\n        /* \"#utility.yul\":12824:12853   */\n      tag_510\n        /* \"#utility.yul\":12846:12852   */\n      dup3\n        /* \"#utility.yul\":12824:12853   */\n      tag_289\n      jump\t// in\n    tag_510:\n        /* \"#utility.yul\":12816:12853   */\n      swap1\n      pop\n        /* \"#utility.yul\":12908:12912   */\n      0x20\n        /* \"#utility.yul\":12902:12906   */\n      dup2\n        /* \"#utility.yul\":12898:12913   */\n      add\n        /* \"#utility.yul\":12890:12913   */\n      swap1\n      pop\n        /* \"#utility.yul\":12613:12920   */\n      swap2\n      swap1\n      pop\n      jump\t// out\n        /* \"#utility.yul\":12926:13080   */\n    tag_303:\n        /* \"#utility.yul\":13010:13016   */\n      dup3\n        /* \"#utility.yul\":13005:13008   */\n      dup2\n        /* \"#utility.yul\":13000:13003   */\n      dup4\n        /* \"#utility.yul\":12987:13017   */\n      calldatacopy\n        /* \"#utility.yul\":13072:13073   */\n      0x00\n        /* \"#utility.yul\":13063:13069   */\n      dup4\n        /* \"#utility.yul\":13058:13061   */\n      dup4\n        /* \"#utility.yul\":13054:13070   */\n      add\n        /* \"#utility.yul\":13047:13074   */\n      mstore\n        /* \"#utility.yul\":12926:13080   */\n      pop\n      pop\n      pop\n      jump\t// out\n        /* \"#utility.yul\":13086:13496   */\n    tag_304:\n        /* \"#utility.yul\":13163:13168   */\n      0x00\n        /* \"#utility.yul\":13188:13253   */\n      tag_513\n        /* \"#utility.yul\":13204:13252   */\n      tag_514\n        /* \"#utility.yul\":13245:13251   */\n      dup5\n        /* \"#utility.yul\":13204:13252   */\n      tag_302\n      jump\t// in\n    tag_514:\n        /* \"#utility.yul\":13188:13253   */\n      tag_296\n      jump\t// in\n    tag_513:\n        /* \"#utility.yul\":13179:13253   */\n      swap1\n      pop\n        /* \"#utility.yul\":13276:13282   */\n      dup3\n        /* \"#utility.yul\":13269:13274   */\n      dup2\n        /* \"#utility.yul\":13262:13283   */\n      mstore\n        /* \"#utility.yul\":13314:13318   */\n      0x20\n        /* \"#utility.yul\":13307:13312   */\n      dup2\n        /* \"#utility.yul\":13303:13319   */\n      add\n        /* \"#utility.yul\":13352:13355   */\n      dup5\n        /* \"#utility.yul\":13343:13349   */\n      dup5\n        /* \"#utility.yul\":13338:13341   */\n      dup5\n        /* \"#utility.yul\":13334:13350   */\n      add\n        /* \"#utility.yul\":13331:13356   */\n      gt\n        /* \"#utility.yul\":13328:13440   */\n      iszero\n      tag_515\n      jumpi\n        /* \"#utility.yul\":13359:13438   */\n      tag_516\n      tag_301\n      jump\t// in\n    tag_516:\n        /* \"#utility.yul\":13328:13440   */\n    tag_515:\n        /* \"#utility.yul\":13449:13490   */\n      tag_517\n        /* \"#utility.yul\":13483:13489   */\n      dup5\n        /* \"#utility.yul\":13478:13481   */\n      dup3\n        /* \"#utility.yul\":13473:13476   */\n      dup6\n        /* \"#utility.yul\":13449:13490   */\n      tag_303\n      jump\t// in\n    tag_517:\n        /* \"#utility.yul\":13169:13496   */\n      pop\n        /* \"#utility.yul\":13086:13496   */\n      swap4\n      swap3\n      pop\n      pop\n      pop\n      jump\t// out\n        /* \"#utility.yul\":13515:13853   */\n    tag_305:\n        /* \"#utility.yul\":13570:13575   */\n      0x00\n        /* \"#utility.yul\":13619:13622   */\n      dup3\n        /* \"#utility.yul\":13612:13616   */\n      0x1f\n        /* \"#utility.yul\":13604:13610   */\n      dup4\n        /* \"#utility.yul\":13600:13617   */\n      add\n        /* \"#utility.yul\":13596:13623   */\n      slt\n        /* \"#utility.yul\":13586:13708   */\n      tag_519\n      jumpi\n        /* \"#utility.yul\":13627:13706   */\n      tag_520\n      tag_279\n      jump\t// in\n    tag_520:\n        /* \"#utility.yul\":13586:13708   */\n    tag_519:\n        /* \"#utility.yul\":13744:13750   */\n      dup2\n        /* \"#utility.yul\":13731:13751   */\n      calldataload\n        /* \"#utility.yul\":13769:13847   */\n      tag_521\n        /* \"#utility.yul\":13843:13846   */\n      dup5\n        /* \"#utility.yul\":13835:13841   */\n      dup3\n        /* \"#utility.yul\":13828:13832   */\n      0x20\n        /* \"#utility.yul\":13820:13826   */\n      dup7\n        /* \"#utility.yul\":13816:13833   */\n      add\n        /* \"#utility.yul\":13769:13847   */\n      tag_304\n      jump\t// in\n    tag_521:\n        /* \"#utility.yul\":13760:13847   */\n      swap2\n      pop\n        /* \"#utility.yul\":13576:13853   */\n      pop\n        /* \"#utility.yul\":13515:13853   */\n      swap3\n      swap2\n      pop\n      pop\n      jump\t// out\n        /* \"#utility.yul\":13874:14816   */\n    tag_306:\n        /* \"#utility.yul\":13979:13984   */\n      0x00\n        /* \"#utility.yul\":14004:14094   */\n      tag_523\n        /* \"#utility.yul\":14020:14093   */\n      tag_524\n        /* \"#utility.yul\":14086:14092   */\n      dup5\n        /* \"#utility.yul\":14020:14093   */\n      tag_300\n      jump\t// in\n    tag_524:\n        /* \"#utility.yul\":14004:14094   */\n      tag_296\n      jump\t// in\n    tag_523:\n        /* \"#utility.yul\":13995:14094   */\n      swap1\n      pop\n        /* \"#utility.yul\":14114:14119   */\n      dup1\n        /* \"#utility.yul\":14143:14149   */\n      dup4\n        /* \"#utility.yul\":14136:14141   */\n      dup3\n        /* \"#utility.yul\":14129:14150   */\n      mstore\n        /* \"#utility.yul\":14177:14181   */\n      0x20\n        /* \"#utility.yul\":14170:14175   */\n      dup3\n        /* \"#utility.yul\":14166:14182   */\n      add\n        /* \"#utility.yul\":14159:14182   */\n      swap1\n      pop\n        /* \"#utility.yul\":14230:14234   */\n      0x20\n        /* \"#utility.yul\":14222:14228   */\n      dup5\n        /* \"#utility.yul\":14218:14235   */\n      mul\n        /* \"#utility.yul\":14210:14216   */\n      dup4\n        /* \"#utility.yul\":14206:14236   */\n      add\n        /* \"#utility.yul\":14259:14262   */\n      dup6\n        /* \"#utility.yul\":14251:14257   */\n      dup2\n        /* \"#utility.yul\":14248:14263   */\n      gt\n        /* \"#utility.yul\":14245:14367   */\n      iszero\n      tag_525\n      jumpi\n        /* \"#utility.yul\":14278:14357   */\n      tag_526\n      tag_281\n      jump\t// in\n    tag_526:\n        /* \"#utility.yul\":14245:14367   */\n    tag_525:\n        /* \"#utility.yul\":14393:14399   */\n      dup4\n        /* \"#utility.yul\":14376:14810   */\n    tag_527:\n        /* \"#utility.yul\":14410:14416   */\n      dup2\n        /* \"#utility.yul\":14405:14408   */\n      dup2\n        /* \"#utility.yul\":14402:14417   */\n      lt\n        /* \"#utility.yul\":14376:14810   */\n      iszero\n      tag_529\n      jumpi\n        /* \"#utility.yul\":14499:14502   */\n      dup1\n        /* \"#utility.yul\":14486:14503   */\n      calldataload\n        /* \"#utility.yul\":14535:14553   */\n      0xffffffffffffffff\n        /* \"#utility.yul\":14522:14533   */\n      dup2\n        /* \"#utility.yul\":14519:14554   */\n      gt\n        /* \"#utility.yul\":14516:14638   */\n      iszero\n      tag_530\n      jumpi\n        /* \"#utility.yul\":14557:14636   */\n      tag_531\n      tag_279\n      jump\t// in\n    tag_531:\n        /* \"#utility.yul\":14516:14638   */\n    tag_530:\n        /* \"#utility.yul\":14681:14692   */\n      dup1\n        /* \"#utility.yul\":14673:14679   */\n      dup7\n        /* \"#utility.yul\":14669:14693   */\n      add\n        /* \"#utility.yul\":14719:14765   */\n      tag_532\n        /* \"#utility.yul\":14761:14764   */\n      dup10\n        /* \"#utility.yul\":14749:14759   */\n      dup3\n        /* \"#utility.yul\":14719:14765   */\n      tag_305\n      jump\t// in\n    tag_532:\n        /* \"#utility.yul\":14714:14717   */\n      dup6\n        /* \"#utility.yul\":14707:14766   */\n      mstore\n        /* \"#utility.yul\":14795:14799   */\n      0x20\n        /* \"#utility.yul\":14790:14793   */\n      dup6\n        /* \"#utility.yul\":14786:14800   */\n      add\n        /* \"#utility.yul\":14779:14800   */\n      swap5\n      pop\n        /* \"#utility.yul\":14452:14810   */\n      pop\n      pop\n        /* \"#utility.yul\":14436:14440   */\n      0x20\n        /* \"#utility.yul\":14431:14434   */\n      dup2\n        /* \"#utility.yul\":14427:14441   */\n      add\n        /* \"#utility.yul\":14420:14441   */\n      swap1\n      pop\n        /* \"#utility.yul\":14376:14810   */\n      jump(tag_527)\n    tag_529:\n        /* \"#utility.yul\":14380:14401   */\n      pop\n        /* \"#utility.yul\":13985:14816   */\n      pop\n      pop\n        /* \"#utility.yul\":13874:14816   */\n      swap4\n      swap3\n      pop\n      pop\n      pop\n      jump\t// out\n        /* \"#utility.yul\":14837:15225   */\n    tag_307:\n        /* \"#utility.yul\":14917:14922   */\n      0x00\n        /* \"#utility.yul\":14966:14969   */\n      dup3\n        /* \"#utility.yul\":14959:14963   */\n      0x1f\n        /* \"#utility.yul\":14951:14957   */\n      dup4\n        /* \"#utility.yul\":14947:14964   */\n      add\n        /* \"#utility.yul\":14943:14970   */\n      slt\n        /* \"#utility.yul\":14933:15055   */\n      tag_534\n      jumpi\n        /* \"#utility.yul\":14974:15053   */\n      tag_535\n      tag_279\n      jump\t// in\n    tag_535:\n        /* \"#utility.yul\":14933:15055   */\n    tag_534:\n        /* \"#utility.yul\":15091:15097   */\n      dup2\n        /* \"#utility.yul\":15078:15098   */\n      calldataload\n        /* \"#utility.yul\":15116:15219   */\n      tag_536\n        /* \"#utility.yul\":15215:15218   */\n      dup5\n        /* \"#utility.yul\":15207:15213   */\n      dup3\n        /* \"#utility.yul\":15200:15204   */\n      0x20\n        /* \"#utility.yul\":15192:15198   */\n      dup7\n        /* \"#utility.yul\":15188:15205   */\n      add\n        /* \"#utility.yul\":15116:15219   */\n      tag_306\n      jump\t// in\n    tag_536:\n        /* \"#utility.yul\":15107:15219   */\n      swap2\n      pop\n        /* \"#utility.yul\":14923:15225   */\n      pop\n        /* \"#utility.yul\":14837:15225   */\n      swap3\n      swap2\n      pop\n      pop\n      jump\t// out\n        /* \"#utility.yul\":15231:16434   */\n    tag_67:\n        /* \"#utility.yul\":15376:15382   */\n      0x00\n        /* \"#utility.yul\":15384:15390   */\n      dup1\n        /* \"#utility.yul\":15392:15398   */\n      0x00\n        /* \"#utility.yul\":15400:15406   */\n      dup1\n        /* \"#utility.yul\":15449:15452   */\n      0x80\n        /* \"#utility.yul\":15437:15446   */\n      dup6\n        /* \"#utility.yul\":15428:15435   */\n      dup8\n        /* \"#utility.yul\":15424:15447   */\n      sub\n        /* \"#utility.yul\":15420:15453   */\n      slt\n        /* \"#utility.yul\":15417:15537   */\n      iszero\n      tag_538\n      jumpi\n        /* \"#utility.yul\":15456:15535   */\n      tag_539\n      tag_268\n      jump\t// in\n    tag_539:\n        /* \"#utility.yul\":15417:15537   */\n    tag_538:\n        /* \"#utility.yul\":15576:15577   */\n      0x00\n        /* \"#utility.yul\":15601:15654   */\n      tag_540\n        /* \"#utility.yul\":15646:15653   */\n      dup8\n        /* \"#utility.yul\":15637:15643   */\n      dup3\n        /* \"#utility.yul\":15626:15635   */\n      dup9\n        /* \"#utility.yul\":15622:15644   */\n      add\n        /* \"#utility.yul\":15601:15654   */\n      tag_275\n      jump\t// in\n    tag_540:\n        /* \"#utility.yul\":15591:15654   */\n      swap5\n      pop\n        /* \"#utility.yul\":15547:15664   */\n      pop\n        /* \"#utility.yul\":15703:15705   */\n      0x20\n        /* \"#utility.yul\":15729:15782   */\n      tag_541\n        /* \"#utility.yul\":15774:15781   */\n      dup8\n        /* \"#utility.yul\":15765:15771   */\n      dup3\n        /* \"#utility.yul\":15754:15763   */\n      dup9\n        /* \"#utility.yul\":15750:15772   */\n      add\n        /* \"#utility.yul\":15729:15782   */\n      tag_275\n      jump\t// in\n    tag_541:\n        /* \"#utility.yul\":15719:15782   */\n      swap4\n      pop\n        /* \"#utility.yul\":15674:15792   */\n      pop\n        /* \"#utility.yul\":15859:15861   */\n      0x40\n        /* \"#utility.yul\":15848:15857   */\n      dup6\n        /* \"#utility.yul\":15844:15862   */\n      add\n        /* \"#utility.yul\":15831:15863   */\n      calldataload\n        /* \"#utility.yul\":15890:15908   */\n      0xffffffffffffffff\n        /* \"#utility.yul\":15882:15888   */\n      dup2\n        /* \"#utility.yul\":15879:15909   */\n      gt\n        /* \"#utility.yul\":15876:15993   */\n      iszero\n      tag_542\n      jumpi\n        /* \"#utility.yul\":15912:15991   */\n      tag_543\n      tag_269\n      jump\t// in\n    tag_543:\n        /* \"#utility.yul\":15876:15993   */\n    tag_542:\n        /* \"#utility.yul\":16017:16095   */\n      tag_544\n        /* \"#utility.yul\":16087:16094   */\n      dup8\n        /* \"#utility.yul\":16078:16084   */\n      dup3\n        /* \"#utility.yul\":16067:16076   */\n      dup9\n        /* \"#utility.yul\":16063:16085   */\n      add\n        /* \"#utility.yul\":16017:16095   */\n      tag_299\n      jump\t// in\n    tag_544:\n        /* \"#utility.yul\":16007:16095   */\n      swap3\n      pop\n        /* \"#utility.yul\":15802:16105   */\n      pop\n        /* \"#utility.yul\":16172:16174   */\n      0x60\n        /* \"#utility.yul\":16161:16170   */\n      dup6\n        /* \"#utility.yul\":16157:16175   */\n      add\n        /* \"#utility.yul\":16144:16176   */\n      calldataload\n        /* \"#utility.yul\":16203:16221   */\n      0xffffffffffffffff\n        /* \"#utility.yul\":16195:16201   */\n      dup2\n        /* \"#utility.yul\":16192:16222   */\n      gt\n        /* \"#utility.yul\":16189:16306   */\n      iszero\n      tag_545\n      jumpi\n        /* \"#utility.yul\":16225:16304   */\n      tag_546\n      tag_269\n      jump\t// in\n    tag_546:\n        /* \"#utility.yul\":16189:16306   */\n    tag_545:\n        /* \"#utility.yul\":16330:16417   */\n      tag_547\n        /* \"#utility.yul\":16409:16416   */\n      dup8\n        /* \"#utility.yul\":16400:16406   */\n      dup3\n        /* \"#utility.yul\":16389:16398   */\n      dup9\n        /* \"#utility.yul\":16385:16407   */\n      add\n        /* \"#utility.yul\":16330:16417   */\n      tag_307\n      jump\t// in\n    tag_547:\n        /* \"#utility.yul\":16320:16417   */\n      swap2\n      pop\n        /* \"#utility.yul\":16115:16427   */\n      pop\n        /* \"#utility.yul\":15231:16434   */\n      swap3\n      swap6\n      swap2\n      swap5\n      pop\n      swap3\n      pop\n      jump\t// out\n        /* \"#utility.yul\":16440:17059   */\n    tag_76:\n        /* \"#utility.yul\":16517:16523   */\n      0x00\n        /* \"#utility.yul\":16525:16531   */\n      dup1\n        /* \"#utility.yul\":16533:16539   */\n      0x00\n        /* \"#utility.yul\":16582:16584   */\n      0x60\n        /* \"#utility.yul\":16570:16579   */\n      dup5\n        /* \"#utility.yul\":16561:16568   */\n      dup7\n        /* \"#utility.yul\":16557:16580   */\n      sub\n        /* \"#utility.yul\":16553:16585   */\n      slt\n        /* \"#utility.yul\":16550:16669   */\n      iszero\n      tag_549\n      jumpi\n        /* \"#utility.yul\":16588:16667   */\n      tag_550\n      tag_268\n      jump\t// in\n    tag_550:\n        /* \"#utility.yul\":16550:16669   */\n    tag_549:\n        /* \"#utility.yul\":16708:16709   */\n      0x00\n        /* \"#utility.yul\":16733:16786   */\n      tag_551\n        /* \"#utility.yul\":16778:16785   */\n      dup7\n        /* \"#utility.yul\":16769:16775   */\n      dup3\n        /* \"#utility.yul\":16758:16767   */\n      dup8\n        /* \"#utility.yul\":16754:16776   */\n      add\n        /* \"#utility.yul\":16733:16786   */\n      tag_278\n      jump\t// in\n    tag_551:\n        /* \"#utility.yul\":16723:16786   */\n      swap4\n      pop\n        /* \"#utility.yul\":16679:16796   */\n      pop\n        /* \"#utility.yul\":16835:16837   */\n      0x20\n        /* \"#utility.yul\":16861:16914   */\n      tag_552\n        /* \"#utility.yul\":16906:16913   */\n      dup7\n        /* \"#utility.yul\":16897:16903   */\n      dup3\n        /* \"#utility.yul\":16886:16895   */\n      dup8\n        /* \"#utility.yul\":16882:16904   */\n      add\n        /* \"#utility.yul\":16861:16914   */\n      tag_278\n      jump\t// in\n    tag_552:\n        /* \"#utility.yul\":16851:16914   */\n      swap3\n      pop\n        /* \"#utility.yul\":16806:16924   */\n      pop\n        /* \"#utility.yul\":16963:16965   */\n      0x40\n        /* \"#utility.yul\":16989:17042   */\n      tag_553\n        /* \"#utility.yul\":17034:17041   */\n      dup7\n        /* \"#utility.yul\":17025:17031   */\n      dup3\n        /* \"#utility.yul\":17014:17023   */\n      dup8\n        /* \"#utility.yul\":17010:17032   */\n      add\n        /* \"#utility.yul\":16989:17042   */\n      tag_275\n      jump\t// in\n    tag_553:\n        /* \"#utility.yul\":16979:17042   */\n      swap2\n      pop\n        /* \"#utility.yul\":16934:17052   */\n      pop\n        /* \"#utility.yul\":16440:17059   */\n      swap3\n      pop\n      swap3\n      pop\n      swap3\n      jump\t// out\n        /* \"#utility.yul\":17065:17234   */\n    tag_308:\n        /* \"#utility.yul\":17149:17160   */\n      0x00\n        /* \"#utility.yul\":17183:17189   */\n      dup3\n        /* \"#utility.yul\":17178:17181   */\n      dup3\n        /* \"#utility.yul\":17171:17190   */\n      mstore\n        /* \"#utility.yul\":17223:17227   */\n      0x20\n        /* \"#utility.yul\":17218:17221   */\n      dup3\n        /* \"#utility.yul\":17214:17228   */\n      add\n        /* \"#utility.yul\":17199:17228   */\n      swap1\n      pop\n        /* \"#utility.yul\":17065:17234   */\n      swap3\n      swap2\n      pop\n      pop\n      jump\t// out\n        /* \"#utility.yul\":17240:17422   */\n    tag_309:\n        /* \"#utility.yul\":17380:17414   */\n      0x526563697069656e7420616464726573732063616e6e6f74206265207a65726f\n        /* \"#utility.yul\":17376:17377   */\n      0x00\n        /* \"#utility.yul\":17368:17374   */\n      dup3\n        /* \"#utility.yul\":17364:17378   */\n      add\n        /* \"#utility.yul\":17357:17415   */\n      mstore\n        /* \"#utility.yul\":17240:17422   */\n      pop\n      jump\t// out\n        /* \"#utility.yul\":17428:17794   */\n    tag_310:\n        /* \"#utility.yul\":17570:17573   */\n      0x00\n        /* \"#utility.yul\":17591:17658   */\n      tag_557\n        /* \"#utility.yul\":17655:17657   */\n      0x20\n        /* \"#utility.yul\":17650:17653   */\n      dup4\n        /* \"#utility.yul\":17591:17658   */\n      tag_308\n      jump\t// in\n    tag_557:\n        /* \"#utility.yul\":17584:17658   */\n      swap2\n      pop\n        /* \"#utility.yul\":17667:17760   */\n      tag_558\n        /* \"#utility.yul\":17756:17759   */\n      dup3\n        /* \"#utility.yul\":17667:17760   */\n      tag_309\n      jump\t// in\n    tag_558:\n        /* \"#utility.yul\":17785:17787   */\n      0x20\n        /* \"#utility.yul\":17780:17783   */\n      dup3\n        /* \"#utility.yul\":17776:17788   */\n      add\n        /* \"#utility.yul\":17769:17788   */\n      swap1\n      pop\n        /* \"#utility.yul\":17428:17794   */\n      swap2\n      swap1\n      pop\n      jump\t// out\n        /* \"#utility.yul\":17800:18219   */\n    tag_84:\n        /* \"#utility.yul\":17966:17970   */\n      0x00\n        /* \"#utility.yul\":18004:18006   */\n      0x20\n        /* \"#utility.yul\":17993:18002   */\n      dup3\n        /* \"#utility.yul\":17989:18007   */\n      add\n        /* \"#utility.yul\":17981:18007   */\n      swap1\n      pop\n        /* \"#utility.yul\":18053:18062   */\n      dup2\n        /* \"#utility.yul\":18047:18051   */\n      dup2\n        /* \"#utility.yul\":18043:18063   */\n      sub\n        /* \"#utility.yul\":18039:18040   */\n      0x00\n        /* \"#utility.yul\":18028:18037   */\n      dup4\n        /* \"#utility.yul\":18024:18041   */\n      add\n        /* \"#utility.yul\":18017:18064   */\n      mstore\n        /* \"#utility.yul\":18081:18212   */\n      tag_560\n        /* \"#utility.yul\":18207:18211   */\n      dup2\n        /* \"#utility.yul\":18081:18212   */\n      tag_310\n      jump\t// in\n    tag_560:\n        /* \"#utility.yul\":18073:18212   */\n      swap1\n      pop\n        /* \"#utility.yul\":17800:18219   */\n      swap2\n      swap1\n      pop\n      jump\t// out\n        /* \"#utility.yul\":18225:18407   */\n    tag_311:\n        /* \"#utility.yul\":18365:18399   */\n      0x416d6f756e74206d7573742062652067726561746572207468616e207a65726f\n        /* \"#utility.yul\":18361:18362   */\n      0x00\n        /* \"#utility.yul\":18353:18359   */\n      dup3\n        /* \"#utility.yul\":18349:18363   */\n      add\n        /* \"#utility.yul\":18342:18400   */\n      mstore\n        /* \"#utility.yul\":18225:18407   */\n      pop\n      jump\t// out\n        /* \"#utility.yul\":18413:18779   */\n    tag_312:\n        /* \"#utility.yul\":18555:18558   */\n      0x00\n        /* \"#utility.yul\":18576:18643   */\n      tag_563\n        /* \"#utility.yul\":18640:18642   */\n      0x20\n        /* \"#utility.yul\":18635:18638   */\n      dup4\n        /* \"#utility.yul\":18576:18643   */\n      tag_308\n      jump\t// in\n    tag_563:\n        /* \"#utility.yul\":18569:18643   */\n      swap2\n      pop\n        /* \"#utility.yul\":18652:18745   */\n      tag_564\n        /* \"#utility.yul\":18741:18744   */\n      dup3\n        /* \"#utility.yul\":18652:18745   */\n      tag_311\n      jump\t// in\n    tag_564:\n        /* \"#utility.yul\":18770:18772   */\n      0x20\n        /* \"#utility.yul\":18765:18768   */\n      dup3\n        /* \"#utility.yul\":18761:18773   */\n      add\n        /* \"#utility.yul\":18754:18773   */\n      swap1\n      pop\n        /* \"#utility.yul\":18413:18779   */\n      swap2\n      swap1\n      pop\n      jump\t// out\n        /* \"#utility.yul\":18785:19204   */\n    tag_87:\n        /* \"#utility.yul\":18951:18955   */\n      0x00\n        /* \"#utility.yul\":18989:18991   */\n      0x20\n        /* \"#utility.yul\":18978:18987   */\n      dup3\n        /* \"#utility.yul\":18974:18992   */\n      add\n        /* \"#utility.yul\":18966:18992   */\n      swap1\n      pop\n        /* \"#utility.yul\":19038:19047   */\n      dup2\n        /* \"#utility.yul\":19032:19036   */\n      dup2\n        /* \"#utility.yul\":19028:19048   */\n      sub\n        /* \"#utility.yul\":19024:19025   */\n      0x00\n        /* \"#utility.yul\":19013:19022   */\n      dup4\n        /* \"#utility.yul\":19009:19026   */\n      add\n        /* \"#utility.yul\":19002:19049   */\n      mstore\n        /* \"#utility.yul\":19066:19197   */\n      tag_566\n        /* \"#utility.yul\":19192:19196   */\n      dup2\n        /* \"#utility.yul\":19066:19197   */\n      tag_312\n      jump\t// in\n    tag_566:\n        /* \"#utility.yul\":19058:19197   */\n      swap1\n      pop\n        /* \"#utility.yul\":18785:19204   */\n      swap2\n      swap1\n      pop\n      jump\t// out\n        /* \"#utility.yul\":19210:19389   */\n    tag_313:\n        /* \"#utility.yul\":19350:19381   */\n      0x496e73756666696369656e7420636f6e74726163742062616c616e6365000000\n        /* \"#utility.yul\":19346:19347   */\n      0x00\n        /* \"#utility.yul\":19338:19344   */\n      dup3\n        /* \"#utility.yul\":19334:19348   */\n      add\n        /* \"#utility.yul\":19327:19382   */\n      mstore\n        /* \"#utility.yul\":19210:19389   */\n      pop\n      jump\t// out\n        /* \"#utility.yul\":19395:19761   */\n    tag_314:\n        /* \"#utility.yul\":19537:19540   */\n      0x00\n        /* \"#utility.yul\":19558:19625   */\n      tag_569\n        /* \"#utility.yul\":19622:19624   */\n      0x1d\n        /* \"#utility.yul\":19617:19620   */\n      dup4\n        /* \"#utility.yul\":19558:19625   */\n      tag_308\n      jump\t// in\n    tag_569:\n        /* \"#utility.yul\":19551:19625   */\n      swap2\n      pop\n        /* \"#utility.yul\":19634:19727   */\n      tag_570\n        /* \"#utility.yul\":19723:19726   */\n      dup3\n        /* \"#utility.yul\":19634:19727   */\n      tag_313\n      jump\t// in\n    tag_570:\n        /* \"#utility.yul\":19752:19754   */\n      0x20\n        /* \"#utility.yul\":19747:19750   */\n      dup3\n        /* \"#utility.yul\":19743:19755   */\n      add\n        /* \"#utility.yul\":19736:19755   */\n      swap1\n      pop\n        /* \"#utility.yul\":19395:19761   */\n      swap2\n      swap1\n      pop\n      jump\t// out\n        /* \"#utility.yul\":19767:20186   */\n    tag_90:\n        /* \"#utility.yul\":19933:19937   */\n      0x00\n        /* \"#utility.yul\":19971:19973   */\n      0x20\n        /* \"#utility.yul\":19960:19969   */\n      dup3\n        /* \"#utility.yul\":19956:19974   */\n      add\n        /* \"#utility.yul\":19948:19974   */\n      swap1\n      pop\n        /* \"#utility.yul\":20020:20029   */\n      dup2\n        /* \"#utility.yul\":20014:20018   */\n      dup2\n        /* \"#utility.yul\":20010:20030   */\n      sub\n        /* \"#utility.yul\":20006:20007   */\n      0x00\n        /* \"#utility.yul\":19995:20004   */\n      dup4\n        /* \"#utility.yul\":19991:20008   */\n      add\n        /* \"#utility.yul\":19984:20031   */\n      mstore\n        /* \"#utility.yul\":20048:20179   */\n      tag_572\n        /* \"#utility.yul\":20174:20178   */\n      dup2\n        /* \"#utility.yul\":20048:20179   */\n      tag_314\n      jump\t// in\n    tag_572:\n        /* \"#utility.yul\":20040:20179   */\n      swap1\n      pop\n        /* \"#utility.yul\":19767:20186   */\n      swap2\n      swap1\n      pop\n      jump\t// out\n        /* \"#utility.yul\":20192:20339   */\n    tag_315:\n        /* \"#utility.yul\":20293:20304   */\n      0x00\n        /* \"#utility.yul\":20330:20333   */\n      dup2\n        /* \"#utility.yul\":20315:20333   */\n      swap1\n      pop\n        /* \"#utility.yul\":20192:20339   */\n      swap3\n      swap2\n      pop\n      pop\n      jump\t// out\n        /* \"#utility.yul\":20345:20459   */\n    tag_316:\n      pop\n      jump\t// out\n        /* \"#utility.yul\":20465:20863   */\n    tag_317:\n        /* \"#utility.yul\":20624:20627   */\n      0x00\n        /* \"#utility.yul\":20645:20728   */\n      tag_576\n        /* \"#utility.yul\":20726:20727   */\n      0x00\n        /* \"#utility.yul\":20721:20724   */\n      dup4\n        /* \"#utility.yul\":20645:20728   */\n      tag_315\n      jump\t// in\n    tag_576:\n        /* \"#utility.yul\":20638:20728   */\n      swap2\n      pop\n        /* \"#utility.yul\":20737:20830   */\n      tag_577\n        /* \"#utility.yul\":20826:20829   */\n      dup3\n        /* \"#utility.yul\":20737:20830   */\n      tag_316\n      jump\t// in\n    tag_577:\n        /* \"#utility.yul\":20855:20856   */\n      0x00\n        /* \"#utility.yul\":20850:20853   */\n      dup3\n        /* \"#utility.yul\":20846:20857   */\n      add\n        /* \"#utility.yul\":20839:20857   */\n      swap1\n      pop\n        /* \"#utility.yul\":20465:20863   */\n      swap2\n      swap1\n      pop\n      jump\t// out\n        /* \"#utility.yul\":20869:21248   */\n    tag_92:\n        /* \"#utility.yul\":21053:21056   */\n      0x00\n        /* \"#utility.yul\":21075:21222   */\n      tag_579\n        /* \"#utility.yul\":21218:21221   */\n      dup3\n        /* \"#utility.yul\":21075:21222   */\n      tag_317\n      jump\t// in\n    tag_579:\n        /* \"#utility.yul\":21068:21222   */\n      swap2\n      pop\n        /* \"#utility.yul\":21239:21242   */\n      dup2\n        /* \"#utility.yul\":21232:21242   */\n      swap1\n      pop\n        /* \"#utility.yul\":20869:21248   */\n      swap2\n      swap1\n      pop\n      jump\t// out\n        /* \"#utility.yul\":21254:21424   */\n    tag_318:\n        /* \"#utility.yul\":21394:21416   */\n      0x4661696c656420746f2073656e64204574686572000000000000000000000000\n        /* \"#utility.yul\":21390:21391   */\n      0x00\n        /* \"#utility.yul\":21382:21388   */\n      dup3\n        /* \"#utility.yul\":21378:21392   */\n      add\n        /* \"#utility.yul\":21371:21417   */\n      mstore\n        /* \"#utility.yul\":21254:21424   */\n      pop\n      jump\t// out\n        /* \"#utility.yul\":21430:21796   */\n    tag_319:\n        /* \"#utility.yul\":21572:21575   */\n      0x00\n        /* \"#utility.yul\":21593:21660   */\n      tag_582\n        /* \"#utility.yul\":21657:21659   */\n      0x14\n        /* \"#utility.yul\":21652:21655   */\n      dup4\n        /* \"#utility.yul\":21593:21660   */\n      tag_308\n      jump\t// in\n    tag_582:\n        /* \"#utility.yul\":21586:21660   */\n      swap2\n      pop\n        /* \"#utility.yul\":21669:21762   */\n      tag_583\n        /* \"#utility.yul\":21758:21761   */\n      dup3\n        /* \"#utility.yul\":21669:21762   */\n      tag_318\n      jump\t// in\n    tag_583:\n        /* \"#utility.yul\":21787:21789   */\n      0x20\n        /* \"#utility.yul\":21782:21785   */\n      dup3\n        /* \"#utility.yul\":21778:21790   */\n      add\n        /* \"#utility.yul\":21771:21790   */\n      swap1\n      pop\n        /* \"#utility.yul\":21430:21796   */\n      swap2\n      swap1\n      pop\n      jump\t// out\n        /* \"#utility.yul\":21802:22221   */\n    tag_98:\n        /* \"#utility.yul\":21968:21972   */\n      0x00\n        /* \"#utility.yul\":22006:22008   */\n      0x20\n        /* \"#utility.yul\":21995:22004   */\n      dup3\n        /* \"#utility.yul\":21991:22009   */\n      add\n        /* \"#utility.yul\":21983:22009   */\n      swap1\n      pop\n        /* \"#utility.yul\":22055:22064   */\n      dup2\n        /* \"#utility.yul\":22049:22053   */\n      dup2\n        /* \"#utility.yul\":22045:22065   */\n      sub\n        /* \"#utility.yul\":22041:22042   */\n      0x00\n        /* \"#utility.yul\":22030:22039   */\n      dup4\n        /* \"#utility.yul\":22026:22043   */\n      add\n        /* \"#utility.yul\":22019:22066   */\n      mstore\n        /* \"#utility.yul\":22083:22214   */\n      tag_585\n        /* \"#utility.yul\":22209:22213   */\n      dup2\n        /* \"#utility.yul\":22083:22214   */\n      tag_319\n      jump\t// in\n    tag_585:\n        /* \"#utility.yul\":22075:22214   */\n      swap1\n      pop\n        /* \"#utility.yul\":21802:22221   */\n      swap2\n      swap1\n      pop\n      jump\t// out\n        /* \"#utility.yul\":22227:22399   */\n    tag_320:\n        /* \"#utility.yul\":22367:22391   */\n      0x556e617574686f72697a656420696e69746961746f7200000000000000000000\n        /* \"#utility.yul\":22363:22364   */\n      0x00\n        /* \"#utility.yul\":22355:22361   */\n      dup3\n        /* \"#utility.yul\":22351:22365   */\n      add\n        /* \"#utility.yul\":22344:22392   */\n      mstore\n        /* \"#utility.yul\":22227:22399   */\n      pop\n      jump\t// out\n        /* \"#utility.yul\":22405:22771   */\n    tag_321:\n        /* \"#utility.yul\":22547:22550   */\n      0x00\n        /* \"#utility.yul\":22568:22635   */\n      tag_588\n        /* \"#utility.yul\":22632:22634   */\n      0x16\n        /* \"#utility.yul\":22627:22630   */\n      dup4\n        /* \"#utility.yul\":22568:22635   */\n      tag_308\n      jump\t// in\n    tag_588:\n        /* \"#utility.yul\":22561:22635   */\n      swap2\n      pop\n        /* \"#utility.yul\":22644:22737   */\n      tag_589\n        /* \"#utility.yul\":22733:22736   */\n      dup3\n        /* \"#utility.yul\":22644:22737   */\n      tag_320\n      jump\t// in\n    tag_589:\n        /* \"#utility.yul\":22762:22764   */\n      0x20\n        /* \"#utility.yul\":22757:22760   */\n      dup3\n        /* \"#utility.yul\":22753:22765   */\n      add\n        /* \"#utility.yul\":22746:22765   */\n      swap1\n      pop\n        /* \"#utility.yul\":22405:22771   */\n      swap2\n      swap1\n      pop\n      jump\t// out\n        /* \"#utility.yul\":22777:23196   */\n    tag_102:\n        /* \"#utility.yul\":22943:22947   */\n      0x00\n        /* \"#utility.yul\":22981:22983   */\n      0x20\n        /* \"#utility.yul\":22970:22979   */\n      dup3\n        /* \"#utility.yul\":22966:22984   */\n      add\n        /* \"#utility.yul\":22958:22984   */\n      swap1\n      pop\n        /* \"#utility.yul\":23030:23039   */\n      dup2\n        /* \"#utility.yul\":23024:23028   */\n      dup2\n        /* \"#utility.yul\":23020:23040   */\n      sub\n        /* \"#utility.yul\":23016:23017   */\n      0x00\n        /* \"#utility.yul\":23005:23014   */\n      dup4\n        /* \"#utility.yul\":23001:23018   */\n      add\n        /* \"#utility.yul\":22994:23041   */\n      mstore\n        /* \"#utility.yul\":23058:23189   */\n      tag_591\n        /* \"#utility.yul\":23184:23188   */\n      dup2\n        /* \"#utility.yul\":23058:23189   */\n      tag_321\n      jump\t// in\n    tag_591:\n        /* \"#utility.yul\":23050:23189   */\n      swap1\n      pop\n        /* \"#utility.yul\":22777:23196   */\n      swap2\n      swap1\n      pop\n      jump\t// out\n        /* \"#utility.yul\":23202:23382   */\n    tag_322:\n        /* \"#utility.yul\":23250:23327   */\n      0x4e487b7100000000000000000000000000000000000000000000000000000000\n        /* \"#utility.yul\":23247:23248   */\n      0x00\n        /* \"#utility.yul\":23240:23328   */\n      mstore\n        /* \"#utility.yul\":23347:23351   */\n      0x11\n        /* \"#utility.yul\":23344:23345   */\n      0x04\n        /* \"#utility.yul\":23337:23352   */\n      mstore\n        /* \"#utility.yul\":23371:23375   */\n      0x24\n        /* \"#utility.yul\":23368:23369   */\n      0x00\n        /* \"#utility.yul\":23361:23376   */\n      revert\n        /* \"#utility.yul\":23388:23693   */\n    tag_104:\n        /* \"#utility.yul\":23428:23431   */\n      0x00\n        /* \"#utility.yul\":23447:23467   */\n      tag_594\n        /* \"#utility.yul\":23465:23466   */\n      dup3\n        /* \"#utility.yul\":23447:23467   */\n      tag_273\n      jump\t// in\n    tag_594:\n        /* \"#utility.yul\":23442:23467   */\n      swap2\n      pop\n        /* \"#utility.yul\":23481:23501   */\n      tag_595\n        /* \"#utility.yul\":23499:23500   */\n      dup4\n        /* \"#utility.yul\":23481:23501   */\n      tag_273\n      jump\t// in\n    tag_595:\n        /* \"#utility.yul\":23476:23501   */\n      swap3\n      pop\n        /* \"#utility.yul\":23635:23636   */\n      dup3\n        /* \"#utility.yul\":23567:23633   */\n      0xffffffffffffffffffffffffffffffffffffffffffffffffffffffffffffffff\n        /* \"#utility.yul\":23563:23637   */\n      sub\n        /* \"#utility.yul\":23560:23561   */\n      dup3\n        /* \"#utility.yul\":23557:23638   */\n      gt\n        /* \"#utility.yul\":23554:23661   */\n      iszero\n      tag_596\n      jumpi\n        /* \"#utility.yul\":23641:23659   */\n      tag_597\n      tag_322\n      jump\t// in\n    tag_597:\n        /* \"#utility.yul\":23554:23661   */\n    tag_596:\n        /* \"#utility.yul\":23685:23686   */\n      dup3\n        /* \"#utility.yul\":23682:23683   */\n      dup3\n        /* \"#utility.yul\":23678:23687   */\n      add\n        /* \"#utility.yul\":23671:23687   */\n      swap1\n      pop\n        /* \"#utility.yul\":23388:23693   */\n      swap3\n      swap2\n      pop\n      pop\n      jump\t// out\n        /* \"#utility.yul\":23699:25048   */\n    tag_106:\n        /* \"#utility.yul\":23853:23859   */\n      0x00\n        /* \"#utility.yul\":23861:23867   */\n      dup1\n        /* \"#utility.yul\":23869:23875   */\n      0x00\n        /* \"#utility.yul\":23877:23883   */\n      dup1\n        /* \"#utility.yul\":23885:23891   */\n      0x00\n        /* \"#utility.yul\":23934:23937   */\n      0xa0\n        /* \"#utility.yul\":23922:23931   */\n      dup7\n        /* \"#utility.yul\":23913:23920   */\n      dup9\n        /* \"#utility.yul\":23909:23932   */\n      sub\n        /* \"#utility.yul\":23905:23938   */\n      slt\n        /* \"#utility.yul\":23902:24022   */\n      iszero\n      tag_599\n      jumpi\n        /* \"#utility.yul\":23941:24020   */\n      tag_600\n      tag_268\n      jump\t// in\n    tag_600:\n        /* \"#utility.yul\":23902:24022   */\n    tag_599:\n        /* \"#utility.yul\":24061:24062   */\n      0x00\n        /* \"#utility.yul\":24086:24139   */\n      tag_601\n        /* \"#utility.yul\":24131:24138   */\n      dup9\n        /* \"#utility.yul\":24122:24128   */\n      dup3\n        /* \"#utility.yul\":24111:24120   */\n      dup10\n        /* \"#utility.yul\":24107:24129   */\n      add\n        /* \"#utility.yul\":24086:24139   */\n      tag_275\n      jump\t// in\n    tag_601:\n        /* \"#utility.yul\":24076:24139   */\n      swap6\n      pop\n        /* \"#utility.yul\":24032:24149   */\n      pop\n        /* \"#utility.yul\":24188:24190   */\n      0x20\n        /* \"#utility.yul\":24214:24267   */\n      tag_602\n        /* \"#utility.yul\":24259:24266   */\n      dup9\n        /* \"#utility.yul\":24250:24256   */\n      dup3\n        /* \"#utility.yul\":24239:24248   */\n      dup10\n        /* \"#utility.yul\":24235:24257   */\n      add\n        /* \"#utility.yul\":24214:24267   */\n      tag_275\n      jump\t// in\n    tag_602:\n        /* \"#utility.yul\":24204:24267   */\n      swap5\n      pop\n        /* \"#utility.yul\":24159:24277   */\n      pop\n        /* \"#utility.yul\":24316:24318   */\n      0x40\n        /* \"#utility.yul\":24342:24395   */\n      tag_603\n        /* \"#utility.yul\":24387:24394   */\n      dup9\n        /* \"#utility.yul\":24378:24384   */\n      dup3\n        /* \"#utility.yul\":24367:24376   */\n      dup10\n        /* \"#utility.yul\":24363:24385   */\n      add\n        /* \"#utility.yul\":24342:24395   */\n      tag_275\n      jump\t// in\n    tag_603:\n        /* \"#utility.yul\":24332:24395   */\n      swap4\n      pop\n        /* \"#utility.yul\":24287:24405   */\n      pop\n        /* \"#utility.yul\":24472:24474   */\n      0x60\n        /* \"#utility.yul\":24461:24470   */\n      dup7\n        /* \"#utility.yul\":24457:24475   */\n      add\n        /* \"#utility.yul\":24444:24476   */\n      calldataload\n        /* \"#utility.yul\":24503:24521   */\n      0xffffffffffffffff\n        /* \"#utility.yul\":24495:24501   */\n      dup2\n        /* \"#utility.yul\":24492:24522   */\n      gt\n        /* \"#utility.yul\":24489:24606   */\n      iszero\n      tag_604\n      jumpi\n        /* \"#utility.yul\":24525:24604   */\n      tag_605\n      tag_269\n      jump\t// in\n    tag_605:\n        /* \"#utility.yul\":24489:24606   */\n    tag_604:\n        /* \"#utility.yul\":24630:24708   */\n      tag_606\n        /* \"#utility.yul\":24700:24707   */\n      dup9\n        /* \"#utility.yul\":24691:24697   */\n      dup3\n        /* \"#utility.yul\":24680:24689   */\n      dup10\n        /* \"#utility.yul\":24676:24698   */\n      add\n        /* \"#utility.yul\":24630:24708   */\n      tag_299\n      jump\t// in\n    tag_606:\n        /* \"#utility.yul\":24620:24708   */\n      swap3\n      pop\n        /* \"#utility.yul\":24415:24718   */\n      pop\n        /* \"#utility.yul\":24785:24788   */\n      0x80\n        /* \"#utility.yul\":24774:24783   */\n      dup7\n        /* \"#utility.yul\":24770:24789   */\n      add\n        /* \"#utility.yul\":24757:24790   */\n      calldataload\n        /* \"#utility.yul\":24817:24835   */\n      0xffffffffffffffff\n        /* \"#utility.yul\":24809:24815   */\n      dup2\n        /* \"#utility.yul\":24806:24836   */\n      gt\n        /* \"#utility.yul\":24803:24920   */\n      iszero\n      tag_607\n      jumpi\n        /* \"#utility.yul\":24839:24918   */\n      tag_608\n      tag_269\n      jump\t// in\n    tag_608:\n        /* \"#utility.yul\":24803:24920   */\n    tag_607:\n        /* \"#utility.yul\":24944:25031   */\n      tag_609\n        /* \"#utility.yul\":25023:25030   */\n      dup9\n        /* \"#utility.yul\":25014:25020   */\n      dup3\n        /* \"#utility.yul\":25003:25012   */\n      dup10\n        /* \"#utility.yul\":24999:25021   */\n      add\n        /* \"#utility.yul\":24944:25031   */\n      tag_307\n      jump\t// in\n    tag_609:\n        /* \"#utility.yul\":24934:25031   */\n      swap2\n      pop\n        /* \"#utility.yul\":24728:25041   */\n      pop\n        /* \"#utility.yul\":23699:25048   */\n      swap3\n      swap6\n      pop\n      swap3\n      swap6\n      swap1\n      swap4\n      pop\n      jump\t// out\n        /* \"#utility.yul\":25054:25197   */\n    tag_323:\n        /* \"#utility.yul\":25111:25116   */\n      0x00\n        /* \"#utility.yul\":25142:25148   */\n      dup2\n        /* \"#utility.yul\":25136:25149   */\n      mload\n        /* \"#utility.yul\":25127:25149   */\n      swap1\n      pop\n        /* \"#utility.yul\":25158:25191   */\n      tag_611\n        /* \"#utility.yul\":25185:25190   */\n      dup2\n        /* \"#utility.yul\":25158:25191   */\n      tag_274\n      jump\t// in\n    tag_611:\n        /* \"#utility.yul\":25054:25197   */\n      swap3\n      swap2\n      pop\n      pop\n      jump\t// out\n        /* \"#utility.yul\":25203:25554   */\n    tag_113:\n        /* \"#utility.yul\":25273:25279   */\n      0x00\n        /* \"#utility.yul\":25322:25324   */\n      0x20\n        /* \"#utility.yul\":25310:25319   */\n      dup3\n        /* \"#utility.yul\":25301:25308   */\n      dup5\n        /* \"#utility.yul\":25297:25320   */\n      sub\n        /* \"#utility.yul\":25293:25325   */\n      slt\n        /* \"#utility.yul\":25290:25409   */\n      iszero\n      tag_613\n      jumpi\n        /* \"#utility.yul\":25328:25407   */\n      tag_614\n      tag_268\n      jump\t// in\n    tag_614:\n        /* \"#utility.yul\":25290:25409   */\n    tag_613:\n        /* \"#utility.yul\":25448:25449   */\n      0x00\n        /* \"#utility.yul\":25473:25537   */\n      tag_615\n        /* \"#utility.yul\":25529:25536   */\n      dup5\n        /* \"#utility.yul\":25520:25526   */\n      dup3\n        /* \"#utility.yul\":25509:25518   */\n      dup6\n        /* \"#utility.yul\":25505:25527   */\n      add\n        /* \"#utility.yul\":25473:25537   */\n      tag_323\n      jump\t// in\n    tag_615:\n        /* \"#utility.yul\":25463:25537   */\n      swap2\n      pop\n        /* \"#utility.yul\":25419:25547   */\n      pop\n        /* \"#utility.yul\":25203:25554   */\n      swap3\n      swap2\n      pop\n      pop\n      jump\t// out\n        /* \"#utility.yul\":25560:25892   */\n    tag_120:\n        /* \"#utility.yul\":25681:25685   */\n      0x00\n        /* \"#utility.yul\":25719:25721   */\n      0x40\n        /* \"#utility.yul\":25708:25717   */\n      dup3\n        /* \"#utility.yul\":25704:25722   */\n      add\n        /* \"#utility.yul\":25696:25722   */\n      swap1\n      pop\n        /* \"#utility.yul\":25732:25803   */\n      tag_617\n        /* \"#utility.yul\":25800:25801   */\n      0x00\n        /* \"#utility.yul\":25789:25798   */\n      dup4\n        /* \"#utility.yul\":25785:25802   */\n      add\n        /* \"#utility.yul\":25776:25782   */\n      dup6\n        /* \"#utility.yul\":25732:25803   */\n      tag_293\n      jump\t// in\n    tag_617:\n        /* \"#utility.yul\":25813:25885   */\n      tag_618\n        /* \"#utility.yul\":25881:25883   */\n      0x20\n        /* \"#utility.yul\":25870:25879   */\n      dup4\n        /* \"#utility.yul\":25866:25884   */\n      add\n        /* \"#utility.yul\":25857:25863   */\n      dup5\n        /* \"#utility.yul\":25813:25885   */\n      tag_285\n      jump\t// in\n    tag_618:\n        /* \"#utility.yul\":25560:25892   */\n      swap4\n      swap3\n      pop\n      pop\n      pop\n      jump\t// out\n        /* \"#utility.yul\":25898:26014   */\n    tag_324:\n        /* \"#utility.yul\":25968:25989   */\n      tag_620\n        /* \"#utility.yul\":25983:25988   */\n      dup2\n        /* \"#utility.yul\":25968:25989   */\n      tag_283\n      jump\t// in\n    tag_620:\n        /* \"#utility.yul\":25961:25966   */\n      dup2\n        /* \"#utility.yul\":25958:25990   */\n      eq\n        /* \"#utility.yul\":25948:26008   */\n      tag_621\n      jumpi\n        /* \"#utility.yul\":26004:26005   */\n      0x00\n        /* \"#utility.yul\":26001:26002   */\n      dup1\n        /* \"#utility.yul\":25994:26006   */\n      revert\n        /* \"#utility.yul\":25948:26008   */\n    tag_621:\n        /* \"#utility.yul\":25898:26014   */\n      pop\n      jump\t// out\n        /* \"#utility.yul\":26020:26157   */\n    tag_325:\n        /* \"#utility.yul\":26074:26079   */\n      0x00\n        /* \"#utility.yul\":26105:26111   */\n      dup2\n        /* \"#utility.yul\":26099:26112   */\n      mload\n        /* \"#utility.yul\":26090:26112   */\n      swap1\n      pop\n        /* \"#utility.yul\":26121:26151   */\n      tag_623\n        /* \"#utility.yul\":26145:26150   */\n      dup2\n        /* \"#utility.yul\":26121:26151   */\n      tag_324\n      jump\t// in\n    tag_623:\n        /* \"#utility.yul\":26020:26157   */\n      swap3\n      swap2\n      pop\n      pop\n      jump\t// out\n        /* \"#utility.yul\":26163:26508   */\n    tag_124:\n        /* \"#utility.yul\":26230:26236   */\n      0x00\n        /* \"#utility.yul\":26279:26281   */\n      0x20\n        /* \"#utility.yul\":26267:26276   */\n      dup3\n        /* \"#utility.yul\":26258:26265   */\n      dup5\n        /* \"#utility.yul\":26254:26277   */\n      sub\n        /* \"#utility.yul\":26250:26282   */\n      slt\n        /* \"#utility.yul\":26247:26366   */\n      iszero\n      tag_625\n      jumpi\n        /* \"#utility.yul\":26285:26364   */\n      tag_626\n      tag_268\n      jump\t// in\n    tag_626:\n        /* \"#utility.yul\":26247:26366   */\n    tag_625:\n        /* \"#utility.yul\":26405:26406   */\n      0x00\n        /* \"#utility.yul\":26430:26491   */\n      tag_627\n        /* \"#utility.yul\":26483:26490   */\n      dup5\n        /* \"#utility.yul\":26474:26480   */\n      dup3\n        /* \"#utility.yul\":26463:26472   */\n      dup6\n        /* \"#utility.yul\":26459:26481   */\n      add\n        /* \"#utility.yul\":26430:26491   */\n      tag_325\n      jump\t// in\n    tag_627:\n        /* \"#utility.yul\":26420:26491   */\n      swap2\n      pop\n        /* \"#utility.yul\":26376:26501   */\n      pop\n        /* \"#utility.yul\":26163:26508   */\n      swap3\n      swap2\n      pop\n      pop\n      jump\t// out\n        /* \"#utility.yul\":26514:26628   */\n    tag_326:\n        /* \"#utility.yul\":26551:26558   */\n      0x00\n        /* \"#utility.yul\":26591:26621   */\n      0xffffffffffffffffffffffffffff\n        /* \"#utility.yul\":26584:26589   */\n      dup3\n        /* \"#utility.yul\":26580:26622   */\n      and\n        /* \"#utility.yul\":26569:26622   */\n      swap1\n      pop\n        /* \"#utility.yul\":26514:26628   */\n      swap2\n      swap1\n      pop\n      jump\t// out\n        /* \"#utility.yul\":26634:26756   */\n    tag_327:\n        /* \"#utility.yul\":26707:26731   */\n      tag_630\n        /* \"#utility.yul\":26725:26730   */\n      dup2\n        /* \"#utility.yul\":26707:26731   */\n      tag_326\n      jump\t// in\n    tag_630:\n        /* \"#utility.yul\":26700:26705   */\n      dup2\n        /* \"#utility.yul\":26697:26732   */\n      eq\n        /* \"#utility.yul\":26687:26750   */\n      tag_631\n      jumpi\n        /* \"#utility.yul\":26746:26747   */\n      0x00\n        /* \"#utility.yul\":26743:26744   */\n      dup1\n        /* \"#utility.yul\":26736:26748   */\n      revert\n        /* \"#utility.yul\":26687:26750   */\n    tag_631:\n        /* \"#utility.yul\":26634:26756   */\n      pop\n      jump\t// out\n        /* \"#utility.yul\":26762:26905   */\n    tag_328:\n        /* \"#utility.yul\":26819:26824   */\n      0x00\n        /* \"#utility.yul\":26850:26856   */\n      dup2\n        /* \"#utility.yul\":26844:26857   */\n      mload\n        /* \"#utility.yul\":26835:26857   */\n      swap1\n      pop\n        /* \"#utility.yul\":26866:26899   */\n      tag_633\n        /* \"#utility.yul\":26893:26898   */\n      dup2\n        /* \"#utility.yul\":26866:26899   */\n      tag_327\n      jump\t// in\n    tag_633:\n        /* \"#utility.yul\":26762:26905   */\n      swap3\n      swap2\n      pop\n      pop\n      jump\t// out\n        /* \"#utility.yul\":26911:27004   */\n    tag_329:\n        /* \"#utility.yul\":26947:26954   */\n      0x00\n        /* \"#utility.yul\":26987:26997   */\n      0xffffffff\n        /* \"#utility.yul\":26980:26985   */\n      dup3\n        /* \"#utility.yul\":26976:26998   */\n      and\n        /* \"#utility.yul\":26965:26998   */\n      swap1\n      pop\n        /* \"#utility.yul\":26911:27004   */\n      swap2\n      swap1\n      pop\n      jump\t// out\n        /* \"#utility.yul\":27010:27130   */\n    tag_330:\n        /* \"#utility.yul\":27082:27105   */\n      tag_636\n        /* \"#utility.yul\":27099:27104   */\n      dup2\n        /* \"#utility.yul\":27082:27105   */\n      tag_329\n      jump\t// in\n    tag_636:\n        /* \"#utility.yul\":27075:27080   */\n      dup2\n        /* \"#utility.yul\":27072:27106   */\n      eq\n        /* \"#utility.yul\":27062:27124   */\n      tag_637\n      jumpi\n        /* \"#utility.yul\":27120:27121   */\n      0x00\n        /* \"#utility.yul\":27117:27118   */\n      dup1\n        /* \"#utility.yul\":27110:27122   */\n      revert\n        /* \"#utility.yul\":27062:27124   */\n    tag_637:\n        /* \"#utility.yul\":27010:27130   */\n      pop\n      jump\t// out\n        /* \"#utility.yul\":27136:27277   */\n    tag_331:\n        /* \"#utility.yul\":27192:27197   */\n      0x00\n        /* \"#utility.yul\":27223:27229   */\n      dup2\n        /* \"#utility.yul\":27217:27230   */\n      mload\n        /* \"#utility.yul\":27208:27230   */\n      swap1\n      pop\n        /* \"#utility.yul\":27239:27271   */\n      tag_639\n        /* \"#utility.yul\":27265:27270   */\n      dup2\n        /* \"#utility.yul\":27239:27271   */\n      tag_330\n      jump\t// in\n    tag_639:\n        /* \"#utility.yul\":27136:27277   */\n      swap3\n      swap2\n      pop\n      pop\n      jump\t// out\n        /* \"#utility.yul\":27283:27944   */\n    tag_129:\n        /* \"#utility.yul\":27370:27376   */\n      0x00\n        /* \"#utility.yul\":27378:27384   */\n      dup1\n        /* \"#utility.yul\":27386:27392   */\n      0x00\n        /* \"#utility.yul\":27435:27437   */\n      0x60\n        /* \"#utility.yul\":27423:27432   */\n      dup5\n        /* \"#utility.yul\":27414:27421   */\n      dup7\n        /* \"#utility.yul\":27410:27433   */\n      sub\n        /* \"#utility.yul\":27406:27438   */\n      slt\n        /* \"#utility.yul\":27403:27522   */\n      iszero\n      tag_641\n      jumpi\n        /* \"#utility.yul\":27441:27520   */\n      tag_642\n      tag_268\n      jump\t// in\n    tag_642:\n        /* \"#utility.yul\":27403:27522   */\n    tag_641:\n        /* \"#utility.yul\":27561:27562   */\n      0x00\n        /* \"#utility.yul\":27586:27650   */\n      tag_643\n        /* \"#utility.yul\":27642:27649   */\n      dup7\n        /* \"#utility.yul\":27633:27639   */\n      dup3\n        /* \"#utility.yul\":27622:27631   */\n      dup8\n        /* \"#utility.yul\":27618:27640   */\n      add\n        /* \"#utility.yul\":27586:27650   */\n      tag_328\n      jump\t// in\n    tag_643:\n        /* \"#utility.yul\":27576:27650   */\n      swap4\n      pop\n        /* \"#utility.yul\":27532:27660   */\n      pop\n        /* \"#utility.yul\":27699:27701   */\n      0x20\n        /* \"#utility.yul\":27725:27789   */\n      tag_644\n        /* \"#utility.yul\":27781:27788   */\n      dup7\n        /* \"#utility.yul\":27772:27778   */\n      dup3\n        /* \"#utility.yul\":27761:27770   */\n      dup8\n        /* \"#utility.yul\":27757:27779   */\n      add\n        /* \"#utility.yul\":27725:27789   */\n      tag_328\n      jump\t// in\n    tag_644:\n        /* \"#utility.yul\":27715:27789   */\n      swap3\n      pop\n        /* \"#utility.yul\":27670:27799   */\n      pop\n        /* \"#utility.yul\":27838:27840   */\n      0x40\n        /* \"#utility.yul\":27864:27927   */\n      tag_645\n        /* \"#utility.yul\":27919:27926   */\n      dup7\n        /* \"#utility.yul\":27910:27916   */\n      dup3\n        /* \"#utility.yul\":27899:27908   */\n      dup8\n        /* \"#utility.yul\":27895:27917   */\n      add\n        /* \"#utility.yul\":27864:27927   */\n      tag_331\n      jump\t// in\n    tag_645:\n        /* \"#utility.yul\":27854:27927   */\n      swap2\n      pop\n        /* \"#utility.yul\":27809:27937   */\n      pop\n        /* \"#utility.yul\":27283:27944   */\n      swap3\n      pop\n      swap3\n      pop\n      swap3\n      jump\t// out\n        /* \"#utility.yul\":27950:28126   */\n    tag_332:\n        /* \"#utility.yul\":28090:28118   */\n      0x496e73756666696369656e7420746f6b656e2062616c616e6365000000000000\n        /* \"#utility.yul\":28086:28087   */\n      0x00\n        /* \"#utility.yul\":28078:28084   */\n      dup3\n        /* \"#utility.yul\":28074:28088   */\n      add\n        /* \"#utility.yul\":28067:28119   */\n      mstore\n        /* \"#utility.yul\":27950:28126   */\n      pop\n      jump\t// out\n        /* \"#utility.yul\":28132:28498   */\n    tag_333:\n        /* \"#utility.yul\":28274:28277   */\n      0x00\n        /* \"#utility.yul\":28295:28362   */\n      tag_648\n        /* \"#utility.yul\":28359:28361   */\n      0x1a\n        /* \"#utility.yul\":28354:28357   */\n      dup4\n        /* \"#utility.yul\":28295:28362   */\n      tag_308\n      jump\t// in\n    tag_648:\n        /* \"#utility.yul\":28288:28362   */\n      swap2\n      pop\n        /* \"#utility.yul\":28371:28464   */\n      tag_649\n        /* \"#utility.yul\":28460:28463   */\n      dup3\n        /* \"#utility.yul\":28371:28464   */\n      tag_332\n      jump\t// in\n    tag_649:\n        /* \"#utility.yul\":28489:28491   */\n      0x20\n        /* \"#utility.yul\":28484:28487   */\n      dup3\n        /* \"#utility.yul\":28480:28492   */\n      add\n        /* \"#utility.yul\":28473:28492   */\n      swap1\n      pop\n        /* \"#utility.yul\":28132:28498   */\n      swap2\n      swap1\n      pop\n      jump\t// out\n        /* \"#utility.yul\":28504:28923   */\n    tag_139:\n        /* \"#utility.yul\":28670:28674   */\n      0x00\n        /* \"#utility.yul\":28708:28710   */\n      0x20\n        /* \"#utility.yul\":28697:28706   */\n      dup3\n        /* \"#utility.yul\":28693:28711   */\n      add\n        /* \"#utility.yul\":28685:28711   */\n      swap1\n      pop\n        /* \"#utility.yul\":28757:28766   */\n      dup2\n        /* \"#utility.yul\":28751:28755   */\n      dup2\n        /* \"#utility.yul\":28747:28767   */\n      sub\n        /* \"#utility.yul\":28743:28744   */\n      0x00\n        /* \"#utility.yul\":28732:28741   */\n      dup4\n        /* \"#utility.yul\":28728:28745   */\n      add\n        /* \"#utility.yul\":28721:28768   */\n      mstore\n        /* \"#utility.yul\":28785:28916   */\n      tag_651\n        /* \"#utility.yul\":28911:28915   */\n      dup2\n        /* \"#utility.yul\":28785:28916   */\n      tag_333\n      jump\t// in\n    tag_651:\n        /* \"#utility.yul\":28777:28916   */\n      swap1\n      pop\n        /* \"#utility.yul\":28504:28923   */\n      swap2\n      swap1\n      pop\n      jump\t// out\n        /* \"#utility.yul\":28929:29371   */\n    tag_141:\n        /* \"#utility.yul\":29078:29082   */\n      0x00\n        /* \"#utility.yul\":29116:29118   */\n      0x60\n        /* \"#utility.yul\":29105:29114   */\n      dup3\n        /* \"#utility.yul\":29101:29119   */\n      add\n        /* \"#utility.yul\":29093:29119   */\n      swap1\n      pop\n        /* \"#utility.yul\":29129:29200   */\n      tag_653\n        /* \"#utility.yul\":29197:29198   */\n      0x00\n        /* \"#utility.yul\":29186:29195   */\n      dup4\n        /* \"#utility.yul\":29182:29199   */\n      add\n        /* \"#utility.yul\":29173:29179   */\n      dup7\n        /* \"#utility.yul\":29129:29200   */\n      tag_293\n      jump\t// in\n    tag_653:\n        /* \"#utility.yul\":29210:29282   */\n      tag_654\n        /* \"#utility.yul\":29278:29280   */\n      0x20\n        /* \"#utility.yul\":29267:29276   */\n      dup4\n        /* \"#utility.yul\":29263:29281   */\n      add\n        /* \"#utility.yul\":29254:29260   */\n      dup6\n        /* \"#utility.yul\":29210:29282   */\n      tag_293\n      jump\t// in\n    tag_654:\n        /* \"#utility.yul\":29292:29364   */\n      tag_655\n        /* \"#utility.yul\":29360:29362   */\n      0x40\n        /* \"#utility.yul\":29349:29358   */\n      dup4\n        /* \"#utility.yul\":29345:29363   */\n      add\n        /* \"#utility.yul\":29336:29342   */\n      dup5\n        /* \"#utility.yul\":29292:29364   */\n      tag_285\n      jump\t// in\n    tag_655:\n        /* \"#utility.yul\":28929:29371   */\n      swap5\n      swap4\n      pop\n      pop\n      pop\n      pop\n      jump\t// out\n        /* \"#utility.yul\":29377:29548   */\n    tag_334:\n        /* \"#utility.yul\":29517:29540   */\n      0x546f6b656e207472616e73666572206661696c65640000000000000000000000\n        /* \"#utility.yul\":29513:29514   */\n      0x00\n        /* \"#utility.yul\":29505:29511   */\n      dup3\n        /* \"#utility.yul\":29501:29515   */\n      add\n        /* \"#utility.yul\":29494:29541   */\n      mstore\n        /* \"#utility.yul\":29377:29548   */\n      pop\n      jump\t// out\n        /* \"#utility.yul\":29554:29920   */\n    tag_335:\n        /* \"#utility.yul\":29696:29699   */\n      0x00\n        /* \"#utility.yul\":29717:29784   */\n      tag_658\n        /* \"#utility.yul\":29781:29783   */\n      0x15\n        /* \"#utility.yul\":29776:29779   */\n      dup4\n        /* \"#utility.yul\":29717:29784   */\n      tag_308\n      jump\t// in\n    tag_658:\n        /* \"#utility.yul\":29710:29784   */\n      swap2\n      pop\n        /* \"#utility.yul\":29793:29886   */\n      tag_659\n        /* \"#utility.yul\":29882:29885   */\n      dup3\n        /* \"#utility.yul\":29793:29886   */\n      tag_334\n      jump\t// in\n    tag_659:\n        /* \"#utility.yul\":29911:29913   */\n      0x20\n        /* \"#utility.yul\":29906:29909   */\n      dup3\n        /* \"#utility.yul\":29902:29914   */\n      add\n        /* \"#utility.yul\":29895:29914   */\n      swap1\n      pop\n        /* \"#utility.yul\":29554:29920   */\n      swap2\n      swap1\n      pop\n      jump\t// out\n        /* \"#utility.yul\":29926:30345   */\n    tag_147:\n        /* \"#utility.yul\":30092:30096   */\n      0x00\n        /* \"#utility.yul\":30130:30132   */\n      0x20\n        /* \"#utility.yul\":30119:30128   */\n      dup3\n        /* \"#utility.yul\":30115:30133   */\n      add\n        /* \"#utility.yul\":30107:30133   */\n      swap1\n      pop\n        /* \"#utility.yul\":30179:30188   */\n      dup2\n        /* \"#utility.yul\":30173:30177   */\n      dup2\n        /* \"#utility.yul\":30169:30189   */\n      sub\n        /* \"#utility.yul\":30165:30166   */\n      0x00\n        /* \"#utility.yul\":30154:30163   */\n      dup4\n        /* \"#utility.yul\":30150:30167   */\n      add\n        /* \"#utility.yul\":30143:30190   */\n      mstore\n        /* \"#utility.yul\":30207:30338   */\n      tag_661\n        /* \"#utility.yul\":30333:30337   */\n      dup2\n        /* \"#utility.yul\":30207:30338   */\n      tag_335\n      jump\t// in\n    tag_661:\n        /* \"#utility.yul\":30199:30338   */\n      swap1\n      pop\n        /* \"#utility.yul\":29926:30345   */\n      swap2\n      swap1\n      pop\n      jump\t// out\n        /* \"#utility.yul\":30373:30687   */\n    tag_336:\n        /* \"#utility.yul\":30487:30490   */\n      0x00\n        /* \"#utility.yul\":30508:30596   */\n      tag_663\n        /* \"#utility.yul\":30589:30595   */\n      dup4\n        /* \"#utility.yul\":30584:30587   */\n      dup6\n        /* \"#utility.yul\":30508:30596   */\n      tag_315\n      jump\t// in\n    tag_663:\n        /* \"#utility.yul\":30501:30596   */\n      swap4\n      pop\n        /* \"#utility.yul\":30606:30649   */\n      tag_664\n        /* \"#utility.yul\":30642:30648   */\n      dup4\n        /* \"#utility.yul\":30637:30640   */\n      dup6\n        /* \"#utility.yul\":30630:30635   */\n      dup5\n        /* \"#utility.yul\":30606:30649   */\n      tag_303\n      jump\t// in\n    tag_664:\n        /* \"#utility.yul\":30674:30680   */\n      dup3\n        /* \"#utility.yul\":30669:30672   */\n      dup5\n        /* \"#utility.yul\":30665:30681   */\n      add\n        /* \"#utility.yul\":30658:30681   */\n      swap1\n      pop\n        /* \"#utility.yul\":30373:30687   */\n      swap4\n      swap3\n      pop\n      pop\n      pop\n      jump\t// out\n        /* \"#utility.yul\":30693:30984   */\n    tag_153:\n        /* \"#utility.yul\":30833:30836   */\n      0x00\n        /* \"#utility.yul\":30855:30958   */\n      tag_666\n        /* \"#utility.yul\":30954:30957   */\n      dup3\n        /* \"#utility.yul\":30945:30951   */\n      dup5\n        /* \"#utility.yul\":30937:30943   */\n      dup7\n        /* \"#utility.yul\":30855:30958   */\n      tag_336\n      jump\t// in\n    tag_666:\n        /* \"#utility.yul\":30848:30958   */\n      swap2\n      pop\n        /* \"#utility.yul\":30975:30978   */\n      dup2\n        /* \"#utility.yul\":30968:30978   */\n      swap1\n      pop\n        /* \"#utility.yul\":30693:30984   */\n      swap4\n      swap3\n      pop\n      pop\n      pop\n      jump\t// out\n        /* \"#utility.yul\":30990:31161   */\n    tag_337:\n        /* \"#utility.yul\":31130:31153   */\n      0x43616c6c20657865637574696f6e206661696c65640000000000000000000000\n        /* \"#utility.yul\":31126:31127   */\n      0x00\n        /* \"#utility.yul\":31118:31124   */\n      dup3\n        /* \"#utility.yul\":31114:31128   */\n      add\n        /* \"#utility.yul\":31107:31154   */\n      mstore\n        /* \"#utility.yul\":30990:31161   */\n      pop\n      jump\t// out\n        /* \"#utility.yul\":31167:31533   */\n    tag_338:\n        /* \"#utility.yul\":31309:31312   */\n      0x00\n        /* \"#utility.yul\":31330:31397   */\n      tag_669\n        /* \"#utility.yul\":31394:31396   */\n      0x15\n        /* \"#utility.yul\":31389:31392   */\n      dup4\n        /* \"#utility.yul\":31330:31397   */\n      tag_308\n      jump\t// in\n    tag_669:\n        /* \"#utility.yul\":31323:31397   */\n      swap2\n      pop\n        /* \"#utility.yul\":31406:31499   */\n      tag_670\n        /* \"#utility.yul\":31495:31498   */\n      dup3\n        /* \"#utility.yul\":31406:31499   */\n      tag_337\n      jump\t// in\n    tag_670:\n        /* \"#utility.yul\":31524:31526   */\n      0x20\n        /* \"#utility.yul\":31519:31522   */\n      dup3\n        /* \"#utility.yul\":31515:31527   */\n      add\n        /* \"#utility.yul\":31508:31527   */\n      swap1\n      pop\n        /* \"#utility.yul\":31167:31533   */\n      swap2\n      swap1\n      pop\n      jump\t// out\n        /* \"#utility.yul\":31539:31958   */\n    tag_159:\n        /* \"#utility.yul\":31705:31709   */\n      0x00\n        /* \"#utility.yul\":31743:31745   */\n      0x20\n        /* \"#utility.yul\":31732:31741   */\n      dup3\n        /* \"#utility.yul\":31728:31746   */\n      add\n        /* \"#utility.yul\":31720:31746   */\n      swap1\n      pop\n        /* \"#utility.yul\":31792:31801   */\n      dup2\n        /* \"#utility.yul\":31786:31790   */\n      dup2\n        /* \"#utility.yul\":31782:31802   */\n      sub\n        /* \"#utility.yul\":31778:31779   */\n      0x00\n        /* \"#utility.yul\":31767:31776   */\n      dup4\n        /* \"#utility.yul\":31763:31780   */\n      add\n        /* \"#utility.yul\":31756:31803   */\n      mstore\n        /* \"#utility.yul\":31820:31951   */\n      tag_672\n        /* \"#utility.yul\":31946:31950   */\n      dup2\n        /* \"#utility.yul\":31820:31951   */\n      tag_338\n      jump\t// in\n    tag_672:\n        /* \"#utility.yul\":31812:31951   */\n      swap1\n      pop\n        /* \"#utility.yul\":31539:31958   */\n      swap2\n      swap1\n      pop\n      jump\t// out\n        /* \"#utility.yul\":31964:32155   */\n    tag_177:\n        /* \"#utility.yul\":32004:32008   */\n      0x00\n        /* \"#utility.yul\":32024:32044   */\n      tag_674\n        /* \"#utility.yul\":32042:32043   */\n      dup3\n        /* \"#utility.yul\":32024:32044   */\n      tag_273\n      jump\t// in\n    tag_674:\n        /* \"#utility.yul\":32019:32044   */\n      swap2\n      pop\n        /* \"#utility.yul\":32058:32078   */\n      tag_675\n        /* \"#utility.yul\":32076:32077   */\n      dup4\n        /* \"#utility.yul\":32058:32078   */\n      tag_273\n      jump\t// in\n    tag_675:\n        /* \"#utility.yul\":32053:32078   */\n      swap3\n      pop\n        /* \"#utility.yul\":32097:32098   */\n      dup3\n        /* \"#utility.yul\":32094:32095   */\n      dup3\n        /* \"#utility.yul\":32091:32099   */\n      lt\n        /* \"#utility.yul\":32088:32122   */\n      iszero\n      tag_676\n      jumpi\n        /* \"#utility.yul\":32102:32120   */\n      tag_677\n      tag_322\n      jump\t// in\n    tag_677:\n        /* \"#utility.yul\":32088:32122   */\n    tag_676:\n        /* \"#utility.yul\":32147:32148   */\n      dup3\n        /* \"#utility.yul\":32144:32145   */\n      dup3\n        /* \"#utility.yul\":32140:32149   */\n      sub\n        /* \"#utility.yul\":32132:32149   */\n      swap1\n      pop\n        /* \"#utility.yul\":31964:32155   */\n      swap3\n      swap2\n      pop\n      pop\n      jump\t// out\n        /* \"#utility.yul\":32161:32275   */\n    tag_339:\n        /* \"#utility.yul\":32228:32234   */\n      0x00\n        /* \"#utility.yul\":32262:32267   */\n      dup2\n        /* \"#utility.yul\":32256:32268   */\n      mload\n        /* \"#utility.yul\":32246:32268   */\n      swap1\n      pop\n        /* \"#utility.yul\":32161:32275   */\n      swap2\n      swap1\n      pop\n      jump\t// out\n        /* \"#utility.yul\":32281:32465   */\n    tag_340:\n        /* \"#utility.yul\":32380:32391   */\n      0x00\n        /* \"#utility.yul\":32414:32420   */\n      dup3\n        /* \"#utility.yul\":32409:32412   */\n      dup3\n        /* \"#utility.yul\":32402:32421   */\n      mstore\n        /* \"#utility.yul\":32454:32458   */\n      0x20\n        /* \"#utility.yul\":32449:32452   */\n      dup3\n        /* \"#utility.yul\":32445:32459   */\n      add\n        /* \"#utility.yul\":32430:32459   */\n      swap1\n      pop\n        /* \"#utility.yul\":32281:32465   */\n      swap3\n      swap2\n      pop\n      pop\n      jump\t// out\n        /* \"#utility.yul\":32471:32603   */\n    tag_341:\n        /* \"#utility.yul\":32538:32542   */\n      0x00\n        /* \"#utility.yul\":32561:32564   */\n      dup2\n        /* \"#utility.yul\":32553:32564   */\n      swap1\n      pop\n        /* \"#utility.yul\":32591:32595   */\n      0x20\n        /* \"#utility.yul\":32586:32589   */\n      dup3\n        /* \"#utility.yul\":32582:32596   */\n      add\n        /* \"#utility.yul\":32574:32596   */\n      swap1\n      pop\n        /* \"#utility.yul\":32471:32603   */\n      swap2\n      swap1\n      pop\n      jump\t// out\n        /* \"#utility.yul\":32609:32717   */\n    tag_342:\n        /* \"#utility.yul\":32686:32710   */\n      tag_682\n        /* \"#utility.yul\":32704:32709   */\n      dup2\n        /* \"#utility.yul\":32686:32710   */\n      tag_276\n      jump\t// in\n    tag_682:\n        /* \"#utility.yul\":32681:32684   */\n      dup3\n        /* \"#utility.yul\":32674:32711   */\n      mstore\n        /* \"#utility.yul\":32609:32717   */\n      pop\n      pop\n      jump\t// out\n        /* \"#utility.yul\":32723:32902   */\n    tag_343:\n        /* \"#utility.yul\":32792:32802   */\n      0x00\n        /* \"#utility.yul\":32813:32859   */\n      tag_684\n        /* \"#utility.yul\":32855:32858   */\n      dup4\n        /* \"#utility.yul\":32847:32853   */\n      dup4\n        /* \"#utility.yul\":32813:32859   */\n      tag_342\n      jump\t// in\n    tag_684:\n        /* \"#utility.yul\":32891:32895   */\n      0x20\n        /* \"#utility.yul\":32886:32889   */\n      dup4\n        /* \"#utility.yul\":32882:32896   */\n      add\n        /* \"#utility.yul\":32868:32896   */\n      swap1\n      pop\n        /* \"#utility.yul\":32723:32902   */\n      swap3\n      swap2\n      pop\n      pop\n      jump\t// out\n        /* \"#utility.yul\":32908:33021   */\n    tag_344:\n        /* \"#utility.yul\":32978:32982   */\n      0x00\n        /* \"#utility.yul\":33010:33014   */\n      0x20\n        /* \"#utility.yul\":33005:33008   */\n      dup3\n        /* \"#utility.yul\":33001:33015   */\n      add\n        /* \"#utility.yul\":32993:33015   */\n      swap1\n      pop\n        /* \"#utility.yul\":32908:33021   */\n      swap2\n      swap1\n      pop\n      jump\t// out\n        /* \"#utility.yul\":33057:33789   */\n    tag_345:\n        /* \"#utility.yul\":33176:33179   */\n      0x00\n        /* \"#utility.yul\":33205:33259   */\n      tag_687\n        /* \"#utility.yul\":33253:33258   */\n      dup3\n        /* \"#utility.yul\":33205:33259   */\n      tag_339\n      jump\t// in\n    tag_687:\n        /* \"#utility.yul\":33275:33361   */\n      tag_688\n        /* \"#utility.yul\":33354:33360   */\n      dup2\n        /* \"#utility.yul\":33349:33352   */\n      dup6\n        /* \"#utility.yul\":33275:33361   */\n      tag_340\n      jump\t// in\n    tag_688:\n        /* \"#utility.yul\":33268:33361   */\n      swap4\n      pop\n        /* \"#utility.yul\":33385:33441   */\n      tag_689\n        /* \"#utility.yul\":33435:33440   */\n      dup4\n        /* \"#utility.yul\":33385:33441   */\n      tag_341\n      jump\t// in\n    tag_689:\n        /* \"#utility.yul\":33464:33471   */\n      dup1\n        /* \"#utility.yul\":33495:33496   */\n      0x00\n        /* \"#utility.yul\":33480:33764   */\n    tag_690:\n        /* \"#utility.yul\":33505:33511   */\n      dup4\n        /* \"#utility.yul\":33502:33503   */\n      dup2\n        /* \"#utility.yul\":33499:33512   */\n      lt\n        /* \"#utility.yul\":33480:33764   */\n      iszero\n      tag_692\n      jumpi\n        /* \"#utility.yul\":33581:33587   */\n      dup2\n        /* \"#utility.yul\":33575:33588   */\n      mload\n        /* \"#utility.yul\":33608:33671   */\n      tag_693\n        /* \"#utility.yul\":33667:33670   */\n      dup9\n        /* \"#utility.yul\":33652:33665   */\n      dup3\n        /* \"#utility.yul\":33608:33671   */\n      tag_343\n      jump\t// in\n    tag_693:\n        /* \"#utility.yul\":33601:33671   */\n      swap8\n      pop\n        /* \"#utility.yul\":33694:33754   */\n      tag_694\n        /* \"#utility.yul\":33747:33753   */\n      dup4\n        /* \"#utility.yul\":33694:33754   */\n      tag_344\n      jump\t// in\n    tag_694:\n        /* \"#utility.yul\":33684:33754   */\n      swap3\n      pop\n        /* \"#utility.yul\":33540:33764   */\n      pop\n        /* \"#utility.yul\":33527:33528   */\n      0x01\n        /* \"#utility.yul\":33524:33525   */\n      dup2\n        /* \"#utility.yul\":33520:33529   */\n      add\n        /* \"#utility.yul\":33515:33529   */\n      swap1\n      pop\n        /* \"#utility.yul\":33480:33764   */\n      jump(tag_690)\n    tag_692:\n        /* \"#utility.yul\":33484:33498   */\n      pop\n        /* \"#utility.yul\":33780:33783   */\n      dup6\n        /* \"#utility.yul\":33773:33783   */\n      swap4\n      pop\n        /* \"#utility.yul\":33181:33789   */\n      pop\n      pop\n      pop\n        /* \"#utility.yul\":33057:33789   */\n      swap3\n      swap2\n      pop\n      pop\n      jump\t// out\n        /* \"#utility.yul\":33795:33918   */\n    tag_346:\n        /* \"#utility.yul\":33871:33877   */\n      0x00\n        /* \"#utility.yul\":33905:33910   */\n      dup2\n        /* \"#utility.yul\":33899:33911   */\n      mload\n        /* \"#utility.yul\":33889:33911   */\n      swap1\n      pop\n        /* \"#utility.yul\":33795:33918   */\n      swap2\n      swap1\n      pop\n      jump\t// out\n        /* \"#utility.yul\":33924:34117   */\n    tag_347:\n        /* \"#utility.yul\":34032:34043   */\n      0x00\n        /* \"#utility.yul\":34066:34072   */\n      dup3\n        /* \"#utility.yul\":34061:34064   */\n      dup3\n        /* \"#utility.yul\":34054:34073   */\n      mstore\n        /* \"#utility.yul\":34106:34110   */\n      0x20\n        /* \"#utility.yul\":34101:34104   */\n      dup3\n        /* \"#utility.yul\":34097:34111   */\n      add\n        /* \"#utility.yul\":34082:34111   */\n      swap1\n      pop\n        /* \"#utility.yul\":33924:34117   */\n      swap3\n      swap2\n      pop\n      pop\n      jump\t// out\n        /* \"#utility.yul\":34123:34264   */\n    tag_348:\n        /* \"#utility.yul\":34199:34203   */\n      0x00\n        /* \"#utility.yul\":34222:34225   */\n      dup2\n        /* \"#utility.yul\":34214:34225   */\n      swap1\n      pop\n        /* \"#utility.yul\":34252:34256   */\n      0x20\n        /* \"#utility.yul\":34247:34250   */\n      dup3\n        /* \"#utility.yul\":34243:34257   */\n      add\n        /* \"#utility.yul\":34235:34257   */\n      swap1\n      pop\n        /* \"#utility.yul\":34123:34264   */\n      swap2\n      swap1\n      pop\n      jump\t// out\n        /* \"#utility.yul\":34270:34428   */\n    tag_349:\n        /* \"#utility.yul\":34343:34354   */\n      0x00\n        /* \"#utility.yul\":34377:34383   */\n      dup3\n        /* \"#utility.yul\":34372:34375   */\n      dup3\n        /* \"#utility.yul\":34365:34384   */\n      mstore\n        /* \"#utility.yul\":34417:34421   */\n      0x20\n        /* \"#utility.yul\":34412:34415   */\n      dup3\n        /* \"#utility.yul\":34408:34422   */\n      add\n        /* \"#utility.yul\":34393:34422   */\n      swap1\n      pop\n        /* \"#utility.yul\":34270:34428   */\n      swap3\n      swap2\n      pop\n      pop\n      jump\t// out\n        /* \"#utility.yul\":34434:34774   */\n    tag_350:\n        /* \"#utility.yul\":34510:34513   */\n      0x00\n        /* \"#utility.yul\":34538:34576   */\n      tag_700\n        /* \"#utility.yul\":34570:34575   */\n      dup3\n        /* \"#utility.yul\":34538:34576   */\n      tag_286\n      jump\t// in\n    tag_700:\n        /* \"#utility.yul\":34592:34652   */\n      tag_701\n        /* \"#utility.yul\":34645:34651   */\n      dup2\n        /* \"#utility.yul\":34640:34643   */\n      dup6\n        /* \"#utility.yul\":34592:34652   */\n      tag_349\n      jump\t// in\n    tag_701:\n        /* \"#utility.yul\":34585:34652   */\n      swap4\n      pop\n        /* \"#utility.yul\":34661:34713   */\n      tag_702\n        /* \"#utility.yul\":34706:34712   */\n      dup2\n        /* \"#utility.yul\":34701:34704   */\n      dup6\n        /* \"#utility.yul\":34694:34698   */\n      0x20\n        /* \"#utility.yul\":34687:34692   */\n      dup7\n        /* \"#utility.yul\":34683:34699   */\n      add\n        /* \"#utility.yul\":34661:34713   */\n      tag_288\n      jump\t// in\n    tag_702:\n        /* \"#utility.yul\":34738:34767   */\n      tag_703\n        /* \"#utility.yul\":34760:34766   */\n      dup2\n        /* \"#utility.yul\":34738:34767   */\n      tag_289\n      jump\t// in\n    tag_703:\n        /* \"#utility.yul\":34733:34736   */\n      dup5\n        /* \"#utility.yul\":34729:34768   */\n      add\n        /* \"#utility.yul\":34722:34768   */\n      swap2\n      pop\n        /* \"#utility.yul\":34514:34774   */\n      pop\n        /* \"#utility.yul\":34434:34774   */\n      swap3\n      swap2\n      pop\n      pop\n      jump\t// out\n        /* \"#utility.yul\":34780:34972   */\n    tag_351:\n        /* \"#utility.yul\":34867:34877   */\n      0x00\n        /* \"#utility.yul\":34902:34966   */\n      tag_705\n        /* \"#utility.yul\":34962:34965   */\n      dup4\n        /* \"#utility.yul\":34954:34960   */\n      dup4\n        /* \"#utility.yul\":34902:34966   */\n      tag_350\n      jump\t// in\n    tag_705:\n        /* \"#utility.yul\":34888:34966   */\n      swap1\n      pop\n        /* \"#utility.yul\":34780:34972   */\n      swap3\n      swap2\n      pop\n      pop\n      jump\t// out\n        /* \"#utility.yul\":34978:35100   */\n    tag_352:\n        /* \"#utility.yul\":35057:35061   */\n      0x00\n        /* \"#utility.yul\":35089:35093   */\n      0x20\n        /* \"#utility.yul\":35084:35087   */\n      dup3\n        /* \"#utility.yul\":35080:35094   */\n      add\n        /* \"#utility.yul\":35072:35094   */\n      swap1\n      pop\n        /* \"#utility.yul\":34978:35100   */\n      swap2\n      swap1\n      pop\n      jump\t// out\n        /* \"#utility.yul\":35132:36115   */\n    tag_353:\n        /* \"#utility.yul\":35269:35272   */\n      0x00\n        /* \"#utility.yul\":35298:35361   */\n      tag_708\n        /* \"#utility.yul\":35355:35360   */\n      dup3\n        /* \"#utility.yul\":35298:35361   */\n      tag_346\n      jump\t// in\n    tag_708:\n        /* \"#utility.yul\":35377:35472   */\n      tag_709\n        /* \"#utility.yul\":35465:35471   */\n      dup2\n        /* \"#utility.yul\":35460:35463   */\n      dup6\n        /* \"#utility.yul\":35377:35472   */\n      tag_347\n      jump\t// in\n    tag_709:\n        /* \"#utility.yul\":35370:35472   */\n      swap4\n      pop\n        /* \"#utility.yul\":35498:35501   */\n      dup4\n        /* \"#utility.yul\":35543:35547   */\n      0x20\n        /* \"#utility.yul\":35535:35541   */\n      dup3\n        /* \"#utility.yul\":35531:35548   */\n      mul\n        /* \"#utility.yul\":35526:35529   */\n      dup6\n        /* \"#utility.yul\":35522:35549   */\n      add\n        /* \"#utility.yul\":35573:35638   */\n      tag_710\n        /* \"#utility.yul\":35632:35637   */\n      dup6\n        /* \"#utility.yul\":35573:35638   */\n      tag_348\n      jump\t// in\n    tag_710:\n        /* \"#utility.yul\":35661:35668   */\n      dup1\n        /* \"#utility.yul\":35692:35693   */\n      0x00\n        /* \"#utility.yul\":35677:36070   */\n    tag_711:\n        /* \"#utility.yul\":35702:35708   */\n      dup6\n        /* \"#utility.yul\":35699:35700   */\n      dup2\n        /* \"#utility.yul\":35696:35709   */\n      lt\n        /* \"#utility.yul\":35677:36070   */\n      iszero\n      tag_713\n      jumpi\n        /* \"#utility.yul\":35773:35782   */\n      dup5\n        /* \"#utility.yul\":35767:35771   */\n      dup5\n        /* \"#utility.yul\":35763:35783   */\n      sub\n        /* \"#utility.yul\":35758:35761   */\n      dup10\n        /* \"#utility.yul\":35751:35784   */\n      mstore\n        /* \"#utility.yul\":35824:35830   */\n      dup2\n        /* \"#utility.yul\":35818:35831   */\n      mload\n        /* \"#utility.yul\":35852:35934   */\n      tag_714\n        /* \"#utility.yul\":35929:35933   */\n      dup6\n        /* \"#utility.yul\":35914:35927   */\n      dup3\n        /* \"#utility.yul\":35852:35934   */\n      tag_351\n      jump\t// in\n    tag_714:\n        /* \"#utility.yul\":35844:35934   */\n      swap5\n      pop\n        /* \"#utility.yul\":35957:36026   */\n      tag_715\n        /* \"#utility.yul\":36019:36025   */\n      dup4\n        /* \"#utility.yul\":35957:36026   */\n      tag_352\n      jump\t// in\n    tag_715:\n        /* \"#utility.yul\":35947:36026   */\n      swap3\n      pop\n        /* \"#utility.yul\":36055:36059   */\n      0x20\n        /* \"#utility.yul\":36050:36053   */\n      dup11\n        /* \"#utility.yul\":36046:36060   */\n      add\n        /* \"#utility.yul\":36039:36060   */\n      swap10\n      pop\n        /* \"#utility.yul\":35737:36070   */\n      pop\n        /* \"#utility.yul\":35724:35725   */\n      0x01\n        /* \"#utility.yul\":35721:35722   */\n      dup2\n        /* \"#utility.yul\":35717:35726   */\n      add\n        /* \"#utility.yul\":35712:35726   */\n      swap1\n      pop\n        /* \"#utility.yul\":35677:36070   */\n      jump(tag_711)\n    tag_713:\n        /* \"#utility.yul\":35681:35695   */\n      pop\n        /* \"#utility.yul\":36086:36090   */\n      dup3\n        /* \"#utility.yul\":36079:36090   */\n      swap8\n      pop\n        /* \"#utility.yul\":36106:36109   */\n      dup8\n        /* \"#utility.yul\":36099:36109   */\n      swap6\n      pop\n        /* \"#utility.yul\":35274:36115   */\n      pop\n      pop\n      pop\n      pop\n      pop\n        /* \"#utility.yul\":35132:36115   */\n      swap3\n      swap2\n      pop\n      pop\n      jump\t// out\n        /* \"#utility.yul\":36121:37123   */\n    tag_180:\n        /* \"#utility.yul\":36444:36448   */\n      0x00\n        /* \"#utility.yul\":36482:36485   */\n      0xa0\n        /* \"#utility.yul\":36471:36480   */\n      dup3\n        /* \"#utility.yul\":36467:36486   */\n      add\n        /* \"#utility.yul\":36459:36486   */\n      swap1\n      pop\n        /* \"#utility.yul\":36496:36567   */\n      tag_717\n        /* \"#utility.yul\":36564:36565   */\n      0x00\n        /* \"#utility.yul\":36553:36562   */\n      dup4\n        /* \"#utility.yul\":36549:36566   */\n      add\n        /* \"#utility.yul\":36540:36546   */\n      dup9\n        /* \"#utility.yul\":36496:36567   */\n      tag_285\n      jump\t// in\n    tag_717:\n        /* \"#utility.yul\":36577:36649   */\n      tag_718\n        /* \"#utility.yul\":36645:36647   */\n      0x20\n        /* \"#utility.yul\":36634:36643   */\n      dup4\n        /* \"#utility.yul\":36630:36648   */\n      add\n        /* \"#utility.yul\":36621:36627   */\n      dup8\n        /* \"#utility.yul\":36577:36649   */\n      tag_285\n      jump\t// in\n    tag_718:\n        /* \"#utility.yul\":36659:36731   */\n      tag_719\n        /* \"#utility.yul\":36727:36729   */\n      0x40\n        /* \"#utility.yul\":36716:36725   */\n      dup4\n        /* \"#utility.yul\":36712:36730   */\n      add\n        /* \"#utility.yul\":36703:36709   */\n      dup7\n        /* \"#utility.yul\":36659:36731   */\n      tag_285\n      jump\t// in\n    tag_719:\n        /* \"#utility.yul\":36778:36787   */\n      dup2\n        /* \"#utility.yul\":36772:36776   */\n      dup2\n        /* \"#utility.yul\":36768:36788   */\n      sub\n        /* \"#utility.yul\":36763:36765   */\n      0x60\n        /* \"#utility.yul\":36752:36761   */\n      dup4\n        /* \"#utility.yul\":36748:36766   */\n      add\n        /* \"#utility.yul\":36741:36789   */\n      mstore\n        /* \"#utility.yul\":36806:36914   */\n      tag_720\n        /* \"#utility.yul\":36909:36913   */\n      dup2\n        /* \"#utility.yul\":36900:36906   */\n      dup6\n        /* \"#utility.yul\":36806:36914   */\n      tag_345\n      jump\t// in\n    tag_720:\n        /* \"#utility.yul\":36798:36914   */\n      swap1\n      pop\n        /* \"#utility.yul\":36962:36971   */\n      dup2\n        /* \"#utility.yul\":36956:36960   */\n      dup2\n        /* \"#utility.yul\":36952:36972   */\n      sub\n        /* \"#utility.yul\":36946:36949   */\n      0x80\n        /* \"#utility.yul\":36935:36944   */\n      dup4\n        /* \"#utility.yul\":36931:36950   */\n      add\n        /* \"#utility.yul\":36924:36973   */\n      mstore\n        /* \"#utility.yul\":36990:37116   */\n      tag_721\n        /* \"#utility.yul\":37111:37115   */\n      dup2\n        /* \"#utility.yul\":37102:37108   */\n      dup5\n        /* \"#utility.yul\":36990:37116   */\n      tag_353\n      jump\t// in\n    tag_721:\n        /* \"#utility.yul\":36982:37116   */\n      swap1\n      pop\n        /* \"#utility.yul\":36121:37123   */\n      swap7\n      swap6\n      pop\n      pop\n      pop\n      pop\n      pop\n      pop\n      jump\t// out\n        /* \"#utility.yul\":37129:37350   */\n    tag_354:\n        /* \"#utility.yul\":37269:37303   */\n      0x4f776e61626c653a20696e76616c6964206e6577206f776e6572206164647265\n        /* \"#utility.yul\":37265:37266   */\n      0x00\n        /* \"#utility.yul\":37257:37263   */\n      dup3\n        /* \"#utility.yul\":37253:37267   */\n      add\n        /* \"#utility.yul\":37246:37304   */\n      mstore\n        /* \"#utility.yul\":37338:37342   */\n      0x7373000000000000000000000000000000000000000000000000000000000000\n        /* \"#utility.yul\":37333:37335   */\n      0x20\n        /* \"#utility.yul\":37325:37331   */\n      dup3\n        /* \"#utility.yul\":37321:37336   */\n      add\n        /* \"#utility.yul\":37314:37343   */\n      mstore\n        /* \"#utility.yul\":37129:37350   */\n      pop\n      jump\t// out\n        /* \"#utility.yul\":37356:37722   */\n    tag_355:\n        /* \"#utility.yul\":37498:37501   */\n      0x00\n        /* \"#utility.yul\":37519:37586   */\n      tag_724\n        /* \"#utility.yul\":37583:37585   */\n      0x22\n        /* \"#utility.yul\":37578:37581   */\n      dup4\n        /* \"#utility.yul\":37519:37586   */\n      tag_308\n      jump\t// in\n    tag_724:\n        /* \"#utility.yul\":37512:37586   */\n      swap2\n      pop\n        /* \"#utility.yul\":37595:37688   */\n      tag_725\n        /* \"#utility.yul\":37684:37687   */\n      dup3\n        /* \"#utility.yul\":37595:37688   */\n      tag_354\n      jump\t// in\n    tag_725:\n        /* \"#utility.yul\":37713:37715   */\n      0x40\n        /* \"#utility.yul\":37708:37711   */\n      dup3\n        /* \"#utility.yul\":37704:37716   */\n      add\n        /* \"#utility.yul\":37697:37716   */\n      swap1\n      pop\n        /* \"#utility.yul\":37356:37722   */\n      swap2\n      swap1\n      pop\n      jump\t// out\n        /* \"#utility.yul\":37728:38147   */\n    tag_197:\n        /* \"#utility.yul\":37894:37898   */\n      0x00\n        /* \"#utility.yul\":37932:37934   */\n      0x20\n        /* \"#utility.yul\":37921:37930   */\n      dup3\n        /* \"#utility.yul\":37917:37935   */\n      add\n        /* \"#utility.yul\":37909:37935   */\n      swap1\n      pop\n        /* \"#utility.yul\":37981:37990   */\n      dup2\n        /* \"#utility.yul\":37975:37979   */\n      dup2\n        /* \"#utility.yul\":37971:37991   */\n      sub\n        /* \"#utility.yul\":37967:37968   */\n      0x00\n        /* \"#utility.yul\":37956:37965   */\n      dup4\n        /* \"#utility.yul\":37952:37969   */\n      add\n        /* \"#utility.yul\":37945:37992   */\n      mstore\n        /* \"#utility.yul\":38009:38140   */\n      tag_727\n        /* \"#utility.yul\":38135:38139   */\n      dup2\n        /* \"#utility.yul\":38009:38140   */\n      tag_355\n      jump\t// in\n    tag_727:\n        /* \"#utility.yul\":38001:38140   */\n      swap1\n      pop\n        /* \"#utility.yul\":37728:38147   */\n      swap2\n      swap1\n      pop\n      jump\t// out\n        /* \"#utility.yul\":38153:38335   */\n    tag_356:\n        /* \"#utility.yul\":38293:38327   */\n      0x4f776e61626c653a2063616c6c6572206973206e6f7420746865206f776e6572\n        /* \"#utility.yul\":38289:38290   */\n      0x00\n        /* \"#utility.yul\":38281:38287   */\n      dup3\n        /* \"#utility.yul\":38277:38291   */\n      add\n        /* \"#utility.yul\":38270:38328   */\n      mstore\n        /* \"#utility.yul\":38153:38335   */\n      pop\n      jump\t// out\n        /* \"#utility.yul\":38341:38707   */\n    tag_357:\n        /* \"#utility.yul\":38483:38486   */\n      0x00\n        /* \"#utility.yul\":38504:38571   */\n      tag_730\n        /* \"#utility.yul\":38568:38570   */\n      0x20\n        /* \"#utility.yul\":38563:38566   */\n      dup4\n        /* \"#utility.yul\":38504:38571   */\n      tag_308\n      jump\t// in\n    tag_730:\n        /* \"#utility.yul\":38497:38571   */\n      swap2\n      pop\n        /* \"#utility.yul\":38580:38673   */\n      tag_731\n        /* \"#utility.yul\":38669:38672   */\n      dup3\n        /* \"#utility.yul\":38580:38673   */\n      tag_356\n      jump\t// in\n    tag_731:\n        /* \"#utility.yul\":38698:38700   */\n      0x20\n        /* \"#utility.yul\":38693:38696   */\n      dup3\n        /* \"#utility.yul\":38689:38701   */\n      add\n        /* \"#utility.yul\":38682:38701   */\n      swap1\n      pop\n        /* \"#utility.yul\":38341:38707   */\n      swap2\n      swap1\n      pop\n      jump\t// out\n        /* \"#utility.yul\":38713:39132   */\n    tag_216:\n        /* \"#utility.yul\":38879:38883   */\n      0x00\n        /* \"#utility.yul\":38917:38919   */\n      0x20\n        /* \"#utility.yul\":38906:38915   */\n      dup3\n        /* \"#utility.yul\":38902:38920   */\n      add\n        /* \"#utility.yul\":38894:38920   */\n      swap1\n      pop\n        /* \"#utility.yul\":38966:38975   */\n      dup2\n        /* \"#utility.yul\":38960:38964   */\n      dup2\n        /* \"#utility.yul\":38956:38976   */\n      sub\n        /* \"#utility.yul\":38952:38953   */\n      0x00\n        /* \"#utility.yul\":38941:38950   */\n      dup4\n        /* \"#utility.yul\":38937:38954   */\n      add\n        /* \"#utility.yul\":38930:38977   */\n      mstore\n        /* \"#utility.yul\":38994:39125   */\n      tag_733\n        /* \"#utility.yul\":39120:39124   */\n      dup2\n        /* \"#utility.yul\":38994:39125   */\n      tag_357\n      jump\t// in\n    tag_733:\n        /* \"#utility.yul\":38986:39125   */\n      swap1\n      pop\n        /* \"#utility.yul\":38713:39132   */\n      swap2\n      swap1\n      pop\n      jump\t// out\n        /* \"#utility.yul\":39138:39318   */\n    tag_220:\n        /* \"#utility.yul\":39186:39263   */\n      0x4e487b7100000000000000000000000000000000000000000000000000000000\n        /* \"#utility.yul\":39183:39184   */\n      0x00\n        /* \"#utility.yul\":39176:39264   */\n      mstore\n        /* \"#utility.yul\":39283:39287   */\n      0x32\n        /* \"#utility.yul\":39280:39281   */\n      0x04\n        /* \"#utility.yul\":39273:39288   */\n      mstore\n        /* \"#utility.yul\":39307:39311   */\n      0x24\n        /* \"#utility.yul\":39304:39305   */\n      0x00\n        /* \"#utility.yul\":39297:39312   */\n      revert\n        /* \"#utility.yul\":39324:39697   */\n    tag_358:\n        /* \"#utility.yul\":39428:39431   */\n      0x00\n        /* \"#utility.yul\":39456:39494   */\n      tag_736\n        /* \"#utility.yul\":39488:39493   */\n      dup3\n        /* \"#utility.yul\":39456:39494   */\n      tag_286\n      jump\t// in\n    tag_736:\n        /* \"#utility.yul\":39510:39598   */\n      tag_737\n        /* \"#utility.yul\":39591:39597   */\n      dup2\n        /* \"#utility.yul\":39586:39589   */\n      dup6\n        /* \"#utility.yul\":39510:39598   */\n      tag_315\n      jump\t// in\n    tag_737:\n        /* \"#utility.yul\":39503:39598   */\n      swap4\n      pop\n        /* \"#utility.yul\":39607:39659   */\n      tag_738\n        /* \"#utility.yul\":39652:39658   */\n      dup2\n        /* \"#utility.yul\":39647:39650   */\n      dup6\n        /* \"#utility.yul\":39640:39644   */\n      0x20\n        /* \"#utility.yul\":39633:39638   */\n      dup7\n        /* \"#utility.yul\":39629:39645   */\n      add\n        /* \"#utility.yul\":39607:39659   */\n      tag_288\n      jump\t// in\n    tag_738:\n        /* \"#utility.yul\":39684:39690   */\n      dup1\n        /* \"#utility.yul\":39679:39682   */\n      dup5\n        /* \"#utility.yul\":39675:39691   */\n      add\n        /* \"#utility.yul\":39668:39691   */\n      swap2\n      pop\n        /* \"#utility.yul\":39432:39697   */\n      pop\n        /* \"#utility.yul\":39324:39697   */\n      swap3\n      swap2\n      pop\n      pop\n      jump\t// out\n        /* \"#utility.yul\":39703:39974   */\n    tag_233:\n        /* \"#utility.yul\":39833:39836   */\n      0x00\n        /* \"#utility.yul\":39855:39948   */\n      tag_740\n        /* \"#utility.yul\":39944:39947   */\n      dup3\n        /* \"#utility.yul\":39935:39941   */\n      dup5\n        /* \"#utility.yul\":39855:39948   */\n      tag_358\n      jump\t// in\n    tag_740:\n        /* \"#utility.yul\":39848:39948   */\n      swap2\n      pop\n        /* \"#utility.yul\":39965:39968   */\n      dup2\n        /* \"#utility.yul\":39958:39968   */\n      swap1\n      pop\n        /* \"#utility.yul\":39703:39974   */\n      swap3\n      swap2\n      pop\n      pop\n      jump\t// out\n        /* \"#utility.yul\":39980:40146   */\n    tag_359:\n        /* \"#utility.yul\":40120:40138   */\n      0x537761702043616c6c206661696c656400000000000000000000000000000000\n        /* \"#utility.yul\":40116:40117   */\n      0x00\n        /* \"#utility.yul\":40108:40114   */\n      dup3\n        /* \"#utility.yul\":40104:40118   */\n      add\n        /* \"#utility.yul\":40097:40139   */\n      mstore\n        /* \"#utility.yul\":39980:40146   */\n      pop\n      jump\t// out\n        /* \"#utility.yul\":40152:40518   */\n    tag_360:\n        /* \"#utility.yul\":40294:40297   */\n      0x00\n        /* \"#utility.yul\":40315:40382   */\n      tag_743\n        /* \"#utility.yul\":40379:40381   */\n      0x10\n        /* \"#utility.yul\":40374:40377   */\n      dup4\n        /* \"#utility.yul\":40315:40382   */\n      tag_308\n      jump\t// in\n    tag_743:\n        /* \"#utility.yul\":40308:40382   */\n      swap2\n      pop\n        /* \"#utility.yul\":40391:40484   */\n      tag_744\n        /* \"#utility.yul\":40480:40483   */\n      dup3\n        /* \"#utility.yul\":40391:40484   */\n      tag_359\n      jump\t// in\n    tag_744:\n        /* \"#utility.yul\":40509:40511   */\n      0x20\n        /* \"#utility.yul\":40504:40507   */\n      dup3\n        /* \"#utility.yul\":40500:40512   */\n      add\n        /* \"#utility.yul\":40493:40512   */\n      swap1\n      pop\n        /* \"#utility.yul\":40152:40518   */\n      swap2\n      swap1\n      pop\n      jump\t// out\n        /* \"#utility.yul\":40524:40943   */\n    tag_239:\n        /* \"#utility.yul\":40690:40694   */\n      0x00\n        /* \"#utility.yul\":40728:40730   */\n      0x20\n        /* \"#utility.yul\":40717:40726   */\n      dup3\n        /* \"#utility.yul\":40713:40731   */\n      add\n        /* \"#utility.yul\":40705:40731   */\n      swap1\n      pop\n        /* \"#utility.yul\":40777:40786   */\n      dup2\n        /* \"#utility.yul\":40771:40775   */\n      dup2\n        /* \"#utility.yul\":40767:40787   */\n      sub\n        /* \"#utility.yul\":40763:40764   */\n      0x00\n        /* \"#utility.yul\":40752:40761   */\n      dup4\n        /* \"#utility.yul\":40748:40765   */\n      add\n        /* \"#utility.yul\":40741:40788   */\n      mstore\n        /* \"#utility.yul\":40805:40936   */\n      tag_746\n        /* \"#utility.yul\":40931:40935   */\n      dup2\n        /* \"#utility.yul\":40805:40936   */\n      tag_360\n      jump\t// in\n    tag_746:\n        /* \"#utility.yul\":40797:40936   */\n      swap1\n      pop\n        /* \"#utility.yul\":40524:40943   */\n      swap2\n      swap1\n      pop\n      jump\t// out\n        /* \"#utility.yul\":40949:41182   */\n    tag_241:\n        /* \"#utility.yul\":40988:40991   */\n      0x00\n        /* \"#utility.yul\":41011:41035   */\n      tag_748\n        /* \"#utility.yul\":41029:41034   */\n      dup3\n        /* \"#utility.yul\":41011:41035   */\n      tag_273\n      jump\t// in\n    tag_748:\n        /* \"#utility.yul\":41002:41035   */\n      swap2\n      pop\n        /* \"#utility.yul\":41057:41123   */\n      0xffffffffffffffffffffffffffffffffffffffffffffffffffffffffffffffff\n        /* \"#utility.yul\":41050:41055   */\n      dup3\n        /* \"#utility.yul\":41047:41124   */\n      eq\n        /* \"#utility.yul\":41044:41147   */\n      iszero\n      tag_749\n      jumpi\n        /* \"#utility.yul\":41127:41145   */\n      tag_750\n      tag_322\n      jump\t// in\n    tag_750:\n        /* \"#utility.yul\":41044:41147   */\n    tag_749:\n        /* \"#utility.yul\":41174:41175   */\n      0x01\n        /* \"#utility.yul\":41167:41172   */\n      dup3\n        /* \"#utility.yul\":41163:41176   */\n      add\n        /* \"#utility.yul\":41156:41176   */\n      swap1\n      pop\n        /* \"#utility.yul\":40949:41182   */\n      swap2\n      swap1\n      pop\n      jump\t// out\n        /* \"#utility.yul\":41188:41410   */\n    tag_247:\n        /* \"#utility.yul\":41281:41285   */\n      0x00\n        /* \"#utility.yul\":41319:41321   */\n      0x20\n        /* \"#utility.yul\":41308:41317   */\n      dup3\n        /* \"#utility.yul\":41304:41322   */\n      add\n        /* \"#utility.yul\":41296:41322   */\n      swap1\n      pop\n        /* \"#utility.yul\":41332:41403   */\n      tag_752\n        /* \"#utility.yul\":41400:41401   */\n      0x00\n        /* \"#utility.yul\":41389:41398   */\n      dup4\n        /* \"#utility.yul\":41385:41402   */\n      add\n        /* \"#utility.yul\":41376:41382   */\n      dup5\n        /* \"#utility.yul\":41332:41403   */\n      tag_285\n      jump\t// in\n    tag_752:\n        /* \"#utility.yul\":41188:41410   */\n      swap3\n      swap2\n      pop\n      pop\n      jump\t// out\n        /* \"#utility.yul\":41416:41505   */\n    tag_361:\n        /* \"#utility.yul\":41452:41459   */\n      0x00\n        /* \"#utility.yul\":41492:41498   */\n      0xffff\n        /* \"#utility.yul\":41485:41490   */\n      dup3\n        /* \"#utility.yul\":41481:41499   */\n      and\n        /* \"#utility.yul\":41470:41499   */\n      swap1\n      pop\n        /* \"#utility.yul\":41416:41505   */\n      swap2\n      swap1\n      pop\n      jump\t// out\n        /* \"#utility.yul\":41511:41626   */\n    tag_362:\n        /* \"#utility.yul\":41596:41619   */\n      tag_755\n        /* \"#utility.yul\":41613:41618   */\n      dup2\n        /* \"#utility.yul\":41596:41619   */\n      tag_361\n      jump\t// in\n    tag_755:\n        /* \"#utility.yul\":41591:41594   */\n      dup3\n        /* \"#utility.yul\":41584:41620   */\n      mstore\n        /* \"#utility.yul\":41511:41626   */\n      pop\n      pop\n      jump\t// out\n        /* \"#utility.yul\":41632:42379   */\n    tag_256:\n        /* \"#utility.yul\":41853:41857   */\n      0x00\n        /* \"#utility.yul\":41891:41894   */\n      0xa0\n        /* \"#utility.yul\":41880:41889   */\n      dup3\n        /* \"#utility.yul\":41876:41895   */\n      add\n        /* \"#utility.yul\":41868:41895   */\n      swap1\n      pop\n        /* \"#utility.yul\":41905:41976   */\n      tag_757\n        /* \"#utility.yul\":41973:41974   */\n      0x00\n        /* \"#utility.yul\":41962:41971   */\n      dup4\n        /* \"#utility.yul\":41958:41975   */\n      add\n        /* \"#utility.yul\":41949:41955   */\n      dup9\n        /* \"#utility.yul\":41905:41976   */\n      tag_293\n      jump\t// in\n    tag_757:\n        /* \"#utility.yul\":41986:42058   */\n      tag_758\n        /* \"#utility.yul\":42054:42056   */\n      0x20\n        /* \"#utility.yul\":42043:42052   */\n      dup4\n        /* \"#utility.yul\":42039:42057   */\n      add\n        /* \"#utility.yul\":42030:42036   */\n      dup8\n        /* \"#utility.yul\":41986:42058   */\n      tag_293\n      jump\t// in\n    tag_758:\n        /* \"#utility.yul\":42068:42140   */\n      tag_759\n        /* \"#utility.yul\":42136:42138   */\n      0x40\n        /* \"#utility.yul\":42125:42134   */\n      dup4\n        /* \"#utility.yul\":42121:42139   */\n      add\n        /* \"#utility.yul\":42112:42118   */\n      dup7\n        /* \"#utility.yul\":42068:42140   */\n      tag_285\n      jump\t// in\n    tag_759:\n        /* \"#utility.yul\":42187:42196   */\n      dup2\n        /* \"#utility.yul\":42181:42185   */\n      dup2\n        /* \"#utility.yul\":42177:42197   */\n      sub\n        /* \"#utility.yul\":42172:42174   */\n      0x60\n        /* \"#utility.yul\":42161:42170   */\n      dup4\n        /* \"#utility.yul\":42157:42175   */\n      add\n        /* \"#utility.yul\":42150:42198   */\n      mstore\n        /* \"#utility.yul\":42215:42291   */\n      tag_760\n        /* \"#utility.yul\":42286:42290   */\n      dup2\n        /* \"#utility.yul\":42277:42283   */\n      dup6\n        /* \"#utility.yul\":42215:42291   */\n      tag_290\n      jump\t// in\n    tag_760:\n        /* \"#utility.yul\":42207:42291   */\n      swap1\n      pop\n        /* \"#utility.yul\":42301:42372   */\n      tag_761\n        /* \"#utility.yul\":42367:42370   */\n      0x80\n        /* \"#utility.yul\":42356:42365   */\n      dup4\n        /* \"#utility.yul\":42352:42371   */\n      add\n        /* \"#utility.yul\":42343:42349   */\n      dup5\n        /* \"#utility.yul\":42301:42372   */\n      tag_362\n      jump\t// in\n    tag_761:\n        /* \"#utility.yul\":41632:42379   */\n      swap7\n      swap6\n      pop\n      pop\n      pop\n      pop\n      pop\n      pop\n      jump\t// out\n\n    auxdata: 0xa2646970667358221220aad3774f32abb791e9a955c9adce6709d8ab4dd665aba7562b4271825217115e64736f6c634300080a0033\n}\n",
				"bytecode": {
					"linkReferences": {},
					"object": "60c060405260405162002c8738038062002c87833981810160405281019062000029919062000342565b8082600073ffffffffffffffffffffffffffffffffffffffff168173ffffffffffffffffffffffffffffffffffffffff1614156200009e576040517f08c379a00000000000000000000000000000000000000000000000000000000081526004016200009590620003ea565b60405180910390fd5b620000af816200021460201b60201c565b508073ffffffffffffffffffffffffffffffffffffffff1660808173ffffffffffffffffffffffffffffffffffffffff16815250508073ffffffffffffffffffffffffffffffffffffffff1663026b1d5f6040518163ffffffff1660e01b8152600401602060405180830381865afa15801562000130573d6000803e3d6000fd5b505050506040513d601f19601f820116820180604052508101906200015691906200040c565b73ffffffffffffffffffffffffffffffffffffffff1660a08173ffffffffffffffffffffffffffffffffffffffff16815250505060003411156200020c5773c02aaa39b223fe8d0a0e5c4f27ead9083c756cc273ffffffffffffffffffffffffffffffffffffffff1663d0e30db0346040518263ffffffff1660e01b81526004016000604051808303818588803b158015620001f157600080fd5b505af115801562000206573d6000803e3d6000fd5b50505050505b50506200043e565b60008060009054906101000a900473ffffffffffffffffffffffffffffffffffffffff169050816000806101000a81548173ffffffffffffffffffffffffffffffffffffffff021916908373ffffffffffffffffffffffffffffffffffffffff1602179055508173ffffffffffffffffffffffffffffffffffffffff168173ffffffffffffffffffffffffffffffffffffffff167f8be0079c531659141344cd1fd0a4f28419497f9722a3daafe3b4186f6b6457e060405160405180910390a35050565b600080fd5b600073ffffffffffffffffffffffffffffffffffffffff82169050919050565b60006200030a82620002dd565b9050919050565b6200031c81620002fd565b81146200032857600080fd5b50565b6000815190506200033c8162000311565b92915050565b600080604083850312156200035c576200035b620002d8565b5b60006200036c858286016200032b565b92505060206200037f858286016200032b565b9150509250929050565b600082825260208201905092915050565b7f4f776e61626c653a20696e76616c6964206f776e657220616464726573730000600082015250565b6000620003d2601e8362000389565b9150620003df826200039a565b602082019050919050565b600060208201905081810360008301526200040581620003c3565b9050919050565b600060208284031215620004255762000424620002d8565b5b600062000435848285016200032b565b91505092915050565b60805160a051612815620004726000396000818161060801528181610a400152611242015260006102b001526128156000f3fe6080604052600436106100ab5760003560e01c8063715018a611610064578063715018a6146101d35780637535d246146101ea5780638da5cb5b14610215578063ecd494b314610240578063f2fde38b1461025c578063f5537ede14610285576100b2565b80630542975c146100b757806305b1137b146100e25780631b11d0ff146100fe5780632fefb2be1461013b578063357291301461017a5780636dbf2fa0146101a3576100b2565b366100b257005b600080fd5b3480156100c357600080fd5b506100cc6102ae565b6040516100d99190611363565b60405180910390f35b6100fc60048036038101906100f79190611406565b6102d2565b005b34801561010a57600080fd5b50610125600480360381019061012091906114e9565b610481565b604051610132919061159e565b60405180910390f35b34801561014757600080fd5b50610162600480360381019061015d91906115b9565b61069e565b604051610171939291906115f5565b60405180910390f35b34801561018657600080fd5b506101a1600480360381019061019c919061162c565b610759565b005b6101bd60048036038101906101b8919061166c565b610927565b6040516101ca9190611779565b60405180910390f35b3480156101df57600080fd5b506101e8610a2a565b005b3480156101f657600080fd5b506101ff610a3e565b60405161020c91906117bc565b60405180910390f35b34801561022157600080fd5b5061022a610a62565b60405161023791906117e6565b60405180910390f35b61025a60048036038101906102559190611ad5565b610a8b565b005b34801561026857600080fd5b50610283600480360381019061027e91906115b9565b610c73565b005b34801561029157600080fd5b506102ac60048036038101906102a79190611b74565b610cf7565b005b7f000000000000000000000000000000000000000000000000000000000000000081565b6102da610e3d565b600073ffffffffffffffffffffffffffffffffffffffff168273ffffffffffffffffffffffffffffffffffffffff16141561034a576040517f08c379a000000000000000000000000000000000000000000000000000000000815260040161034190611c24565b60405180910390fd5b6000811161038d576040517f08c379a000000000000000000000000000000000000000000000000000000000815260040161038490611c90565b60405180910390fd5b804710156103d0576040517f08c379a00000000000000000000000000000000000000000000000000000000081526004016103c790611cfc565b60405180910390fd5b60008273ffffffffffffffffffffffffffffffffffffffff16826040516103f690611d4d565b60006040518083038185875af1925050503d8060008114610433576040519150601f19603f3d011682016040523d82523d6000602084013e610438565b606091505b505090508061047c576040517f08c379a000000000000000000000000000000000000000000000000000000000815260040161047390611dae565b60405180910390fd5b505050565b60003373ffffffffffffffffffffffffffffffffffffffff168473ffffffffffffffffffffffffffffffffffffffff16146104f1576040517f08c379a00000000000000000000000000000000000000000000000000000000081526004016104e890611e1a565b60405180910390fd5b600085876104ff9190611e69565b9050600080600080600088888101906105189190611ebf565b9450945094509450945061052d848383610ebb565b600073c02aaa39b223fe8d0a0e5c4f27ead9083c756cc273ffffffffffffffffffffffffffffffffffffffff166370a08231306040518263ffffffff1660e01b815260040161057c91906117e6565b602060405180830381865afa158015610599573d6000803e3d6000fd5b505050506040513d601f19601f820116820180604052508101906105bd9190611f87565b90508684876105cc9190611e69565b6105d69190611e69565b81116105e157600080fd5b6105ea84611073565b8d73ffffffffffffffffffffffffffffffffffffffff1663095ea7b37f0000000000000000000000000000000000000000000000000000000000000000896040518363ffffffff1660e01b8152600401610645929190611fb4565b6020604051808303816000875af1158015610664573d6000803e3d6000fd5b505050506040513d601f19601f820116820180604052508101906106889190612009565b5060019750505050505050509695505050505050565b6000806000808490508073ffffffffffffffffffffffffffffffffffffffff16630902f1ac6040518163ffffffff1660e01b8152600401606060405180830381865afa1580156106f2573d6000803e3d6000fd5b505050506040513d601f19601f8201168201806040525081019061071691906120b8565b826dffffffffffffffffffffffffffff169250816dffffffffffffffffffffffffffff1691508063ffffffff169050809450819550829650505050509193909250565b6000811161079c576040517f08c379a000000000000000000000000000000000000000000000000000000000815260040161079390611c90565b60405180910390fd5b6000829050818173ffffffffffffffffffffffffffffffffffffffff166370a08231336040518263ffffffff1660e01b81526004016107db91906117e6565b602060405180830381865afa1580156107f8573d6000803e3d6000fd5b505050506040513d601f19601f8201168201806040525081019061081c9190611f87565b101561085d576040517f08c379a000000000000000000000000000000000000000000000000000000000815260040161085490612157565b60405180910390fd5b60008173ffffffffffffffffffffffffffffffffffffffff166323b872dd3330866040518463ffffffff1660e01b815260040161089c93929190612177565b6020604051808303816000875af11580156108bb573d6000803e3d6000fd5b505050506040513d601f19601f820116820180604052508101906108df9190612009565b905080610921576040517f08c379a0000000000000000000000000000000000000000000000000000000008152600401610918906121fa565b60405180910390fd5b50505050565b6060610931610e3d565b600073ffffffffffffffffffffffffffffffffffffffff168573ffffffffffffffffffffffffffffffffffffffff16141561096b57600080fd5b6000808673ffffffffffffffffffffffffffffffffffffffff1686868660405161099692919061223f565b60006040518083038185875af1925050503d80600081146109d3576040519150601f19603f3d011682016040523d82523d6000602084013e6109d8565b606091505b509150915081610a1d576040517f08c379a0000000000000000000000000000000000000000000000000000000008152600401610a14906122a4565b60405180910390fd5b8092505050949350505050565b610a32610e3d565b610a3c600061116b565b565b7f000000000000000000000000000000000000000000000000000000000000000081565b60008060009054906101000a900473ffffffffffffffffffffffffffffffffffffffff16905090565b610a93610e3d565b8051825114610aa157600080fd5b600073c02aaa39b223fe8d0a0e5c4f27ead9083c756cc273ffffffffffffffffffffffffffffffffffffffff166370a08231306040518263ffffffff1660e01b8152600401610af091906117e6565b602060405180830381865afa158015610b0d573d6000803e3d6000fd5b505050506040513d601f19601f82011682018060405250810190610b319190611f87565b90506000818611610b43576000610b50565b8186610b4f91906122c4565b5b90506000811115610bac5760008287878787604051602001610b769594939291906124c2565b6040516020818303038152906040529050610ba673c02aaa39b223fe8d0a0e5c4f27ead9083c756cc2838361122f565b50610c6b565b610bb7868585610ebb565b600073c02aaa39b223fe8d0a0e5c4f27ead9083c756cc273ffffffffffffffffffffffffffffffffffffffff166370a08231306040518263ffffffff1660e01b8152600401610c0691906117e6565b602060405180830381865afa158015610c23573d6000803e3d6000fd5b505050506040513d601f19601f82011682018060405250810190610c479190611f87565b90508583610c559190611e69565b8111610c6057600080fd5b610c6986611073565b505b505050505050565b610c7b610e3d565b600073ffffffffffffffffffffffffffffffffffffffff168173ffffffffffffffffffffffffffffffffffffffff161415610ceb576040517f08c379a0000000000000000000000000000000000000000000000000000000008152600401610ce290612595565b60405180910390fd5b610cf48161116b565b50565b610cff610e3d565b600073ffffffffffffffffffffffffffffffffffffffff168273ffffffffffffffffffffffffffffffffffffffff161415610d6f576040517f08c379a0000000000000000000000000000000000000000000000000000000008152600401610d6690611c24565b60405180910390fd5b600083905060008173ffffffffffffffffffffffffffffffffffffffff1663a9059cbb85856040518363ffffffff1660e01b8152600401610db1929190611fb4565b6020604051808303816000875af1158015610dd0573d6000803e3d6000fd5b505050506040513d601f19601f82011682018060405250810190610df49190612009565b905080610e36576040517f08c379a0000000000000000000000000000000000000000000000000000000008152600401610e2d906121fa565b60405180910390fd5b5050505050565b610e456112dc565b73ffffffffffffffffffffffffffffffffffffffff16610e63610a62565b73ffffffffffffffffffffffffffffffffffffffff1614610eb9576040517f08c379a0000000000000000000000000000000000000000000000000000000008152600401610eb090612601565b60405180910390fd5b565b73c02aaa39b223fe8d0a0e5c4f27ead9083c756cc273ffffffffffffffffffffffffffffffffffffffff1663a9059cbb83600081518110610eff57610efe612621565b5b6020026020010151856040518363ffffffff1660e01b8152600401610f25929190611fb4565b6020604051808303816000875af1158015610f44573d6000803e3d6000fd5b505050506040513d601f19601f82011682018060405250810190610f689190612009565b5060005b825181101561106d57600080848381518110610f8b57610f8a612621565b5b602002602001015173ffffffffffffffffffffffffffffffffffffffff16848481518110610fbc57610fbb612621565b5b6020026020010151604051610fd19190612681565b6000604051808303816000865af19150503d806000811461100e576040519150601f19603f3d011682016040523d82523d6000602084013e611013565b606091505b509150915081611058576040517f08c379a000000000000000000000000000000000000000000000000000000000815260040161104f906126e4565b60405180910390fd5b5050808061106590612704565b915050610f6c565b50505050565b600081141561108157611168565b60004790508181101561111f576000818361109c91906122c4565b905073c02aaa39b223fe8d0a0e5c4f27ead9083c756cc273ffffffffffffffffffffffffffffffffffffffff16632e1a7d4d826040518263ffffffff1660e01b81526004016110eb919061274d565b600060405180830381600087803b15801561110557600080fd5b505af1158015611119573d6000803e3d6000fd5b50505050505b4173ffffffffffffffffffffffffffffffffffffffff166108fc839081150290604051600060405180830381858888f19350505050158015611165573d6000803e3d6000fd5b50505b50565b60008060009054906101000a900473ffffffffffffffffffffffffffffffffffffffff169050816000806101000a81548173ffffffffffffffffffffffffffffffffffffffff021916908373ffffffffffffffffffffffffffffffffffffffff1602179055508173ffffffffffffffffffffffffffffffffffffffff168173ffffffffffffffffffffffffffffffffffffffff167f8be0079c531659141344cd1fd0a4f28419497f9722a3daafe3b4186f6b6457e060405160405180910390a35050565b60003090506000849050600084905060007f000000000000000000000000000000000000000000000000000000000000000073ffffffffffffffffffffffffffffffffffffffff166342b0b77c85858589866040518663ffffffff1660e01b81526004016112a1959493929190612785565b600060405180830381600087803b1580156112bb57600080fd5b505af11580156112cf573d6000803e3d6000fd5b5050505050505050505050565b600033905090565b600073ffffffffffffffffffffffffffffffffffffffff82169050919050565b6000819050919050565b600061132961132461131f846112e4565b611304565b6112e4565b9050919050565b600061133b8261130e565b9050919050565b600061134d82611330565b9050919050565b61135d81611342565b82525050565b60006020820190506113786000830184611354565b92915050565b6000604051905090565b600080fd5b600080fd5b600061139d826112e4565b9050919050565b6113ad81611392565b81146113b857600080fd5b50565b6000813590506113ca816113a4565b92915050565b6000819050919050565b6113e3816113d0565b81146113ee57600080fd5b50565b600081359050611400816113da565b92915050565b6000806040838503121561141d5761141c611388565b5b600061142b858286016113bb565b925050602061143c858286016113f1565b9150509250929050565b6000611451826112e4565b9050919050565b61146181611446565b811461146c57600080fd5b50565b60008135905061147e81611458565b92915050565b600080fd5b600080fd5b600080fd5b60008083601f8401126114a9576114a8611484565b5b8235905067ffffffffffffffff8111156114c6576114c5611489565b5b6020830191508360018202830111156114e2576114e161148e565b5b9250929050565b60008060008060008060a0878903121561150657611505611388565b5b600061151489828a0161146f565b965050602061152589828a016113f1565b955050604061153689828a016113f1565b945050606061154789828a0161146f565b935050608087013567ffffffffffffffff8111156115685761156761138d565b5b61157489828a01611493565b92509250509295509295509295565b60008115159050919050565b61159881611583565b82525050565b60006020820190506115b3600083018461158f565b92915050565b6000602082840312156115cf576115ce611388565b5b60006115dd8482850161146f565b91505092915050565b6115ef816113d0565b82525050565b600060608201905061160a60008301866115e6565b61161760208301856115e6565b61162460408301846115e6565b949350505050565b6000806040838503121561164357611642611388565b5b60006116518582860161146f565b9250506020611662858286016113f1565b9150509250929050565b6000806000806060858703121561168657611685611388565b5b6000611694878288016113bb565b94505060206116a5878288016113f1565b935050604085013567ffffffffffffffff8111156116c6576116c561138d565b5b6116d287828801611493565b925092505092959194509250565b600081519050919050565b600082825260208201905092915050565b60005b8381101561171a5780820151818401526020810190506116ff565b83811115611729576000848401525b50505050565b6000601f19601f8301169050919050565b600061174b826116e0565b61175581856116eb565b93506117658185602086016116fc565b61176e8161172f565b840191505092915050565b600060208201905081810360008301526117938184611740565b905092915050565b60006117a682611330565b9050919050565b6117b68161179b565b82525050565b60006020820190506117d160008301846117ad565b92915050565b6117e081611446565b82525050565b60006020820190506117fb60008301846117d7565b92915050565b7f4e487b7100000000000000000000000000000000000000000000000000000000600052604160045260246000fd5b6118398261172f565b810181811067ffffffffffffffff8211171561185857611857611801565b5b80604052505050565b600061186b61137e565b90506118778282611830565b919050565b600067ffffffffffffffff82111561189757611896611801565b5b602082029050602081019050919050565b60006118bb6118b68461187c565b611861565b905080838252602082019050602084028301858111156118de576118dd61148e565b5b835b8181101561190757806118f3888261146f565b8452602084019350506020810190506118e0565b5050509392505050565b600082601f83011261192657611925611484565b5b81356119368482602086016118a8565b91505092915050565b600067ffffffffffffffff82111561195a57611959611801565b5b602082029050602081019050919050565b600080fd5b600067ffffffffffffffff82111561198b5761198a611801565b5b6119948261172f565b9050602081019050919050565b82818337600083830152505050565b60006119c36119be84611970565b611861565b9050828152602081018484840111156119df576119de61196b565b5b6119ea8482856119a1565b509392505050565b600082601f830112611a0757611a06611484565b5b8135611a178482602086016119b0565b91505092915050565b6000611a33611a2e8461193f565b611861565b90508083825260208201905060208402830185811115611a5657611a5561148e565b5b835b81811015611a9d57803567ffffffffffffffff811115611a7b57611a7a611484565b5b808601611a8889826119f2565b85526020850194505050602081019050611a58565b5050509392505050565b600082601f830112611abc57611abb611484565b5b8135611acc848260208601611a20565b91505092915050565b60008060008060808587031215611aef57611aee611388565b5b6000611afd878288016113f1565b9450506020611b0e878288016113f1565b935050604085013567ffffffffffffffff811115611b2f57611b2e61138d565b5b611b3b87828801611911565b925050606085013567ffffffffffffffff811115611b5c57611b5b61138d565b5b611b6887828801611aa7565b91505092959194509250565b600080600060608486031215611b8d57611b8c611388565b5b6000611b9b8682870161146f565b9350506020611bac8682870161146f565b9250506040611bbd868287016113f1565b9150509250925092565b600082825260208201905092915050565b7f526563697069656e7420616464726573732063616e6e6f74206265207a65726f600082015250565b6000611c0e602083611bc7565b9150611c1982611bd8565b602082019050919050565b60006020820190508181036000830152611c3d81611c01565b9050919050565b7f416d6f756e74206d7573742062652067726561746572207468616e207a65726f600082015250565b6000611c7a602083611bc7565b9150611c8582611c44565b602082019050919050565b60006020820190508181036000830152611ca981611c6d565b9050919050565b7f496e73756666696369656e7420636f6e74726163742062616c616e6365000000600082015250565b6000611ce6601d83611bc7565b9150611cf182611cb0565b602082019050919050565b60006020820190508181036000830152611d1581611cd9565b9050919050565b600081905092915050565b50565b6000611d37600083611d1c565b9150611d4282611d27565b600082019050919050565b6000611d5882611d2a565b9150819050919050565b7f4661696c656420746f2073656e64204574686572000000000000000000000000600082015250565b6000611d98601483611bc7565b9150611da382611d62565b602082019050919050565b60006020820190508181036000830152611dc781611d8b565b9050919050565b7f556e617574686f72697a656420696e69746961746f7200000000000000000000600082015250565b6000611e04601683611bc7565b9150611e0f82611dce565b602082019050919050565b60006020820190508181036000830152611e3381611df7565b9050919050565b7f4e487b7100000000000000000000000000000000000000000000000000000000600052601160045260246000fd5b6000611e74826113d0565b9150611e7f836113d0565b9250827fffffffffffffffffffffffffffffffffffffffffffffffffffffffffffffffff03821115611eb457611eb3611e3a565b5b828201905092915050565b600080600080600060a08688031215611edb57611eda611388565b5b6000611ee9888289016113f1565b9550506020611efa888289016113f1565b9450506040611f0b888289016113f1565b935050606086013567ffffffffffffffff811115611f2c57611f2b61138d565b5b611f3888828901611911565b925050608086013567ffffffffffffffff811115611f5957611f5861138d565b5b611f6588828901611aa7565b9150509295509295909350565b600081519050611f81816113da565b92915050565b600060208284031215611f9d57611f9c611388565b5b6000611fab84828501611f72565b91505092915050565b6000604082019050611fc960008301856117d7565b611fd660208301846115e6565b9392505050565b611fe681611583565b8114611ff157600080fd5b50565b60008151905061200381611fdd565b92915050565b60006020828403121561201f5761201e611388565b5b600061202d84828501611ff4565b91505092915050565b60006dffffffffffffffffffffffffffff82169050919050565b61205981612036565b811461206457600080fd5b50565b60008151905061207681612050565b92915050565b600063ffffffff82169050919050565b6120958161207c565b81146120a057600080fd5b50565b6000815190506120b28161208c565b92915050565b6000806000606084860312156120d1576120d0611388565b5b60006120df86828701612067565b93505060206120f086828701612067565b9250506040612101868287016120a3565b9150509250925092565b7f496e73756666696369656e7420746f6b656e2062616c616e6365000000000000600082015250565b6000612141601a83611bc7565b915061214c8261210b565b602082019050919050565b6000602082019050818103600083015261217081612134565b9050919050565b600060608201905061218c60008301866117d7565b61219960208301856117d7565b6121a660408301846115e6565b949350505050565b7f546f6b656e207472616e73666572206661696c65640000000000000000000000600082015250565b60006121e4601583611bc7565b91506121ef826121ae565b602082019050919050565b60006020820190508181036000830152612213816121d7565b9050919050565b60006122268385611d1c565b93506122338385846119a1565b82840190509392505050565b600061224c82848661221a565b91508190509392505050565b7f43616c6c20657865637574696f6e206661696c65640000000000000000000000600082015250565b600061228e601583611bc7565b915061229982612258565b602082019050919050565b600060208201905081810360008301526122bd81612281565b9050919050565b60006122cf826113d0565b91506122da836113d0565b9250828210156122ed576122ec611e3a565b5b828203905092915050565b600081519050919050565b600082825260208201905092915050565b6000819050602082019050919050565b61232d81611446565b82525050565b600061233f8383612324565b60208301905092915050565b6000602082019050919050565b6000612363826122f8565b61236d8185612303565b935061237883612314565b8060005b838110156123a95781516123908882612333565b975061239b8361234b565b92505060018101905061237c565b5085935050505092915050565b600081519050919050565b600082825260208201905092915050565b6000819050602082019050919050565b600082825260208201905092915050565b60006123fe826116e0565b61240881856123e2565b93506124188185602086016116fc565b6124218161172f565b840191505092915050565b600061243883836123f3565b905092915050565b6000602082019050919050565b6000612458826123b6565b61246281856123c1565b935083602082028501612474856123d2565b8060005b858110156124b05784840389528151612491858261242c565b945061249c83612440565b925060208a01995050600181019050612478565b50829750879550505050505092915050565b600060a0820190506124d760008301886115e6565b6124e460208301876115e6565b6124f160408301866115e6565b81810360608301526125038185612358565b90508181036080830152612517818461244d565b90509695505050505050565b7f4f776e61626c653a20696e76616c6964206e6577206f776e657220616464726560008201527f7373000000000000000000000000000000000000000000000000000000000000602082015250565b600061257f602283611bc7565b915061258a82612523565b604082019050919050565b600060208201905081810360008301526125ae81612572565b9050919050565b7f4f776e61626c653a2063616c6c6572206973206e6f7420746865206f776e6572600082015250565b60006125eb602083611bc7565b91506125f6826125b5565b602082019050919050565b6000602082019050818103600083015261261a816125de565b9050919050565b7f4e487b7100000000000000000000000000000000000000000000000000000000600052603260045260246000fd5b600061265b826116e0565b6126658185611d1c565b93506126758185602086016116fc565b80840191505092915050565b600061268d8284612650565b915081905092915050565b7f537761702043616c6c206661696c656400000000000000000000000000000000600082015250565b60006126ce601083611bc7565b91506126d982612698565b602082019050919050565b600060208201905081810360008301526126fd816126c1565b9050919050565b600061270f826113d0565b91507fffffffffffffffffffffffffffffffffffffffffffffffffffffffffffffffff82141561274257612741611e3a565b5b600182019050919050565b600060208201905061276260008301846115e6565b92915050565b600061ffff82169050919050565b61277f81612768565b82525050565b600060a08201905061279a60008301886117d7565b6127a760208301876117d7565b6127b460408301866115e6565b81810360608301526127c68185611740565b90506127d56080830184612776565b969550505050505056fea2646970667358221220aad3774f32abb791e9a955c9adce6709d8ab4dd665aba7562b4271825217115e64736f6c634300080a0033",
					"opcodes": "PUSH1 0xC0 PUSH1 0x40 MSTORE PUSH1 0x40 MLOAD PUSH3 0x2C87 CODESIZE SUB DUP1 PUSH3 0x2C87 DUP4 CODECOPY DUP2 DUP2 ADD PUSH1 0x40 MSTORE DUP2 ADD SWAP1 PUSH3 0x29 SWAP2 SWAP1 PUSH3 0x342 JUMP JUMPDEST DUP1 DUP3 PUSH1 0x0 PUSH20 0xFFFFFFFFFFFFFFFFFFFFFFFFFFFFFFFFFFFFFFFF AND DUP2 PUSH20 0xFFFFFFFFFFFFFFFFFFFFFFFFFFFFFFFFFFFFFFFF AND EQ ISZERO PUSH3 0x9E JUMPI PUSH1 0x40 MLOAD PUSH32 0x8C379A000000000000000000000000000000000000000000000000000000000 DUP2 MSTORE PUSH1 0x4 ADD PUSH3 0x95 SWAP1 PUSH3 0x3EA JUMP JUMPDEST PUSH1 0x40 MLOAD DUP1 SWAP2 SUB SWAP1 REVERT JUMPDEST PUSH3 0xAF DUP2 PUSH3 0x214 PUSH1 0x20 SHL PUSH1 0x20 SHR JUMP JUMPDEST POP DUP1 PUSH20 0xFFFFFFFFFFFFFFFFFFFFFFFFFFFFFFFFFFFFFFFF AND PUSH1 0x80 DUP2 PUSH20 0xFFFFFFFFFFFFFFFFFFFFFFFFFFFFFFFFFFFFFFFF AND DUP2 MSTORE POP POP DUP1 PUSH20 0xFFFFFFFFFFFFFFFFFFFFFFFFFFFFFFFFFFFFFFFF AND PUSH4 0x26B1D5F PUSH1 0x40 MLOAD DUP2 PUSH4 0xFFFFFFFF AND PUSH1 0xE0 SHL DUP2 MSTORE PUSH1 0x4 ADD PUSH1 0x20 PUSH1 0x40 MLOAD DUP1 DUP4 SUB DUP2 DUP7 GAS STATICCALL ISZERO DUP1 ISZERO PUSH3 0x130 JUMPI RETURNDATASIZE PUSH1 0x0 DUP1 RETURNDATACOPY RETURNDATASIZE PUSH1 0x0 REVERT JUMPDEST POP POP POP POP PUSH1 0x40 MLOAD RETURNDATASIZE PUSH1 0x1F NOT PUSH1 0x1F DUP3 ADD AND DUP3 ADD DUP1 PUSH1 0x40 MSTORE POP DUP2 ADD SWAP1 PUSH3 0x156 SWAP2 SWAP1 PUSH3 0x40C JUMP JUMPDEST PUSH20 0xFFFFFFFFFFFFFFFFFFFFFFFFFFFFFFFFFFFFFFFF AND PUSH1 0xA0 DUP2 PUSH20 0xFFFFFFFFFFFFFFFFFFFFFFFFFFFFFFFFFFFFFFFF AND DUP2 MSTORE POP POP POP PUSH1 0x0 CALLVALUE GT ISZERO PUSH3 0x20C JUMPI PUSH20 0xC02AAA39B223FE8D0A0E5C4F27EAD9083C756CC2 PUSH20 0xFFFFFFFFFFFFFFFFFFFFFFFFFFFFFFFFFFFFFFFF AND PUSH4 0xD0E30DB0 CALLVALUE PUSH1 0x40 MLOAD DUP3 PUSH4 0xFFFFFFFF AND PUSH1 0xE0 SHL DUP2 MSTORE PUSH1 0x4 ADD PUSH1 0x0 PUSH1 0x40 MLOAD DUP1 DUP4 SUB DUP2 DUP6 DUP9 DUP1 EXTCODESIZE ISZERO DUP1 ISZERO PUSH3 0x1F1 JUMPI PUSH1 0x0 DUP1 REVERT JUMPDEST POP GAS CALL ISZERO DUP1 ISZERO PUSH3 0x206 JUMPI RETURNDATASIZE PUSH1 0x0 DUP1 RETURNDATACOPY RETURNDATASIZE PUSH1 0x0 REVERT JUMPDEST POP POP POP POP POP JUMPDEST POP POP PUSH3 0x43E JUMP JUMPDEST PUSH1 0x0 DUP1 PUSH1 0x0 SWAP1 SLOAD SWAP1 PUSH2 0x100 EXP SWAP1 DIV PUSH20 0xFFFFFFFFFFFFFFFFFFFFFFFFFFFFFFFFFFFFFFFF AND SWAP1 POP DUP2 PUSH1 0x0 DUP1 PUSH2 0x100 EXP DUP2 SLOAD DUP2 PUSH20 0xFFFFFFFFFFFFFFFFFFFFFFFFFFFFFFFFFFFFFFFF MUL NOT AND SWAP1 DUP4 PUSH20 0xFFFFFFFFFFFFFFFFFFFFFFFFFFFFFFFFFFFFFFFF AND MUL OR SWAP1 SSTORE POP DUP2 PUSH20 0xFFFFFFFFFFFFFFFFFFFFFFFFFFFFFFFFFFFFFFFF AND DUP2 PUSH20 0xFFFFFFFFFFFFFFFFFFFFFFFFFFFFFFFFFFFFFFFF AND PUSH32 0x8BE0079C531659141344CD1FD0A4F28419497F9722A3DAAFE3B4186F6B6457E0 PUSH1 0x40 MLOAD PUSH1 0x40 MLOAD DUP1 SWAP2 SUB SWAP1 LOG3 POP POP JUMP JUMPDEST PUSH1 0x0 DUP1 REVERT JUMPDEST PUSH1 0x0 PUSH20 0xFFFFFFFFFFFFFFFFFFFFFFFFFFFFFFFFFFFFFFFF DUP3 AND SWAP1 POP SWAP2 SWAP1 POP JUMP JUMPDEST PUSH1 0x0 PUSH3 0x30A DUP3 PUSH3 0x2DD JUMP JUMPDEST SWAP1 POP SWAP2 SWAP1 POP JUMP JUMPDEST PUSH3 0x31C DUP2 PUSH3 0x2FD JUMP JUMPDEST DUP2 EQ PUSH3 0x328 JUMPI PUSH1 0x0 DUP1 REVERT JUMPDEST POP JUMP JUMPDEST PUSH1 0x0 DUP2 MLOAD SWAP1 POP PUSH3 0x33C DUP2 PUSH3 0x311 JUMP JUMPDEST SWAP3 SWAP2 POP POP JUMP JUMPDEST PUSH1 0x0 DUP1 PUSH1 0x40 DUP4 DUP6 SUB SLT ISZERO PUSH3 0x35C JUMPI PUSH3 0x35B PUSH3 0x2D8 JUMP JUMPDEST JUMPDEST PUSH1 0x0 PUSH3 0x36C DUP6 DUP3 DUP7 ADD PUSH3 0x32B JUMP JUMPDEST SWAP3 POP POP PUSH1 0x20 PUSH3 0x37F DUP6 DUP3 DUP7 ADD PUSH3 0x32B JUMP JUMPDEST SWAP2 POP POP SWAP3 POP SWAP3 SWAP1 POP JUMP JUMPDEST PUSH1 0x0 DUP3 DUP3 MSTORE PUSH1 0x20 DUP3 ADD SWAP1 POP SWAP3 SWAP2 POP POP JUMP JUMPDEST PUSH32 0x4F776E61626C653A20696E76616C6964206F776E657220616464726573730000 PUSH1 0x0 DUP3 ADD MSTORE POP JUMP JUMPDEST PUSH1 0x0 PUSH3 0x3D2 PUSH1 0x1E DUP4 PUSH3 0x389 JUMP JUMPDEST SWAP2 POP PUSH3 0x3DF DUP3 PUSH3 0x39A JUMP JUMPDEST PUSH1 0x20 DUP3 ADD SWAP1 POP SWAP2 SWAP1 POP JUMP JUMPDEST PUSH1 0x0 PUSH1 0x20 DUP3 ADD SWAP1 POP DUP2 DUP2 SUB PUSH1 0x0 DUP4 ADD MSTORE PUSH3 0x405 DUP2 PUSH3 0x3C3 JUMP JUMPDEST SWAP1 POP SWAP2 SWAP1 POP JUMP JUMPDEST PUSH1 0x0 PUSH1 0x20 DUP3 DUP5 SUB SLT ISZERO PUSH3 0x425 JUMPI PUSH3 0x424 PUSH3 0x2D8 JUMP JUMPDEST JUMPDEST PUSH1 0x0 PUSH3 0x435 DUP5 DUP3 DUP6 ADD PUSH3 0x32B JUMP JUMPDEST SWAP2 POP POP SWAP3 SWAP2 POP POP JUMP JUMPDEST PUSH1 0x80 MLOAD PUSH1 0xA0 MLOAD PUSH2 0x2815 PUSH3 0x472 PUSH1 0x0 CODECOPY PUSH1 0x0 DUP2 DUP2 PUSH2 0x608 ADD MSTORE DUP2 DUP2 PUSH2 0xA40 ADD MSTORE PUSH2 0x1242 ADD MSTORE PUSH1 0x0 PUSH2 0x2B0 ADD MSTORE PUSH2 0x2815 PUSH1 0x0 RETURN INVALID PUSH1 0x80 PUSH1 0x40 MSTORE PUSH1 0x4 CALLDATASIZE LT PUSH2 0xAB JUMPI PUSH1 0x0 CALLDATALOAD PUSH1 0xE0 SHR DUP1 PUSH4 0x715018A6 GT PUSH2 0x64 JUMPI DUP1 PUSH4 0x715018A6 EQ PUSH2 0x1D3 JUMPI DUP1 PUSH4 0x7535D246 EQ PUSH2 0x1EA JUMPI DUP1 PUSH4 0x8DA5CB5B EQ PUSH2 0x215 JUMPI DUP1 PUSH4 0xECD494B3 EQ PUSH2 0x240 JUMPI DUP1 PUSH4 0xF2FDE38B EQ PUSH2 0x25C JUMPI DUP1 PUSH4 0xF5537EDE EQ PUSH2 0x285 JUMPI PUSH2 0xB2 JUMP JUMPDEST DUP1 PUSH4 0x542975C EQ PUSH2 0xB7 JUMPI DUP1 PUSH4 0x5B1137B EQ PUSH2 0xE2 JUMPI DUP1 PUSH4 0x1B11D0FF EQ PUSH2 0xFE JUMPI DUP1 PUSH4 0x2FEFB2BE EQ PUSH2 0x13B JUMPI DUP1 PUSH4 0x35729130 EQ PUSH2 0x17A JUMPI DUP1 PUSH4 0x6DBF2FA0 EQ PUSH2 0x1A3 JUMPI PUSH2 0xB2 JUMP JUMPDEST CALLDATASIZE PUSH2 0xB2 JUMPI STOP JUMPDEST PUSH1 0x0 DUP1 REVERT JUMPDEST CALLVALUE DUP1 ISZERO PUSH2 0xC3 JUMPI PUSH1 0x0 DUP1 REVERT JUMPDEST POP PUSH2 0xCC PUSH2 0x2AE JUMP JUMPDEST PUSH1 0x40 MLOAD PUSH2 0xD9 SWAP2 SWAP1 PUSH2 0x1363 JUMP JUMPDEST PUSH1 0x40 MLOAD DUP1 SWAP2 SUB SWAP1 RETURN JUMPDEST PUSH2 0xFC PUSH1 0x4 DUP1 CALLDATASIZE SUB DUP2 ADD SWAP1 PUSH2 0xF7 SWAP2 SWAP1 PUSH2 0x1406 JUMP JUMPDEST PUSH2 0x2D2 JUMP JUMPDEST STOP JUMPDEST CALLVALUE DUP1 ISZERO PUSH2 0x10A JUMPI PUSH1 0x0 DUP1 REVERT JUMPDEST POP PUSH2 0x125 PUSH1 0x4 DUP1 CALLDATASIZE SUB DUP2 ADD SWAP1 PUSH2 0x120 SWAP2 SWAP1 PUSH2 0x14E9 JUMP JUMPDEST PUSH2 0x481 JUMP JUMPDEST PUSH1 0x40 MLOAD PUSH2 0x132 SWAP2 SWAP1 PUSH2 0x159E JUMP JUMPDEST PUSH1 0x40 MLOAD DUP1 SWAP2 SUB SWAP1 RETURN JUMPDEST CALLVALUE DUP1 ISZERO PUSH2 0x147 JUMPI PUSH1 0x0 DUP1 REVERT JUMPDEST POP PUSH2 0x162 PUSH1 0x4 DUP1 CALLDATASIZE SUB DUP2 ADD SWAP1 PUSH2 0x15D SWAP2 SWAP1 PUSH2 0x15B9 JUMP JUMPDEST PUSH2 0x69E JUMP JUMPDEST PUSH1 0x40 MLOAD PUSH2 0x171 SWAP4 SWAP3 SWAP2 SWAP1 PUSH2 0x15F5 JUMP JUMPDEST PUSH1 0x40 MLOAD DUP1 SWAP2 SUB SWAP1 RETURN JUMPDEST CALLVALUE DUP1 ISZERO PUSH2 0x186 JUMPI PUSH1 0x0 DUP1 REVERT JUMPDEST POP PUSH2 0x1A1 PUSH1 0x4 DUP1 CALLDATASIZE SUB DUP2 ADD SWAP1 PUSH2 0x19C SWAP2 SWAP1 PUSH2 0x162C JUMP JUMPDEST PUSH2 0x759 JUMP JUMPDEST STOP JUMPDEST PUSH2 0x1BD PUSH1 0x4 DUP1 CALLDATASIZE SUB DUP2 ADD SWAP1 PUSH2 0x1B8 SWAP2 SWAP1 PUSH2 0x166C JUMP JUMPDEST PUSH2 0x927 JUMP JUMPDEST PUSH1 0x40 MLOAD PUSH2 0x1CA SWAP2 SWAP1 PUSH2 0x1779 JUMP JUMPDEST PUSH1 0x40 MLOAD DUP1 SWAP2 SUB SWAP1 RETURN JUMPDEST CALLVALUE DUP1 ISZERO PUSH2 0x1DF JUMPI PUSH1 0x0 DUP1 REVERT JUMPDEST POP PUSH2 0x1E8 PUSH2 0xA2A JUMP JUMPDEST STOP JUMPDEST CALLVALUE DUP1 ISZERO PUSH2 0x1F6 JUMPI PUSH1 0x0 DUP1 REVERT JUMPDEST POP PUSH2 0x1FF PUSH2 0xA3E JUMP JUMPDEST PUSH1 0x40 MLOAD PUSH2 0x20C SWAP2 SWAP1 PUSH2 0x17BC JUMP JUMPDEST PUSH1 0x40 MLOAD DUP1 SWAP2 SUB SWAP1 RETURN JUMPDEST CALLVALUE DUP1 ISZERO PUSH2 0x221 JUMPI PUSH1 0x0 DUP1 REVERT JUMPDEST POP PUSH2 0x22A PUSH2 0xA62 JUMP JUMPDEST PUSH1 0x40 MLOAD PUSH2 0x237 SWAP2 SWAP1 PUSH2 0x17E6 JUMP JUMPDEST PUSH1 0x40 MLOAD DUP1 SWAP2 SUB SWAP1 RETURN JUMPDEST PUSH2 0x25A PUSH1 0x4 DUP1 CALLDATASIZE SUB DUP2 ADD SWAP1 PUSH2 0x255 SWAP2 SWAP1 PUSH2 0x1AD5 JUMP JUMPDEST PUSH2 0xA8B JUMP JUMPDEST STOP JUMPDEST CALLVALUE DUP1 ISZERO PUSH2 0x268 JUMPI PUSH1 0x0 DUP1 REVERT JUMPDEST POP PUSH2 0x283 PUSH1 0x4 DUP1 CALLDATASIZE SUB DUP2 ADD SWAP1 PUSH2 0x27E SWAP2 SWAP1 PUSH2 0x15B9 JUMP JUMPDEST PUSH2 0xC73 JUMP JUMPDEST STOP JUMPDEST CALLVALUE DUP1 ISZERO PUSH2 0x291 JUMPI PUSH1 0x0 DUP1 REVERT JUMPDEST POP PUSH2 0x2AC PUSH1 0x4 DUP1 CALLDATASIZE SUB DUP2 ADD SWAP1 PUSH2 0x2A7 SWAP2 SWAP1 PUSH2 0x1B74 JUMP JUMPDEST PUSH2 0xCF7 JUMP JUMPDEST STOP JUMPDEST PUSH32 0x0 DUP2 JUMP JUMPDEST PUSH2 0x2DA PUSH2 0xE3D JUMP JUMPDEST PUSH1 0x0 PUSH20 0xFFFFFFFFFFFFFFFFFFFFFFFFFFFFFFFFFFFFFFFF AND DUP3 PUSH20 0xFFFFFFFFFFFFFFFFFFFFFFFFFFFFFFFFFFFFFFFF AND EQ ISZERO PUSH2 0x34A JUMPI PUSH1 0x40 MLOAD PUSH32 0x8C379A000000000000000000000000000000000000000000000000000000000 DUP2 MSTORE PUSH1 0x4 ADD PUSH2 0x341 SWAP1 PUSH2 0x1C24 JUMP JUMPDEST PUSH1 0x40 MLOAD DUP1 SWAP2 SUB SWAP1 REVERT JUMPDEST PUSH1 0x0 DUP2 GT PUSH2 0x38D JUMPI PUSH1 0x40 MLOAD PUSH32 0x8C379A000000000000000000000000000000000000000000000000000000000 DUP2 MSTORE PUSH1 0x4 ADD PUSH2 0x384 SWAP1 PUSH2 0x1C90 JUMP JUMPDEST PUSH1 0x40 MLOAD DUP1 SWAP2 SUB SWAP1 REVERT JUMPDEST DUP1 SELFBALANCE LT ISZERO PUSH2 0x3D0 JUMPI PUSH1 0x40 MLOAD PUSH32 0x8C379A000000000000000000000000000000000000000000000000000000000 DUP2 MSTORE PUSH1 0x4 ADD PUSH2 0x3C7 SWAP1 PUSH2 0x1CFC JUMP JUMPDEST PUSH1 0x40 MLOAD DUP1 SWAP2 SUB SWAP1 REVERT JUMPDEST PUSH1 0x0 DUP3 PUSH20 0xFFFFFFFFFFFFFFFFFFFFFFFFFFFFFFFFFFFFFFFF AND DUP3 PUSH1 0x40 MLOAD PUSH2 0x3F6 SWAP1 PUSH2 0x1D4D JUMP JUMPDEST PUSH1 0x0 PUSH1 0x40 MLOAD DUP1 DUP4 SUB DUP2 DUP6 DUP8 GAS CALL SWAP3 POP POP POP RETURNDATASIZE DUP1 PUSH1 0x0 DUP2 EQ PUSH2 0x433 JUMPI PUSH1 0x40 MLOAD SWAP2 POP PUSH1 0x1F NOT PUSH1 0x3F RETURNDATASIZE ADD AND DUP3 ADD PUSH1 0x40 MSTORE RETURNDATASIZE DUP3 MSTORE RETURNDATASIZE PUSH1 0x0 PUSH1 0x20 DUP5 ADD RETURNDATACOPY PUSH2 0x438 JUMP JUMPDEST PUSH1 0x60 SWAP2 POP JUMPDEST POP POP SWAP1 POP DUP1 PUSH2 0x47C JUMPI PUSH1 0x40 MLOAD PUSH32 0x8C379A000000000000000000000000000000000000000000000000000000000 DUP2 MSTORE PUSH1 0x4 ADD PUSH2 0x473 SWAP1 PUSH2 0x1DAE JUMP JUMPDEST PUSH1 0x40 MLOAD DUP1 SWAP2 SUB SWAP1 REVERT JUMPDEST POP POP POP JUMP JUMPDEST PUSH1 0x0 CALLER PUSH20 0xFFFFFFFFFFFFFFFFFFFFFFFFFFFFFFFFFFFFFFFF AND DUP5 PUSH20 0xFFFFFFFFFFFFFFFFFFFFFFFFFFFFFFFFFFFFFFFF AND EQ PUSH2 0x4F1 JUMPI PUSH1 0x40 MLOAD PUSH32 0x8C379A000000000000000000000000000000000000000000000000000000000 DUP2 MSTORE PUSH1 0x4 ADD PUSH2 0x4E8 SWAP1 PUSH2 0x1E1A JUMP JUMPDEST PUSH1 0x40 MLOAD DUP1 SWAP2 SUB SWAP1 REVERT JUMPDEST PUSH1 0x0 DUP6 DUP8 PUSH2 0x4FF SWAP2 SWAP1 PUSH2 0x1E69 JUMP JUMPDEST SWAP1 POP PUSH1 0x0 DUP1 PUSH1 0x0 DUP1 PUSH1 0x0 DUP9 DUP9 DUP2 ADD SWAP1 PUSH2 0x518 SWAP2 SWAP1 PUSH2 0x1EBF JUMP JUMPDEST SWAP5 POP SWAP5 POP SWAP5 POP SWAP5 POP SWAP5 POP PUSH2 0x52D DUP5 DUP4 DUP4 PUSH2 0xEBB JUMP JUMPDEST PUSH1 0x0 PUSH20 0xC02AAA39B223FE8D0A0E5C4F27EAD9083C756CC2 PUSH20 0xFFFFFFFFFFFFFFFFFFFFFFFFFFFFFFFFFFFFFFFF AND PUSH4 0x70A08231 ADDRESS PUSH1 0x40 MLOAD DUP3 PUSH4 0xFFFFFFFF AND PUSH1 0xE0 SHL DUP2 MSTORE PUSH1 0x4 ADD PUSH2 0x57C SWAP2 SWAP1 PUSH2 0x17E6 JUMP JUMPDEST PUSH1 0x20 PUSH1 0x40 MLOAD DUP1 DUP4 SUB DUP2 DUP7 GAS STATICCALL ISZERO DUP1 ISZERO PUSH2 0x599 JUMPI RETURNDATASIZE PUSH1 0x0 DUP1 RETURNDATACOPY RETURNDATASIZE PUSH1 0x0 REVERT JUMPDEST POP POP POP POP PUSH1 0x40 MLOAD RETURNDATASIZE PUSH1 0x1F NOT PUSH1 0x1F DUP3 ADD AND DUP3 ADD DUP1 PUSH1 0x40 MSTORE POP DUP2 ADD SWAP1 PUSH2 0x5BD SWAP2 SWAP1 PUSH2 0x1F87 JUMP JUMPDEST SWAP1 POP DUP7 DUP5 DUP8 PUSH2 0x5CC SWAP2 SWAP1 PUSH2 0x1E69 JUMP JUMPDEST PUSH2 0x5D6 SWAP2 SWAP1 PUSH2 0x1E69 JUMP JUMPDEST DUP2 GT PUSH2 0x5E1 JUMPI PUSH1 0x0 DUP1 REVERT JUMPDEST PUSH2 0x5EA DUP5 PUSH2 0x1073 JUMP JUMPDEST DUP14 PUSH20 0xFFFFFFFFFFFFFFFFFFFFFFFFFFFFFFFFFFFFFFFF AND PUSH4 0x95EA7B3 PUSH32 0x0 DUP10 PUSH1 0x40 MLOAD DUP4 PUSH4 0xFFFFFFFF AND PUSH1 0xE0 SHL DUP2 MSTORE PUSH1 0x4 ADD PUSH2 0x645 SWAP3 SWAP2 SWAP1 PUSH2 0x1FB4 JUMP JUMPDEST PUSH1 0x20 PUSH1 0x40 MLOAD DUP1 DUP4 SUB DUP2 PUSH1 0x0 DUP8 GAS CALL ISZERO DUP1 ISZERO PUSH2 0x664 JUMPI RETURNDATASIZE PUSH1 0x0 DUP1 RETURNDATACOPY RETURNDATASIZE PUSH1 0x0 REVERT JUMPDEST POP POP POP POP PUSH1 0x40 MLOAD RETURNDATASIZE PUSH1 0x1F NOT PUSH1 0x1F DUP3 ADD AND DUP3 ADD DUP1 PUSH1 0x40 MSTORE POP DUP2 ADD SWAP1 PUSH2 0x688 SWAP2 SWAP1 PUSH2 0x2009 JUMP JUMPDEST POP PUSH1 0x1 SWAP8 POP POP POP POP POP POP POP POP SWAP7 SWAP6 POP POP POP POP POP POP JUMP JUMPDEST PUSH1 0x0 DUP1 PUSH1 0x0 DUP1 DUP5 SWAP1 POP DUP1 PUSH20 0xFFFFFFFFFFFFFFFFFFFFFFFFFFFFFFFFFFFFFFFF AND PUSH4 0x902F1AC PUSH1 0x40 MLOAD DUP2 PUSH4 0xFFFFFFFF AND PUSH1 0xE0 SHL DUP2 MSTORE PUSH1 0x4 ADD PUSH1 0x60 PUSH1 0x40 MLOAD DUP1 DUP4 SUB DUP2 DUP7 GAS STATICCALL ISZERO DUP1 ISZERO PUSH2 0x6F2 JUMPI RETURNDATASIZE PUSH1 0x0 DUP1 RETURNDATACOPY RETURNDATASIZE PUSH1 0x0 REVERT JUMPDEST POP POP POP POP PUSH1 0x40 MLOAD RETURNDATASIZE PUSH1 0x1F NOT PUSH1 0x1F DUP3 ADD AND DUP3 ADD DUP1 PUSH1 0x40 MSTORE POP DUP2 ADD SWAP1 PUSH2 0x716 SWAP2 SWAP1 PUSH2 0x20B8 JUMP JUMPDEST DUP3 PUSH14 0xFFFFFFFFFFFFFFFFFFFFFFFFFFFF AND SWAP3 POP DUP2 PUSH14 0xFFFFFFFFFFFFFFFFFFFFFFFFFFFF AND SWAP2 POP DUP1 PUSH4 0xFFFFFFFF AND SWAP1 POP DUP1 SWAP5 POP DUP2 SWAP6 POP DUP3 SWAP7 POP POP POP POP POP SWAP2 SWAP4 SWAP1 SWAP3 POP JUMP JUMPDEST PUSH1 0x0 DUP2 GT PUSH2 0x79C JUMPI PUSH1 0x40 MLOAD PUSH32 0x8C379A000000000000000000000000000000000000000000000000000000000 DUP2 MSTORE PUSH1 0x4 ADD PUSH2 0x793 SWAP1 PUSH2 0x1C90 JUMP JUMPDEST PUSH1 0x40 MLOAD DUP1 SWAP2 SUB SWAP1 REVERT JUMPDEST PUSH1 0x0 DUP3 SWAP1 POP DUP2 DUP2 PUSH20 0xFFFFFFFFFFFFFFFFFFFFFFFFFFFFFFFFFFFFFFFF AND PUSH4 0x70A08231 CALLER PUSH1 0x40 MLOAD DUP3 PUSH4 0xFFFFFFFF AND PUSH1 0xE0 SHL DUP2 MSTORE PUSH1 0x4 ADD PUSH2 0x7DB SWAP2 SWAP1 PUSH2 0x17E6 JUMP JUMPDEST PUSH1 0x20 PUSH1 0x40 MLOAD DUP1 DUP4 SUB DUP2 DUP7 GAS STATICCALL ISZERO DUP1 ISZERO PUSH2 0x7F8 JUMPI RETURNDATASIZE PUSH1 0x0 DUP1 RETURNDATACOPY RETURNDATASIZE PUSH1 0x0 REVERT JUMPDEST POP POP POP POP PUSH1 0x40 MLOAD RETURNDATASIZE PUSH1 0x1F NOT PUSH1 0x1F DUP3 ADD AND DUP3 ADD DUP1 PUSH1 0x40 MSTORE POP DUP2 ADD SWAP1 PUSH2 0x81C SWAP2 SWAP1 PUSH2 0x1F87 JUMP JUMPDEST LT ISZERO PUSH2 0x85D JUMPI PUSH1 0x40 MLOAD PUSH32 0x8C379A000000000000000000000000000000000000000000000000000000000 DUP2 MSTORE PUSH1 0x4 ADD PUSH2 0x854 SWAP1 PUSH2 0x2157 JUMP JUMPDEST PUSH1 0x40 MLOAD DUP1 SWAP2 SUB SWAP1 REVERT JUMPDEST PUSH1 0x0 DUP2 PUSH20 0xFFFFFFFFFFFFFFFFFFFFFFFFFFFFFFFFFFFFFFFF AND PUSH4 0x23B872DD CALLER ADDRESS DUP7 PUSH1 0x40 MLOAD DUP5 PUSH4 0xFFFFFFFF AND PUSH1 0xE0 SHL DUP2 MSTORE PUSH1 0x4 ADD PUSH2 0x89C SWAP4 SWAP3 SWAP2 SWAP1 PUSH2 0x2177 JUMP JUMPDEST PUSH1 0x20 PUSH1 0x40 MLOAD DUP1 DUP4 SUB DUP2 PUSH1 0x0 DUP8 GAS CALL ISZERO DUP1 ISZERO PUSH2 0x8BB JUMPI RETURNDATASIZE PUSH1 0x0 DUP1 RETURNDATACOPY RETURNDATASIZE PUSH1 0x0 REVERT JUMPDEST POP POP POP POP PUSH1 0x40 MLOAD RETURNDATASIZE PUSH1 0x1F NOT PUSH1 0x1F DUP3 ADD AND DUP3 ADD DUP1 PUSH1 0x40 MSTORE POP DUP2 ADD SWAP1 PUSH2 0x8DF SWAP2 SWAP1 PUSH2 0x2009 JUMP JUMPDEST SWAP1 POP DUP1 PUSH2 0x921 JUMPI PUSH1 0x40 MLOAD PUSH32 0x8C379A000000000000000000000000000000000000000000000000000000000 DUP2 MSTORE PUSH1 0x4 ADD PUSH2 0x918 SWAP1 PUSH2 0x21FA JUMP JUMPDEST PUSH1 0x40 MLOAD DUP1 SWAP2 SUB SWAP1 REVERT JUMPDEST POP POP POP POP JUMP JUMPDEST PUSH1 0x60 PUSH2 0x931 PUSH2 0xE3D JUMP JUMPDEST PUSH1 0x0 PUSH20 0xFFFFFFFFFFFFFFFFFFFFFFFFFFFFFFFFFFFFFFFF AND DUP6 PUSH20 0xFFFFFFFFFFFFFFFFFFFFFFFFFFFFFFFFFFFFFFFF AND EQ ISZERO PUSH2 0x96B JUMPI PUSH1 0x0 DUP1 REVERT JUMPDEST PUSH1 0x0 DUP1 DUP7 PUSH20 0xFFFFFFFFFFFFFFFFFFFFFFFFFFFFFFFFFFFFFFFF AND DUP7 DUP7 DUP7 PUSH1 0x40 MLOAD PUSH2 0x996 SWAP3 SWAP2 SWAP1 PUSH2 0x223F JUMP JUMPDEST PUSH1 0x0 PUSH1 0x40 MLOAD DUP1 DUP4 SUB DUP2 DUP6 DUP8 GAS CALL SWAP3 POP POP POP RETURNDATASIZE DUP1 PUSH1 0x0 DUP2 EQ PUSH2 0x9D3 JUMPI PUSH1 0x40 MLOAD SWAP2 POP PUSH1 0x1F NOT PUSH1 0x3F RETURNDATASIZE ADD AND DUP3 ADD PUSH1 0x40 MSTORE RETURNDATASIZE DUP3 MSTORE RETURNDATASIZE PUSH1 0x0 PUSH1 0x20 DUP5 ADD RETURNDATACOPY PUSH2 0x9D8 JUMP JUMPDEST PUSH1 0x60 SWAP2 POP JUMPDEST POP SWAP2 POP SWAP2 POP DUP2 PUSH2 0xA1D JUMPI PUSH1 0x40 MLOAD PUSH32 0x8C379A000000000000000000000000000000000000000000000000000000000 DUP2 MSTORE PUSH1 0x4 ADD PUSH2 0xA14 SWAP1 PUSH2 0x22A4 JUMP JUMPDEST PUSH1 0x40 MLOAD DUP1 SWAP2 SUB SWAP1 REVERT JUMPDEST DUP1 SWAP3 POP POP POP SWAP5 SWAP4 POP POP POP POP JUMP JUMPDEST PUSH2 0xA32 PUSH2 0xE3D JUMP JUMPDEST PUSH2 0xA3C PUSH1 0x0 PUSH2 0x116B JUMP JUMPDEST JUMP JUMPDEST PUSH32 0x0 DUP2 JUMP JUMPDEST PUSH1 0x0 DUP1 PUSH1 0x0 SWAP1 SLOAD SWAP1 PUSH2 0x100 EXP SWAP1 DIV PUSH20 0xFFFFFFFFFFFFFFFFFFFFFFFFFFFFFFFFFFFFFFFF AND SWAP1 POP SWAP1 JUMP JUMPDEST PUSH2 0xA93 PUSH2 0xE3D JUMP JUMPDEST DUP1 MLOAD DUP3 MLOAD EQ PUSH2 0xAA1 JUMPI PUSH1 0x0 DUP1 REVERT JUMPDEST PUSH1 0x0 PUSH20 0xC02AAA39B223FE8D0A0E5C4F27EAD9083C756CC2 PUSH20 0xFFFFFFFFFFFFFFFFFFFFFFFFFFFFFFFFFFFFFFFF AND PUSH4 0x70A08231 ADDRESS PUSH1 0x40 MLOAD DUP3 PUSH4 0xFFFFFFFF AND PUSH1 0xE0 SHL DUP2 MSTORE PUSH1 0x4 ADD PUSH2 0xAF0 SWAP2 SWAP1 PUSH2 0x17E6 JUMP JUMPDEST PUSH1 0x20 PUSH1 0x40 MLOAD DUP1 DUP4 SUB DUP2 DUP7 GAS STATICCALL ISZERO DUP1 ISZERO PUSH2 0xB0D JUMPI RETURNDATASIZE PUSH1 0x0 DUP1 RETURNDATACOPY RETURNDATASIZE PUSH1 0x0 REVERT JUMPDEST POP POP POP POP PUSH1 0x40 MLOAD RETURNDATASIZE PUSH1 0x1F NOT PUSH1 0x1F DUP3 ADD AND DUP3 ADD DUP1 PUSH1 0x40 MSTORE POP DUP2 ADD SWAP1 PUSH2 0xB31 SWAP2 SWAP1 PUSH2 0x1F87 JUMP JUMPDEST SWAP1 POP PUSH1 0x0 DUP2 DUP7 GT PUSH2 0xB43 JUMPI PUSH1 0x0 PUSH2 0xB50 JUMP JUMPDEST DUP2 DUP7 PUSH2 0xB4F SWAP2 SWAP1 PUSH2 0x22C4 JUMP JUMPDEST JUMPDEST SWAP1 POP PUSH1 0x0 DUP2 GT ISZERO PUSH2 0xBAC JUMPI PUSH1 0x0 DUP3 DUP8 DUP8 DUP8 DUP8 PUSH1 0x40 MLOAD PUSH1 0x20 ADD PUSH2 0xB76 SWAP6 SWAP5 SWAP4 SWAP3 SWAP2 SWAP1 PUSH2 0x24C2 JUMP JUMPDEST PUSH1 0x40 MLOAD PUSH1 0x20 DUP2 DUP4 SUB SUB DUP2 MSTORE SWAP1 PUSH1 0x40 MSTORE SWAP1 POP PUSH2 0xBA6 PUSH20 0xC02AAA39B223FE8D0A0E5C4F27EAD9083C756CC2 DUP4 DUP4 PUSH2 0x122F JUMP JUMPDEST POP PUSH2 0xC6B JUMP JUMPDEST PUSH2 0xBB7 DUP7 DUP6 DUP6 PUSH2 0xEBB JUMP JUMPDEST PUSH1 0x0 PUSH20 0xC02AAA39B223FE8D0A0E5C4F27EAD9083C756CC2 PUSH20 0xFFFFFFFFFFFFFFFFFFFFFFFFFFFFFFFFFFFFFFFF AND PUSH4 0x70A08231 ADDRESS PUSH1 0x40 MLOAD DUP3 PUSH4 0xFFFFFFFF AND PUSH1 0xE0 SHL DUP2 MSTORE PUSH1 0x4 ADD PUSH2 0xC06 SWAP2 SWAP1 PUSH2 0x17E6 JUMP JUMPDEST PUSH1 0x20 PUSH1 0x40 MLOAD DUP1 DUP4 SUB DUP2 DUP7 GAS STATICCALL ISZERO DUP1 ISZERO PUSH2 0xC23 JUMPI RETURNDATASIZE PUSH1 0x0 DUP1 RETURNDATACOPY RETURNDATASIZE PUSH1 0x0 REVERT JUMPDEST POP POP POP POP PUSH1 0x40 MLOAD RETURNDATASIZE PUSH1 0x1F NOT PUSH1 0x1F DUP3 ADD AND DUP3 ADD DUP1 PUSH1 0x40 MSTORE POP DUP2 ADD SWAP1 PUSH2 0xC47 SWAP2 SWAP1 PUSH2 0x1F87 JUMP JUMPDEST SWAP1 POP DUP6 DUP4 PUSH2 0xC55 SWAP2 SWAP1 PUSH2 0x1E69 JUMP JUMPDEST DUP2 GT PUSH2 0xC60 JUMPI PUSH1 0x0 DUP1 REVERT JUMPDEST PUSH2 0xC69 DUP7 PUSH2 0x1073 JUMP JUMPDEST POP JUMPDEST POP POP POP POP POP POP JUMP JUMPDEST PUSH2 0xC7B PUSH2 0xE3D JUMP JUMPDEST PUSH1 0x0 PUSH20 0xFFFFFFFFFFFFFFFFFFFFFFFFFFFFFFFFFFFFFFFF AND DUP2 PUSH20 0xFFFFFFFFFFFFFFFFFFFFFFFFFFFFFFFFFFFFFFFF AND EQ ISZERO PUSH2 0xCEB JUMPI PUSH1 0x40 MLOAD PUSH32 0x8C379A000000000000000000000000000000000000000000000000000000000 DUP2 MSTORE PUSH1 0x4 ADD PUSH2 0xCE2 SWAP1 PUSH2 0x2595 JUMP JUMPDEST PUSH1 0x40 MLOAD DUP1 SWAP2 SUB SWAP1 REVERT JUMPDEST PUSH2 0xCF4 DUP2 PUSH2 0x116B JUMP JUMPDEST POP JUMP JUMPDEST PUSH2 0xCFF PUSH2 0xE3D JUMP JUMPDEST PUSH1 0x0 PUSH20 0xFFFFFFFFFFFFFFFFFFFFFFFFFFFFFFFFFFFFFFFF AND DUP3 PUSH20 0xFFFFFFFFFFFFFFFFFFFFFFFFFFFFFFFFFFFFFFFF AND EQ ISZERO PUSH2 0xD6F JUMPI PUSH1 0x40 MLOAD PUSH32 0x8C379A000000000000000000000000000000000000000000000000000000000 DUP2 MSTORE PUSH1 0x4 ADD PUSH2 0xD66 SWAP1 PUSH2 0x1C24 JUMP JUMPDEST PUSH1 0x40 MLOAD DUP1 SWAP2 SUB SWAP1 REVERT JUMPDEST PUSH1 0x0 DUP4 SWAP1 POP PUSH1 0x0 DUP2 PUSH20 0xFFFFFFFFFFFFFFFFFFFFFFFFFFFFFFFFFFFFFFFF AND PUSH4 0xA9059CBB DUP6 DUP6 PUSH1 0x40 MLOAD DUP4 PUSH4 0xFFFFFFFF AND PUSH1 0xE0 SHL DUP2 MSTORE PUSH1 0x4 ADD PUSH2 0xDB1 SWAP3 SWAP2 SWAP1 PUSH2 0x1FB4 JUMP JUMPDEST PUSH1 0x20 PUSH1 0x40 MLOAD DUP1 DUP4 SUB DUP2 PUSH1 0x0 DUP8 GAS CALL ISZERO DUP1 ISZERO PUSH2 0xDD0 JUMPI RETURNDATASIZE PUSH1 0x0 DUP1 RETURNDATACOPY RETURNDATASIZE PUSH1 0x0 REVERT JUMPDEST POP POP POP POP PUSH1 0x40 MLOAD RETURNDATASIZE PUSH1 0x1F NOT PUSH1 0x1F DUP3 ADD AND DUP3 ADD DUP1 PUSH1 0x40 MSTORE POP DUP2 ADD SWAP1 PUSH2 0xDF4 SWAP2 SWAP1 PUSH2 0x2009 JUMP JUMPDEST SWAP1 POP DUP1 PUSH2 0xE36 JUMPI PUSH1 0x40 MLOAD PUSH32 0x8C379A000000000000000000000000000000000000000000000000000000000 DUP2 MSTORE PUSH1 0x4 ADD PUSH2 0xE2D SWAP1 PUSH2 0x21FA JUMP JUMPDEST PUSH1 0x40 MLOAD DUP1 SWAP2 SUB SWAP1 REVERT JUMPDEST POP POP POP POP POP JUMP JUMPDEST PUSH2 0xE45 PUSH2 0x12DC JUMP JUMPDEST PUSH20 0xFFFFFFFFFFFFFFFFFFFFFFFFFFFFFFFFFFFFFFFF AND PUSH2 0xE63 PUSH2 0xA62 JUMP JUMPDEST PUSH20 0xFFFFFFFFFFFFFFFFFFFFFFFFFFFFFFFFFFFFFFFF AND EQ PUSH2 0xEB9 JUMPI PUSH1 0x40 MLOAD PUSH32 0x8C379A000000000000000000000000000000000000000000000000000000000 DUP2 MSTORE PUSH1 0x4 ADD PUSH2 0xEB0 SWAP1 PUSH2 0x2601 JUMP JUMPDEST PUSH1 0x40 MLOAD DUP1 SWAP2 SUB SWAP1 REVERT JUMPDEST JUMP JUMPDEST PUSH20 0xC02AAA39B223FE8D0A0E5C4F27EAD9083C756CC2 PUSH20 0xFFFFFFFFFFFFFFFFFFFFFFFFFFFFFFFFFFFFFFFF AND PUSH4 0xA9059CBB DUP4 PUSH1 0x0 DUP2 MLOAD DUP2 LT PUSH2 0xEFF JUMPI PUSH2 0xEFE PUSH2 0x2621 JUMP JUMPDEST JUMPDEST PUSH1 0x20 MUL PUSH1 0x20 ADD ADD MLOAD DUP6 PUSH1 0x40 MLOAD DUP4 PUSH4 0xFFFFFFFF AND PUSH1 0xE0 SHL DUP2 MSTORE PUSH1 0x4 ADD PUSH2 0xF25 SWAP3 SWAP2 SWAP1 PUSH2 0x1FB4 JUMP JUMPDEST PUSH1 0x20 PUSH1 0x40 MLOAD DUP1 DUP4 SUB DUP2 PUSH1 0x0 DUP8 GAS CALL ISZERO DUP1 ISZERO PUSH2 0xF44 JUMPI RETURNDATASIZE PUSH1 0x0 DUP1 RETURNDATACOPY RETURNDATASIZE PUSH1 0x0 REVERT JUMPDEST POP POP POP POP PUSH1 0x40 MLOAD RETURNDATASIZE PUSH1 0x1F NOT PUSH1 0x1F DUP3 ADD AND DUP3 ADD DUP1 PUSH1 0x40 MSTORE POP DUP2 ADD SWAP1 PUSH2 0xF68 SWAP2 SWAP1 PUSH2 0x2009 JUMP JUMPDEST POP PUSH1 0x0 JUMPDEST DUP3 MLOAD DUP2 LT ISZERO PUSH2 0x106D JUMPI PUSH1 0x0 DUP1 DUP5 DUP4 DUP2 MLOAD DUP2 LT PUSH2 0xF8B JUMPI PUSH2 0xF8A PUSH2 0x2621 JUMP JUMPDEST JUMPDEST PUSH1 0x20 MUL PUSH1 0x20 ADD ADD MLOAD PUSH20 0xFFFFFFFFFFFFFFFFFFFFFFFFFFFFFFFFFFFFFFFF AND DUP5 DUP5 DUP2 MLOAD DUP2 LT PUSH2 0xFBC JUMPI PUSH2 0xFBB PUSH2 0x2621 JUMP JUMPDEST JUMPDEST PUSH1 0x20 MUL PUSH1 0x20 ADD ADD MLOAD PUSH1 0x40 MLOAD PUSH2 0xFD1 SWAP2 SWAP1 PUSH2 0x2681 JUMP JUMPDEST PUSH1 0x0 PUSH1 0x40 MLOAD DUP1 DUP4 SUB DUP2 PUSH1 0x0 DUP7 GAS CALL SWAP2 POP POP RETURNDATASIZE DUP1 PUSH1 0x0 DUP2 EQ PUSH2 0x100E JUMPI PUSH1 0x40 MLOAD SWAP2 POP PUSH1 0x1F NOT PUSH1 0x3F RETURNDATASIZE ADD AND DUP3 ADD PUSH1 0x40 MSTORE RETURNDATASIZE DUP3 MSTORE RETURNDATASIZE PUSH1 0x0 PUSH1 0x20 DUP5 ADD RETURNDATACOPY PUSH2 0x1013 JUMP JUMPDEST PUSH1 0x60 SWAP2 POP JUMPDEST POP SWAP2 POP SWAP2 POP DUP2 PUSH2 0x1058 JUMPI PUSH1 0x40 MLOAD PUSH32 0x8C379A000000000000000000000000000000000000000000000000000000000 DUP2 MSTORE PUSH1 0x4 ADD PUSH2 0x104F SWAP1 PUSH2 0x26E4 JUMP JUMPDEST PUSH1 0x40 MLOAD DUP1 SWAP2 SUB SWAP1 REVERT JUMPDEST POP POP DUP1 DUP1 PUSH2 0x1065 SWAP1 PUSH2 0x2704 JUMP JUMPDEST SWAP2 POP POP PUSH2 0xF6C JUMP JUMPDEST POP POP POP POP JUMP JUMPDEST PUSH1 0x0 DUP2 EQ ISZERO PUSH2 0x1081 JUMPI PUSH2 0x1168 JUMP JUMPDEST PUSH1 0x0 SELFBALANCE SWAP1 POP DUP2 DUP2 LT ISZERO PUSH2 0x111F JUMPI PUSH1 0x0 DUP2 DUP4 PUSH2 0x109C SWAP2 SWAP1 PUSH2 0x22C4 JUMP JUMPDEST SWAP1 POP PUSH20 0xC02AAA39B223FE8D0A0E5C4F27EAD9083C756CC2 PUSH20 0xFFFFFFFFFFFFFFFFFFFFFFFFFFFFFFFFFFFFFFFF AND PUSH4 0x2E1A7D4D DUP3 PUSH1 0x40 MLOAD DUP3 PUSH4 0xFFFFFFFF AND PUSH1 0xE0 SHL DUP2 MSTORE PUSH1 0x4 ADD PUSH2 0x10EB SWAP2 SWAP1 PUSH2 0x274D JUMP JUMPDEST PUSH1 0x0 PUSH1 0x40 MLOAD DUP1 DUP4 SUB DUP2 PUSH1 0x0 DUP8 DUP1 EXTCODESIZE ISZERO DUP1 ISZERO PUSH2 0x1105 JUMPI PUSH1 0x0 DUP1 REVERT JUMPDEST POP GAS CALL ISZERO DUP1 ISZERO PUSH2 0x1119 JUMPI RETURNDATASIZE PUSH1 0x0 DUP1 RETURNDATACOPY RETURNDATASIZE PUSH1 0x0 REVERT JUMPDEST POP POP POP POP POP JUMPDEST COINBASE PUSH20 0xFFFFFFFFFFFFFFFFFFFFFFFFFFFFFFFFFFFFFFFF AND PUSH2 0x8FC DUP4 SWAP1 DUP2 ISZERO MUL SWAP1 PUSH1 0x40 MLOAD PUSH1 0x0 PUSH1 0x40 MLOAD DUP1 DUP4 SUB DUP2 DUP6 DUP9 DUP9 CALL SWAP4 POP POP POP POP ISZERO DUP1 ISZERO PUSH2 0x1165 JUMPI RETURNDATASIZE PUSH1 0x0 DUP1 RETURNDATACOPY RETURNDATASIZE PUSH1 0x0 REVERT JUMPDEST POP POP JUMPDEST POP JUMP JUMPDEST PUSH1 0x0 DUP1 PUSH1 0x0 SWAP1 SLOAD SWAP1 PUSH2 0x100 EXP SWAP1 DIV PUSH20 0xFFFFFFFFFFFFFFFFFFFFFFFFFFFFFFFFFFFFFFFF AND SWAP1 POP DUP2 PUSH1 0x0 DUP1 PUSH2 0x100 EXP DUP2 SLOAD DUP2 PUSH20 0xFFFFFFFFFFFFFFFFFFFFFFFFFFFFFFFFFFFFFFFF MUL NOT AND SWAP1 DUP4 PUSH20 0xFFFFFFFFFFFFFFFFFFFFFFFFFFFFFFFFFFFFFFFF AND MUL OR SWAP1 SSTORE POP DUP2 PUSH20 0xFFFFFFFFFFFFFFFFFFFFFFFFFFFFFFFFFFFFFFFF AND DUP2 PUSH20 0xFFFFFFFFFFFFFFFFFFFFFFFFFFFFFFFFFFFFFFFF AND PUSH32 0x8BE0079C531659141344CD1FD0A4F28419497F9722A3DAAFE3B4186F6B6457E0 PUSH1 0x40 MLOAD PUSH1 0x40 MLOAD DUP1 SWAP2 SUB SWAP1 LOG3 POP POP JUMP JUMPDEST PUSH1 0x0 ADDRESS SWAP1 POP PUSH1 0x0 DUP5 SWAP1 POP PUSH1 0x0 DUP5 SWAP1 POP PUSH1 0x0 PUSH32 0x0 PUSH20 0xFFFFFFFFFFFFFFFFFFFFFFFFFFFFFFFFFFFFFFFF AND PUSH4 0x42B0B77C DUP6 DUP6 DUP6 DUP10 DUP7 PUSH1 0x40 MLOAD DUP7 PUSH4 0xFFFFFFFF AND PUSH1 0xE0 SHL DUP2 MSTORE PUSH1 0x4 ADD PUSH2 0x12A1 SWAP6 SWAP5 SWAP4 SWAP3 SWAP2 SWAP1 PUSH2 0x2785 JUMP JUMPDEST PUSH1 0x0 PUSH1 0x40 MLOAD DUP1 DUP4 SUB DUP2 PUSH1 0x0 DUP8 DUP1 EXTCODESIZE ISZERO DUP1 ISZERO PUSH2 0x12BB JUMPI PUSH1 0x0 DUP1 REVERT JUMPDEST POP GAS CALL ISZERO DUP1 ISZERO PUSH2 0x12CF JUMPI RETURNDATASIZE PUSH1 0x0 DUP1 RETURNDATACOPY RETURNDATASIZE PUSH1 0x0 REVERT JUMPDEST POP POP POP POP POP POP POP POP POP POP POP JUMP JUMPDEST PUSH1 0x0 CALLER SWAP1 POP SWAP1 JUMP JUMPDEST PUSH1 0x0 PUSH20 0xFFFFFFFFFFFFFFFFFFFFFFFFFFFFFFFFFFFFFFFF DUP3 AND SWAP1 POP SWAP2 SWAP1 POP JUMP JUMPDEST PUSH1 0x0 DUP2 SWAP1 POP SWAP2 SWAP1 POP JUMP JUMPDEST PUSH1 0x0 PUSH2 0x1329 PUSH2 0x1324 PUSH2 0x131F DUP5 PUSH2 0x12E4 JUMP JUMPDEST PUSH2 0x1304 JUMP JUMPDEST PUSH2 0x12E4 JUMP JUMPDEST SWAP1 POP SWAP2 SWAP1 POP JUMP JUMPDEST PUSH1 0x0 PUSH2 0x133B DUP3 PUSH2 0x130E JUMP JUMPDEST SWAP1 POP SWAP2 SWAP1 POP JUMP JUMPDEST PUSH1 0x0 PUSH2 0x134D DUP3 PUSH2 0x1330 JUMP JUMPDEST SWAP1 POP SWAP2 SWAP1 POP JUMP JUMPDEST PUSH2 0x135D DUP2 PUSH2 0x1342 JUMP JUMPDEST DUP3 MSTORE POP POP JUMP JUMPDEST PUSH1 0x0 PUSH1 0x20 DUP3 ADD SWAP1 POP PUSH2 0x1378 PUSH1 0x0 DUP4 ADD DUP5 PUSH2 0x1354 JUMP JUMPDEST SWAP3 SWAP2 POP POP JUMP JUMPDEST PUSH1 0x0 PUSH1 0x40 MLOAD SWAP1 POP SWAP1 JUMP JUMPDEST PUSH1 0x0 DUP1 REVERT JUMPDEST PUSH1 0x0 DUP1 REVERT JUMPDEST PUSH1 0x0 PUSH2 0x139D DUP3 PUSH2 0x12E4 JUMP JUMPDEST SWAP1 POP SWAP2 SWAP1 POP JUMP JUMPDEST PUSH2 0x13AD DUP2 PUSH2 0x1392 JUMP JUMPDEST DUP2 EQ PUSH2 0x13B8 JUMPI PUSH1 0x0 DUP1 REVERT JUMPDEST POP JUMP JUMPDEST PUSH1 0x0 DUP2 CALLDATALOAD SWAP1 POP PUSH2 0x13CA DUP2 PUSH2 0x13A4 JUMP JUMPDEST SWAP3 SWAP2 POP POP JUMP JUMPDEST PUSH1 0x0 DUP2 SWAP1 POP SWAP2 SWAP1 POP JUMP JUMPDEST PUSH2 0x13E3 DUP2 PUSH2 0x13D0 JUMP JUMPDEST DUP2 EQ PUSH2 0x13EE JUMPI PUSH1 0x0 DUP1 REVERT JUMPDEST POP JUMP JUMPDEST PUSH1 0x0 DUP2 CALLDATALOAD SWAP1 POP PUSH2 0x1400 DUP2 PUSH2 0x13DA JUMP JUMPDEST SWAP3 SWAP2 POP POP JUMP JUMPDEST PUSH1 0x0 DUP1 PUSH1 0x40 DUP4 DUP6 SUB SLT ISZERO PUSH2 0x141D JUMPI PUSH2 0x141C PUSH2 0x1388 JUMP JUMPDEST JUMPDEST PUSH1 0x0 PUSH2 0x142B DUP6 DUP3 DUP7 ADD PUSH2 0x13BB JUMP JUMPDEST SWAP3 POP POP PUSH1 0x20 PUSH2 0x143C DUP6 DUP3 DUP7 ADD PUSH2 0x13F1 JUMP JUMPDEST SWAP2 POP POP SWAP3 POP SWAP3 SWAP1 POP JUMP JUMPDEST PUSH1 0x0 PUSH2 0x1451 DUP3 PUSH2 0x12E4 JUMP JUMPDEST SWAP1 POP SWAP2 SWAP1 POP JUMP JUMPDEST PUSH2 0x1461 DUP2 PUSH2 0x1446 JUMP JUMPDEST DUP2 EQ PUSH2 0x146C JUMPI PUSH1 0x0 DUP1 REVERT JUMPDEST POP JUMP JUMPDEST PUSH1 0x0 DUP2 CALLDATALOAD SWAP1 POP PUSH2 0x147E DUP2 PUSH2 0x1458 JUMP JUMPDEST SWAP3 SWAP2 POP POP JUMP JUMPDEST PUSH1 0x0 DUP1 REVERT JUMPDEST PUSH1 0x0 DUP1 REVERT JUMPDEST PUSH1 0x0 DUP1 REVERT JUMPDEST PUSH1 0x0 DUP1 DUP4 PUSH1 0x1F DUP5 ADD SLT PUSH2 0x14A9 JUMPI PUSH2 0x14A8 PUSH2 0x1484 JUMP JUMPDEST JUMPDEST DUP3 CALLDATALOAD SWAP1 POP PUSH8 0xFFFFFFFFFFFFFFFF DUP2 GT ISZERO PUSH2 0x14C6 JUMPI PUSH2 0x14C5 PUSH2 0x1489 JUMP JUMPDEST JUMPDEST PUSH1 0x20 DUP4 ADD SWAP2 POP DUP4 PUSH1 0x1 DUP3 MUL DUP4 ADD GT ISZERO PUSH2 0x14E2 JUMPI PUSH2 0x14E1 PUSH2 0x148E JUMP JUMPDEST JUMPDEST SWAP3 POP SWAP3 SWAP1 POP JUMP JUMPDEST PUSH1 0x0 DUP1 PUSH1 0x0 DUP1 PUSH1 0x0 DUP1 PUSH1 0xA0 DUP8 DUP10 SUB SLT ISZERO PUSH2 0x1506 JUMPI PUSH2 0x1505 PUSH2 0x1388 JUMP JUMPDEST JUMPDEST PUSH1 0x0 PUSH2 0x1514 DUP10 DUP3 DUP11 ADD PUSH2 0x146F JUMP JUMPDEST SWAP7 POP POP PUSH1 0x20 PUSH2 0x1525 DUP10 DUP3 DUP11 ADD PUSH2 0x13F1 JUMP JUMPDEST SWAP6 POP POP PUSH1 0x40 PUSH2 0x1536 DUP10 DUP3 DUP11 ADD PUSH2 0x13F1 JUMP JUMPDEST SWAP5 POP POP PUSH1 0x60 PUSH2 0x1547 DUP10 DUP3 DUP11 ADD PUSH2 0x146F JUMP JUMPDEST SWAP4 POP POP PUSH1 0x80 DUP8 ADD CALLDATALOAD PUSH8 0xFFFFFFFFFFFFFFFF DUP2 GT ISZERO PUSH2 0x1568 JUMPI PUSH2 0x1567 PUSH2 0x138D JUMP JUMPDEST JUMPDEST PUSH2 0x1574 DUP10 DUP3 DUP11 ADD PUSH2 0x1493 JUMP JUMPDEST SWAP3 POP SWAP3 POP POP SWAP3 SWAP6 POP SWAP3 SWAP6 POP SWAP3 SWAP6 JUMP JUMPDEST PUSH1 0x0 DUP2 ISZERO ISZERO SWAP1 POP SWAP2 SWAP1 POP JUMP JUMPDEST PUSH2 0x1598 DUP2 PUSH2 0x1583 JUMP JUMPDEST DUP3 MSTORE POP POP JUMP JUMPDEST PUSH1 0x0 PUSH1 0x20 DUP3 ADD SWAP1 POP PUSH2 0x15B3 PUSH1 0x0 DUP4 ADD DUP5 PUSH2 0x158F JUMP JUMPDEST SWAP3 SWAP2 POP POP JUMP JUMPDEST PUSH1 0x0 PUSH1 0x20 DUP3 DUP5 SUB SLT ISZERO PUSH2 0x15CF JUMPI PUSH2 0x15CE PUSH2 0x1388 JUMP JUMPDEST JUMPDEST PUSH1 0x0 PUSH2 0x15DD DUP5 DUP3 DUP6 ADD PUSH2 0x146F JUMP JUMPDEST SWAP2 POP POP SWAP3 SWAP2 POP POP JUMP JUMPDEST PUSH2 0x15EF DUP2 PUSH2 0x13D0 JUMP JUMPDEST DUP3 MSTORE POP POP JUMP JUMPDEST PUSH1 0x0 PUSH1 0x60 DUP3 ADD SWAP1 POP PUSH2 0x160A PUSH1 0x0 DUP4 ADD DUP7 PUSH2 0x15E6 JUMP JUMPDEST PUSH2 0x1617 PUSH1 0x20 DUP4 ADD DUP6 PUSH2 0x15E6 JUMP JUMPDEST PUSH2 0x1624 PUSH1 0x40 DUP4 ADD DUP5 PUSH2 0x15E6 JUMP JUMPDEST SWAP5 SWAP4 POP POP POP POP JUMP JUMPDEST PUSH1 0x0 DUP1 PUSH1 0x40 DUP4 DUP6 SUB SLT ISZERO PUSH2 0x1643 JUMPI PUSH2 0x1642 PUSH2 0x1388 JUMP JUMPDEST JUMPDEST PUSH1 0x0 PUSH2 0x1651 DUP6 DUP3 DUP7 ADD PUSH2 0x146F JUMP JUMPDEST SWAP3 POP POP PUSH1 0x20 PUSH2 0x1662 DUP6 DUP3 DUP7 ADD PUSH2 0x13F1 JUMP JUMPDEST SWAP2 POP POP SWAP3 POP SWAP3 SWAP1 POP JUMP JUMPDEST PUSH1 0x0 DUP1 PUSH1 0x0 DUP1 PUSH1 0x60 DUP6 DUP8 SUB SLT ISZERO PUSH2 0x1686 JUMPI PUSH2 0x1685 PUSH2 0x1388 JUMP JUMPDEST JUMPDEST PUSH1 0x0 PUSH2 0x1694 DUP8 DUP3 DUP9 ADD PUSH2 0x13BB JUMP JUMPDEST SWAP5 POP POP PUSH1 0x20 PUSH2 0x16A5 DUP8 DUP3 DUP9 ADD PUSH2 0x13F1 JUMP JUMPDEST SWAP4 POP POP PUSH1 0x40 DUP6 ADD CALLDATALOAD PUSH8 0xFFFFFFFFFFFFFFFF DUP2 GT ISZERO PUSH2 0x16C6 JUMPI PUSH2 0x16C5 PUSH2 0x138D JUMP JUMPDEST JUMPDEST PUSH2 0x16D2 DUP8 DUP3 DUP9 ADD PUSH2 0x1493 JUMP JUMPDEST SWAP3 POP SWAP3 POP POP SWAP3 SWAP6 SWAP2 SWAP5 POP SWAP3 POP JUMP JUMPDEST PUSH1 0x0 DUP2 MLOAD SWAP1 POP SWAP2 SWAP1 POP JUMP JUMPDEST PUSH1 0x0 DUP3 DUP3 MSTORE PUSH1 0x20 DUP3 ADD SWAP1 POP SWAP3 SWAP2 POP POP JUMP JUMPDEST PUSH1 0x0 JUMPDEST DUP4 DUP2 LT ISZERO PUSH2 0x171A JUMPI DUP1 DUP3 ADD MLOAD DUP2 DUP5 ADD MSTORE PUSH1 0x20 DUP2 ADD SWAP1 POP PUSH2 0x16FF JUMP JUMPDEST DUP4 DUP2 GT ISZERO PUSH2 0x1729 JUMPI PUSH1 0x0 DUP5 DUP5 ADD MSTORE JUMPDEST POP POP POP POP JUMP JUMPDEST PUSH1 0x0 PUSH1 0x1F NOT PUSH1 0x1F DUP4 ADD AND SWAP1 POP SWAP2 SWAP1 POP JUMP JUMPDEST PUSH1 0x0 PUSH2 0x174B DUP3 PUSH2 0x16E0 JUMP JUMPDEST PUSH2 0x1755 DUP2 DUP6 PUSH2 0x16EB JUMP JUMPDEST SWAP4 POP PUSH2 0x1765 DUP2 DUP6 PUSH1 0x20 DUP7 ADD PUSH2 0x16FC JUMP JUMPDEST PUSH2 0x176E DUP2 PUSH2 0x172F JUMP JUMPDEST DUP5 ADD SWAP2 POP POP SWAP3 SWAP2 POP POP JUMP JUMPDEST PUSH1 0x0 PUSH1 0x20 DUP3 ADD SWAP1 POP DUP2 DUP2 SUB PUSH1 0x0 DUP4 ADD MSTORE PUSH2 0x1793 DUP2 DUP5 PUSH2 0x1740 JUMP JUMPDEST SWAP1 POP SWAP3 SWAP2 POP POP JUMP JUMPDEST PUSH1 0x0 PUSH2 0x17A6 DUP3 PUSH2 0x1330 JUMP JUMPDEST SWAP1 POP SWAP2 SWAP1 POP JUMP JUMPDEST PUSH2 0x17B6 DUP2 PUSH2 0x179B JUMP JUMPDEST DUP3 MSTORE POP POP JUMP JUMPDEST PUSH1 0x0 PUSH1 0x20 DUP3 ADD SWAP1 POP PUSH2 0x17D1 PUSH1 0x0 DUP4 ADD DUP5 PUSH2 0x17AD JUMP JUMPDEST SWAP3 SWAP2 POP POP JUMP JUMPDEST PUSH2 0x17E0 DUP2 PUSH2 0x1446 JUMP JUMPDEST DUP3 MSTORE POP POP JUMP JUMPDEST PUSH1 0x0 PUSH1 0x20 DUP3 ADD SWAP1 POP PUSH2 0x17FB PUSH1 0x0 DUP4 ADD DUP5 PUSH2 0x17D7 JUMP JUMPDEST SWAP3 SWAP2 POP POP JUMP JUMPDEST PUSH32 0x4E487B7100000000000000000000000000000000000000000000000000000000 PUSH1 0x0 MSTORE PUSH1 0x41 PUSH1 0x4 MSTORE PUSH1 0x24 PUSH1 0x0 REVERT JUMPDEST PUSH2 0x1839 DUP3 PUSH2 0x172F JUMP JUMPDEST DUP2 ADD DUP2 DUP2 LT PUSH8 0xFFFFFFFFFFFFFFFF DUP3 GT OR ISZERO PUSH2 0x1858 JUMPI PUSH2 0x1857 PUSH2 0x1801 JUMP JUMPDEST JUMPDEST DUP1 PUSH1 0x40 MSTORE POP POP POP JUMP JUMPDEST PUSH1 0x0 PUSH2 0x186B PUSH2 0x137E JUMP JUMPDEST SWAP1 POP PUSH2 0x1877 DUP3 DUP3 PUSH2 0x1830 JUMP JUMPDEST SWAP2 SWAP1 POP JUMP JUMPDEST PUSH1 0x0 PUSH8 0xFFFFFFFFFFFFFFFF DUP3 GT ISZERO PUSH2 0x1897 JUMPI PUSH2 0x1896 PUSH2 0x1801 JUMP JUMPDEST JUMPDEST PUSH1 0x20 DUP3 MUL SWAP1 POP PUSH1 0x20 DUP2 ADD SWAP1 POP SWAP2 SWAP1 POP JUMP JUMPDEST PUSH1 0x0 PUSH2 0x18BB PUSH2 0x18B6 DUP5 PUSH2 0x187C JUMP JUMPDEST PUSH2 0x1861 JUMP JUMPDEST SWAP1 POP DUP1 DUP4 DUP3 MSTORE PUSH1 0x20 DUP3 ADD SWAP1 POP PUSH1 0x20 DUP5 MUL DUP4 ADD DUP6 DUP2 GT ISZERO PUSH2 0x18DE JUMPI PUSH2 0x18DD PUSH2 0x148E JUMP JUMPDEST JUMPDEST DUP4 JUMPDEST DUP2 DUP2 LT ISZERO PUSH2 0x1907 JUMPI DUP1 PUSH2 0x18F3 DUP9 DUP3 PUSH2 0x146F JUMP JUMPDEST DUP5 MSTORE PUSH1 0x20 DUP5 ADD SWAP4 POP POP PUSH1 0x20 DUP2 ADD SWAP1 POP PUSH2 0x18E0 JUMP JUMPDEST POP POP POP SWAP4 SWAP3 POP POP POP JUMP JUMPDEST PUSH1 0x0 DUP3 PUSH1 0x1F DUP4 ADD SLT PUSH2 0x1926 JUMPI PUSH2 0x1925 PUSH2 0x1484 JUMP JUMPDEST JUMPDEST DUP2 CALLDATALOAD PUSH2 0x1936 DUP5 DUP3 PUSH1 0x20 DUP7 ADD PUSH2 0x18A8 JUMP JUMPDEST SWAP2 POP POP SWAP3 SWAP2 POP POP JUMP JUMPDEST PUSH1 0x0 PUSH8 0xFFFFFFFFFFFFFFFF DUP3 GT ISZERO PUSH2 0x195A JUMPI PUSH2 0x1959 PUSH2 0x1801 JUMP JUMPDEST JUMPDEST PUSH1 0x20 DUP3 MUL SWAP1 POP PUSH1 0x20 DUP2 ADD SWAP1 POP SWAP2 SWAP1 POP JUMP JUMPDEST PUSH1 0x0 DUP1 REVERT JUMPDEST PUSH1 0x0 PUSH8 0xFFFFFFFFFFFFFFFF DUP3 GT ISZERO PUSH2 0x198B JUMPI PUSH2 0x198A PUSH2 0x1801 JUMP JUMPDEST JUMPDEST PUSH2 0x1994 DUP3 PUSH2 0x172F JUMP JUMPDEST SWAP1 POP PUSH1 0x20 DUP2 ADD SWAP1 POP SWAP2 SWAP1 POP JUMP JUMPDEST DUP3 DUP2 DUP4 CALLDATACOPY PUSH1 0x0 DUP4 DUP4 ADD MSTORE POP POP POP JUMP JUMPDEST PUSH1 0x0 PUSH2 0x19C3 PUSH2 0x19BE DUP5 PUSH2 0x1970 JUMP JUMPDEST PUSH2 0x1861 JUMP JUMPDEST SWAP1 POP DUP3 DUP2 MSTORE PUSH1 0x20 DUP2 ADD DUP5 DUP5 DUP5 ADD GT ISZERO PUSH2 0x19DF JUMPI PUSH2 0x19DE PUSH2 0x196B JUMP JUMPDEST JUMPDEST PUSH2 0x19EA DUP5 DUP3 DUP6 PUSH2 0x19A1 JUMP JUMPDEST POP SWAP4 SWAP3 POP POP POP JUMP JUMPDEST PUSH1 0x0 DUP3 PUSH1 0x1F DUP4 ADD SLT PUSH2 0x1A07 JUMPI PUSH2 0x1A06 PUSH2 0x1484 JUMP JUMPDEST JUMPDEST DUP2 CALLDATALOAD PUSH2 0x1A17 DUP5 DUP3 PUSH1 0x20 DUP7 ADD PUSH2 0x19B0 JUMP JUMPDEST SWAP2 POP POP SWAP3 SWAP2 POP POP JUMP JUMPDEST PUSH1 0x0 PUSH2 0x1A33 PUSH2 0x1A2E DUP5 PUSH2 0x193F JUMP JUMPDEST PUSH2 0x1861 JUMP JUMPDEST SWAP1 POP DUP1 DUP4 DUP3 MSTORE PUSH1 0x20 DUP3 ADD SWAP1 POP PUSH1 0x20 DUP5 MUL DUP4 ADD DUP6 DUP2 GT ISZERO PUSH2 0x1A56 JUMPI PUSH2 0x1A55 PUSH2 0x148E JUMP JUMPDEST JUMPDEST DUP4 JUMPDEST DUP2 DUP2 LT ISZERO PUSH2 0x1A9D JUMPI DUP1 CALLDATALOAD PUSH8 0xFFFFFFFFFFFFFFFF DUP2 GT ISZERO PUSH2 0x1A7B JUMPI PUSH2 0x1A7A PUSH2 0x1484 JUMP JUMPDEST JUMPDEST DUP1 DUP7 ADD PUSH2 0x1A88 DUP10 DUP3 PUSH2 0x19F2 JUMP JUMPDEST DUP6 MSTORE PUSH1 0x20 DUP6 ADD SWAP5 POP POP POP PUSH1 0x20 DUP2 ADD SWAP1 POP PUSH2 0x1A58 JUMP JUMPDEST POP POP POP SWAP4 SWAP3 POP POP POP JUMP JUMPDEST PUSH1 0x0 DUP3 PUSH1 0x1F DUP4 ADD SLT PUSH2 0x1ABC JUMPI PUSH2 0x1ABB PUSH2 0x1484 JUMP JUMPDEST JUMPDEST DUP2 CALLDATALOAD PUSH2 0x1ACC DUP5 DUP3 PUSH1 0x20 DUP7 ADD PUSH2 0x1A20 JUMP JUMPDEST SWAP2 POP POP SWAP3 SWAP2 POP POP JUMP JUMPDEST PUSH1 0x0 DUP1 PUSH1 0x0 DUP1 PUSH1 0x80 DUP6 DUP8 SUB SLT ISZERO PUSH2 0x1AEF JUMPI PUSH2 0x1AEE PUSH2 0x1388 JUMP JUMPDEST JUMPDEST PUSH1 0x0 PUSH2 0x1AFD DUP8 DUP3 DUP9 ADD PUSH2 0x13F1 JUMP JUMPDEST SWAP5 POP POP PUSH1 0x20 PUSH2 0x1B0E DUP8 DUP3 DUP9 ADD PUSH2 0x13F1 JUMP JUMPDEST SWAP4 POP POP PUSH1 0x40 DUP6 ADD CALLDATALOAD PUSH8 0xFFFFFFFFFFFFFFFF DUP2 GT ISZERO PUSH2 0x1B2F JUMPI PUSH2 0x1B2E PUSH2 0x138D JUMP JUMPDEST JUMPDEST PUSH2 0x1B3B DUP8 DUP3 DUP9 ADD PUSH2 0x1911 JUMP JUMPDEST SWAP3 POP POP PUSH1 0x60 DUP6 ADD CALLDATALOAD PUSH8 0xFFFFFFFFFFFFFFFF DUP2 GT ISZERO PUSH2 0x1B5C JUMPI PUSH2 0x1B5B PUSH2 0x138D JUMP JUMPDEST JUMPDEST PUSH2 0x1B68 DUP8 DUP3 DUP9 ADD PUSH2 0x1AA7 JUMP JUMPDEST SWAP2 POP POP SWAP3 SWAP6 SWAP2 SWAP5 POP SWAP3 POP JUMP JUMPDEST PUSH1 0x0 DUP1 PUSH1 0x0 PUSH1 0x60 DUP5 DUP7 SUB SLT ISZERO PUSH2 0x1B8D JUMPI PUSH2 0x1B8C PUSH2 0x1388 JUMP JUMPDEST JUMPDEST PUSH1 0x0 PUSH2 0x1B9B DUP7 DUP3 DUP8 ADD PUSH2 0x146F JUMP JUMPDEST SWAP4 POP POP PUSH1 0x20 PUSH2 0x1BAC DUP7 DUP3 DUP8 ADD PUSH2 0x146F JUMP JUMPDEST SWAP3 POP POP PUSH1 0x40 PUSH2 0x1BBD DUP7 DUP3 DUP8 ADD PUSH2 0x13F1 JUMP JUMPDEST SWAP2 POP POP SWAP3 POP SWAP3 POP SWAP3 JUMP JUMPDEST PUSH1 0x0 DUP3 DUP3 MSTORE PUSH1 0x20 DUP3 ADD SWAP1 POP SWAP3 SWAP2 POP POP JUMP JUMPDEST PUSH32 0x526563697069656E7420616464726573732063616E6E6F74206265207A65726F PUSH1 0x0 DUP3 ADD MSTORE POP JUMP JUMPDEST PUSH1 0x0 PUSH2 0x1C0E PUSH1 0x20 DUP4 PUSH2 0x1BC7 JUMP JUMPDEST SWAP2 POP PUSH2 0x1C19 DUP3 PUSH2 0x1BD8 JUMP JUMPDEST PUSH1 0x20 DUP3 ADD SWAP1 POP SWAP2 SWAP1 POP JUMP JUMPDEST PUSH1 0x0 PUSH1 0x20 DUP3 ADD SWAP1 POP DUP2 DUP2 SUB PUSH1 0x0 DUP4 ADD MSTORE PUSH2 0x1C3D DUP2 PUSH2 0x1C01 JUMP JUMPDEST SWAP1 POP SWAP2 SWAP1 POP JUMP JUMPDEST PUSH32 0x416D6F756E74206D7573742062652067726561746572207468616E207A65726F PUSH1 0x0 DUP3 ADD MSTORE POP JUMP JUMPDEST PUSH1 0x0 PUSH2 0x1C7A PUSH1 0x20 DUP4 PUSH2 0x1BC7 JUMP JUMPDEST SWAP2 POP PUSH2 0x1C85 DUP3 PUSH2 0x1C44 JUMP JUMPDEST PUSH1 0x20 DUP3 ADD SWAP1 POP SWAP2 SWAP1 POP JUMP JUMPDEST PUSH1 0x0 PUSH1 0x20 DUP3 ADD SWAP1 POP DUP2 DUP2 SUB PUSH1 0x0 DUP4 ADD MSTORE PUSH2 0x1CA9 DUP2 PUSH2 0x1C6D JUMP JUMPDEST SWAP1 POP SWAP2 SWAP1 POP JUMP JUMPDEST PUSH32 0x496E73756666696369656E7420636F6E74726163742062616C616E6365000000 PUSH1 0x0 DUP3 ADD MSTORE POP JUMP JUMPDEST PUSH1 0x0 PUSH2 0x1CE6 PUSH1 0x1D DUP4 PUSH2 0x1BC7 JUMP JUMPDEST SWAP2 POP PUSH2 0x1CF1 DUP3 PUSH2 0x1CB0 JUMP JUMPDEST PUSH1 0x20 DUP3 ADD SWAP1 POP SWAP2 SWAP1 POP JUMP JUMPDEST PUSH1 0x0 PUSH1 0x20 DUP3 ADD SWAP1 POP DUP2 DUP2 SUB PUSH1 0x0 DUP4 ADD MSTORE PUSH2 0x1D15 DUP2 PUSH2 0x1CD9 JUMP JUMPDEST SWAP1 POP SWAP2 SWAP1 POP JUMP JUMPDEST PUSH1 0x0 DUP2 SWAP1 POP SWAP3 SWAP2 POP POP JUMP JUMPDEST POP JUMP JUMPDEST PUSH1 0x0 PUSH2 0x1D37 PUSH1 0x0 DUP4 PUSH2 0x1D1C JUMP JUMPDEST SWAP2 POP PUSH2 0x1D42 DUP3 PUSH2 0x1D27 JUMP JUMPDEST PUSH1 0x0 DUP3 ADD SWAP1 POP SWAP2 SWAP1 POP JUMP JUMPDEST PUSH1 0x0 PUSH2 0x1D58 DUP3 PUSH2 0x1D2A JUMP JUMPDEST SWAP2 POP DUP2 SWAP1 POP SWAP2 SWAP1 POP JUMP JUMPDEST PUSH32 0x4661696C656420746F2073656E64204574686572000000000000000000000000 PUSH1 0x0 DUP3 ADD MSTORE POP JUMP JUMPDEST PUSH1 0x0 PUSH2 0x1D98 PUSH1 0x14 DUP4 PUSH2 0x1BC7 JUMP JUMPDEST SWAP2 POP PUSH2 0x1DA3 DUP3 PUSH2 0x1D62 JUMP JUMPDEST PUSH1 0x20 DUP3 ADD SWAP1 POP SWAP2 SWAP1 POP JUMP JUMPDEST PUSH1 0x0 PUSH1 0x20 DUP3 ADD SWAP1 POP DUP2 DUP2 SUB PUSH1 0x0 DUP4 ADD MSTORE PUSH2 0x1DC7 DUP2 PUSH2 0x1D8B JUMP JUMPDEST SWAP1 POP SWAP2 SWAP1 POP JUMP JUMPDEST PUSH32 0x556E617574686F72697A656420696E69746961746F7200000000000000000000 PUSH1 0x0 DUP3 ADD MSTORE POP JUMP JUMPDEST PUSH1 0x0 PUSH2 0x1E04 PUSH1 0x16 DUP4 PUSH2 0x1BC7 JUMP JUMPDEST SWAP2 POP PUSH2 0x1E0F DUP3 PUSH2 0x1DCE JUMP JUMPDEST PUSH1 0x20 DUP3 ADD SWAP1 POP SWAP2 SWAP1 POP JUMP JUMPDEST PUSH1 0x0 PUSH1 0x20 DUP3 ADD SWAP1 POP DUP2 DUP2 SUB PUSH1 0x0 DUP4 ADD MSTORE PUSH2 0x1E33 DUP2 PUSH2 0x1DF7 JUMP JUMPDEST SWAP1 POP SWAP2 SWAP1 POP JUMP JUMPDEST PUSH32 0x4E487B7100000000000000000000000000000000000000000000000000000000 PUSH1 0x0 MSTORE PUSH1 0x11 PUSH1 0x4 MSTORE PUSH1 0x24 PUSH1 0x0 REVERT JUMPDEST PUSH1 0x0 PUSH2 0x1E74 DUP3 PUSH2 0x13D0 JUMP JUMPDEST SWAP2 POP PUSH2 0x1E7F DUP4 PUSH2 0x13D0 JUMP JUMPDEST SWAP3 POP DUP3 PUSH32 0xFFFFFFFFFFFFFFFFFFFFFFFFFFFFFFFFFFFFFFFFFFFFFFFFFFFFFFFFFFFFFFFF SUB DUP3 GT ISZERO PUSH2 0x1EB4 JUMPI PUSH2 0x1EB3 PUSH2 0x1E3A JUMP JUMPDEST JUMPDEST DUP3 DUP3 ADD SWAP1 POP SWAP3 SWAP2 POP POP JUMP JUMPDEST PUSH1 0x0 DUP1 PUSH1 0x0 DUP1 PUSH1 0x0 PUSH1 0xA0 DUP7 DUP9 SUB SLT ISZERO PUSH2 0x1EDB JUMPI PUSH2 0x1EDA PUSH2 0x1388 JUMP JUMPDEST JUMPDEST PUSH1 0x0 PUSH2 0x1EE9 DUP9 DUP3 DUP10 ADD PUSH2 0x13F1 JUMP JUMPDEST SWAP6 POP POP PUSH1 0x20 PUSH2 0x1EFA DUP9 DUP3 DUP10 ADD PUSH2 0x13F1 JUMP JUMPDEST SWAP5 POP POP PUSH1 0x40 PUSH2 0x1F0B DUP9 DUP3 DUP10 ADD PUSH2 0x13F1 JUMP JUMPDEST SWAP4 POP POP PUSH1 0x60 DUP7 ADD CALLDATALOAD PUSH8 0xFFFFFFFFFFFFFFFF DUP2 GT ISZERO PUSH2 0x1F2C JUMPI PUSH2 0x1F2B PUSH2 0x138D JUMP JUMPDEST JUMPDEST PUSH2 0x1F38 DUP9 DUP3 DUP10 ADD PUSH2 0x1911 JUMP JUMPDEST SWAP3 POP POP PUSH1 0x80 DUP7 ADD CALLDATALOAD PUSH8 0xFFFFFFFFFFFFFFFF DUP2 GT ISZERO PUSH2 0x1F59 JUMPI PUSH2 0x1F58 PUSH2 0x138D JUMP JUMPDEST JUMPDEST PUSH2 0x1F65 DUP9 DUP3 DUP10 ADD PUSH2 0x1AA7 JUMP JUMPDEST SWAP2 POP POP SWAP3 SWAP6 POP SWAP3 SWAP6 SWAP1 SWAP4 POP JUMP JUMPDEST PUSH1 0x0 DUP2 MLOAD SWAP1 POP PUSH2 0x1F81 DUP2 PUSH2 0x13DA JUMP JUMPDEST SWAP3 SWAP2 POP POP JUMP JUMPDEST PUSH1 0x0 PUSH1 0x20 DUP3 DUP5 SUB SLT ISZERO PUSH2 0x1F9D JUMPI PUSH2 0x1F9C PUSH2 0x1388 JUMP JUMPDEST JUMPDEST PUSH1 0x0 PUSH2 0x1FAB DUP5 DUP3 DUP6 ADD PUSH2 0x1F72 JUMP JUMPDEST SWAP2 POP POP SWAP3 SWAP2 POP POP JUMP JUMPDEST PUSH1 0x0 PUSH1 0x40 DUP3 ADD SWAP1 POP PUSH2 0x1FC9 PUSH1 0x0 DUP4 ADD DUP6 PUSH2 0x17D7 JUMP JUMPDEST PUSH2 0x1FD6 PUSH1 0x20 DUP4 ADD DUP5 PUSH2 0x15E6 JUMP JUMPDEST SWAP4 SWAP3 POP POP POP JUMP JUMPDEST PUSH2 0x1FE6 DUP2 PUSH2 0x1583 JUMP JUMPDEST DUP2 EQ PUSH2 0x1FF1 JUMPI PUSH1 0x0 DUP1 REVERT JUMPDEST POP JUMP JUMPDEST PUSH1 0x0 DUP2 MLOAD SWAP1 POP PUSH2 0x2003 DUP2 PUSH2 0x1FDD JUMP JUMPDEST SWAP3 SWAP2 POP POP JUMP JUMPDEST PUSH1 0x0 PUSH1 0x20 DUP3 DUP5 SUB SLT ISZERO PUSH2 0x201F JUMPI PUSH2 0x201E PUSH2 0x1388 JUMP JUMPDEST JUMPDEST PUSH1 0x0 PUSH2 0x202D DUP5 DUP3 DUP6 ADD PUSH2 0x1FF4 JUMP JUMPDEST SWAP2 POP POP SWAP3 SWAP2 POP POP JUMP JUMPDEST PUSH1 0x0 PUSH14 0xFFFFFFFFFFFFFFFFFFFFFFFFFFFF DUP3 AND SWAP1 POP SWAP2 SWAP1 POP JUMP JUMPDEST PUSH2 0x2059 DUP2 PUSH2 0x2036 JUMP JUMPDEST DUP2 EQ PUSH2 0x2064 JUMPI PUSH1 0x0 DUP1 REVERT JUMPDEST POP JUMP JUMPDEST PUSH1 0x0 DUP2 MLOAD SWAP1 POP PUSH2 0x2076 DUP2 PUSH2 0x2050 JUMP JUMPDEST SWAP3 SWAP2 POP POP JUMP JUMPDEST PUSH1 0x0 PUSH4 0xFFFFFFFF DUP3 AND SWAP1 POP SWAP2 SWAP1 POP JUMP JUMPDEST PUSH2 0x2095 DUP2 PUSH2 0x207C JUMP JUMPDEST DUP2 EQ PUSH2 0x20A0 JUMPI PUSH1 0x0 DUP1 REVERT JUMPDEST POP JUMP JUMPDEST PUSH1 0x0 DUP2 MLOAD SWAP1 POP PUSH2 0x20B2 DUP2 PUSH2 0x208C JUMP JUMPDEST SWAP3 SWAP2 POP POP JUMP JUMPDEST PUSH1 0x0 DUP1 PUSH1 0x0 PUSH1 0x60 DUP5 DUP7 SUB SLT ISZERO PUSH2 0x20D1 JUMPI PUSH2 0x20D0 PUSH2 0x1388 JUMP JUMPDEST JUMPDEST PUSH1 0x0 PUSH2 0x20DF DUP7 DUP3 DUP8 ADD PUSH2 0x2067 JUMP JUMPDEST SWAP4 POP POP PUSH1 0x20 PUSH2 0x20F0 DUP7 DUP3 DUP8 ADD PUSH2 0x2067 JUMP JUMPDEST SWAP3 POP POP PUSH1 0x40 PUSH2 0x2101 DUP7 DUP3 DUP8 ADD PUSH2 0x20A3 JUMP JUMPDEST SWAP2 POP POP SWAP3 POP SWAP3 POP SWAP3 JUMP JUMPDEST PUSH32 0x496E73756666696369656E7420746F6B656E2062616C616E6365000000000000 PUSH1 0x0 DUP3 ADD MSTORE POP JUMP JUMPDEST PUSH1 0x0 PUSH2 0x2141 PUSH1 0x1A DUP4 PUSH2 0x1BC7 JUMP JUMPDEST SWAP2 POP PUSH2 0x214C DUP3 PUSH2 0x210B JUMP JUMPDEST PUSH1 0x20 DUP3 ADD SWAP1 POP SWAP2 SWAP1 POP JUMP JUMPDEST PUSH1 0x0 PUSH1 0x20 DUP3 ADD SWAP1 POP DUP2 DUP2 SUB PUSH1 0x0 DUP4 ADD MSTORE PUSH2 0x2170 DUP2 PUSH2 0x2134 JUMP JUMPDEST SWAP1 POP SWAP2 SWAP1 POP JUMP JUMPDEST PUSH1 0x0 PUSH1 0x60 DUP3 ADD SWAP1 POP PUSH2 0x218C PUSH1 0x0 DUP4 ADD DUP7 PUSH2 0x17D7 JUMP JUMPDEST PUSH2 0x2199 PUSH1 0x20 DUP4 ADD DUP6 PUSH2 0x17D7 JUMP JUMPDEST PUSH2 0x21A6 PUSH1 0x40 DUP4 ADD DUP5 PUSH2 0x15E6 JUMP JUMPDEST SWAP5 SWAP4 POP POP POP POP JUMP JUMPDEST PUSH32 0x546F6B656E207472616E73666572206661696C65640000000000000000000000 PUSH1 0x0 DUP3 ADD MSTORE POP JUMP JUMPDEST PUSH1 0x0 PUSH2 0x21E4 PUSH1 0x15 DUP4 PUSH2 0x1BC7 JUMP JUMPDEST SWAP2 POP PUSH2 0x21EF DUP3 PUSH2 0x21AE JUMP JUMPDEST PUSH1 0x20 DUP3 ADD SWAP1 POP SWAP2 SWAP1 POP JUMP JUMPDEST PUSH1 0x0 PUSH1 0x20 DUP3 ADD SWAP1 POP DUP2 DUP2 SUB PUSH1 0x0 DUP4 ADD MSTORE PUSH2 0x2213 DUP2 PUSH2 0x21D7 JUMP JUMPDEST SWAP1 POP SWAP2 SWAP1 POP JUMP JUMPDEST PUSH1 0x0 PUSH2 0x2226 DUP4 DUP6 PUSH2 0x1D1C JUMP JUMPDEST SWAP4 POP PUSH2 0x2233 DUP4 DUP6 DUP5 PUSH2 0x19A1 JUMP JUMPDEST DUP3 DUP5 ADD SWAP1 POP SWAP4 SWAP3 POP POP POP JUMP JUMPDEST PUSH1 0x0 PUSH2 0x224C DUP3 DUP5 DUP7 PUSH2 0x221A JUMP JUMPDEST SWAP2 POP DUP2 SWAP1 POP SWAP4 SWAP3 POP POP POP JUMP JUMPDEST PUSH32 0x43616C6C20657865637574696F6E206661696C65640000000000000000000000 PUSH1 0x0 DUP3 ADD MSTORE POP JUMP JUMPDEST PUSH1 0x0 PUSH2 0x228E PUSH1 0x15 DUP4 PUSH2 0x1BC7 JUMP JUMPDEST SWAP2 POP PUSH2 0x2299 DUP3 PUSH2 0x2258 JUMP JUMPDEST PUSH1 0x20 DUP3 ADD SWAP1 POP SWAP2 SWAP1 POP JUMP JUMPDEST PUSH1 0x0 PUSH1 0x20 DUP3 ADD SWAP1 POP DUP2 DUP2 SUB PUSH1 0x0 DUP4 ADD MSTORE PUSH2 0x22BD DUP2 PUSH2 0x2281 JUMP JUMPDEST SWAP1 POP SWAP2 SWAP1 POP JUMP JUMPDEST PUSH1 0x0 PUSH2 0x22CF DUP3 PUSH2 0x13D0 JUMP JUMPDEST SWAP2 POP PUSH2 0x22DA DUP4 PUSH2 0x13D0 JUMP JUMPDEST SWAP3 POP DUP3 DUP3 LT ISZERO PUSH2 0x22ED JUMPI PUSH2 0x22EC PUSH2 0x1E3A JUMP JUMPDEST JUMPDEST DUP3 DUP3 SUB SWAP1 POP SWAP3 SWAP2 POP POP JUMP JUMPDEST PUSH1 0x0 DUP2 MLOAD SWAP1 POP SWAP2 SWAP1 POP JUMP JUMPDEST PUSH1 0x0 DUP3 DUP3 MSTORE PUSH1 0x20 DUP3 ADD SWAP1 POP SWAP3 SWAP2 POP POP JUMP JUMPDEST PUSH1 0x0 DUP2 SWAP1 POP PUSH1 0x20 DUP3 ADD SWAP1 POP SWAP2 SWAP1 POP JUMP JUMPDEST PUSH2 0x232D DUP2 PUSH2 0x1446 JUMP JUMPDEST DUP3 MSTORE POP POP JUMP JUMPDEST PUSH1 0x0 PUSH2 0x233F DUP4 DUP4 PUSH2 0x2324 JUMP JUMPDEST PUSH1 0x20 DUP4 ADD SWAP1 POP SWAP3 SWAP2 POP POP JUMP JUMPDEST PUSH1 0x0 PUSH1 0x20 DUP3 ADD SWAP1 POP SWAP2 SWAP1 POP JUMP JUMPDEST PUSH1 0x0 PUSH2 0x2363 DUP3 PUSH2 0x22F8 JUMP JUMPDEST PUSH2 0x236D DUP2 DUP6 PUSH2 0x2303 JUMP JUMPDEST SWAP4 POP PUSH2 0x2378 DUP4 PUSH2 0x2314 JUMP JUMPDEST DUP1 PUSH1 0x0 JUMPDEST DUP4 DUP2 LT ISZERO PUSH2 0x23A9 JUMPI DUP2 MLOAD PUSH2 0x2390 DUP9 DUP3 PUSH2 0x2333 JUMP JUMPDEST SWAP8 POP PUSH2 0x239B DUP4 PUSH2 0x234B JUMP JUMPDEST SWAP3 POP POP PUSH1 0x1 DUP2 ADD SWAP1 POP PUSH2 0x237C JUMP JUMPDEST POP DUP6 SWAP4 POP POP POP POP SWAP3 SWAP2 POP POP JUMP JUMPDEST PUSH1 0x0 DUP2 MLOAD SWAP1 POP SWAP2 SWAP1 POP JUMP JUMPDEST PUSH1 0x0 DUP3 DUP3 MSTORE PUSH1 0x20 DUP3 ADD SWAP1 POP SWAP3 SWAP2 POP POP JUMP JUMPDEST PUSH1 0x0 DUP2 SWAP1 POP PUSH1 0x20 DUP3 ADD SWAP1 POP SWAP2 SWAP1 POP JUMP JUMPDEST PUSH1 0x0 DUP3 DUP3 MSTORE PUSH1 0x20 DUP3 ADD SWAP1 POP SWAP3 SWAP2 POP POP JUMP JUMPDEST PUSH1 0x0 PUSH2 0x23FE DUP3 PUSH2 0x16E0 JUMP JUMPDEST PUSH2 0x2408 DUP2 DUP6 PUSH2 0x23E2 JUMP JUMPDEST SWAP4 POP PUSH2 0x2418 DUP2 DUP6 PUSH1 0x20 DUP7 ADD PUSH2 0x16FC JUMP JUMPDEST PUSH2 0x2421 DUP2 PUSH2 0x172F JUMP JUMPDEST DUP5 ADD SWAP2 POP POP SWAP3 SWAP2 POP POP JUMP JUMPDEST PUSH1 0x0 PUSH2 0x2438 DUP4 DUP4 PUSH2 0x23F3 JUMP JUMPDEST SWAP1 POP SWAP3 SWAP2 POP POP JUMP JUMPDEST PUSH1 0x0 PUSH1 0x20 DUP3 ADD SWAP1 POP SWAP2 SWAP1 POP JUMP JUMPDEST PUSH1 0x0 PUSH2 0x2458 DUP3 PUSH2 0x23B6 JUMP JUMPDEST PUSH2 0x2462 DUP2 DUP6 PUSH2 0x23C1 JUMP JUMPDEST SWAP4 POP DUP4 PUSH1 0x20 DUP3 MUL DUP6 ADD PUSH2 0x2474 DUP6 PUSH2 0x23D2 JUMP JUMPDEST DUP1 PUSH1 0x0 JUMPDEST DUP6 DUP2 LT ISZERO PUSH2 0x24B0 JUMPI DUP5 DUP5 SUB DUP10 MSTORE DUP2 MLOAD PUSH2 0x2491 DUP6 DUP3 PUSH2 0x242C JUMP JUMPDEST SWAP5 POP PUSH2 0x249C DUP4 PUSH2 0x2440 JUMP JUMPDEST SWAP3 POP PUSH1 0x20 DUP11 ADD SWAP10 POP POP PUSH1 0x1 DUP2 ADD SWAP1 POP PUSH2 0x2478 JUMP JUMPDEST POP DUP3 SWAP8 POP DUP8 SWAP6 POP POP POP POP POP POP SWAP3 SWAP2 POP POP JUMP JUMPDEST PUSH1 0x0 PUSH1 0xA0 DUP3 ADD SWAP1 POP PUSH2 0x24D7 PUSH1 0x0 DUP4 ADD DUP9 PUSH2 0x15E6 JUMP JUMPDEST PUSH2 0x24E4 PUSH1 0x20 DUP4 ADD DUP8 PUSH2 0x15E6 JUMP JUMPDEST PUSH2 0x24F1 PUSH1 0x40 DUP4 ADD DUP7 PUSH2 0x15E6 JUMP JUMPDEST DUP2 DUP2 SUB PUSH1 0x60 DUP4 ADD MSTORE PUSH2 0x2503 DUP2 DUP6 PUSH2 0x2358 JUMP JUMPDEST SWAP1 POP DUP2 DUP2 SUB PUSH1 0x80 DUP4 ADD MSTORE PUSH2 0x2517 DUP2 DUP5 PUSH2 0x244D JUMP JUMPDEST SWAP1 POP SWAP7 SWAP6 POP POP POP POP POP POP JUMP JUMPDEST PUSH32 0x4F776E61626C653A20696E76616C6964206E6577206F776E6572206164647265 PUSH1 0x0 DUP3 ADD MSTORE PUSH32 0x7373000000000000000000000000000000000000000000000000000000000000 PUSH1 0x20 DUP3 ADD MSTORE POP JUMP JUMPDEST PUSH1 0x0 PUSH2 0x257F PUSH1 0x22 DUP4 PUSH2 0x1BC7 JUMP JUMPDEST SWAP2 POP PUSH2 0x258A DUP3 PUSH2 0x2523 JUMP JUMPDEST PUSH1 0x40 DUP3 ADD SWAP1 POP SWAP2 SWAP1 POP JUMP JUMPDEST PUSH1 0x0 PUSH1 0x20 DUP3 ADD SWAP1 POP DUP2 DUP2 SUB PUSH1 0x0 DUP4 ADD MSTORE PUSH2 0x25AE DUP2 PUSH2 0x2572 JUMP JUMPDEST SWAP1 POP SWAP2 SWAP1 POP JUMP JUMPDEST PUSH32 0x4F776E61626C653A2063616C6C6572206973206E6F7420746865206F776E6572 PUSH1 0x0 DUP3 ADD MSTORE POP JUMP JUMPDEST PUSH1 0x0 PUSH2 0x25EB PUSH1 0x20 DUP4 PUSH2 0x1BC7 JUMP JUMPDEST SWAP2 POP PUSH2 0x25F6 DUP3 PUSH2 0x25B5 JUMP JUMPDEST PUSH1 0x20 DUP3 ADD SWAP1 POP SWAP2 SWAP1 POP JUMP JUMPDEST PUSH1 0x0 PUSH1 0x20 DUP3 ADD SWAP1 POP DUP2 DUP2 SUB PUSH1 0x0 DUP4 ADD MSTORE PUSH2 0x261A DUP2 PUSH2 0x25DE JUMP JUMPDEST SWAP1 POP SWAP2 SWAP1 POP JUMP JUMPDEST PUSH32 0x4E487B7100000000000000000000000000000000000000000000000000000000 PUSH1 0x0 MSTORE PUSH1 0x32 PUSH1 0x4 MSTORE PUSH1 0x24 PUSH1 0x0 REVERT JUMPDEST PUSH1 0x0 PUSH2 0x265B DUP3 PUSH2 0x16E0 JUMP JUMPDEST PUSH2 0x2665 DUP2 DUP6 PUSH2 0x1D1C JUMP JUMPDEST SWAP4 POP PUSH2 0x2675 DUP2 DUP6 PUSH1 0x20 DUP7 ADD PUSH2 0x16FC JUMP JUMPDEST DUP1 DUP5 ADD SWAP2 POP POP SWAP3 SWAP2 POP POP JUMP JUMPDEST PUSH1 0x0 PUSH2 0x268D DUP3 DUP5 PUSH2 0x2650 JUMP JUMPDEST SWAP2 POP DUP2 SWAP1 POP SWAP3 SWAP2 POP POP JUMP JUMPDEST PUSH32 0x537761702043616C6C206661696C656400000000000000000000000000000000 PUSH1 0x0 DUP3 ADD MSTORE POP JUMP JUMPDEST PUSH1 0x0 PUSH2 0x26CE PUSH1 0x10 DUP4 PUSH2 0x1BC7 JUMP JUMPDEST SWAP2 POP PUSH2 0x26D9 DUP3 PUSH2 0x2698 JUMP JUMPDEST PUSH1 0x20 DUP3 ADD SWAP1 POP SWAP2 SWAP1 POP JUMP JUMPDEST PUSH1 0x0 PUSH1 0x20 DUP3 ADD SWAP1 POP DUP2 DUP2 SUB PUSH1 0x0 DUP4 ADD MSTORE PUSH2 0x26FD DUP2 PUSH2 0x26C1 JUMP JUMPDEST SWAP1 POP SWAP2 SWAP1 POP JUMP JUMPDEST PUSH1 0x0 PUSH2 0x270F DUP3 PUSH2 0x13D0 JUMP JUMPDEST SWAP2 POP PUSH32 0xFFFFFFFFFFFFFFFFFFFFFFFFFFFFFFFFFFFFFFFFFFFFFFFFFFFFFFFFFFFFFFFF DUP3 EQ ISZERO PUSH2 0x2742 JUMPI PUSH2 0x2741 PUSH2 0x1E3A JUMP JUMPDEST JUMPDEST PUSH1 0x1 DUP3 ADD SWAP1 POP SWAP2 SWAP1 POP JUMP JUMPDEST PUSH1 0x0 PUSH1 0x20 DUP3 ADD SWAP1 POP PUSH2 0x2762 PUSH1 0x0 DUP4 ADD DUP5 PUSH2 0x15E6 JUMP JUMPDEST SWAP3 SWAP2 POP POP JUMP JUMPDEST PUSH1 0x0 PUSH2 0xFFFF DUP3 AND SWAP1 POP SWAP2 SWAP1 POP JUMP JUMPDEST PUSH2 0x277F DUP2 PUSH2 0x2768 JUMP JUMPDEST DUP3 MSTORE POP POP JUMP JUMPDEST PUSH1 0x0 PUSH1 0xA0 DUP3 ADD SWAP1 POP PUSH2 0x279A PUSH1 0x0 DUP4 ADD DUP9 PUSH2 0x17D7 JUMP JUMPDEST PUSH2 0x27A7 PUSH1 0x20 DUP4 ADD DUP8 PUSH2 0x17D7 JUMP JUMPDEST PUSH2 0x27B4 PUSH1 0x40 DUP4 ADD DUP7 PUSH2 0x15E6 JUMP JUMPDEST DUP2 DUP2 SUB PUSH1 0x60 DUP4 ADD MSTORE PUSH2 0x27C6 DUP2 DUP6 PUSH2 0x1740 JUMP JUMPDEST SWAP1 POP PUSH2 0x27D5 PUSH1 0x80 DUP4 ADD DUP5 PUSH2 0x2776 JUMP JUMPDEST SWAP7 SWAP6 POP POP POP POP POP POP JUMP INVALID LOG2 PUSH5 0x6970667358 0x22 SLT KECCAK256 0xAA 0xD3 PUSH24 0x4F32ABB791E9A955C9ADCE6709D8AB4DD665ABA7562B4271 DUP3 MSTORE OR GT 0x5E PUSH5 0x736F6C6343 STOP ADDMOD EXP STOP CALLER "
				},
				"gasEstimates": {
					"creation": {
						"codeDepositCost": "2052200",
						"executionCost": "infinite",
						"totalCost": "infinite"
					},
					"external": {
						"ADDRESSES_PROVIDER()": "infinite",
						"POOL()": "infinite",
						"call(address,uint256,bytes)": "infinite",
						"executeOperation(address,uint256,uint256,address,bytes)": "infinite",
						"getReservesByPair(address)": "infinite",
						"owner()": "2566",
						"receiveTokens(address,uint256)": "infinite",
						"renounceOwnership()": "30398",
						"transferEther(address,uint256)": "infinite",
						"transferOwnership(address)": "30835",
						"transferToken(address,address,uint256)": "infinite",
						"uniswapWeth(uint256,uint256,address[],bytes[])": "infinite"
					},
					"internal": {
						"_executeTargets(uint256,address[] memory,bytes memory[] memory)": "infinite",
						"_settleEth(uint256)": "infinite",
						"fn_RequestFlashLoan(address,uint256,bytes memory)": "infinite"
					}
				},
				"methodIdentifiers": {
					"ADDRESSES_PROVIDER()": "0542975c",
					"POOL()": "7535d246",
					"call(address,uint256,bytes)": "6dbf2fa0",
					"executeOperation(address,uint256,uint256,address,bytes)": "1b11d0ff",
					"getReservesByPair(address)": "2fefb2be",
					"owner()": "8da5cb5b",
					"receiveTokens(address,uint256)": "35729130",
					"renounceOwnership()": "715018a6",
					"transferEther(address,uint256)": "05b1137b",
					"transferOwnership(address)": "f2fde38b",
					"transferToken(address,address,uint256)": "f5537ede",
					"uniswapWeth(uint256,uint256,address[],bytes[])": "ecd494b3"
				}
			},
			"storageLayout": {
				"storage": [
					{
						"astId": 617,
						"contract": "my-contracts/BundleExecutor.sol:UniArbMultiCall",
						"label": "_owner",
						"offset": 0,
						"slot": "0",
						"type": "t_address"
					}
				],
				"types": {
					"t_address": {
						"encoding": "inplace",
						"label": "address",
						"numberOfBytes": "20"
					}
				}
			},
			"userdoc": {
				"kind": "user",
				"methods": {
					"executeOperation(address,uint256,uint256,address,bytes)": {
						"notice": "Executes an operation after receiving the flash-borrowed asset"
					}
				},
				"version": 1
			}
		}
	}
}